{
  "_format": "hh-sol-artifact-1",
  "contractName": "KIPNode",
  "sourceName": "contracts/KIPNode.sol",
  "abi": [
    {
      "inputs": [
        {
          "internalType": "address",
          "name": "initialOwner",
          "type": "address"
        },
        {
          "internalType": "address",
          "name": "paymentToken_",
          "type": "address"
        }
      ],
      "stateMutability": "nonpayable",
      "type": "constructor"
    },
    {
      "inputs": [
        {
          "internalType": "address",
          "name": "target",
          "type": "address"
        }
      ],
      "name": "AddressEmptyCode",
      "type": "error"
    },
    {
      "inputs": [
        {
          "internalType": "address",
          "name": "account",
          "type": "address"
        }
      ],
      "name": "AddressInsufficientBalance",
      "type": "error"
    },
    {
      "inputs": [
        {
          "internalType": "address",
          "name": "sender",
          "type": "address"
        },
        {
          "internalType": "uint256",
          "name": "tokenId",
          "type": "uint256"
        },
        {
          "internalType": "address",
          "name": "owner",
          "type": "address"
        }
      ],
      "name": "ERC721IncorrectOwner",
      "type": "error"
    },
    {
      "inputs": [
        {
          "internalType": "address",
          "name": "operator",
          "type": "address"
        },
        {
          "internalType": "uint256",
          "name": "tokenId",
          "type": "uint256"
        }
      ],
      "name": "ERC721InsufficientApproval",
      "type": "error"
    },
    {
      "inputs": [
        {
          "internalType": "address",
          "name": "approver",
          "type": "address"
        }
      ],
      "name": "ERC721InvalidApprover",
      "type": "error"
    },
    {
      "inputs": [
        {
          "internalType": "address",
          "name": "operator",
          "type": "address"
        }
      ],
      "name": "ERC721InvalidOperator",
      "type": "error"
    },
    {
      "inputs": [
        {
          "internalType": "address",
          "name": "owner",
          "type": "address"
        }
      ],
      "name": "ERC721InvalidOwner",
      "type": "error"
    },
    {
      "inputs": [
        {
          "internalType": "address",
          "name": "receiver",
          "type": "address"
        }
      ],
      "name": "ERC721InvalidReceiver",
      "type": "error"
    },
    {
      "inputs": [
        {
          "internalType": "address",
          "name": "sender",
          "type": "address"
        }
      ],
      "name": "ERC721InvalidSender",
      "type": "error"
    },
    {
      "inputs": [
        {
          "internalType": "uint256",
          "name": "tokenId",
          "type": "uint256"
        }
      ],
      "name": "ERC721NonexistentToken",
      "type": "error"
    },
    {
      "inputs": [],
      "name": "ExceedAllowance",
      "type": "error"
    },
    {
      "inputs": [],
      "name": "FailedInnerCall",
      "type": "error"
    },
    {
      "inputs": [
        {
          "internalType": "uint256",
          "name": "minTier",
          "type": "uint256"
        },
        {
          "internalType": "uint256",
          "name": "maxTier",
          "type": "uint256"
        }
      ],
      "name": "InvalidConfig",
      "type": "error"
    },
    {
      "inputs": [],
      "name": "InvalidProof",
      "type": "error"
    },
    {
      "inputs": [],
      "name": "InvalidRequest",
      "type": "error"
    },
    {
      "inputs": [],
      "name": "InvalidURI",
      "type": "error"
    },
    {
      "inputs": [
        {
          "internalType": "address",
          "name": "owner",
          "type": "address"
        }
      ],
      "name": "OwnableInvalidOwner",
      "type": "error"
    },
    {
      "inputs": [
        {
          "internalType": "address",
          "name": "account",
          "type": "address"
        }
      ],
      "name": "OwnableUnauthorizedAccount",
      "type": "error"
    },
    {
      "inputs": [],
      "name": "PriceNotConfigured",
      "type": "error"
    },
    {
      "inputs": [
        {
          "internalType": "address",
          "name": "token",
          "type": "address"
        }
      ],
      "name": "SafeERC20FailedOperation",
      "type": "error"
    },
    {
      "inputs": [
        {
          "internalType": "uint256",
          "name": "start",
          "type": "uint256"
        },
        {
          "internalType": "uint256",
          "name": "end",
          "type": "uint256"
        }
      ],
      "name": "SaleEventNotExist",
      "type": "error"
    },
    {
      "inputs": [],
      "name": "SetAddressZero",
      "type": "error"
    },
    {
      "anonymous": false,
      "inputs": [
        {
          "indexed": true,
          "internalType": "address",
          "name": "owner",
          "type": "address"
        },
        {
          "indexed": true,
          "internalType": "address",
          "name": "approved",
          "type": "address"
        },
        {
          "indexed": true,
          "internalType": "uint256",
          "name": "tokenId",
          "type": "uint256"
        }
      ],
      "name": "Approval",
      "type": "event"
    },
    {
      "anonymous": false,
      "inputs": [
        {
          "indexed": true,
          "internalType": "address",
          "name": "owner",
          "type": "address"
        },
        {
          "indexed": true,
          "internalType": "address",
          "name": "operator",
          "type": "address"
        },
        {
          "indexed": false,
          "internalType": "bool",
          "name": "approved",
          "type": "bool"
        }
      ],
      "name": "ApprovalForAll",
      "type": "event"
    },
    {
      "anonymous": false,
      "inputs": [
        {
          "indexed": true,
          "internalType": "address",
          "name": "sender",
          "type": "address"
        },
        {
          "indexed": false,
          "internalType": "uint256",
          "name": "tier",
          "type": "uint256"
        },
        {
          "indexed": false,
          "internalType": "bool",
          "name": "whitelist",
          "type": "bool"
        },
        {
          "indexed": false,
          "internalType": "uint256",
          "name": "userMintCount",
          "type": "uint256"
        },
        {
          "indexed": false,
          "internalType": "uint256",
          "name": "tierMintCount",
          "type": "uint256"
        }
      ],
      "name": "MintCountUpdated",
      "type": "event"
    },
    {
      "anonymous": false,
      "inputs": [
        {
          "indexed": true,
          "internalType": "address",
          "name": "previousOwner",
          "type": "address"
        },
        {
          "indexed": true,
          "internalType": "address",
          "name": "newOwner",
          "type": "address"
        }
      ],
      "name": "OwnershipTransferred",
      "type": "event"
    },
    {
      "anonymous": false,
      "inputs": [
        {
          "indexed": true,
          "internalType": "address",
          "name": "sender",
          "type": "address"
        },
        {
          "indexed": true,
          "internalType": "address",
          "name": "to",
          "type": "address"
        },
        {
          "indexed": false,
          "internalType": "uint256",
          "name": "tier",
          "type": "uint256"
        },
        {
          "indexed": false,
          "internalType": "uint256",
          "name": "tokenId",
          "type": "uint256"
        },
        {
          "indexed": false,
          "internalType": "uint256",
          "name": "price",
          "type": "uint256"
        },
        {
          "indexed": false,
          "internalType": "bool",
          "name": "whitelist",
          "type": "bool"
        },
        {
          "indexed": false,
          "internalType": "string",
          "name": "code",
          "type": "string"
        }
      ],
      "name": "TokenMinted",
      "type": "event"
    },
    {
      "anonymous": false,
      "inputs": [
        {
          "indexed": true,
          "internalType": "address",
          "name": "from",
          "type": "address"
        },
        {
          "indexed": true,
          "internalType": "address",
          "name": "to",
          "type": "address"
        },
        {
          "indexed": true,
          "internalType": "uint256",
          "name": "tokenId",
          "type": "uint256"
        }
      ],
      "name": "Transfer",
      "type": "event"
    },
    {
      "inputs": [],
      "name": "KIPFundAddress",
      "outputs": [
        {
          "internalType": "address",
          "name": "",
          "type": "address"
        }
      ],
      "stateMutability": "view",
      "type": "function"
    },
    {
      "inputs": [],
      "name": "MAX_TIER",
      "outputs": [
        {
          "internalType": "uint256",
          "name": "",
          "type": "uint256"
        }
      ],
      "stateMutability": "view",
      "type": "function"
    },
    {
      "inputs": [
        {
          "internalType": "address",
          "name": "to",
          "type": "address"
        },
        {
          "internalType": "uint256",
          "name": "tokenId",
          "type": "uint256"
        }
      ],
      "name": "approve",
      "outputs": [],
      "stateMutability": "nonpayable",
      "type": "function"
    },
    {
      "inputs": [
        {
          "internalType": "address",
          "name": "owner",
          "type": "address"
        }
      ],
      "name": "balanceOf",
      "outputs": [
        {
          "internalType": "uint256",
          "name": "",
          "type": "uint256"
        }
      ],
      "stateMutability": "view",
      "type": "function"
    },
    {
      "inputs": [],
      "name": "baseURI",
      "outputs": [
        {
          "internalType": "string",
          "name": "",
          "type": "string"
        }
      ],
      "stateMutability": "view",
      "type": "function"
    },
    {
      "inputs": [
        {
          "internalType": "uint256",
          "name": "tokenId",
          "type": "uint256"
        }
      ],
      "name": "getApproved",
      "outputs": [
        {
          "internalType": "address",
          "name": "",
          "type": "address"
        }
      ],
      "stateMutability": "view",
      "type": "function"
    },
    {
      "inputs": [
        {
          "internalType": "address",
          "name": "owner",
          "type": "address"
        },
        {
          "internalType": "address",
          "name": "operator",
          "type": "address"
        }
      ],
      "name": "isApprovedForAll",
      "outputs": [
        {
          "internalType": "bool",
          "name": "",
          "type": "bool"
        }
      ],
      "stateMutability": "view",
      "type": "function"
    },
    {
      "inputs": [],
      "name": "name",
      "outputs": [
        {
          "internalType": "string",
          "name": "",
          "type": "string"
        }
      ],
      "stateMutability": "view",
      "type": "function"
    },
    {
      "inputs": [],
      "name": "owner",
      "outputs": [
        {
          "internalType": "address",
          "name": "",
          "type": "address"
        }
      ],
      "stateMutability": "view",
      "type": "function"
    },
    {
      "inputs": [
        {
          "internalType": "uint256",
          "name": "tokenId",
          "type": "uint256"
        }
      ],
      "name": "ownerOf",
      "outputs": [
        {
          "internalType": "address",
          "name": "",
          "type": "address"
        }
      ],
      "stateMutability": "view",
      "type": "function"
    },
    {
      "inputs": [],
      "name": "paymentToken",
      "outputs": [
        {
          "internalType": "contract IERC20",
          "name": "",
          "type": "address"
        }
      ],
      "stateMutability": "view",
      "type": "function"
    },
    {
      "inputs": [
        {
          "internalType": "uint256",
          "name": "tier",
          "type": "uint256"
        },
        {
          "internalType": "address",
          "name": "to",
          "type": "address"
        },
        {
          "internalType": "uint256",
          "name": "amount",
          "type": "uint256"
        },
        {
          "internalType": "string",
          "name": "code",
          "type": "string"
        }
      ],
      "name": "publicMint",
      "outputs": [],
      "stateMutability": "nonpayable",
      "type": "function"
    },
    {
      "inputs": [
        {
          "internalType": "uint256",
          "name": "",
          "type": "uint256"
        }
      ],
      "name": "publicSaleConfigs",
      "outputs": [
        {
          "internalType": "uint256",
          "name": "price",
          "type": "uint256"
        },
        {
          "internalType": "uint32",
          "name": "maxPerTier",
          "type": "uint32"
        },
        {
          "internalType": "uint32",
          "name": "maxPerUser",
          "type": "uint32"
        },
        {
          "internalType": "uint64",
          "name": "totalMintedAmount",
          "type": "uint64"
        },
        {
          "internalType": "uint64",
          "name": "start",
          "type": "uint64"
        },
        {
          "internalType": "uint64",
          "name": "end",
          "type": "uint64"
        }
      ],
      "stateMutability": "view",
      "type": "function"
    },
    {
      "inputs": [
        {
          "internalType": "uint256",
          "name": "",
          "type": "uint256"
        },
        {
          "internalType": "address",
          "name": "",
          "type": "address"
        }
      ],
      "name": "publicUserMinted",
      "outputs": [
        {
          "internalType": "uint256",
          "name": "",
          "type": "uint256"
        }
      ],
      "stateMutability": "view",
      "type": "function"
    },
    {
      "inputs": [],
      "name": "renounceOwnership",
      "outputs": [],
      "stateMutability": "nonpayable",
      "type": "function"
    },
    {
      "inputs": [
        {
          "internalType": "address",
          "name": "from",
          "type": "address"
        },
        {
          "internalType": "address",
          "name": "to",
          "type": "address"
        },
        {
          "internalType": "uint256",
          "name": "tokenId",
          "type": "uint256"
        }
      ],
      "name": "safeTransferFrom",
      "outputs": [],
      "stateMutability": "nonpayable",
      "type": "function"
    },
    {
      "inputs": [
        {
          "internalType": "address",
          "name": "from",
          "type": "address"
        },
        {
          "internalType": "address",
          "name": "to",
          "type": "address"
        },
        {
          "internalType": "uint256",
          "name": "tokenId",
          "type": "uint256"
        },
        {
          "internalType": "bytes",
          "name": "data",
          "type": "bytes"
        }
      ],
      "name": "safeTransferFrom",
      "outputs": [],
      "stateMutability": "nonpayable",
      "type": "function"
    },
    {
      "inputs": [
        {
          "internalType": "address",
          "name": "operator",
          "type": "address"
        },
        {
          "internalType": "bool",
          "name": "approved",
          "type": "bool"
        }
      ],
      "name": "setApprovalForAll",
      "outputs": [],
      "stateMutability": "nonpayable",
      "type": "function"
    },
    {
      "inputs": [
        {
          "internalType": "string",
          "name": "newURI",
          "type": "string"
        }
      ],
      "name": "setBaseURI",
      "outputs": [],
      "stateMutability": "nonpayable",
      "type": "function"
    },
    {
      "inputs": [
        {
          "internalType": "address",
          "name": "newAddress",
          "type": "address"
        }
      ],
      "name": "setKIPFundAddress",
      "outputs": [],
      "stateMutability": "nonpayable",
      "type": "function"
    },
    {
      "inputs": [
        {
          "internalType": "address",
          "name": "token",
          "type": "address"
        }
      ],
      "name": "setPaymentToken",
      "outputs": [],
      "stateMutability": "nonpayable",
      "type": "function"
    },
    {
      "inputs": [
        {
          "internalType": "uint256",
          "name": "tier",
          "type": "uint256"
        },
        {
          "components": [
            {
              "internalType": "uint256",
              "name": "price",
              "type": "uint256"
            },
            {
              "internalType": "uint32",
              "name": "maxPerTier",
              "type": "uint32"
            },
            {
              "internalType": "uint32",
              "name": "maxPerUser",
              "type": "uint32"
            },
            {
              "internalType": "uint64",
              "name": "totalMintedAmount",
              "type": "uint64"
            },
            {
              "internalType": "uint64",
              "name": "start",
              "type": "uint64"
            },
            {
              "internalType": "uint64",
              "name": "end",
              "type": "uint64"
            }
          ],
          "internalType": "struct KIPNode.PublicSale",
          "name": "settings",
          "type": "tuple"
        }
      ],
      "name": "setPublicSaleConfigs",
      "outputs": [],
      "stateMutability": "nonpayable",
      "type": "function"
    },
    {
      "inputs": [
        {
          "internalType": "bool",
          "name": "newState",
          "type": "bool"
        }
      ],
      "name": "setTransferEnabled",
      "outputs": [],
      "stateMutability": "nonpayable",
      "type": "function"
    },
    {
      "inputs": [
        {
          "internalType": "uint256",
          "name": "tier",
          "type": "uint256"
        },
        {
          "components": [
            {
              "internalType": "bytes32",
              "name": "merkleRoot",
              "type": "bytes32"
            },
            {
              "internalType": "uint32",
              "name": "maxPerTier",
              "type": "uint32"
            },
            {
              "internalType": "uint64",
              "name": "totalMintedAmount",
              "type": "uint64"
            },
            {
              "internalType": "uint64",
              "name": "start",
              "type": "uint64"
            },
            {
              "internalType": "uint64",
              "name": "end",
              "type": "uint64"
            }
          ],
          "internalType": "struct KIPNode.WhitelistSale",
          "name": "settings",
          "type": "tuple"
        }
      ],
      "name": "setWhitelistSaleConfigs",
      "outputs": [],
      "stateMutability": "nonpayable",
      "type": "function"
    },
    {
      "inputs": [
        {
          "internalType": "bytes4",
          "name": "interfaceId",
          "type": "bytes4"
        }
      ],
      "name": "supportsInterface",
      "outputs": [
        {
          "internalType": "bool",
          "name": "",
          "type": "bool"
        }
      ],
      "stateMutability": "view",
      "type": "function"
    },
    {
      "inputs": [],
      "name": "symbol",
      "outputs": [
        {
          "internalType": "string",
          "name": "",
          "type": "string"
        }
      ],
      "stateMutability": "view",
      "type": "function"
    },
    {
      "inputs": [
        {
          "internalType": "uint256",
          "name": "tokenId",
          "type": "uint256"
        }
      ],
      "name": "tokenURI",
      "outputs": [
        {
          "internalType": "string",
          "name": "",
          "type": "string"
        }
      ],
      "stateMutability": "view",
      "type": "function"
    },
    {
      "inputs": [],
      "name": "transferEnabled",
      "outputs": [
        {
          "internalType": "bool",
          "name": "",
          "type": "bool"
        }
      ],
      "stateMutability": "view",
      "type": "function"
    },
    {
      "inputs": [
        {
          "internalType": "address",
          "name": "from",
          "type": "address"
        },
        {
          "internalType": "address",
          "name": "to",
          "type": "address"
        },
        {
          "internalType": "uint256",
          "name": "tokenId",
          "type": "uint256"
        }
      ],
      "name": "transferFrom",
      "outputs": [],
      "stateMutability": "nonpayable",
      "type": "function"
    },
    {
      "inputs": [
        {
          "internalType": "address",
          "name": "newOwner",
          "type": "address"
        }
      ],
      "name": "transferOwnership",
      "outputs": [],
      "stateMutability": "nonpayable",
      "type": "function"
    },
    {
      "inputs": [
        {
          "internalType": "uint256",
          "name": "tier",
          "type": "uint256"
        },
        {
          "internalType": "address",
          "name": "to",
          "type": "address"
        },
        {
          "internalType": "uint256",
          "name": "amount",
          "type": "uint256"
        },
        {
          "internalType": "uint256",
          "name": "maxAmount",
          "type": "uint256"
        },
        {
          "internalType": "bytes32[]",
          "name": "merkleProof",
          "type": "bytes32[]"
        }
      ],
      "name": "whitelistMint",
      "outputs": [],
      "stateMutability": "nonpayable",
      "type": "function"
    },
    {
      "inputs": [
        {
          "internalType": "uint256",
          "name": "",
          "type": "uint256"
        }
      ],
      "name": "whitelistSaleConfigs",
      "outputs": [
        {
          "internalType": "bytes32",
          "name": "merkleRoot",
          "type": "bytes32"
        },
        {
          "internalType": "uint32",
          "name": "maxPerTier",
          "type": "uint32"
        },
        {
          "internalType": "uint64",
          "name": "totalMintedAmount",
          "type": "uint64"
        },
        {
          "internalType": "uint64",
          "name": "start",
          "type": "uint64"
        },
        {
          "internalType": "uint64",
          "name": "end",
          "type": "uint64"
        }
      ],
      "stateMutability": "view",
      "type": "function"
    },
    {
      "inputs": [
        {
          "internalType": "uint256",
          "name": "",
          "type": "uint256"
        },
        {
          "internalType": "address",
          "name": "",
          "type": "address"
        }
      ],
      "name": "whitelistUserMinted",
      "outputs": [
        {
          "internalType": "uint256",
          "name": "",
          "type": "uint256"
        }
      ],
      "stateMutability": "view",
      "type": "function"
    }
  ],
  "bytecode": "0x6080604052736e3bbb13330102989ac110163e4c649d0bb88777600960006101000a81548173ffffffffffffffffffffffffffffffffffffffff021916908373ffffffffffffffffffffffffffffffffffffffff1602179055503480156200006657600080fd5b50604051620053613803806200536183398181016040528101906200008c919062000366565b816040518060400160405280600b81526020017f4b4950204c6963656e73650000000000000000000000000000000000000000008152506040518060400160405280600781526020017f4b49504e4f44450000000000000000000000000000000000000000000000000081525081600090816200010a919062000627565b5080600190816200011c919062000627565b505050600073ffffffffffffffffffffffffffffffffffffffff168173ffffffffffffffffffffffffffffffffffffffff1603620001945760006040517f1e4fbdf70000000000000000000000000000000000000000000000000000000081526004016200018b91906200071f565b60405180910390fd5b620001a5816200023660201b60201c565b5080600760006101000a81548173ffffffffffffffffffffffffffffffffffffffff021916908373ffffffffffffffffffffffffffffffffffffffff1602179055506040518060400160405280601981526020017f68747470733a2f2f6e6f64652d6e66742e6b69702e70726f2f00000000000000815250600f90816200022d919062000627565b5050506200073c565b6000600660009054906101000a900473ffffffffffffffffffffffffffffffffffffffff16905081600660006101000a81548173ffffffffffffffffffffffffffffffffffffffff021916908373ffffffffffffffffffffffffffffffffffffffff1602179055508173ffffffffffffffffffffffffffffffffffffffff168173ffffffffffffffffffffffffffffffffffffffff167f8be0079c531659141344cd1fd0a4f28419497f9722a3daafe3b4186f6b6457e060405160405180910390a35050565b600080fd5b600073ffffffffffffffffffffffffffffffffffffffff82169050919050565b60006200032e8262000301565b9050919050565b620003408162000321565b81146200034c57600080fd5b50565b600081519050620003608162000335565b92915050565b6000806040838503121562000380576200037f620002fc565b5b600062000390858286016200034f565b9250506020620003a3858286016200034f565b9150509250929050565b600081519050919050565b7f4e487b7100000000000000000000000000000000000000000000000000000000600052604160045260246000fd5b7f4e487b7100000000000000000000000000000000000000000000000000000000600052602260045260246000fd5b600060028204905060018216806200042f57607f821691505b602082108103620004455762000444620003e7565b5b50919050565b60008190508160005260206000209050919050565b60006020601f8301049050919050565b600082821b905092915050565b600060088302620004af7fffffffffffffffffffffffffffffffffffffffffffffffffffffffffffffffff8262000470565b620004bb868362000470565b95508019841693508086168417925050509392505050565b6000819050919050565b6000819050919050565b60006200050862000502620004fc84620004d3565b620004dd565b620004d3565b9050919050565b6000819050919050565b6200052483620004e7565b6200053c62000533826200050f565b8484546200047d565b825550505050565b600090565b6200055362000544565b6200056081848462000519565b505050565b5b8181101562000588576200057c60008262000549565b60018101905062000566565b5050565b601f821115620005d757620005a1816200044b565b620005ac8462000460565b81016020851015620005bc578190505b620005d4620005cb8562000460565b83018262000565565b50505b505050565b600082821c905092915050565b6000620005fc60001984600802620005dc565b1980831691505092915050565b6000620006178383620005e9565b9150826002028217905092915050565b6200063282620003ad565b67ffffffffffffffff8111156200064e576200064d620003b8565b5b6200065a825462000416565b620006678282856200058c565b600060209050601f8311600181146200069f57600084156200068a578287015190505b62000696858262000609565b86555062000706565b601f198416620006af866200044b565b60005b82811015620006d957848901518255600182019150602085019450602081019050620006b2565b86831015620006f95784890151620006f5601f891682620005e9565b8355505b6001600288020188555050505b505050505050565b620007198162000321565b82525050565b60006020820190506200073660008301846200070e565b92915050565b614c15806200074c6000396000f3fe608060405234801561001057600080fd5b50600436106101fb5760003560e01c80636c0360eb1161011a578063acb889ee116100ad578063c87b56dd1161007c578063c87b56dd1461059e578063e985e9c5146105ce578063f1ce5fe0146105fe578063f2fde38b14610633578063fcf9e1f81461064f576101fb565b8063acb889ee1461052c578063af3a19c714610548578063b824054014610566578063b88d4fde14610582576101fb565b806395d89b41116100e957806395d89b41146104a25780639fe9f623146104c0578063a22cb465146104dc578063a4532fb9146104f8576101fb565b80636c0360eb1461042c57806370a082311461044a578063715018a61461047a5780638da5cb5b14610484576101fb565b80633013ce29116101925780634cd412d5116101615780634cd412d5146103a657806355f804b3146103c45780636352211e146103e05780636a326ab114610410576101fb565b80633013ce291461031e57806333d9f1fa1461033c578063378077a81461036c57806342842e0e1461038a576101fb565b80631aca45a7116101ce5780631aca45a71461029a5780631bb08048146102ca5780631d68e8ce146102e657806323b872dd14610302576101fb565b806301ffc9a71461020057806306fdde0314610230578063081812fc1461024e578063095ea7b31461027e575b600080fd5b61021a600480360381019061021591906131a3565b61066b565b60405161022791906131eb565b60405180910390f35b61023861074d565b6040516102459190613296565b60405180910390f35b610268600480360381019061026391906132ee565b6107df565b604051610275919061335c565b60405180910390f35b610298600480360381019061029391906133a3565b6107fb565b005b6102b460048036038101906102af91906133e3565b610811565b6040516102c19190613432565b60405180910390f35b6102e460048036038101906102df919061344d565b610836565b005b61030060048036038101906102fb91906134df565b6108e8565b005b61031c60048036038101906103179190613579565b610e32565b005b610326610f34565b604051610333919061362b565b60405180910390f35b610356600480360381019061035191906133e3565b610f5a565b6040516103639190613432565b60405180910390f35b610374610f7f565b604051610381919061335c565b60405180910390f35b6103a4600480360381019061039f9190613579565b610fa5565b005b6103ae610fc5565b6040516103bb91906131eb565b60405180910390f35b6103de60048036038101906103d9919061369c565b610fd8565b005b6103fa60048036038101906103f591906132ee565b611033565b604051610407919061335c565b60405180910390f35b61042a6004803603810190610425919061344d565b611045565b005b6104346110f7565b6040516104419190613296565b60405180910390f35b610464600480360381019061045f919061344d565b611185565b6040516104719190613432565b60405180910390f35b61048261123f565b005b61048c611253565b604051610499919061335c565b60405180910390f35b6104aa61127d565b6040516104b79190613296565b60405180910390f35b6104da60048036038101906104d59190613715565b61130f565b005b6104f660048036038101906104f19190613742565b611334565b005b610512600480360381019061050d91906132ee565b61134a565b6040516105239594939291906137dd565b60405180910390f35b61054660048036038101906105419190613854565b6113cc565b005b610550611450565b60405161055d9190613432565b60405180910390f35b610580600480360381019061057b9190613894565b611455565b005b61059c60048036038101906105979190613a4c565b611a56565b005b6105b860048036038101906105b391906132ee565b611a73565b6040516105c59190613296565b60405180910390f35b6105e860048036038101906105e39190613acf565b611adc565b6040516105f591906131eb565b60405180910390f35b610618600480360381019061061391906132ee565b611b70565b60405161062a96959493929190613b0f565b60405180910390f35b61064d6004803603810190610648919061344d565b611c08565b005b61066960048036038101906106649190613b8f565b611c8e565b005b60007f80ac58cd000000000000000000000000000000000000000000000000000000007bffffffffffffffffffffffffffffffffffffffffffffffffffffffff1916827bffffffffffffffffffffffffffffffffffffffffffffffffffffffff1916148061073657507f5b5e139f000000000000000000000000000000000000000000000000000000007bffffffffffffffffffffffffffffffffffffffffffffffffffffffff1916827bffffffffffffffffffffffffffffffffffffffffffffffffffffffff1916145b80610746575061074582611d12565b5b9050919050565b60606000805461075c90613bfe565b80601f016020809104026020016040519081016040528092919081815260200182805461078890613bfe565b80156107d55780601f106107aa576101008083540402835291602001916107d5565b820191906000526020600020905b8154815290600101906020018083116107b857829003601f168201915b5050505050905090565b60006107ea82611d7c565b506107f482611e04565b9050919050565b61080d8282610808611e41565b611e49565b5050565b600c602052816000526040600020602052806000526040600020600091509150505481565b61083e611e5b565b600073ffffffffffffffffffffffffffffffffffffffff168173ffffffffffffffffffffffffffffffffffffffff16036108a4576040517f9926074200000000000000000000000000000000000000000000000000000000815260040160405180910390fd5b80600960006101000a81548173ffffffffffffffffffffffffffffffffffffffff021916908373ffffffffffffffffffffffffffffffffffffffff16021790555050565b60008614806108f75750602686115b8061092e5750600073ffffffffffffffffffffffffffffffffffffffff168573ffffffffffffffffffffffffffffffffffffffff16145b806109395750600084145b15610970576040517f41abc80100000000000000000000000000000000000000000000000000000000815260040160405180910390fd5b6000600b60008881526020019081526020016000206040518060a0016040529081600082015481526020016001820160009054906101000a900463ffffffff1663ffffffff1663ffffffff1681526020016001820160049054906101000a900467ffffffffffffffff1667ffffffffffffffff1667ffffffffffffffff16815260200160018201600c9054906101000a900467ffffffffffffffff1667ffffffffffffffff1667ffffffffffffffff1681526020016001820160149054906101000a900467ffffffffffffffff1667ffffffffffffffff1667ffffffffffffffff168152505090506000610a62611e41565b9050816060015167ffffffffffffffff16421080610a8d5750816080015167ffffffffffffffff1642115b15610ad957816060015182608001516040517fcbaef561000000000000000000000000000000000000000000000000000000008152600401610ad0929190613c60565b60405180910390fd5b8486600c60008b815260200190815260200160002060008473ffffffffffffffffffffffffffffffffffffffff1673ffffffffffffffffffffffffffffffffffffffff16815260200190815260200160002054610b369190613cb8565b1180610b645750816020015163ffffffff1686836040015167ffffffffffffffff16610b629190613cb8565b115b15610b9b576040517fdad4f32900000000000000000000000000000000000000000000000000000000815260040160405180910390fd5b610ba88882878787611ee2565b610bde576040517f09bde33900000000000000000000000000000000000000000000000000000000815260040160405180910390fd5b85600c60008a815260200190815260200160002060008373ffffffffffffffffffffffffffffffffffffffff1673ffffffffffffffffffffffffffffffffffffffff1681526020019081526020016000206000828254610c3e9190613cb8565b9250508190555085600b60008a815260200190815260200160002060010160048282829054906101000a900467ffffffffffffffff16610c7e9190613cec565b92506101000a81548167ffffffffffffffff021916908367ffffffffffffffff1602179055506000600190505b868111610d585760086000815480929190610cc590613d28565b9190505550610cd688600854611fa4565b8773ffffffffffffffffffffffffffffffffffffffff168273ffffffffffffffffffffffffffffffffffffffff167fbb9ad13c0de1a777020713212854c8c286c0c260f459a4f53aa84a65e3bc0db28b60085460006001604051610d3d9493929190613dd1565b60405180910390a38080610d5090613d28565b915050610cab565b508073ffffffffffffffffffffffffffffffffffffffff167f5bd7001d995bb594c91e6abb25ddbeaf9c358906be6aa0fadb5109f567609931896001600c60008d815260200190815260200160002060008673ffffffffffffffffffffffffffffffffffffffff1673ffffffffffffffffffffffffffffffffffffffff16815260200190815260200160002054600b60008e815260200190815260200160002060010160049054906101000a900467ffffffffffffffff16604051610e209493929190613e29565b60405180910390a25050505050505050565b600073ffffffffffffffffffffffffffffffffffffffff168273ffffffffffffffffffffffffffffffffffffffff1603610ea45760006040517f64a0ae92000000000000000000000000000000000000000000000000000000008152600401610e9b919061335c565b60405180910390fd5b6000610eb88383610eb3611e41565b611fc2565b90508373ffffffffffffffffffffffffffffffffffffffff168173ffffffffffffffffffffffffffffffffffffffff1614610f2e578382826040517f64283d7b000000000000000000000000000000000000000000000000000000008152600401610f2593929190613e6e565b60405180910390fd5b50505050565b600760009054906101000a900473ffffffffffffffffffffffffffffffffffffffff1681565b600d602052816000526040600020602052806000526040600020600091509150505481565b600960009054906101000a900473ffffffffffffffffffffffffffffffffffffffff1681565b610fc083838360405180602001604052806000815250611a56565b505050565b600e60009054906101000a900460ff1681565b610fe0611e5b565b6000828290500361101d576040517f3ba0191100000000000000000000000000000000000000000000000000000000815260040160405180910390fd5b8181600f918261102e929190614052565b505050565b600061103e82611d7c565b9050919050565b61104d611e5b565b600073ffffffffffffffffffffffffffffffffffffffff168173ffffffffffffffffffffffffffffffffffffffff16036110b3576040517f9926074200000000000000000000000000000000000000000000000000000000815260040160405180910390fd5b80600760006101000a81548173ffffffffffffffffffffffffffffffffffffffff021916908373ffffffffffffffffffffffffffffffffffffffff16021790555050565b600f805461110490613bfe565b80601f016020809104026020016040519081016040528092919081815260200182805461113090613bfe565b801561117d5780601f106111525761010080835404028352916020019161117d565b820191906000526020600020905b81548152906001019060200180831161116057829003601f168201915b505050505081565b60008073ffffffffffffffffffffffffffffffffffffffff168273ffffffffffffffffffffffffffffffffffffffff16036111f85760006040517f89c62b640000000000000000000000000000000000000000000000000000000081526004016111ef919061335c565b60405180910390fd5b600360008373ffffffffffffffffffffffffffffffffffffffff1673ffffffffffffffffffffffffffffffffffffffff168152602001908152602001600020549050919050565b611247611e5b565b6112516000612063565b565b6000600660009054906101000a900473ffffffffffffffffffffffffffffffffffffffff16905090565b60606001805461128c90613bfe565b80601f01602080910402602001604051908101604052809291908181526020018280546112b890613bfe565b80156113055780601f106112da57610100808354040283529160200191611305565b820191906000526020600020905b8154815290600101906020018083116112e857829003601f168201915b5050505050905090565b611317611e5b565b80600e60006101000a81548160ff02191690831515021790555050565b61134661133f611e41565b8383612129565b5050565b600b6020528060005260406000206000915090508060000154908060010160009054906101000a900463ffffffff16908060010160049054906101000a900467ffffffffffffffff169080600101600c9054906101000a900467ffffffffffffffff16908060010160149054906101000a900467ffffffffffffffff16905085565b6113d4611e5b565b60008214806113e35750602682115b1561142957600160266040517fd40d76ca00000000000000000000000000000000000000000000000000000000815260040161142092919061415d565b60405180910390fd5b80600a60008481526020019081526020016000208181611449919061456b565b9050505050565b602681565b60008514806114645750602685115b8061146f5750600083145b806114a65750600073ffffffffffffffffffffffffffffffffffffffff168473ffffffffffffffffffffffffffffffffffffffff16145b156114dd576040517f41abc80100000000000000000000000000000000000000000000000000000000815260040160405180910390fd5b6000600a60008781526020019081526020016000206040518060c0016040529081600082015481526020016001820160009054906101000a900463ffffffff1663ffffffff1663ffffffff1681526020016001820160049054906101000a900463ffffffff1663ffffffff1663ffffffff1681526020016001820160089054906101000a900467ffffffffffffffff1667ffffffffffffffff1667ffffffffffffffff1681526020016001820160109054906101000a900467ffffffffffffffff1667ffffffffffffffff1667ffffffffffffffff1681526020016001820160189054906101000a900467ffffffffffffffff1667ffffffffffffffff1667ffffffffffffffff1681525050905060006115f5611e41565b9050816080015167ffffffffffffffff1642108061162057508160a0015167ffffffffffffffff1642115b1561166c5781608001518260a001516040517fcbaef561000000000000000000000000000000000000000000000000000000008152600401611663929190613c60565b60405180910390fd5b60008260000151036116aa576040517f1140cf7f00000000000000000000000000000000000000000000000000000000815260040160405180910390fd5b816040015163ffffffff1685600d60008a815260200190815260200160002060008473ffffffffffffffffffffffffffffffffffffffff1673ffffffffffffffffffffffffffffffffffffffff168152602001908152602001600020546117119190613cb8565b118061173f5750816020015163ffffffff1685836060015167ffffffffffffffff1661173d9190613cb8565b115b15611776576040517fdad4f32900000000000000000000000000000000000000000000000000000000815260040160405180910390fd5b84600a600089815260200190815260200160002060010160088282829054906101000a900467ffffffffffffffff166117af9190613cec565b92506101000a81548167ffffffffffffffff021916908367ffffffffffffffff16021790555084600d600089815260200190815260200160002060008373ffffffffffffffffffffffffffffffffffffffff1673ffffffffffffffffffffffffffffffffffffffff16815260200190815260200160002060008282546118359190613cb8565b92505081905550600085836000015161184e9190614579565b90506118c182600960009054906101000a900473ffffffffffffffffffffffffffffffffffffffff1683600760009054906101000a900473ffffffffffffffffffffffffffffffffffffffff1673ffffffffffffffffffffffffffffffffffffffff16612298909392919063ffffffff16565b6000600190505b86811161197c57600860008154809291906118e290613d28565b91905055506118f388600854611fa4565b8773ffffffffffffffffffffffffffffffffffffffff168373ffffffffffffffffffffffffffffffffffffffff167fbb9ad13c0de1a777020713212854c8c286c0c260f459a4f53aa84a65e3bc0db28b600854886000015160008c8c604051611961969594939291906145e8565b60405180910390a3808061197490613d28565b9150506118c8565b508173ffffffffffffffffffffffffffffffffffffffff167f5bd7001d995bb594c91e6abb25ddbeaf9c358906be6aa0fadb5109f567609931896000600d60008d815260200190815260200160002060008773ffffffffffffffffffffffffffffffffffffffff1673ffffffffffffffffffffffffffffffffffffffff16815260200190815260200160002054600a60008e815260200190815260200160002060010160089054906101000a900467ffffffffffffffff16604051611a449493929190613e29565b60405180910390a25050505050505050565b611a61848484610e32565b611a6d8484848461231a565b50505050565b6060611a7e82611d7c565b506000611a896124d1565b90506000815111611aa95760405180602001604052806000815250611ad4565b80611ab384612563565b604051602001611ac4929190614680565b6040516020818303038152906040525b915050919050565b6000600560008473ffffffffffffffffffffffffffffffffffffffff1673ffffffffffffffffffffffffffffffffffffffff16815260200190815260200160002060008373ffffffffffffffffffffffffffffffffffffffff1673ffffffffffffffffffffffffffffffffffffffff16815260200190815260200160002060009054906101000a900460ff16905092915050565b600a6020528060005260406000206000915090508060000154908060010160009054906101000a900463ffffffff16908060010160049054906101000a900463ffffffff16908060010160089054906101000a900467ffffffffffffffff16908060010160109054906101000a900467ffffffffffffffff16908060010160189054906101000a900467ffffffffffffffff16905086565b611c10611e5b565b600073ffffffffffffffffffffffffffffffffffffffff168173ffffffffffffffffffffffffffffffffffffffff1603611c825760006040517f1e4fbdf7000000000000000000000000000000000000000000000000000000008152600401611c79919061335c565b60405180910390fd5b611c8b81612063565b50565b611c96611e5b565b6000821480611ca55750602682115b15611ceb57600160266040517fd40d76ca000000000000000000000000000000000000000000000000000000008152600401611ce292919061415d565b60405180910390fd5b80600b60008481526020019081526020016000208181611d0b91906148f3565b9050505050565b60007f01ffc9a7000000000000000000000000000000000000000000000000000000007bffffffffffffffffffffffffffffffffffffffffffffffffffffffff1916827bffffffffffffffffffffffffffffffffffffffffffffffffffffffff1916149050919050565b600080611d8883612631565b9050600073ffffffffffffffffffffffffffffffffffffffff168173ffffffffffffffffffffffffffffffffffffffff1603611dfb57826040517f7e273289000000000000000000000000000000000000000000000000000000008152600401611df29190613432565b60405180910390fd5b80915050919050565b60006004600083815260200190815260200160002060009054906101000a900473ffffffffffffffffffffffffffffffffffffffff169050919050565b600033905090565b611e56838383600161266e565b505050565b611e63611e41565b73ffffffffffffffffffffffffffffffffffffffff16611e81611253565b73ffffffffffffffffffffffffffffffffffffffff1614611ee057611ea4611e41565b6040517f118cdaa7000000000000000000000000000000000000000000000000000000008152600401611ed7919061335c565b60405180910390fd5b565b6000808585604051602001611ef8929190614901565b60405160208183030381529060405280519060200120604051602001611f1e919061494b565b604051602081830303815290604052805190602001209050611f98848480806020026020016040519081016040528093929190818152602001838360200280828437600081840152601f19601f82011690508083019250505050505050600b60008a81526020019081526020016000206000015483612833565b91505095945050505050565b611fbe82826040518060200160405280600081525061284a565b5050565b600080611fd0858585612866565b9050600e60009054906101000a900460ff16806120195750600073ffffffffffffffffffffffffffffffffffffffff168173ffffffffffffffffffffffffffffffffffffffff16145b612058576040517f08c379a000000000000000000000000000000000000000000000000000000000815260040161204f906149b2565b60405180910390fd5b809150509392505050565b6000600660009054906101000a900473ffffffffffffffffffffffffffffffffffffffff16905081600660006101000a81548173ffffffffffffffffffffffffffffffffffffffff021916908373ffffffffffffffffffffffffffffffffffffffff1602179055508173ffffffffffffffffffffffffffffffffffffffff168173ffffffffffffffffffffffffffffffffffffffff167f8be0079c531659141344cd1fd0a4f28419497f9722a3daafe3b4186f6b6457e060405160405180910390a35050565b600073ffffffffffffffffffffffffffffffffffffffff168273ffffffffffffffffffffffffffffffffffffffff160361219a57816040517f5b08ba18000000000000000000000000000000000000000000000000000000008152600401612191919061335c565b60405180910390fd5b80600560008573ffffffffffffffffffffffffffffffffffffffff1673ffffffffffffffffffffffffffffffffffffffff16815260200190815260200160002060008473ffffffffffffffffffffffffffffffffffffffff1673ffffffffffffffffffffffffffffffffffffffff16815260200190815260200160002060006101000a81548160ff0219169083151502179055508173ffffffffffffffffffffffffffffffffffffffff168373ffffffffffffffffffffffffffffffffffffffff167f17307eab39ab6107e8899845ad3d59bd9653f200f220920489ca2b5937696c318360405161228b91906131eb565b60405180910390a3505050565b612314848573ffffffffffffffffffffffffffffffffffffffff166323b872dd8686866040516024016122cd939291906149d2565b604051602081830303815290604052915060e01b6020820180517bffffffffffffffffffffffffffffffffffffffffffffffffffffffff8381831617835250505050612a80565b50505050565b60008373ffffffffffffffffffffffffffffffffffffffff163b11156124cb578273ffffffffffffffffffffffffffffffffffffffff1663150b7a0261235e611e41565b8685856040518563ffffffff1660e01b81526004016123809493929190614a5e565b6020604051808303816000875af19250505080156123bc57506040513d601f19601f820116820180604052508101906123b99190614abf565b60015b612440573d80600081146123ec576040519150601f19603f3d011682016040523d82523d6000602084013e6123f1565b606091505b50600081510361243857836040517f64a0ae9200000000000000000000000000000000000000000000000000000000815260040161242f919061335c565b60405180910390fd5b805181602001fd5b63150b7a0260e01b7bffffffffffffffffffffffffffffffffffffffffffffffffffffffff1916817bffffffffffffffffffffffffffffffffffffffffffffffffffffffff1916146124c957836040517f64a0ae920000000000000000000000000000000000000000000000000000000081526004016124c0919061335c565b60405180910390fd5b505b50505050565b6060600f80546124e090613bfe565b80601f016020809104026020016040519081016040528092919081815260200182805461250c90613bfe565b80156125595780601f1061252e57610100808354040283529160200191612559565b820191906000526020600020905b81548152906001019060200180831161253c57829003601f168201915b5050505050905090565b60606000600161257284612b17565b01905060008167ffffffffffffffff81111561259157612590613921565b5b6040519080825280601f01601f1916602001820160405280156125c35781602001600182028036833780820191505090505b509050600082602001820190505b600115612626578080600190039150507f3031323334353637383961626364656600000000000000000000000000000000600a86061a8153600a858161261a57612619614aec565b5b049450600085036125d1575b819350505050919050565b60006002600083815260200190815260200160002060009054906101000a900473ffffffffffffffffffffffffffffffffffffffff169050919050565b80806126a75750600073ffffffffffffffffffffffffffffffffffffffff168273ffffffffffffffffffffffffffffffffffffffff1614155b156127db5760006126b784611d7c565b9050600073ffffffffffffffffffffffffffffffffffffffff168373ffffffffffffffffffffffffffffffffffffffff161415801561272257508273ffffffffffffffffffffffffffffffffffffffff168173ffffffffffffffffffffffffffffffffffffffff1614155b801561273557506127338184611adc565b155b1561277757826040517fa9fbf51f00000000000000000000000000000000000000000000000000000000815260040161276e919061335c565b60405180910390fd5b81156127d957838573ffffffffffffffffffffffffffffffffffffffff168273ffffffffffffffffffffffffffffffffffffffff167f8c5be1e5ebec7d5bd14f71427d1e84f3dd0314c0f7b2291e5b200ac8c7c3b92560405160405180910390a45b505b836004600085815260200190815260200160002060006101000a81548173ffffffffffffffffffffffffffffffffffffffff021916908373ffffffffffffffffffffffffffffffffffffffff16021790555050505050565b6000826128408584612c6a565b1490509392505050565b6128548383612cc0565b612861600084848461231a565b505050565b60008061287284612631565b9050600073ffffffffffffffffffffffffffffffffffffffff168373ffffffffffffffffffffffffffffffffffffffff16146128b4576128b3818486612db9565b5b600073ffffffffffffffffffffffffffffffffffffffff168173ffffffffffffffffffffffffffffffffffffffff1614612945576128f660008560008061266e565b6001600360008373ffffffffffffffffffffffffffffffffffffffff1673ffffffffffffffffffffffffffffffffffffffff168152602001908152602001600020600082825403925050819055505b600073ffffffffffffffffffffffffffffffffffffffff168573ffffffffffffffffffffffffffffffffffffffff16146129c8576001600360008773ffffffffffffffffffffffffffffffffffffffff1673ffffffffffffffffffffffffffffffffffffffff168152602001908152602001600020600082825401925050819055505b846002600086815260200190815260200160002060006101000a81548173ffffffffffffffffffffffffffffffffffffffff021916908373ffffffffffffffffffffffffffffffffffffffff160217905550838573ffffffffffffffffffffffffffffffffffffffff168273ffffffffffffffffffffffffffffffffffffffff167fddf252ad1be2c89b69c2b068fc378daa952ba7f163c4a11628f55a4df523b3ef60405160405180910390a4809150509392505050565b6000612aab828473ffffffffffffffffffffffffffffffffffffffff16612e7d90919063ffffffff16565b90506000815114158015612ad0575080806020019051810190612ace9190614b30565b155b15612b1257826040517f5274afe7000000000000000000000000000000000000000000000000000000008152600401612b09919061335c565b60405180910390fd5b505050565b600080600090507a184f03e93ff9f4daa797ed6e38ed64bf6a1f0100000000000000008310612b75577a184f03e93ff9f4daa797ed6e38ed64bf6a1f0100000000000000008381612b6b57612b6a614aec565b5b0492506040810190505b6d04ee2d6d415b85acef81000000008310612bb2576d04ee2d6d415b85acef81000000008381612ba857612ba7614aec565b5b0492506020810190505b662386f26fc100008310612be157662386f26fc100008381612bd757612bd6614aec565b5b0492506010810190505b6305f5e1008310612c0a576305f5e1008381612c0057612bff614aec565b5b0492506008810190505b6127108310612c2f576127108381612c2557612c24614aec565b5b0492506004810190505b60648310612c525760648381612c4857612c47614aec565b5b0492506002810190505b600a8310612c61576001810190505b80915050919050565b60008082905060005b8451811015612cb557612ca082868381518110612c9357612c92614b5d565b5b6020026020010151612e93565b91508080612cad90613d28565b915050612c73565b508091505092915050565b600073ffffffffffffffffffffffffffffffffffffffff168273ffffffffffffffffffffffffffffffffffffffff1603612d325760006040517f64a0ae92000000000000000000000000000000000000000000000000000000008152600401612d29919061335c565b60405180910390fd5b6000612d4083836000611fc2565b9050600073ffffffffffffffffffffffffffffffffffffffff168173ffffffffffffffffffffffffffffffffffffffff1614612db45760006040517f73c6ac6e000000000000000000000000000000000000000000000000000000008152600401612dab919061335c565b60405180910390fd5b505050565b612dc4838383612ebe565b612e7857600073ffffffffffffffffffffffffffffffffffffffff168373ffffffffffffffffffffffffffffffffffffffff1603612e3957806040517f7e273289000000000000000000000000000000000000000000000000000000008152600401612e309190613432565b60405180910390fd5b81816040517f177e802f000000000000000000000000000000000000000000000000000000008152600401612e6f929190614901565b60405180910390fd5b505050565b6060612e8b83836000612f7f565b905092915050565b6000818310612eab57612ea6828461304c565b612eb6565b612eb5838361304c565b5b905092915050565b60008073ffffffffffffffffffffffffffffffffffffffff168373ffffffffffffffffffffffffffffffffffffffff1614158015612f7657508273ffffffffffffffffffffffffffffffffffffffff168473ffffffffffffffffffffffffffffffffffffffff161480612f375750612f368484611adc565b5b80612f7557508273ffffffffffffffffffffffffffffffffffffffff16612f5d83611e04565b73ffffffffffffffffffffffffffffffffffffffff16145b5b90509392505050565b606081471015612fc657306040517fcd786059000000000000000000000000000000000000000000000000000000008152600401612fbd919061335c565b60405180910390fd5b6000808573ffffffffffffffffffffffffffffffffffffffff168486604051612fef9190614bc8565b60006040518083038185875af1925050503d806000811461302c576040519150601f19603f3d011682016040523d82523d6000602084013e613031565b606091505b5091509150613041868383613063565b925050509392505050565b600082600052816020526040600020905092915050565b60608261307857613073826130f2565b6130ea565b600082511480156130a0575060008473ffffffffffffffffffffffffffffffffffffffff163b145b156130e257836040517f9996b3150000000000000000000000000000000000000000000000000000000081526004016130d9919061335c565b60405180910390fd5b8190506130eb565b5b9392505050565b6000815111156131055780518082602001fd5b6040517f1425ea4200000000000000000000000000000000000000000000000000000000815260040160405180910390fd5b6000604051905090565b600080fd5b600080fd5b60007fffffffff0000000000000000000000000000000000000000000000000000000082169050919050565b6131808161314b565b811461318b57600080fd5b50565b60008135905061319d81613177565b92915050565b6000602082840312156131b9576131b8613141565b5b60006131c78482850161318e565b91505092915050565b60008115159050919050565b6131e5816131d0565b82525050565b600060208201905061320060008301846131dc565b92915050565b600081519050919050565b600082825260208201905092915050565b60005b83811015613240578082015181840152602081019050613225565b60008484015250505050565b6000601f19601f8301169050919050565b600061326882613206565b6132728185613211565b9350613282818560208601613222565b61328b8161324c565b840191505092915050565b600060208201905081810360008301526132b0818461325d565b905092915050565b6000819050919050565b6132cb816132b8565b81146132d657600080fd5b50565b6000813590506132e8816132c2565b92915050565b60006020828403121561330457613303613141565b5b6000613312848285016132d9565b91505092915050565b600073ffffffffffffffffffffffffffffffffffffffff82169050919050565b60006133468261331b565b9050919050565b6133568161333b565b82525050565b6000602082019050613371600083018461334d565b92915050565b6133808161333b565b811461338b57600080fd5b50565b60008135905061339d81613377565b92915050565b600080604083850312156133ba576133b9613141565b5b60006133c88582860161338e565b92505060206133d9858286016132d9565b9150509250929050565b600080604083850312156133fa576133f9613141565b5b6000613408858286016132d9565b92505060206134198582860161338e565b9150509250929050565b61342c816132b8565b82525050565b60006020820190506134476000830184613423565b92915050565b60006020828403121561346357613462613141565b5b60006134718482850161338e565b91505092915050565b600080fd5b600080fd5b600080fd5b60008083601f84011261349f5761349e61347a565b5b8235905067ffffffffffffffff8111156134bc576134bb61347f565b5b6020830191508360208202830111156134d8576134d7613484565b5b9250929050565b60008060008060008060a087890312156134fc576134fb613141565b5b600061350a89828a016132d9565b965050602061351b89828a0161338e565b955050604061352c89828a016132d9565b945050606061353d89828a016132d9565b935050608087013567ffffffffffffffff81111561355e5761355d613146565b5b61356a89828a01613489565b92509250509295509295509295565b60008060006060848603121561359257613591613141565b5b60006135a08682870161338e565b93505060206135b18682870161338e565b92505060406135c2868287016132d9565b9150509250925092565b6000819050919050565b60006135f16135ec6135e78461331b565b6135cc565b61331b565b9050919050565b6000613603826135d6565b9050919050565b6000613615826135f8565b9050919050565b6136258161360a565b82525050565b6000602082019050613640600083018461361c565b92915050565b60008083601f84011261365c5761365b61347a565b5b8235905067ffffffffffffffff8111156136795761367861347f565b5b60208301915083600182028301111561369557613694613484565b5b9250929050565b600080602083850312156136b3576136b2613141565b5b600083013567ffffffffffffffff8111156136d1576136d0613146565b5b6136dd85828601613646565b92509250509250929050565b6136f2816131d0565b81146136fd57600080fd5b50565b60008135905061370f816136e9565b92915050565b60006020828403121561372b5761372a613141565b5b600061373984828501613700565b91505092915050565b6000806040838503121561375957613758613141565b5b60006137678582860161338e565b925050602061377885828601613700565b9150509250929050565b6000819050919050565b61379581613782565b82525050565b600063ffffffff82169050919050565b6137b48161379b565b82525050565b600067ffffffffffffffff82169050919050565b6137d7816137ba565b82525050565b600060a0820190506137f2600083018861378c565b6137ff60208301876137ab565b61380c60408301866137ce565b61381960608301856137ce565b61382660808301846137ce565b9695505050505050565b600080fd5b600060c0828403121561384b5761384a613830565b5b81905092915050565b60008060e0838503121561386b5761386a613141565b5b6000613879858286016132d9565b925050602061388a85828601613835565b9150509250929050565b6000806000806000608086880312156138b0576138af613141565b5b60006138be888289016132d9565b95505060206138cf8882890161338e565b94505060406138e0888289016132d9565b935050606086013567ffffffffffffffff81111561390157613900613146565b5b61390d88828901613646565b92509250509295509295909350565b600080fd5b7f4e487b7100000000000000000000000000000000000000000000000000000000600052604160045260246000fd5b6139598261324c565b810181811067ffffffffffffffff8211171561397857613977613921565b5b80604052505050565b600061398b613137565b90506139978282613950565b919050565b600067ffffffffffffffff8211156139b7576139b6613921565b5b6139c08261324c565b9050602081019050919050565b82818337600083830152505050565b60006139ef6139ea8461399c565b613981565b905082815260208101848484011115613a0b57613a0a61391c565b5b613a168482856139cd565b509392505050565b600082601f830112613a3357613a3261347a565b5b8135613a438482602086016139dc565b91505092915050565b60008060008060808587031215613a6657613a65613141565b5b6000613a748782880161338e565b9450506020613a858782880161338e565b9350506040613a96878288016132d9565b925050606085013567ffffffffffffffff811115613ab757613ab6613146565b5b613ac387828801613a1e565b91505092959194509250565b60008060408385031215613ae657613ae5613141565b5b6000613af48582860161338e565b9250506020613b058582860161338e565b9150509250929050565b600060c082019050613b246000830189613423565b613b3160208301886137ab565b613b3e60408301876137ab565b613b4b60608301866137ce565b613b5860808301856137ce565b613b6560a08301846137ce565b979650505050505050565b600060a08284031215613b8657613b85613830565b5b81905092915050565b60008060c08385031215613ba657613ba5613141565b5b6000613bb4858286016132d9565b9250506020613bc585828601613b70565b9150509250929050565b7f4e487b7100000000000000000000000000000000000000000000000000000000600052602260045260246000fd5b60006002820490506001821680613c1657607f821691505b602082108103613c2957613c28613bcf565b5b50919050565b6000613c4a613c45613c40846137ba565b6135cc565b6132b8565b9050919050565b613c5a81613c2f565b82525050565b6000604082019050613c756000830185613c51565b613c826020830184613c51565b9392505050565b7f4e487b7100000000000000000000000000000000000000000000000000000000600052601160045260246000fd5b6000613cc3826132b8565b9150613cce836132b8565b9250828201905080821115613ce657613ce5613c89565b5b92915050565b6000613cf7826137ba565b9150613d02836137ba565b9250828201905067ffffffffffffffff811115613d2257613d21613c89565b5b92915050565b6000613d33826132b8565b91507fffffffffffffffffffffffffffffffffffffffffffffffffffffffffffffffff8203613d6557613d64613c89565b5b600182019050919050565b6000819050919050565b6000613d95613d90613d8b84613d70565b6135cc565b6132b8565b9050919050565b613da581613d7a565b82525050565b50565b6000613dbb600083613211565b9150613dc682613dab565b600082019050919050565b600060a082019050613de66000830187613423565b613df36020830186613423565b613e006040830185613d9c565b613e0d60608301846131dc565b8181036080830152613e1e81613dae565b905095945050505050565b6000608082019050613e3e6000830187613423565b613e4b60208301866131dc565b613e586040830185613423565b613e656060830184613c51565b95945050505050565b6000606082019050613e83600083018661334d565b613e906020830185613423565b613e9d604083018461334d565b949350505050565b600082905092915050565b60008190508160005260206000209050919050565b60006020601f8301049050919050565b600082821b905092915050565b600060088302613f127fffffffffffffffffffffffffffffffffffffffffffffffffffffffffffffffff82613ed5565b613f1c8683613ed5565b95508019841693508086168417925050509392505050565b6000613f4f613f4a613f45846132b8565b6135cc565b6132b8565b9050919050565b6000819050919050565b613f6983613f34565b613f7d613f7582613f56565b848454613ee2565b825550505050565b600090565b613f92613f85565b613f9d818484613f60565b505050565b5b81811015613fc157613fb6600082613f8a565b600181019050613fa3565b5050565b601f82111561400657613fd781613eb0565b613fe084613ec5565b81016020851015613fef578190505b614003613ffb85613ec5565b830182613fa2565b50505b505050565b600082821c905092915050565b60006140296000198460080261400b565b1980831691505092915050565b60006140428383614018565b9150826002028217905092915050565b61405c8383613ea5565b67ffffffffffffffff81111561407557614074613921565b5b61407f8254613bfe565b61408a828285613fc5565b6000601f8311600181146140b957600084156140a7578287013590505b6140b18582614036565b865550614119565b601f1984166140c786613eb0565b60005b828110156140ef578489013582556001820191506020850194506020810190506140ca565b8683101561410c5784890135614108601f891682614018565b8355505b6001600288020188555050505b50505050505050565b6000819050919050565b600061414761414261413d84614122565b6135cc565b6132b8565b9050919050565b6141578161412c565b82525050565b6000604082019050614172600083018561414e565b61417f6020830184613423565b9392505050565b60008135614193816132c2565b80915050919050565b60008160001b9050919050565b60007fffffffffffffffffffffffffffffffffffffffffffffffffffffffffffffffff6141d58461419c565b9350801983169250808416831791505092915050565b6141f482613f34565b61420761420082613f56565b83546141a9565b8255505050565b6142178161379b565b811461422257600080fd5b50565b600081356142328161420e565b80915050919050565b600063ffffffff61424b8461419c565b9350801983169250808416831791505092915050565b600061427c6142776142728461379b565b6135cc565b61379b565b9050919050565b6000819050919050565b61429682614261565b6142a96142a282614283565b835461423b565b8255505050565b60008160201b9050919050565b600067ffffffff000000006142d1846142b0565b9350801983169250808416831791505092915050565b6142f082614261565b6143036142fc82614283565b83546142bd565b8255505050565b614313816137ba565b811461431e57600080fd5b50565b6000813561432e8161430a565b80915050919050565b60008160401b9050919050565b60006fffffffffffffffff000000000000000061436084614337565b9350801983169250808416831791505092915050565b600061439161438c614387846137ba565b6135cc565b6137ba565b9050919050565b6000819050919050565b6143ab82614376565b6143be6143b782614398565b8354614344565b8255505050565b60008160801b9050919050565b600077ffffffffffffffff000000000000000000000000000000006143f6846143c5565b9350801983169250808416831791505092915050565b61441582614376565b61442861442182614398565b83546143d2565b8255505050565b60008160c01b9050919050565b60007fffffffffffffffff0000000000000000000000000000000000000000000000006144688461442f565b9350801983169250808416831791505092915050565b61448782614376565b61449a61449382614398565b835461443c565b8255505050565b6000810160008301806144b381614186565b90506144bf81846141eb565b5050506001810160208301806144d481614225565b90506144e0818461428d565b5050506001810160408301806144f581614225565b905061450181846142e7565b50505060018101606083018061451681614321565b905061452281846143a2565b50505060018101608083018061453781614321565b9050614543818461440c565b5050506001810160a083018061455881614321565b9050614564818461447e565b5050505050565b61457582826144a1565b5050565b6000614584826132b8565b915061458f836132b8565b925082820261459d816132b8565b915082820484148315176145b4576145b3613c89565b5b5092915050565b60006145c78385613211565b93506145d48385846139cd565b6145dd8361324c565b840190509392505050565b600060a0820190506145fd6000830189613423565b61460a6020830188613423565b6146176040830187613423565b61462460608301866131dc565b81810360808301526146378184866145bb565b9050979650505050505050565b600081905092915050565b600061465a82613206565b6146648185614644565b9350614674818560208601613222565b80840191505092915050565b600061468c828561464f565b9150614698828461464f565b91508190509392505050565b6146ad81613782565b81146146b857600080fd5b50565b600081356146c8816146a4565b80915050919050565b60006146dc82613782565b9050919050565b60008160001c9050919050565b60006146fb826146e3565b9050919050565b61470b826146d1565b61471e614717826146f0565b83546141a9565b8255505050565b60006bffffffffffffffff0000000061473d846142b0565b9350801983169250808416831791505092915050565b61475c82614376565b61476f61476882614398565b8354614725565b8255505050565b60008160601b9050919050565b600073ffffffffffffffff0000000000000000000000006147a384614776565b9350801983169250808416831791505092915050565b6147c282614376565b6147d56147ce82614398565b8354614783565b8255505050565b60008160a01b9050919050565b60007bffffffffffffffff0000000000000000000000000000000000000000614811846147dc565b9350801983169250808416831791505092915050565b61483082614376565b61484361483c82614398565b83546147e9565b8255505050565b60008101600083018061485c816146bb565b90506148688184614702565b50505060018101602083018061487d81614225565b9050614889818461428d565b50505060018101604083018061489e81614321565b90506148aa8184614753565b5050506001810160608301806148bf81614321565b90506148cb81846147b9565b5050506001810160808301806148e081614321565b90506148ec8184614827565b5050505050565b6148fd828261484a565b5050565b6000604082019050614916600083018561334d565b6149236020830184613423565b9392505050565b6000819050919050565b61494561494082613782565b61492a565b82525050565b60006149578284614934565b60208201915081905092915050565b7f5472616e73666572206e6f7420656e61626c6564000000000000000000000000600082015250565b600061499c601483613211565b91506149a782614966565b602082019050919050565b600060208201905081810360008301526149cb8161498f565b9050919050565b60006060820190506149e7600083018661334d565b6149f4602083018561334d565b614a016040830184613423565b949350505050565b600081519050919050565b600082825260208201905092915050565b6000614a3082614a09565b614a3a8185614a14565b9350614a4a818560208601613222565b614a538161324c565b840191505092915050565b6000608082019050614a73600083018761334d565b614a80602083018661334d565b614a8d6040830185613423565b8181036060830152614a9f8184614a25565b905095945050505050565b600081519050614ab981613177565b92915050565b600060208284031215614ad557614ad4613141565b5b6000614ae384828501614aaa565b91505092915050565b7f4e487b7100000000000000000000000000000000000000000000000000000000600052601260045260246000fd5b600081519050614b2a816136e9565b92915050565b600060208284031215614b4657614b45613141565b5b6000614b5484828501614b1b565b91505092915050565b7f4e487b7100000000000000000000000000000000000000000000000000000000600052603260045260246000fd5b600081905092915050565b6000614ba282614a09565b614bac8185614b8c565b9350614bbc818560208601613222565b80840191505092915050565b6000614bd48284614b97565b91508190509291505056fea2646970667358221220a203e6ca8aa3037e5f73d18ab47301e47bde30851559e09c3f1b867078f0b0c164736f6c63430008140033",
  "linkReferences": {},
  "deployedLinkReferences": {}
}