{
	"data": {
		"bytecode": {
			"linkReferences": {},
			"object": "608060405234801561000f575f80fd5b506040516156ed3803806156ed833981810160405281019061003191906103b8565b816040518060400160405280601581526020017f54455354206b697020636865636b6572206e6f646500000000000000000000008152506040518060400160405280600781526020017f4b49504e4f444500000000000000000000000000000000000000000000000000815250815f90816100ac9190610630565b5080600190816100bc9190610630565b5050505f73ffffffffffffffffffffffffffffffffffffffff168173ffffffffffffffffffffffffffffffffffffffff160361012f575f6040517f1e4fbdf7000000000000000000000000000000000000000000000000000000008152600401610126919061070e565b60405180910390fd5b61013e8161029760201b60201c565b508060085f6101000a81548173ffffffffffffffffffffffffffffffffffffffff021916908373ffffffffffffffffffffffffffffffffffffffff1602179055508060095f6101000a81548173ffffffffffffffffffffffffffffffffffffffff021916908373ffffffffffffffffffffffffffffffffffffffff160217905550736e3bbb13330102989ac110163e4c649d0bb88777600a5f6101000a81548173ffffffffffffffffffffffffffffffffffffffff021916908373ffffffffffffffffffffffffffffffffffffffff1602179055505f600a60146101000a81548160ff0219169083151502179055506026600a60156101000a81548161ffff021916908361ffff1602179055506040518060400160405280601981526020017f68747470733a2f2f6e6f64652d6e66742e6b69702e70726f2f00000000000000815250600b908161028f9190610630565b505050610727565b5f60065f9054906101000a900473ffffffffffffffffffffffffffffffffffffffff1690508160065f6101000a81548173ffffffffffffffffffffffffffffffffffffffff021916908373ffffffffffffffffffffffffffffffffffffffff1602179055508173ffffffffffffffffffffffffffffffffffffffff168173ffffffffffffffffffffffffffffffffffffffff167f8be0079c531659141344cd1fd0a4f28419497f9722a3daafe3b4186f6b6457e060405160405180910390a35050565b5f80fd5b5f73ffffffffffffffffffffffffffffffffffffffff82169050919050565b5f6103878261035e565b9050919050565b6103978161037d565b81146103a1575f80fd5b50565b5f815190506103b28161038e565b92915050565b5f80604083850312156103ce576103cd61035a565b5b5f6103db858286016103a4565b92505060206103ec858286016103a4565b9150509250929050565b5f81519050919050565b7f4e487b71000000000000000000000000000000000000000000000000000000005f52604160045260245ffd5b7f4e487b71000000000000000000000000000000000000000000000000000000005f52602260045260245ffd5b5f600282049050600182168061047157607f821691505b6020821081036104845761048361042d565b5b50919050565b5f819050815f5260205f209050919050565b5f6020601f8301049050919050565b5f82821b905092915050565b5f600883026104e67fffffffffffffffffffffffffffffffffffffffffffffffffffffffffffffffff826104ab565b6104f086836104ab565b95508019841693508086168417925050509392505050565b5f819050919050565b5f819050919050565b5f61053461052f61052a84610508565b610511565b610508565b9050919050565b5f819050919050565b61054d8361051a565b6105616105598261053b565b8484546104b7565b825550505050565b5f90565b610575610569565b610580818484610544565b505050565b5b818110156105a3576105985f8261056d565b600181019050610586565b5050565b601f8211156105e8576105b98161048a565b6105c28461049c565b810160208510156105d1578190505b6105e56105dd8561049c565b830182610585565b50505b505050565b5f82821c905092915050565b5f6106085f19846008026105ed565b1980831691505092915050565b5f61062083836105f9565b9150826002028217905092915050565b610639826103f6565b67ffffffffffffffff81111561065257610651610400565b5b61065c825461045a565b6106678282856105a7565b5f60209050601f831160018114610698575f8415610686578287015190505b6106908582610615565b8655506106f7565b601f1984166106a68661048a565b5f5b828110156106cd578489015182556001820191506020850194506020810190506106a8565b868310156106ea57848901516106e6601f8916826105f9565b8355505b6001600288020188555050505b505050505050565b6107088161037d565b82525050565b5f6020820190506107215f8301846106ff565b92915050565b614fb9806107345f395ff3fe608060405234801561000f575f80fd5b50600436106102d4575f3560e01c806383cefb8811610180578063c87b56dd116100e7578063dcf2bff6116100a0578063e985e9c51161007a578063e985e9c514610946578063f2fde38b14610976578063faf0316314610992578063fe1a53ee146109c2576102d4565b8063dcf2bff6146108de578063e0df5b6f1461090e578063e6eef1ea1461092a576102d4565b8063c87b56dd146107f8578063ce8ba77e14610828578063d547cfb714610844578063d5c1845114610862578063d8140eb514610892578063d9f341fd146108ae576102d4565b80639fe9f623116101395780639fe9f62314610726578063a22cb46514610742578063abd896941461075e578063b88d4fde1461078e578063bcedc601146107aa578063c77b5146146107da576102d4565b806383cefb881461063e57806388b919081461066e5780638da5cb5b1461069e5780639566f24b146106bc57806395d89b41146106d85780639a307391146106f6576102d4565b806354d77e0e1161023f5780636dbee0b7116101f8578063715018a6116101d2578063715018a6146105c857806375fce015146105d25780637679fa1e146105f05780637b3bd99d1461060e576102d4565b80636dbee0b71461054c5780636f96e99c1461057c57806370a0823114610598576102d4565b806354d77e0e14610468578063558a72971461048457806359d8cfb1146104a05780635bb0d128146104d05780636352211e146105005780636372444b14610530576102d4565b806312d059871161029157806312d05987146103be5780631bb08048146103da578063219f65ce146103f657806323b872dd14610412578063378077a81461042e57806342842e0e1461044c576102d4565b806301ffc9a7146102d857806306fdde0314610308578063081812fc14610326578063095ea7b3146103565780630b24c83a146103725780630e4d023b146103a2575b5f80fd5b6102f260048036038101906102ed91906136f9565b6109f2565b6040516102ff919061373e565b60405180910390f35b610310610ad3565b60405161031d91906137c7565b60405180910390f35b610340600480360381019061033b919061381a565b610b62565b60405161034d9190613884565b60405180910390f35b610370600480360381019061036b91906138c7565b610b7d565b005b61038c6004803603810190610387919061393c565b610b93565b6040516103999190613989565b60405180910390f35b6103bc60048036038101906103b791906139d8565b610bb7565b005b6103d860048036038101906103d39190613a40565b610c7d565b005b6103f460048036038101906103ef9190613a90565b610d8e565b005b610410600480360381019061040b9190613a40565b610dd9565b005b61042c60048036038101906104279190613abb565b610eea565b005b610436610fe9565b6040516104439190613884565b60405180910390f35b61046660048036038101906104619190613abb565b61100e565b005b610482600480360381019061047d9190613b3e565b61102d565b005b61049e60048036038101906104999190613ba6565b6110de565b005b6104ba60048036038101906104b59190613be4565b611177565b6040516104c79190613c31565b60405180910390f35b6104ea60048036038101906104e5919061393c565b611197565b6040516104f79190613c59565b60405180910390f35b61051a6004803603810190610515919061381a565b6111ac565b6040516105279190613884565b60405180910390f35b61054a60048036038101906105459190613c72565b6111bd565b005b6105666004803603810190610561919061393c565b6112b6565b6040516105739190613cd1565b60405180910390f35b61059660048036038101906105919190613a90565b6112d4565b005b6105b260048036038101906105ad9190613a90565b61135f565b6040516105bf9190613c31565b60405180910390f35b6105d0611415565b005b6105da611428565b6040516105e7919061373e565b60405180910390f35b6105f861143b565b6040516106059190613cd1565b60405180910390f35b6106286004803603810190610623919061393c565b61144f565b6040516106359190613c31565b60405180910390f35b6106586004803603810190610653919061393c565b611464565b6040516106659190613cd1565b60405180910390f35b6106886004803603810190610683919061393c565b611482565b6040516106959190613cd1565b60405180910390f35b6106a66114a0565b6040516106b39190613884565b60405180910390f35b6106d660048036038101906106d19190613d4b565b6114c8565b005b6106e0611b3c565b6040516106ed91906137c7565b60405180910390f35b610710600480360381019061070b9190613a90565b611bcc565b60405161071d919061373e565b60405180910390f35b610740600480360381019061073b9190613dcf565b611be9565b005b61075c60048036038101906107579190613ba6565b611c96565b005b6107786004803603810190610773919061393c565b611cac565b6040516107859190613cd1565b60405180910390f35b6107a860048036038101906107a39190613f22565b611cca565b005b6107c460048036038101906107bf9190613ff7565b611ce7565b6040516107d1919061373e565b60405180910390f35b6107e2611d83565b6040516107ef9190613884565b60405180910390f35b610812600480360381019061080d919061381a565b611da8565b60405161081f91906137c7565b60405180910390f35b610842600480360381019061083d919061407b565b611e0e565b005b61084c611ebf565b60405161085991906137c7565b60405180910390f35b61087c6004803603810190610877919061393c565b611f4b565b6040516108899190613989565b60405180910390f35b6108ac60048036038101906108a7919061393c565b611f6f565b005b6108c860048036038101906108c39190613be4565b611f97565b6040516108d59190613c31565b60405180910390f35b6108f860048036038101906108f3919061393c565b611fb7565b6040516109059190613989565b60405180910390f35b61092860048036038101906109239190614157565b611fdb565b005b610944600480360381019061093f919061419e565b611ff6565b005b610960600480360381019061095b9190614234565b6124fc565b60405161096d919061373e565b60405180910390f35b610990600480360381019061098b9190613a90565b61258a565b005b6109ac60048036038101906109a7919061393c565b61260e565b6040516109b99190613989565b60405180910390f35b6109dc60048036038101906109d7919061393c565b612632565b6040516109e99190613cd1565b60405180910390f35b5f7f80ac58cd000000000000000000000000000000000000000000000000000000007bffffffffffffffffffffffffffffffffffffffffffffffffffffffff1916827bffffffffffffffffffffffffffffffffffffffffffffffffffffffff19161480610abc57507f5b5e139f000000000000000000000000000000000000000000000000000000007bffffffffffffffffffffffffffffffffffffffffffffffffffffffff1916827bffffffffffffffffffffffffffffffffffffffffffffffffffffffff1916145b80610acc5750610acb82612650565b5b9050919050565b60605f8054610ae19061429f565b80601f0160208091040260200160405190810160405280929190818152602001828054610b0d9061429f565b8015610b585780601f10610b2f57610100808354040283529160200191610b58565b820191905f5260205f20905b815481529060010190602001808311610b3b57829003601f168201915b5050505050905090565b5f610b6c826126b9565b50610b768261273f565b9050919050565b610b8f8282610b8a612778565b61277f565b5050565b600e602052805f5260405f205f915054906101000a900467ffffffffffffffff1681565b60195f610bc2612778565b73ffffffffffffffffffffffffffffffffffffffff1673ffffffffffffffffffffffffffffffffffffffff1681526020019081526020015f205f9054906101000a900460ff16610c47576040517f08c379a0000000000000000000000000000000000000000000000000000000008152600401610c3e90614319565b60405180910390fd5b8060125f8460ff1661ffff1681526020019081526020015f205f6101000a81548161ffff021916908361ffff1602179055505050565b60195f610c88612778565b73ffffffffffffffffffffffffffffffffffffffff1673ffffffffffffffffffffffffffffffffffffffff1681526020019081526020015f205f9054906101000a900460ff16610d0d576040517f08c379a0000000000000000000000000000000000000000000000000000000008152600401610d0490614319565b60405180910390fd5b81600d5f8560ff1661ffff1681526020019081526020015f205f6101000a81548167ffffffffffffffff021916908367ffffffffffffffff16021790555080600e5f8560ff1661ffff1681526020019081526020015f205f6101000a81548167ffffffffffffffff021916908367ffffffffffffffff160217905550505050565b610d96612791565b80600a5f6101000a81548173ffffffffffffffffffffffffffffffffffffffff021916908373ffffffffffffffffffffffffffffffffffffffff16021790555050565b60195f610de4612778565b73ffffffffffffffffffffffffffffffffffffffff1673ffffffffffffffffffffffffffffffffffffffff1681526020019081526020015f205f9054906101000a900460ff16610e69576040517f08c379a0000000000000000000000000000000000000000000000000000000008152600401610e6090614319565b60405180910390fd5b81600f5f8560ff1661ffff1681526020019081526020015f205f6101000a81548167ffffffffffffffff021916908367ffffffffffffffff1602179055508060105f8560ff1661ffff1681526020019081526020015f205f6101000a81548167ffffffffffffffff021916908367ffffffffffffffff160217905550505050565b5f73ffffffffffffffffffffffffffffffffffffffff168273ffffffffffffffffffffffffffffffffffffffff1603610f5a575f6040517f64a0ae92000000000000000000000000000000000000000000000000000000008152600401610f519190613884565b60405180910390fd5b5f610f6d8383610f68612778565b612818565b90508373ffffffffffffffffffffffffffffffffffffffff168173ffffffffffffffffffffffffffffffffffffffff1614610fe3578382826040517f64283d7b000000000000000000000000000000000000000000000000000000008152600401610fda93929190614337565b60405180910390fd5b50505050565b600a5f9054906101000a900473ffffffffffffffffffffffffffffffffffffffff1681565b61102883838360405180602001604052805f815250611cca565b505050565b60195f611038612778565b73ffffffffffffffffffffffffffffffffffffffff1673ffffffffffffffffffffffffffffffffffffffff1681526020019081526020015f205f9054906101000a900460ff166110bd576040517f08c379a00000000000000000000000000000000000000000000000000000000081526004016110b490614319565b60405180910390fd5b8060145f8460ff1661ffff1681526020019081526020015f20819055505050565b6110e6612791565b8060195f8473ffffffffffffffffffffffffffffffffffffffff1673ffffffffffffffffffffffffffffffffffffffff1681526020019081526020015f205f6101000a81548160ff0219169083151502179055507f193de8d500b5cb7b720089b258a39e9c1d0b840019a73ae7c51c3f9101732b02828260405161116b92919061436c565b60405180910390a15050565b6015602052815f5260405f20602052805f5260405f205f91509150505481565b6014602052805f5260405f205f915090505481565b5f6111b6826126b9565b9050919050565b60195f6111c8612778565b73ffffffffffffffffffffffffffffffffffffffff1673ffffffffffffffffffffffffffffffffffffffff1681526020019081526020015f205f9054906101000a900460ff1661124d576040517f08c379a000000000000000000000000000000000000000000000000000000000815260040161124490614319565b60405180910390fd5b8160115f8560ff1661ffff1681526020019081526020015f205f6101000a81548161ffff021916908361ffff1602179055508060135f8560ff1661ffff1681526020019081526020015f205f6101000a81548161ffff021916908361ffff160217905550505050565b6013602052805f5260405f205f915054906101000a900461ffff1681565b6112dc612791565b8060095f6101000a81548173ffffffffffffffffffffffffffffffffffffffff021916908373ffffffffffffffffffffffffffffffffffffffff1602179055508060085f6101000a81548173ffffffffffffffffffffffffffffffffffffffff021916908373ffffffffffffffffffffffffffffffffffffffff16021790555050565b5f8073ffffffffffffffffffffffffffffffffffffffff168273ffffffffffffffffffffffffffffffffffffffff16036113d0575f6040517f89c62b640000000000000000000000000000000000000000000000000000000081526004016113c79190613884565b60405180910390fd5b60035f8373ffffffffffffffffffffffffffffffffffffffff1673ffffffffffffffffffffffffffffffffffffffff1681526020019081526020015f20549050919050565b61141d612791565b6114265f6128b7565b565b600a60149054906101000a900460ff1681565b600a60159054906101000a900461ffff1681565b600c602052805f5260405f205f915090505481565b6017602052805f5260405f205f915054906101000a900461ffff1681565b6011602052805f5260405f205f915054906101000a900461ffff1681565b5f60065f9054906101000a900473ffffffffffffffffffffffffffffffffffffffff16905090565b5f8560ff161161150d576040517f08c379a0000000000000000000000000000000000000000000000000000000008152600401611504906143dd565b60405180910390fd5b600a60159054906101000a900461ffff1661ffff168560ff161115611567576040517f08c379a000000000000000000000000000000000000000000000000000000000815260040161155e90614445565b60405180910390fd5b60125f8660ff1661ffff1681526020019081526020015f205f9054906101000a900461ffff1661ffff168360ff1660165f8860ff1661ffff1681526020019081526020015f205f6115b6612778565b73ffffffffffffffffffffffffffffffffffffffff1673ffffffffffffffffffffffffffffffffffffffff1681526020019081526020015f20546115fa9190614490565b111561163b576040517f08c379a00000000000000000000000000000000000000000000000000000000081526004016116329061450d565b60405180910390fd5b60115f8660ff1661ffff1681526020019081526020015f205f9054906101000a900461ffff1661ffff168360ff1660175f8860ff1661ffff1681526020019081526020015f205f9054906101000a900461ffff16611699919061452b565b61ffff1611156116de576040517f08c379a00000000000000000000000000000000000000000000000000000000081526004016116d5906145aa565b60405180910390fd5b42600d5f8760ff1661ffff1681526020019081526020015f205f9054906101000a900467ffffffffffffffff1667ffffffffffffffff161115611756576040517f08c379a000000000000000000000000000000000000000000000000000000000815260040161174d90614612565b60405180910390fd5b600e5f8660ff1661ffff1681526020019081526020015f205f9054906101000a900467ffffffffffffffff1667ffffffffffffffff164211156117ce576040517f08c379a00000000000000000000000000000000000000000000000000000000081526004016117c59061467a565b60405180910390fd5b5f600c5f8760ff1661ffff1681526020019081526020015f205411156119e7575f8360ff16600c5f8860ff1661ffff1681526020019081526020015f20546118169190614698565b90508060085f9054906101000a900473ffffffffffffffffffffffffffffffffffffffff1673ffffffffffffffffffffffffffffffffffffffff1663dd62ed3e61185e612778565b306040518363ffffffff1660e01b815260040161187c9291906146d9565b602060405180830381865afa158015611897573d5f803e3d5ffd5b505050506040513d601f19601f820116820180604052508101906118bb9190614714565b10156118fc576040517f08c379a00000000000000000000000000000000000000000000000000000000081526004016118f3906147af565b60405180910390fd5b5f60085f9054906101000a900473ffffffffffffffffffffffffffffffffffffffff1673ffffffffffffffffffffffffffffffffffffffff166323b872dd611942612778565b30856040518463ffffffff1660e01b8152600401611962939291906147cd565b6020604051808303815f875af115801561197e573d5f803e3d5ffd5b505050506040513d601f19601f820116820180604052508101906119a29190614816565b9050806119e4576040517f08c379a00000000000000000000000000000000000000000000000000000000081526004016119db9061488b565b60405180910390fd5b50505b5f600190505b8360ff168111611a705760075f815480929190611a09906148a9565b9190505550611a1a8560075461297a565b7ffa1c1c9e3de56771b414aa501d44d6e7646af9791ac49106823326d8110947b65f87876007548787604051611a559695949392919061492b565b60405180910390a18080611a68906148a9565b9150506119ed565b508260ff1660175f8760ff1661ffff1681526020019081526020015f205f8282829054906101000a900461ffff16611aa8919061452b565b92506101000a81548161ffff021916908361ffff1602179055508260ff1660165f8760ff1661ffff1681526020019081526020015f205f611ae7612778565b73ffffffffffffffffffffffffffffffffffffffff1673ffffffffffffffffffffffffffffffffffffffff1681526020019081526020015f205f828254611b2e9190614490565b925050819055505050505050565b606060018054611b4b9061429f565b80601f0160208091040260200160405190810160405280929190818152602001828054611b779061429f565b8015611bc25780601f10611b9957610100808354040283529160200191611bc2565b820191905f5260205f20905b815481529060010190602001808311611ba557829003601f168201915b5050505050905090565b6019602052805f5260405f205f915054906101000a900460ff1681565b60195f611bf4612778565b73ffffffffffffffffffffffffffffffffffffffff1673ffffffffffffffffffffffffffffffffffffffff1681526020019081526020015f205f9054906101000a900460ff16611c79576040517f08c379a0000000000000000000000000000000000000000000000000000000008152600401611c7090614319565b60405180910390fd5b80600a60146101000a81548160ff02191690831515021790555050565b611ca8611ca1612778565b8383612997565b5050565b6012602052805f5260405f205f915054906101000a900461ffff1681565b611cd5848484610eea565b611ce184848484612b00565b50505050565b5f808585604051602001611cfc9291906149ea565b604051602081830303815290604052805190602001209050611d778484808060200260200160405190810160405280939291908181526020018383602002808284375f81840152601f19601f8201169050808301925050505050505060145f8a60ff1661ffff1681526020019081526020015f205483612cb2565b91505095945050505050565b60095f9054906101000a900473ffffffffffffffffffffffffffffffffffffffff1681565b6060611db3826126b9565b505f611dbd612cc8565b90505f815111611ddb5760405180602001604052805f815250611e06565b80611de584612d58565b604051602001611df6929190614a4f565b6040516020818303038152906040525b915050919050565b60195f611e19612778565b73ffffffffffffffffffffffffffffffffffffffff1673ffffffffffffffffffffffffffffffffffffffff1681526020019081526020015f205f9054906101000a900460ff16611e9e576040517f08c379a0000000000000000000000000000000000000000000000000000000008152600401611e9590614319565b60405180910390fd5b80600c5f8460ff1661ffff1681526020019081526020015f20819055505050565b600b8054611ecc9061429f565b80601f0160208091040260200160405190810160405280929190818152602001828054611ef89061429f565b8015611f435780601f10611f1a57610100808354040283529160200191611f43565b820191905f5260205f20905b815481529060010190602001808311611f2657829003601f168201915b505050505081565b6010602052805f5260405f205f915054906101000a900467ffffffffffffffff1681565b611f77612791565b80600a60156101000a81548161ffff021916908361ffff16021790555050565b6016602052815f5260405f20602052805f5260405f205f91509150505481565b600d602052805f5260405f205f915054906101000a900467ffffffffffffffff1681565b611fe3612791565b80600b9081611ff29190614c0f565b5050565b5f8660ff161161203b576040517f08c379a0000000000000000000000000000000000000000000000000000000008152600401612032906143dd565b60405180910390fd5b600a60159054906101000a900461ffff1661ffff168660ff161115612095576040517f08c379a000000000000000000000000000000000000000000000000000000000815260040161208c90614445565b60405180910390fd5b60135f8760ff1661ffff1681526020019081526020015f205f9054906101000a900461ffff1661ffff168460ff1660185f8960ff1661ffff1681526020019081526020015f205f9054906101000a900461ffff166120f3919061452b565b61ffff161115612138576040517f08c379a000000000000000000000000000000000000000000000000000000000815260040161212f9061450d565b60405180910390fd5b828460ff1660155f8960ff1661ffff1681526020019081526020015f205f61215e612778565b73ffffffffffffffffffffffffffffffffffffffff1673ffffffffffffffffffffffffffffffffffffffff1681526020019081526020015f20546121a29190614490565b11156121e3576040517f08c379a00000000000000000000000000000000000000000000000000000000081526004016121da906145aa565b60405180910390fd5b42600f5f8860ff1661ffff1681526020019081526020015f205f9054906101000a900467ffffffffffffffff1667ffffffffffffffff16111561225b576040517f08c379a000000000000000000000000000000000000000000000000000000000815260040161225290614612565b60405180910390fd5b60105f8760ff1661ffff1681526020019081526020015f205f9054906101000a900467ffffffffffffffff1667ffffffffffffffff164211156122d3576040517f08c379a00000000000000000000000000000000000000000000000000000000081526004016122ca9061467a565b60405180910390fd5b5f6122dc612778565b846040516020016122ee9291906149ea565b6040516020818303038152906040528051906020012090506123698383808060200260200160405190810160405280939291908181526020018383602002808284375f81840152601f19601f8201169050808301925050505050505060145f8a60ff1661ffff1681526020019081526020015f205483612cb2565b6123a8576040517f08c379a000000000000000000000000000000000000000000000000000000000815260040161239f90614d28565b60405180910390fd5b5f600190505b8560ff16811161242e5760075f8154809291906123ca906148a9565b91905055506123db8760075461297a565b7ffa1c1c9e3de56771b414aa501d44d6e7646af9791ac49106823326d8110947b6600189896007546040516124139493929190614d69565b60405180910390a18080612426906148a9565b9150506123ae565b508460ff1660185f8960ff1661ffff1681526020019081526020015f205f8282829054906101000a900461ffff16612466919061452b565b92506101000a81548161ffff021916908361ffff1602179055508460ff1660155f8960ff1661ffff1681526020019081526020015f205f6124a5612778565b73ffffffffffffffffffffffffffffffffffffffff1673ffffffffffffffffffffffffffffffffffffffff1681526020019081526020015f205f8282546124ec9190614490565b9250508190555050505050505050565b5f60055f8473ffffffffffffffffffffffffffffffffffffffff1673ffffffffffffffffffffffffffffffffffffffff1681526020019081526020015f205f8373ffffffffffffffffffffffffffffffffffffffff1673ffffffffffffffffffffffffffffffffffffffff1681526020019081526020015f205f9054906101000a900460ff16905092915050565b612592612791565b5f73ffffffffffffffffffffffffffffffffffffffff168173ffffffffffffffffffffffffffffffffffffffff1603612602575f6040517f1e4fbdf70000000000000000000000000000000000000000000000000000000081526004016125f99190613884565b60405180910390fd5b61260b816128b7565b50565b600f602052805f5260405f205f915054906101000a900467ffffffffffffffff1681565b6018602052805f5260405f205f915054906101000a900461ffff1681565b5f7f01ffc9a7000000000000000000000000000000000000000000000000000000007bffffffffffffffffffffffffffffffffffffffffffffffffffffffff1916827bffffffffffffffffffffffffffffffffffffffffffffffffffffffff1916149050919050565b5f806126c483612e22565b90505f73ffffffffffffffffffffffffffffffffffffffff168173ffffffffffffffffffffffffffffffffffffffff160361273657826040517f7e27328900000000000000000000000000000000000000000000000000000000815260040161272d9190613c31565b60405180910390fd5b80915050919050565b5f60045f8381526020019081526020015f205f9054906101000a900473ffffffffffffffffffffffffffffffffffffffff169050919050565b5f33905090565b61278c8383836001612e5b565b505050565b612799612778565b73ffffffffffffffffffffffffffffffffffffffff166127b76114a0565b73ffffffffffffffffffffffffffffffffffffffff1614612816576127da612778565b6040517f118cdaa700000000000000000000000000000000000000000000000000000000815260040161280d9190613884565b60405180910390fd5b565b5f8061282585858561301a565b9050600a60149054906101000a900460ff168061286d57505f73ffffffffffffffffffffffffffffffffffffffff168173ffffffffffffffffffffffffffffffffffffffff16145b6128ac576040517f08c379a00000000000000000000000000000000000000000000000000000000081526004016128a390614e09565b60405180910390fd5b809150509392505050565b5f60065f9054906101000a900473ffffffffffffffffffffffffffffffffffffffff1690508160065f6101000a81548173ffffffffffffffffffffffffffffffffffffffff021916908373ffffffffffffffffffffffffffffffffffffffff1602179055508173ffffffffffffffffffffffffffffffffffffffff168173ffffffffffffffffffffffffffffffffffffffff167f8be0079c531659141344cd1fd0a4f28419497f9722a3daafe3b4186f6b6457e060405160405180910390a35050565b612993828260405180602001604052805f815250613225565b5050565b5f73ffffffffffffffffffffffffffffffffffffffff168273ffffffffffffffffffffffffffffffffffffffff1603612a0757816040517f5b08ba180000000000000000000000000000000000000000000000000000000081526004016129fe9190613884565b60405180910390fd5b8060055f8573ffffffffffffffffffffffffffffffffffffffff1673ffffffffffffffffffffffffffffffffffffffff1681526020019081526020015f205f8473ffffffffffffffffffffffffffffffffffffffff1673ffffffffffffffffffffffffffffffffffffffff1681526020019081526020015f205f6101000a81548160ff0219169083151502179055508173ffffffffffffffffffffffffffffffffffffffff168373ffffffffffffffffffffffffffffffffffffffff167f17307eab39ab6107e8899845ad3d59bd9653f200f220920489ca2b5937696c3183604051612af3919061373e565b60405180910390a3505050565b5f8373ffffffffffffffffffffffffffffffffffffffff163b1115612cac578273ffffffffffffffffffffffffffffffffffffffff1663150b7a02612b43612778565b8685856040518563ffffffff1660e01b8152600401612b659493929190614e79565b6020604051808303815f875af1925050508015612ba057506040513d601f19601f82011682018060405250810190612b9d9190614ed7565b60015b612c21573d805f8114612bce576040519150601f19603f3d011682016040523d82523d5f602084013e612bd3565b606091505b505f815103612c1957836040517f64a0ae92000000000000000000000000000000000000000000000000000000008152600401612c109190613884565b60405180910390fd5b805181602001fd5b63150b7a0260e01b7bffffffffffffffffffffffffffffffffffffffffffffffffffffffff1916817bffffffffffffffffffffffffffffffffffffffffffffffffffffffff191614612caa57836040517f64a0ae92000000000000000000000000000000000000000000000000000000008152600401612ca19190613884565b60405180910390fd5b505b50505050565b5f82612cbe8584613240565b1490509392505050565b6060600b8054612cd79061429f565b80601f0160208091040260200160405190810160405280929190818152602001828054612d039061429f565b8015612d4e5780601f10612d2557610100808354040283529160200191612d4e565b820191905f5260205f20905b815481529060010190602001808311612d3157829003601f168201915b5050505050905090565b60605f6001612d668461328e565b0190505f8167ffffffffffffffff811115612d8457612d83613dfe565b5b6040519080825280601f01601f191660200182016040528015612db65781602001600182028036833780820191505090505b5090505f82602001820190505b600115612e17578080600190039150507f3031323334353637383961626364656600000000000000000000000000000000600a86061a8153600a8581612e0c57612e0b614f02565b5b0494505f8503612dc3575b819350505050919050565b5f60025f8381526020019081526020015f205f9054906101000a900473ffffffffffffffffffffffffffffffffffffffff169050919050565b8080612e9357505f73ffffffffffffffffffffffffffffffffffffffff168273ffffffffffffffffffffffffffffffffffffffff1614155b15612fc5575f612ea2846126b9565b90505f73ffffffffffffffffffffffffffffffffffffffff168373ffffffffffffffffffffffffffffffffffffffff1614158015612f0c57508273ffffffffffffffffffffffffffffffffffffffff168173ffffffffffffffffffffffffffffffffffffffff1614155b8015612f1f5750612f1d81846124fc565b155b15612f6157826040517fa9fbf51f000000000000000000000000000000000000000000000000000000008152600401612f589190613884565b60405180910390fd5b8115612fc357838573ffffffffffffffffffffffffffffffffffffffff168273ffffffffffffffffffffffffffffffffffffffff167f8c5be1e5ebec7d5bd14f71427d1e84f3dd0314c0f7b2291e5b200ac8c7c3b92560405160405180910390a45b505b8360045f8581526020019081526020015f205f6101000a81548173ffffffffffffffffffffffffffffffffffffffff021916908373ffffffffffffffffffffffffffffffffffffffff16021790555050505050565b5f8061302584612e22565b90505f73ffffffffffffffffffffffffffffffffffffffff168373ffffffffffffffffffffffffffffffffffffffff1614613066576130658184866133df565b5b5f73ffffffffffffffffffffffffffffffffffffffff168173ffffffffffffffffffffffffffffffffffffffff16146130f1576130a55f855f80612e5b565b600160035f8373ffffffffffffffffffffffffffffffffffffffff1673ffffffffffffffffffffffffffffffffffffffff1681526020019081526020015f205f82825403925050819055505b5f73ffffffffffffffffffffffffffffffffffffffff168573ffffffffffffffffffffffffffffffffffffffff161461317057600160035f8773ffffffffffffffffffffffffffffffffffffffff1673ffffffffffffffffffffffffffffffffffffffff1681526020019081526020015f205f82825401925050819055505b8460025f8681526020019081526020015f205f6101000a81548173ffffffffffffffffffffffffffffffffffffffff021916908373ffffffffffffffffffffffffffffffffffffffff160217905550838573ffffffffffffffffffffffffffffffffffffffff168273ffffffffffffffffffffffffffffffffffffffff167fddf252ad1be2c89b69c2b068fc378daa952ba7f163c4a11628f55a4df523b3ef60405160405180910390a4809150509392505050565b61322f83836134a2565b61323b5f848484612b00565b505050565b5f808290505f5b8451811015613283576132748286838151811061326757613266614f2f565b5b6020026020010151613595565b91508080600101915050613247565b508091505092915050565b5f805f90507a184f03e93ff9f4daa797ed6e38ed64bf6a1f01000000000000000083106132ea577a184f03e93ff9f4daa797ed6e38ed64bf6a1f01000000000000000083816132e0576132df614f02565b5b0492506040810190505b6d04ee2d6d415b85acef81000000008310613327576d04ee2d6d415b85acef8100000000838161331d5761331c614f02565b5b0492506020810190505b662386f26fc10000831061335657662386f26fc10000838161334c5761334b614f02565b5b0492506010810190505b6305f5e100831061337f576305f5e100838161337557613374614f02565b5b0492506008810190505b61271083106133a457612710838161339a57613399614f02565b5b0492506004810190505b606483106133c757606483816133bd576133bc614f02565b5b0492506002810190505b600a83106133d6576001810190505b80915050919050565b6133ea8383836135bf565b61349d575f73ffffffffffffffffffffffffffffffffffffffff168373ffffffffffffffffffffffffffffffffffffffff160361345e57806040517f7e2732890000000000000000000000000000000000000000000000000000000081526004016134559190613c31565b60405180910390fd5b81816040517f177e802f000000000000000000000000000000000000000000000000000000008152600401613494929190614f5c565b60405180910390fd5b505050565b5f73ffffffffffffffffffffffffffffffffffffffff168273ffffffffffffffffffffffffffffffffffffffff1603613512575f6040517f64a0ae920000000000000000000000000000000000000000000000000000000081526004016135099190613884565b60405180910390fd5b5f61351e83835f612818565b90505f73ffffffffffffffffffffffffffffffffffffffff168173ffffffffffffffffffffffffffffffffffffffff1614613590575f6040517f73c6ac6e0000000000000000000000000000000000000000000000000000000081526004016135879190613884565b60405180910390fd5b505050565b5f8183106135ac576135a7828461367f565b6135b7565b6135b6838361367f565b5b905092915050565b5f8073ffffffffffffffffffffffffffffffffffffffff168373ffffffffffffffffffffffffffffffffffffffff161415801561367657508273ffffffffffffffffffffffffffffffffffffffff168473ffffffffffffffffffffffffffffffffffffffff161480613637575061363684846124fc565b5b8061367557508273ffffffffffffffffffffffffffffffffffffffff1661365d8361273f565b73ffffffffffffffffffffffffffffffffffffffff16145b5b90509392505050565b5f825f528160205260405f20905092915050565b5f604051905090565b5f80fd5b5f80fd5b5f7fffffffff0000000000000000000000000000000000000000000000000000000082169050919050565b6136d8816136a4565b81146136e2575f80fd5b50565b5f813590506136f3816136cf565b92915050565b5f6020828403121561370e5761370d61369c565b5b5f61371b848285016136e5565b91505092915050565b5f8115159050919050565b61373881613724565b82525050565b5f6020820190506137515f83018461372f565b92915050565b5f81519050919050565b5f82825260208201905092915050565b8281835e5f83830152505050565b5f601f19601f8301169050919050565b5f61379982613757565b6137a38185613761565b93506137b3818560208601613771565b6137bc8161377f565b840191505092915050565b5f6020820190508181035f8301526137df818461378f565b905092915050565b5f819050919050565b6137f9816137e7565b8114613803575f80fd5b50565b5f81359050613814816137f0565b92915050565b5f6020828403121561382f5761382e61369c565b5b5f61383c84828501613806565b91505092915050565b5f73ffffffffffffffffffffffffffffffffffffffff82169050919050565b5f61386e82613845565b9050919050565b61387e81613864565b82525050565b5f6020820190506138975f830184613875565b92915050565b6138a681613864565b81146138b0575f80fd5b50565b5f813590506138c18161389d565b92915050565b5f80604083850312156138dd576138dc61369c565b5b5f6138ea858286016138b3565b92505060206138fb85828601613806565b9150509250929050565b5f61ffff82169050919050565b61391b81613905565b8114613925575f80fd5b50565b5f8135905061393681613912565b92915050565b5f602082840312156139515761395061369c565b5b5f61395e84828501613928565b91505092915050565b5f67ffffffffffffffff82169050919050565b61398381613967565b82525050565b5f60208201905061399c5f83018461397a565b92915050565b5f60ff82169050919050565b6139b7816139a2565b81146139c1575f80fd5b50565b5f813590506139d2816139ae565b92915050565b5f80604083850312156139ee576139ed61369c565b5b5f6139fb858286016139c4565b9250506020613a0c85828601613928565b9150509250929050565b613a1f81613967565b8114613a29575f80fd5b50565b5f81359050613a3a81613a16565b92915050565b5f805f60608486031215613a5757613a5661369c565b5b5f613a64868287016139c4565b9350506020613a7586828701613a2c565b9250506040613a8686828701613a2c565b9150509250925092565b5f60208284031215613aa557613aa461369c565b5b5f613ab2848285016138b3565b91505092915050565b5f805f60608486031215613ad257613ad161369c565b5b5f613adf868287016138b3565b9350506020613af0868287016138b3565b9250506040613b0186828701613806565b9150509250925092565b5f819050919050565b613b1d81613b0b565b8114613b27575f80fd5b50565b5f81359050613b3881613b14565b92915050565b5f8060408385031215613b5457613b5361369c565b5b5f613b61858286016139c4565b9250506020613b7285828601613b2a565b9150509250929050565b613b8581613724565b8114613b8f575f80fd5b50565b5f81359050613ba081613b7c565b92915050565b5f8060408385031215613bbc57613bbb61369c565b5b5f613bc9858286016138b3565b9250506020613bda85828601613b92565b9150509250929050565b5f8060408385031215613bfa57613bf961369c565b5b5f613c0785828601613928565b9250506020613c18858286016138b3565b9150509250929050565b613c2b816137e7565b82525050565b5f602082019050613c445f830184613c22565b92915050565b613c5381613b0b565b82525050565b5f602082019050613c6c5f830184613c4a565b92915050565b5f805f60608486031215613c8957613c8861369c565b5b5f613c96868287016139c4565b9350506020613ca786828701613928565b9250506040613cb886828701613928565b9150509250925092565b613ccb81613905565b82525050565b5f602082019050613ce45f830184613cc2565b92915050565b5f80fd5b5f80fd5b5f80fd5b5f8083601f840112613d0b57613d0a613cea565b5b8235905067ffffffffffffffff811115613d2857613d27613cee565b5b602083019150836001820283011115613d4457613d43613cf2565b5b9250929050565b5f805f805f60808688031215613d6457613d6361369c565b5b5f613d71888289016139c4565b9550506020613d82888289016138b3565b9450506040613d93888289016139c4565b935050606086013567ffffffffffffffff811115613db457613db36136a0565b5b613dc088828901613cf6565b92509250509295509295909350565b5f60208284031215613de457613de361369c565b5b5f613df184828501613b92565b91505092915050565b5f80fd5b7f4e487b71000000000000000000000000000000000000000000000000000000005f52604160045260245ffd5b613e348261377f565b810181811067ffffffffffffffff82111715613e5357613e52613dfe565b5b80604052505050565b5f613e65613693565b9050613e718282613e2b565b919050565b5f67ffffffffffffffff821115613e9057613e8f613dfe565b5b613e998261377f565b9050602081019050919050565b828183375f83830152505050565b5f613ec6613ec184613e76565b613e5c565b905082815260208101848484011115613ee257613ee1613dfa565b5b613eed848285613ea6565b509392505050565b5f82601f830112613f0957613f08613cea565b5b8135613f19848260208601613eb4565b91505092915050565b5f805f8060808587031215613f3a57613f3961369c565b5b5f613f47878288016138b3565b9450506020613f58878288016138b3565b9350506040613f6987828801613806565b925050606085013567ffffffffffffffff811115613f8a57613f896136a0565b5b613f9687828801613ef5565b91505092959194509250565b5f8083601f840112613fb757613fb6613cea565b5b8235905067ffffffffffffffff811115613fd457613fd3613cee565b5b602083019150836020820283011115613ff057613fef613cf2565b5b9250929050565b5f805f805f608086880312156140105761400f61369c565b5b5f61401d888289016139c4565b955050602061402e888289016138b3565b945050604061403f88828901613806565b935050606086013567ffffffffffffffff8111156140605761405f6136a0565b5b61406c88828901613fa2565b92509250509295509295909350565b5f80604083850312156140915761409061369c565b5b5f61409e858286016139c4565b92505060206140af85828601613806565b9150509250929050565b5f67ffffffffffffffff8211156140d3576140d2613dfe565b5b6140dc8261377f565b9050602081019050919050565b5f6140fb6140f6846140b9565b613e5c565b90508281526020810184848401111561411757614116613dfa565b5b614122848285613ea6565b509392505050565b5f82601f83011261413e5761413d613cea565b5b813561414e8482602086016140e9565b91505092915050565b5f6020828403121561416c5761416b61369c565b5b5f82013567ffffffffffffffff811115614189576141886136a0565b5b6141958482850161412a565b91505092915050565b5f805f805f8060a087890312156141b8576141b761369c565b5b5f6141c589828a016139c4565b96505060206141d689828a016138b3565b95505060406141e789828a016139c4565b94505060606141f889828a01613806565b935050608087013567ffffffffffffffff811115614219576142186136a0565b5b61422589828a01613fa2565b92509250509295509295509295565b5f806040838503121561424a5761424961369c565b5b5f614257858286016138b3565b9250506020614268858286016138b3565b9150509250929050565b7f4e487b71000000000000000000000000000000000000000000000000000000005f52602260045260245ffd5b5f60028204905060018216806142b657607f821691505b6020821081036142c9576142c8614272565b5b50919050565b7f596f7520617265206e6f7420746865206f70657261746f7200000000000000005f82015250565b5f614303601883613761565b915061430e826142cf565b602082019050919050565b5f6020820190508181035f830152614330816142f7565b9050919050565b5f60608201905061434a5f830186613875565b6143576020830185613c22565b6143646040830184613875565b949350505050565b5f60408201905061437f5f830185613875565b61438c602083018461372f565b9392505050565b7f746965722043616e2774204245205a45524f00000000000000000000000000005f82015250565b5f6143c7601283613761565b91506143d282614393565b602082019050919050565b5f6020820190508181035f8301526143f4816143bb565b9050919050565b7f7469657220544f4f204c415247450000000000000000000000000000000000005f82015250565b5f61442f600e83613761565b915061443a826143fb565b602082019050919050565b5f6020820190508181035f83015261445c81614423565b9050919050565b7f4e487b71000000000000000000000000000000000000000000000000000000005f52601160045260245ffd5b5f61449a826137e7565b91506144a5836137e7565b92508282019050808211156144bd576144bc614463565b5b92915050565b7f43616e2774206d696e74206d6f7265207468616e20616c6c6f776564000000005f82015250565b5f6144f7601c83613761565b9150614502826144c3565b602082019050919050565b5f6020820190508181035f830152614524816144eb565b9050919050565b5f61453582613905565b915061454083613905565b9250828201905061ffff81111561455a57614559614463565b5b92915050565b7f43616e6e6f74206d696e74206d6f7265207468616e20616c6c6f7765640000005f82015250565b5f614594601d83613761565b915061459f82614560565b602082019050919050565b5f6020820190508181035f8301526145c181614588565b9050919050565b7f73746172745f74696d657374616d70206e6f7420616c6c6f77656400000000005f82015250565b5f6145fc601b83613761565b9150614607826145c8565b602082019050919050565b5f6020820190508181035f830152614629816145f0565b9050919050565b7f656e645f74696d657374616d70206e6f7420616c6c6f776564000000000000005f82015250565b5f614664601983613761565b915061466f82614630565b602082019050919050565b5f6020820190508181035f83015261469181614658565b9050919050565b5f6146a2826137e7565b91506146ad836137e7565b92508282026146bb816137e7565b915082820484148315176146d2576146d1614463565b5b5092915050565b5f6040820190506146ec5f830185613875565b6146f96020830184613875565b9392505050565b5f8151905061470e816137f0565b92915050565b5f602082840312156147295761472861369c565b5b5f61473684828501614700565b91505092915050565b7f416c6c6f77616e6365206973206c657373207468616e207472616e73666572205f8201527f616d6f756e740000000000000000000000000000000000000000000000000000602082015250565b5f614799602683613761565b91506147a48261473f565b604082019050919050565b5f6020820190508181035f8301526147c68161478d565b9050919050565b5f6060820190506147e05f830186613875565b6147ed6020830185613875565b6147fa6040830184613c22565b949350505050565b5f8151905061481081613b7c565b92915050565b5f6020828403121561482b5761482a61369c565b5b5f61483884828501614802565b91505092915050565b7f4661696c656420746f207472616e736665722066756e647300000000000000005f82015250565b5f614875601883613761565b915061488082614841565b602082019050919050565b5f6020820190508181035f8301526148a281614869565b9050919050565b5f6148b3826137e7565b91507fffffffffffffffffffffffffffffffffffffffffffffffffffffffffffffffff82036148e5576148e4614463565b5b600182019050919050565b6148f9816139a2565b82525050565b5f61490a8385613761565b9350614917838584613ea6565b6149208361377f565b840190509392505050565b5f60a08201905061493e5f83018961372f565b61494b60208301886148f0565b6149586040830187613875565b6149656060830186613c22565b81810360808301526149788184866148ff565b9050979650505050505050565b5f8160601b9050919050565b5f61499b82614985565b9050919050565b5f6149ac82614991565b9050919050565b6149c46149bf82613864565b6149a2565b82525050565b5f819050919050565b6149e46149df826137e7565b6149ca565b82525050565b5f6149f582856149b3565b601482019150614a0582846149d3565b6020820191508190509392505050565b5f81905092915050565b5f614a2982613757565b614a338185614a15565b9350614a43818560208601613771565b80840191505092915050565b5f614a5a8285614a1f565b9150614a668284614a1f565b91508190509392505050565b5f819050815f5260205f209050919050565b5f6020601f8301049050919050565b5f82821b905092915050565b5f60088302614ace7fffffffffffffffffffffffffffffffffffffffffffffffffffffffffffffffff82614a93565b614ad88683614a93565b95508019841693508086168417925050509392505050565b5f819050919050565b5f614b13614b0e614b09846137e7565b614af0565b6137e7565b9050919050565b5f819050919050565b614b2c83614af9565b614b40614b3882614b1a565b848454614a9f565b825550505050565b5f90565b614b54614b48565b614b5f818484614b23565b505050565b5b81811015614b8257614b775f82614b4c565b600181019050614b65565b5050565b601f821115614bc757614b9881614a72565b614ba184614a84565b81016020851015614bb0578190505b614bc4614bbc85614a84565b830182614b64565b50505b505050565b5f82821c905092915050565b5f614be75f1984600802614bcc565b1980831691505092915050565b5f614bff8383614bd8565b9150826002028217905092915050565b614c1882613757565b67ffffffffffffffff811115614c3157614c30613dfe565b5b614c3b825461429f565b614c46828285614b86565b5f60209050601f831160018114614c77575f8415614c65578287015190505b614c6f8582614bf4565b865550614cd6565b601f198416614c8586614a72565b5f5b82811015614cac57848901518255600182019150602085019450602081019050614c87565b86831015614cc95784890151614cc5601f891682614bd8565b8355505b6001600288020188555050505b505050505050565b7f496e76616c6964204d65726b6c652050726f6f660000000000000000000000005f82015250565b5f614d12601483613761565b9150614d1d82614cde565b602082019050919050565b5f6020820190508181035f830152614d3f81614d06565b9050919050565b50565b5f614d545f83613761565b9150614d5f82614d46565b5f82019050919050565b5f60a082019050614d7c5f83018761372f565b614d8960208301866148f0565b614d966040830185613875565b614da36060830184613c22565b8181036080830152614db481614d49565b905095945050505050565b7f5472616e73666572206e6f7420656e61626c65640000000000000000000000005f82015250565b5f614df3601483613761565b9150614dfe82614dbf565b602082019050919050565b5f6020820190508181035f830152614e2081614de7565b9050919050565b5f81519050919050565b5f82825260208201905092915050565b5f614e4b82614e27565b614e558185614e31565b9350614e65818560208601613771565b614e6e8161377f565b840191505092915050565b5f608082019050614e8c5f830187613875565b614e996020830186613875565b614ea66040830185613c22565b8181036060830152614eb88184614e41565b905095945050505050565b5f81519050614ed1816136cf565b92915050565b5f60208284031215614eec57614eeb61369c565b5b5f614ef984828501614ec3565b91505092915050565b7f4e487b71000000000000000000000000000000000000000000000000000000005f52601260045260245ffd5b7f4e487b71000000000000000000000000000000000000000000000000000000005f52603260045260245ffd5b5f604082019050614f6f5f830185613875565b614f7c6020830184613c22565b939250505056fea2646970667358221220d4895db54c844d21f0c059c1ac2add91ffa65fa71b4a72c240f19c5f5616080564736f6c63430008190033",
			"opcodes": "PUSH1 0x80 PUSH1 0x40 MSTORE CALLVALUE DUP1 ISZERO PUSH2 0xF JUMPI PUSH0 DUP1 REVERT JUMPDEST POP PUSH1 0x40 MLOAD PUSH2 0x56ED CODESIZE SUB DUP1 PUSH2 0x56ED DUP4 CODECOPY DUP2 DUP2 ADD PUSH1 0x40 MSTORE DUP2 ADD SWAP1 PUSH2 0x31 SWAP2 SWAP1 PUSH2 0x3B8 JUMP JUMPDEST DUP2 PUSH1 0x40 MLOAD DUP1 PUSH1 0x40 ADD PUSH1 0x40 MSTORE DUP1 PUSH1 0x15 DUP2 MSTORE PUSH1 0x20 ADD PUSH32 0x54455354206B697020636865636B6572206E6F64650000000000000000000000 DUP2 MSTORE POP PUSH1 0x40 MLOAD DUP1 PUSH1 0x40 ADD PUSH1 0x40 MSTORE DUP1 PUSH1 0x7 DUP2 MSTORE PUSH1 0x20 ADD PUSH32 0x4B49504E4F444500000000000000000000000000000000000000000000000000 DUP2 MSTORE POP DUP2 PUSH0 SWAP1 DUP2 PUSH2 0xAC SWAP2 SWAP1 PUSH2 0x630 JUMP JUMPDEST POP DUP1 PUSH1 0x1 SWAP1 DUP2 PUSH2 0xBC SWAP2 SWAP1 PUSH2 0x630 JUMP JUMPDEST POP POP POP PUSH0 PUSH20 0xFFFFFFFFFFFFFFFFFFFFFFFFFFFFFFFFFFFFFFFF AND DUP2 PUSH20 0xFFFFFFFFFFFFFFFFFFFFFFFFFFFFFFFFFFFFFFFF AND SUB PUSH2 0x12F JUMPI PUSH0 PUSH1 0x40 MLOAD PUSH32 0x1E4FBDF700000000000000000000000000000000000000000000000000000000 DUP2 MSTORE PUSH1 0x4 ADD PUSH2 0x126 SWAP2 SWAP1 PUSH2 0x70E JUMP JUMPDEST PUSH1 0x40 MLOAD DUP1 SWAP2 SUB SWAP1 REVERT JUMPDEST PUSH2 0x13E DUP2 PUSH2 0x297 PUSH1 0x20 SHL PUSH1 0x20 SHR JUMP JUMPDEST POP DUP1 PUSH1 0x8 PUSH0 PUSH2 0x100 EXP DUP2 SLOAD DUP2 PUSH20 0xFFFFFFFFFFFFFFFFFFFFFFFFFFFFFFFFFFFFFFFF MUL NOT AND SWAP1 DUP4 PUSH20 0xFFFFFFFFFFFFFFFFFFFFFFFFFFFFFFFFFFFFFFFF AND MUL OR SWAP1 SSTORE POP DUP1 PUSH1 0x9 PUSH0 PUSH2 0x100 EXP DUP2 SLOAD DUP2 PUSH20 0xFFFFFFFFFFFFFFFFFFFFFFFFFFFFFFFFFFFFFFFF MUL NOT AND SWAP1 DUP4 PUSH20 0xFFFFFFFFFFFFFFFFFFFFFFFFFFFFFFFFFFFFFFFF AND MUL OR SWAP1 SSTORE POP PUSH20 0x6E3BBB13330102989AC110163E4C649D0BB88777 PUSH1 0xA PUSH0 PUSH2 0x100 EXP DUP2 SLOAD DUP2 PUSH20 0xFFFFFFFFFFFFFFFFFFFFFFFFFFFFFFFFFFFFFFFF MUL NOT AND SWAP1 DUP4 PUSH20 0xFFFFFFFFFFFFFFFFFFFFFFFFFFFFFFFFFFFFFFFF AND MUL OR SWAP1 SSTORE POP PUSH0 PUSH1 0xA PUSH1 0x14 PUSH2 0x100 EXP DUP2 SLOAD DUP2 PUSH1 0xFF MUL NOT AND SWAP1 DUP4 ISZERO ISZERO MUL OR SWAP1 SSTORE POP PUSH1 0x26 PUSH1 0xA PUSH1 0x15 PUSH2 0x100 EXP DUP2 SLOAD DUP2 PUSH2 0xFFFF MUL NOT AND SWAP1 DUP4 PUSH2 0xFFFF AND MUL OR SWAP1 SSTORE POP PUSH1 0x40 MLOAD DUP1 PUSH1 0x40 ADD PUSH1 0x40 MSTORE DUP1 PUSH1 0x19 DUP2 MSTORE PUSH1 0x20 ADD PUSH32 0x68747470733A2F2F6E6F64652D6E66742E6B69702E70726F2F00000000000000 DUP2 MSTORE POP PUSH1 0xB SWAP1 DUP2 PUSH2 0x28F SWAP2 SWAP1 PUSH2 0x630 JUMP JUMPDEST POP POP POP PUSH2 0x727 JUMP JUMPDEST PUSH0 PUSH1 0x6 PUSH0 SWAP1 SLOAD SWAP1 PUSH2 0x100 EXP SWAP1 DIV PUSH20 0xFFFFFFFFFFFFFFFFFFFFFFFFFFFFFFFFFFFFFFFF AND SWAP1 POP DUP2 PUSH1 0x6 PUSH0 PUSH2 0x100 EXP DUP2 SLOAD DUP2 PUSH20 0xFFFFFFFFFFFFFFFFFFFFFFFFFFFFFFFFFFFFFFFF MUL NOT AND SWAP1 DUP4 PUSH20 0xFFFFFFFFFFFFFFFFFFFFFFFFFFFFFFFFFFFFFFFF AND MUL OR SWAP1 SSTORE POP DUP2 PUSH20 0xFFFFFFFFFFFFFFFFFFFFFFFFFFFFFFFFFFFFFFFF AND DUP2 PUSH20 0xFFFFFFFFFFFFFFFFFFFFFFFFFFFFFFFFFFFFFFFF AND PUSH32 0x8BE0079C531659141344CD1FD0A4F28419497F9722A3DAAFE3B4186F6B6457E0 PUSH1 0x40 MLOAD PUSH1 0x40 MLOAD DUP1 SWAP2 SUB SWAP1 LOG3 POP POP JUMP JUMPDEST PUSH0 DUP1 REVERT JUMPDEST PUSH0 PUSH20 0xFFFFFFFFFFFFFFFFFFFFFFFFFFFFFFFFFFFFFFFF DUP3 AND SWAP1 POP SWAP2 SWAP1 POP JUMP JUMPDEST PUSH0 PUSH2 0x387 DUP3 PUSH2 0x35E JUMP JUMPDEST SWAP1 POP SWAP2 SWAP1 POP JUMP JUMPDEST PUSH2 0x397 DUP2 PUSH2 0x37D JUMP JUMPDEST DUP2 EQ PUSH2 0x3A1 JUMPI PUSH0 DUP1 REVERT JUMPDEST POP JUMP JUMPDEST PUSH0 DUP2 MLOAD SWAP1 POP PUSH2 0x3B2 DUP2 PUSH2 0x38E JUMP JUMPDEST SWAP3 SWAP2 POP POP JUMP JUMPDEST PUSH0 DUP1 PUSH1 0x40 DUP4 DUP6 SUB SLT ISZERO PUSH2 0x3CE JUMPI PUSH2 0x3CD PUSH2 0x35A JUMP JUMPDEST JUMPDEST PUSH0 PUSH2 0x3DB DUP6 DUP3 DUP7 ADD PUSH2 0x3A4 JUMP JUMPDEST SWAP3 POP POP PUSH1 0x20 PUSH2 0x3EC DUP6 DUP3 DUP7 ADD PUSH2 0x3A4 JUMP JUMPDEST SWAP2 POP POP SWAP3 POP SWAP3 SWAP1 POP JUMP JUMPDEST PUSH0 DUP2 MLOAD SWAP1 POP SWAP2 SWAP1 POP JUMP JUMPDEST PUSH32 0x4E487B7100000000000000000000000000000000000000000000000000000000 PUSH0 MSTORE PUSH1 0x41 PUSH1 0x4 MSTORE PUSH1 0x24 PUSH0 REVERT JUMPDEST PUSH32 0x4E487B7100000000000000000000000000000000000000000000000000000000 PUSH0 MSTORE PUSH1 0x22 PUSH1 0x4 MSTORE PUSH1 0x24 PUSH0 REVERT JUMPDEST PUSH0 PUSH1 0x2 DUP3 DIV SWAP1 POP PUSH1 0x1 DUP3 AND DUP1 PUSH2 0x471 JUMPI PUSH1 0x7F DUP3 AND SWAP2 POP JUMPDEST PUSH1 0x20 DUP3 LT DUP2 SUB PUSH2 0x484 JUMPI PUSH2 0x483 PUSH2 0x42D JUMP JUMPDEST JUMPDEST POP SWAP2 SWAP1 POP JUMP JUMPDEST PUSH0 DUP2 SWAP1 POP DUP2 PUSH0 MSTORE PUSH1 0x20 PUSH0 KECCAK256 SWAP1 POP SWAP2 SWAP1 POP JUMP JUMPDEST PUSH0 PUSH1 0x20 PUSH1 0x1F DUP4 ADD DIV SWAP1 POP SWAP2 SWAP1 POP JUMP JUMPDEST PUSH0 DUP3 DUP3 SHL SWAP1 POP SWAP3 SWAP2 POP POP JUMP JUMPDEST PUSH0 PUSH1 0x8 DUP4 MUL PUSH2 0x4E6 PUSH32 0xFFFFFFFFFFFFFFFFFFFFFFFFFFFFFFFFFFFFFFFFFFFFFFFFFFFFFFFFFFFFFFFF DUP3 PUSH2 0x4AB JUMP JUMPDEST PUSH2 0x4F0 DUP7 DUP4 PUSH2 0x4AB JUMP JUMPDEST SWAP6 POP DUP1 NOT DUP5 AND SWAP4 POP DUP1 DUP7 AND DUP5 OR SWAP3 POP POP POP SWAP4 SWAP3 POP POP POP JUMP JUMPDEST PUSH0 DUP2 SWAP1 POP SWAP2 SWAP1 POP JUMP JUMPDEST PUSH0 DUP2 SWAP1 POP SWAP2 SWAP1 POP JUMP JUMPDEST PUSH0 PUSH2 0x534 PUSH2 0x52F PUSH2 0x52A DUP5 PUSH2 0x508 JUMP JUMPDEST PUSH2 0x511 JUMP JUMPDEST PUSH2 0x508 JUMP JUMPDEST SWAP1 POP SWAP2 SWAP1 POP JUMP JUMPDEST PUSH0 DUP2 SWAP1 POP SWAP2 SWAP1 POP JUMP JUMPDEST PUSH2 0x54D DUP4 PUSH2 0x51A JUMP JUMPDEST PUSH2 0x561 PUSH2 0x559 DUP3 PUSH2 0x53B JUMP JUMPDEST DUP5 DUP5 SLOAD PUSH2 0x4B7 JUMP JUMPDEST DUP3 SSTORE POP POP POP POP JUMP JUMPDEST PUSH0 SWAP1 JUMP JUMPDEST PUSH2 0x575 PUSH2 0x569 JUMP JUMPDEST PUSH2 0x580 DUP2 DUP5 DUP5 PUSH2 0x544 JUMP JUMPDEST POP POP POP JUMP JUMPDEST JUMPDEST DUP2 DUP2 LT ISZERO PUSH2 0x5A3 JUMPI PUSH2 0x598 PUSH0 DUP3 PUSH2 0x56D JUMP JUMPDEST PUSH1 0x1 DUP2 ADD SWAP1 POP PUSH2 0x586 JUMP JUMPDEST POP POP JUMP JUMPDEST PUSH1 0x1F DUP3 GT ISZERO PUSH2 0x5E8 JUMPI PUSH2 0x5B9 DUP2 PUSH2 0x48A JUMP JUMPDEST PUSH2 0x5C2 DUP5 PUSH2 0x49C JUMP JUMPDEST DUP2 ADD PUSH1 0x20 DUP6 LT ISZERO PUSH2 0x5D1 JUMPI DUP2 SWAP1 POP JUMPDEST PUSH2 0x5E5 PUSH2 0x5DD DUP6 PUSH2 0x49C JUMP JUMPDEST DUP4 ADD DUP3 PUSH2 0x585 JUMP JUMPDEST POP POP JUMPDEST POP POP POP JUMP JUMPDEST PUSH0 DUP3 DUP3 SHR SWAP1 POP SWAP3 SWAP2 POP POP JUMP JUMPDEST PUSH0 PUSH2 0x608 PUSH0 NOT DUP5 PUSH1 0x8 MUL PUSH2 0x5ED JUMP JUMPDEST NOT DUP1 DUP4 AND SWAP2 POP POP SWAP3 SWAP2 POP POP JUMP JUMPDEST PUSH0 PUSH2 0x620 DUP4 DUP4 PUSH2 0x5F9 JUMP JUMPDEST SWAP2 POP DUP3 PUSH1 0x2 MUL DUP3 OR SWAP1 POP SWAP3 SWAP2 POP POP JUMP JUMPDEST PUSH2 0x639 DUP3 PUSH2 0x3F6 JUMP JUMPDEST PUSH8 0xFFFFFFFFFFFFFFFF DUP2 GT ISZERO PUSH2 0x652 JUMPI PUSH2 0x651 PUSH2 0x400 JUMP JUMPDEST JUMPDEST PUSH2 0x65C DUP3 SLOAD PUSH2 0x45A JUMP JUMPDEST PUSH2 0x667 DUP3 DUP3 DUP6 PUSH2 0x5A7 JUMP JUMPDEST PUSH0 PUSH1 0x20 SWAP1 POP PUSH1 0x1F DUP4 GT PUSH1 0x1 DUP2 EQ PUSH2 0x698 JUMPI PUSH0 DUP5 ISZERO PUSH2 0x686 JUMPI DUP3 DUP8 ADD MLOAD SWAP1 POP JUMPDEST PUSH2 0x690 DUP6 DUP3 PUSH2 0x615 JUMP JUMPDEST DUP7 SSTORE POP PUSH2 0x6F7 JUMP JUMPDEST PUSH1 0x1F NOT DUP5 AND PUSH2 0x6A6 DUP7 PUSH2 0x48A JUMP JUMPDEST PUSH0 JUMPDEST DUP3 DUP2 LT ISZERO PUSH2 0x6CD JUMPI DUP5 DUP10 ADD MLOAD DUP3 SSTORE PUSH1 0x1 DUP3 ADD SWAP2 POP PUSH1 0x20 DUP6 ADD SWAP5 POP PUSH1 0x20 DUP2 ADD SWAP1 POP PUSH2 0x6A8 JUMP JUMPDEST DUP7 DUP4 LT ISZERO PUSH2 0x6EA JUMPI DUP5 DUP10 ADD MLOAD PUSH2 0x6E6 PUSH1 0x1F DUP10 AND DUP3 PUSH2 0x5F9 JUMP JUMPDEST DUP4 SSTORE POP JUMPDEST PUSH1 0x1 PUSH1 0x2 DUP9 MUL ADD DUP9 SSTORE POP POP POP JUMPDEST POP POP POP POP POP POP JUMP JUMPDEST PUSH2 0x708 DUP2 PUSH2 0x37D JUMP JUMPDEST DUP3 MSTORE POP POP JUMP JUMPDEST PUSH0 PUSH1 0x20 DUP3 ADD SWAP1 POP PUSH2 0x721 PUSH0 DUP4 ADD DUP5 PUSH2 0x6FF JUMP JUMPDEST SWAP3 SWAP2 POP POP JUMP JUMPDEST PUSH2 0x4FB9 DUP1 PUSH2 0x734 PUSH0 CODECOPY PUSH0 RETURN INVALID PUSH1 0x80 PUSH1 0x40 MSTORE CALLVALUE DUP1 ISZERO PUSH2 0xF JUMPI PUSH0 DUP1 REVERT JUMPDEST POP PUSH1 0x4 CALLDATASIZE LT PUSH2 0x2D4 JUMPI PUSH0 CALLDATALOAD PUSH1 0xE0 SHR DUP1 PUSH4 0x83CEFB88 GT PUSH2 0x180 JUMPI DUP1 PUSH4 0xC87B56DD GT PUSH2 0xE7 JUMPI DUP1 PUSH4 0xDCF2BFF6 GT PUSH2 0xA0 JUMPI DUP1 PUSH4 0xE985E9C5 GT PUSH2 0x7A JUMPI DUP1 PUSH4 0xE985E9C5 EQ PUSH2 0x946 JUMPI DUP1 PUSH4 0xF2FDE38B EQ PUSH2 0x976 JUMPI DUP1 PUSH4 0xFAF03163 EQ PUSH2 0x992 JUMPI DUP1 PUSH4 0xFE1A53EE EQ PUSH2 0x9C2 JUMPI PUSH2 0x2D4 JUMP JUMPDEST DUP1 PUSH4 0xDCF2BFF6 EQ PUSH2 0x8DE JUMPI DUP1 PUSH4 0xE0DF5B6F EQ PUSH2 0x90E JUMPI DUP1 PUSH4 0xE6EEF1EA EQ PUSH2 0x92A JUMPI PUSH2 0x2D4 JUMP JUMPDEST DUP1 PUSH4 0xC87B56DD EQ PUSH2 0x7F8 JUMPI DUP1 PUSH4 0xCE8BA77E EQ PUSH2 0x828 JUMPI DUP1 PUSH4 0xD547CFB7 EQ PUSH2 0x844 JUMPI DUP1 PUSH4 0xD5C18451 EQ PUSH2 0x862 JUMPI DUP1 PUSH4 0xD8140EB5 EQ PUSH2 0x892 JUMPI DUP1 PUSH4 0xD9F341FD EQ PUSH2 0x8AE JUMPI PUSH2 0x2D4 JUMP JUMPDEST DUP1 PUSH4 0x9FE9F623 GT PUSH2 0x139 JUMPI DUP1 PUSH4 0x9FE9F623 EQ PUSH2 0x726 JUMPI DUP1 PUSH4 0xA22CB465 EQ PUSH2 0x742 JUMPI DUP1 PUSH4 0xABD89694 EQ PUSH2 0x75E JUMPI DUP1 PUSH4 0xB88D4FDE EQ PUSH2 0x78E JUMPI DUP1 PUSH4 0xBCEDC601 EQ PUSH2 0x7AA JUMPI DUP1 PUSH4 0xC77B5146 EQ PUSH2 0x7DA JUMPI PUSH2 0x2D4 JUMP JUMPDEST DUP1 PUSH4 0x83CEFB88 EQ PUSH2 0x63E JUMPI DUP1 PUSH4 0x88B91908 EQ PUSH2 0x66E JUMPI DUP1 PUSH4 0x8DA5CB5B EQ PUSH2 0x69E JUMPI DUP1 PUSH4 0x9566F24B EQ PUSH2 0x6BC JUMPI DUP1 PUSH4 0x95D89B41 EQ PUSH2 0x6D8 JUMPI DUP1 PUSH4 0x9A307391 EQ PUSH2 0x6F6 JUMPI PUSH2 0x2D4 JUMP JUMPDEST DUP1 PUSH4 0x54D77E0E GT PUSH2 0x23F JUMPI DUP1 PUSH4 0x6DBEE0B7 GT PUSH2 0x1F8 JUMPI DUP1 PUSH4 0x715018A6 GT PUSH2 0x1D2 JUMPI DUP1 PUSH4 0x715018A6 EQ PUSH2 0x5C8 JUMPI DUP1 PUSH4 0x75FCE015 EQ PUSH2 0x5D2 JUMPI DUP1 PUSH4 0x7679FA1E EQ PUSH2 0x5F0 JUMPI DUP1 PUSH4 0x7B3BD99D EQ PUSH2 0x60E JUMPI PUSH2 0x2D4 JUMP JUMPDEST DUP1 PUSH4 0x6DBEE0B7 EQ PUSH2 0x54C JUMPI DUP1 PUSH4 0x6F96E99C EQ PUSH2 0x57C JUMPI DUP1 PUSH4 0x70A08231 EQ PUSH2 0x598 JUMPI PUSH2 0x2D4 JUMP JUMPDEST DUP1 PUSH4 0x54D77E0E EQ PUSH2 0x468 JUMPI DUP1 PUSH4 0x558A7297 EQ PUSH2 0x484 JUMPI DUP1 PUSH4 0x59D8CFB1 EQ PUSH2 0x4A0 JUMPI DUP1 PUSH4 0x5BB0D128 EQ PUSH2 0x4D0 JUMPI DUP1 PUSH4 0x6352211E EQ PUSH2 0x500 JUMPI DUP1 PUSH4 0x6372444B EQ PUSH2 0x530 JUMPI PUSH2 0x2D4 JUMP JUMPDEST DUP1 PUSH4 0x12D05987 GT PUSH2 0x291 JUMPI DUP1 PUSH4 0x12D05987 EQ PUSH2 0x3BE JUMPI DUP1 PUSH4 0x1BB08048 EQ PUSH2 0x3DA JUMPI DUP1 PUSH4 0x219F65CE EQ PUSH2 0x3F6 JUMPI DUP1 PUSH4 0x23B872DD EQ PUSH2 0x412 JUMPI DUP1 PUSH4 0x378077A8 EQ PUSH2 0x42E JUMPI DUP1 PUSH4 0x42842E0E EQ PUSH2 0x44C JUMPI PUSH2 0x2D4 JUMP JUMPDEST DUP1 PUSH4 0x1FFC9A7 EQ PUSH2 0x2D8 JUMPI DUP1 PUSH4 0x6FDDE03 EQ PUSH2 0x308 JUMPI DUP1 PUSH4 0x81812FC EQ PUSH2 0x326 JUMPI DUP1 PUSH4 0x95EA7B3 EQ PUSH2 0x356 JUMPI DUP1 PUSH4 0xB24C83A EQ PUSH2 0x372 JUMPI DUP1 PUSH4 0xE4D023B EQ PUSH2 0x3A2 JUMPI JUMPDEST PUSH0 DUP1 REVERT JUMPDEST PUSH2 0x2F2 PUSH1 0x4 DUP1 CALLDATASIZE SUB DUP2 ADD SWAP1 PUSH2 0x2ED SWAP2 SWAP1 PUSH2 0x36F9 JUMP JUMPDEST PUSH2 0x9F2 JUMP JUMPDEST PUSH1 0x40 MLOAD PUSH2 0x2FF SWAP2 SWAP1 PUSH2 0x373E JUMP JUMPDEST PUSH1 0x40 MLOAD DUP1 SWAP2 SUB SWAP1 RETURN JUMPDEST PUSH2 0x310 PUSH2 0xAD3 JUMP JUMPDEST PUSH1 0x40 MLOAD PUSH2 0x31D SWAP2 SWAP1 PUSH2 0x37C7 JUMP JUMPDEST PUSH1 0x40 MLOAD DUP1 SWAP2 SUB SWAP1 RETURN JUMPDEST PUSH2 0x340 PUSH1 0x4 DUP1 CALLDATASIZE SUB DUP2 ADD SWAP1 PUSH2 0x33B SWAP2 SWAP1 PUSH2 0x381A JUMP JUMPDEST PUSH2 0xB62 JUMP JUMPDEST PUSH1 0x40 MLOAD PUSH2 0x34D SWAP2 SWAP1 PUSH2 0x3884 JUMP JUMPDEST PUSH1 0x40 MLOAD DUP1 SWAP2 SUB SWAP1 RETURN JUMPDEST PUSH2 0x370 PUSH1 0x4 DUP1 CALLDATASIZE SUB DUP2 ADD SWAP1 PUSH2 0x36B SWAP2 SWAP1 PUSH2 0x38C7 JUMP JUMPDEST PUSH2 0xB7D JUMP JUMPDEST STOP JUMPDEST PUSH2 0x38C PUSH1 0x4 DUP1 CALLDATASIZE SUB DUP2 ADD SWAP1 PUSH2 0x387 SWAP2 SWAP1 PUSH2 0x393C JUMP JUMPDEST PUSH2 0xB93 JUMP JUMPDEST PUSH1 0x40 MLOAD PUSH2 0x399 SWAP2 SWAP1 PUSH2 0x3989 JUMP JUMPDEST PUSH1 0x40 MLOAD DUP1 SWAP2 SUB SWAP1 RETURN JUMPDEST PUSH2 0x3BC PUSH1 0x4 DUP1 CALLDATASIZE SUB DUP2 ADD SWAP1 PUSH2 0x3B7 SWAP2 SWAP1 PUSH2 0x39D8 JUMP JUMPDEST PUSH2 0xBB7 JUMP JUMPDEST STOP JUMPDEST PUSH2 0x3D8 PUSH1 0x4 DUP1 CALLDATASIZE SUB DUP2 ADD SWAP1 PUSH2 0x3D3 SWAP2 SWAP1 PUSH2 0x3A40 JUMP JUMPDEST PUSH2 0xC7D JUMP JUMPDEST STOP JUMPDEST PUSH2 0x3F4 PUSH1 0x4 DUP1 CALLDATASIZE SUB DUP2 ADD SWAP1 PUSH2 0x3EF SWAP2 SWAP1 PUSH2 0x3A90 JUMP JUMPDEST PUSH2 0xD8E JUMP JUMPDEST STOP JUMPDEST PUSH2 0x410 PUSH1 0x4 DUP1 CALLDATASIZE SUB DUP2 ADD SWAP1 PUSH2 0x40B SWAP2 SWAP1 PUSH2 0x3A40 JUMP JUMPDEST PUSH2 0xDD9 JUMP JUMPDEST STOP JUMPDEST PUSH2 0x42C PUSH1 0x4 DUP1 CALLDATASIZE SUB DUP2 ADD SWAP1 PUSH2 0x427 SWAP2 SWAP1 PUSH2 0x3ABB JUMP JUMPDEST PUSH2 0xEEA JUMP JUMPDEST STOP JUMPDEST PUSH2 0x436 PUSH2 0xFE9 JUMP JUMPDEST PUSH1 0x40 MLOAD PUSH2 0x443 SWAP2 SWAP1 PUSH2 0x3884 JUMP JUMPDEST PUSH1 0x40 MLOAD DUP1 SWAP2 SUB SWAP1 RETURN JUMPDEST PUSH2 0x466 PUSH1 0x4 DUP1 CALLDATASIZE SUB DUP2 ADD SWAP1 PUSH2 0x461 SWAP2 SWAP1 PUSH2 0x3ABB JUMP JUMPDEST PUSH2 0x100E JUMP JUMPDEST STOP JUMPDEST PUSH2 0x482 PUSH1 0x4 DUP1 CALLDATASIZE SUB DUP2 ADD SWAP1 PUSH2 0x47D SWAP2 SWAP1 PUSH2 0x3B3E JUMP JUMPDEST PUSH2 0x102D JUMP JUMPDEST STOP JUMPDEST PUSH2 0x49E PUSH1 0x4 DUP1 CALLDATASIZE SUB DUP2 ADD SWAP1 PUSH2 0x499 SWAP2 SWAP1 PUSH2 0x3BA6 JUMP JUMPDEST PUSH2 0x10DE JUMP JUMPDEST STOP JUMPDEST PUSH2 0x4BA PUSH1 0x4 DUP1 CALLDATASIZE SUB DUP2 ADD SWAP1 PUSH2 0x4B5 SWAP2 SWAP1 PUSH2 0x3BE4 JUMP JUMPDEST PUSH2 0x1177 JUMP JUMPDEST PUSH1 0x40 MLOAD PUSH2 0x4C7 SWAP2 SWAP1 PUSH2 0x3C31 JUMP JUMPDEST PUSH1 0x40 MLOAD DUP1 SWAP2 SUB SWAP1 RETURN JUMPDEST PUSH2 0x4EA PUSH1 0x4 DUP1 CALLDATASIZE SUB DUP2 ADD SWAP1 PUSH2 0x4E5 SWAP2 SWAP1 PUSH2 0x393C JUMP JUMPDEST PUSH2 0x1197 JUMP JUMPDEST PUSH1 0x40 MLOAD PUSH2 0x4F7 SWAP2 SWAP1 PUSH2 0x3C59 JUMP JUMPDEST PUSH1 0x40 MLOAD DUP1 SWAP2 SUB SWAP1 RETURN JUMPDEST PUSH2 0x51A PUSH1 0x4 DUP1 CALLDATASIZE SUB DUP2 ADD SWAP1 PUSH2 0x515 SWAP2 SWAP1 PUSH2 0x381A JUMP JUMPDEST PUSH2 0x11AC JUMP JUMPDEST PUSH1 0x40 MLOAD PUSH2 0x527 SWAP2 SWAP1 PUSH2 0x3884 JUMP JUMPDEST PUSH1 0x40 MLOAD DUP1 SWAP2 SUB SWAP1 RETURN JUMPDEST PUSH2 0x54A PUSH1 0x4 DUP1 CALLDATASIZE SUB DUP2 ADD SWAP1 PUSH2 0x545 SWAP2 SWAP1 PUSH2 0x3C72 JUMP JUMPDEST PUSH2 0x11BD JUMP JUMPDEST STOP JUMPDEST PUSH2 0x566 PUSH1 0x4 DUP1 CALLDATASIZE SUB DUP2 ADD SWAP1 PUSH2 0x561 SWAP2 SWAP1 PUSH2 0x393C JUMP JUMPDEST PUSH2 0x12B6 JUMP JUMPDEST PUSH1 0x40 MLOAD PUSH2 0x573 SWAP2 SWAP1 PUSH2 0x3CD1 JUMP JUMPDEST PUSH1 0x40 MLOAD DUP1 SWAP2 SUB SWAP1 RETURN JUMPDEST PUSH2 0x596 PUSH1 0x4 DUP1 CALLDATASIZE SUB DUP2 ADD SWAP1 PUSH2 0x591 SWAP2 SWAP1 PUSH2 0x3A90 JUMP JUMPDEST PUSH2 0x12D4 JUMP JUMPDEST STOP JUMPDEST PUSH2 0x5B2 PUSH1 0x4 DUP1 CALLDATASIZE SUB DUP2 ADD SWAP1 PUSH2 0x5AD SWAP2 SWAP1 PUSH2 0x3A90 JUMP JUMPDEST PUSH2 0x135F JUMP JUMPDEST PUSH1 0x40 MLOAD PUSH2 0x5BF SWAP2 SWAP1 PUSH2 0x3C31 JUMP JUMPDEST PUSH1 0x40 MLOAD DUP1 SWAP2 SUB SWAP1 RETURN JUMPDEST PUSH2 0x5D0 PUSH2 0x1415 JUMP JUMPDEST STOP JUMPDEST PUSH2 0x5DA PUSH2 0x1428 JUMP JUMPDEST PUSH1 0x40 MLOAD PUSH2 0x5E7 SWAP2 SWAP1 PUSH2 0x373E JUMP JUMPDEST PUSH1 0x40 MLOAD DUP1 SWAP2 SUB SWAP1 RETURN JUMPDEST PUSH2 0x5F8 PUSH2 0x143B JUMP JUMPDEST PUSH1 0x40 MLOAD PUSH2 0x605 SWAP2 SWAP1 PUSH2 0x3CD1 JUMP JUMPDEST PUSH1 0x40 MLOAD DUP1 SWAP2 SUB SWAP1 RETURN JUMPDEST PUSH2 0x628 PUSH1 0x4 DUP1 CALLDATASIZE SUB DUP2 ADD SWAP1 PUSH2 0x623 SWAP2 SWAP1 PUSH2 0x393C JUMP JUMPDEST PUSH2 0x144F JUMP JUMPDEST PUSH1 0x40 MLOAD PUSH2 0x635 SWAP2 SWAP1 PUSH2 0x3C31 JUMP JUMPDEST PUSH1 0x40 MLOAD DUP1 SWAP2 SUB SWAP1 RETURN JUMPDEST PUSH2 0x658 PUSH1 0x4 DUP1 CALLDATASIZE SUB DUP2 ADD SWAP1 PUSH2 0x653 SWAP2 SWAP1 PUSH2 0x393C JUMP JUMPDEST PUSH2 0x1464 JUMP JUMPDEST PUSH1 0x40 MLOAD PUSH2 0x665 SWAP2 SWAP1 PUSH2 0x3CD1 JUMP JUMPDEST PUSH1 0x40 MLOAD DUP1 SWAP2 SUB SWAP1 RETURN JUMPDEST PUSH2 0x688 PUSH1 0x4 DUP1 CALLDATASIZE SUB DUP2 ADD SWAP1 PUSH2 0x683 SWAP2 SWAP1 PUSH2 0x393C JUMP JUMPDEST PUSH2 0x1482 JUMP JUMPDEST PUSH1 0x40 MLOAD PUSH2 0x695 SWAP2 SWAP1 PUSH2 0x3CD1 JUMP JUMPDEST PUSH1 0x40 MLOAD DUP1 SWAP2 SUB SWAP1 RETURN JUMPDEST PUSH2 0x6A6 PUSH2 0x14A0 JUMP JUMPDEST PUSH1 0x40 MLOAD PUSH2 0x6B3 SWAP2 SWAP1 PUSH2 0x3884 JUMP JUMPDEST PUSH1 0x40 MLOAD DUP1 SWAP2 SUB SWAP1 RETURN JUMPDEST PUSH2 0x6D6 PUSH1 0x4 DUP1 CALLDATASIZE SUB DUP2 ADD SWAP1 PUSH2 0x6D1 SWAP2 SWAP1 PUSH2 0x3D4B JUMP JUMPDEST PUSH2 0x14C8 JUMP JUMPDEST STOP JUMPDEST PUSH2 0x6E0 PUSH2 0x1B3C JUMP JUMPDEST PUSH1 0x40 MLOAD PUSH2 0x6ED SWAP2 SWAP1 PUSH2 0x37C7 JUMP JUMPDEST PUSH1 0x40 MLOAD DUP1 SWAP2 SUB SWAP1 RETURN JUMPDEST PUSH2 0x710 PUSH1 0x4 DUP1 CALLDATASIZE SUB DUP2 ADD SWAP1 PUSH2 0x70B SWAP2 SWAP1 PUSH2 0x3A90 JUMP JUMPDEST PUSH2 0x1BCC JUMP JUMPDEST PUSH1 0x40 MLOAD PUSH2 0x71D SWAP2 SWAP1 PUSH2 0x373E JUMP JUMPDEST PUSH1 0x40 MLOAD DUP1 SWAP2 SUB SWAP1 RETURN JUMPDEST PUSH2 0x740 PUSH1 0x4 DUP1 CALLDATASIZE SUB DUP2 ADD SWAP1 PUSH2 0x73B SWAP2 SWAP1 PUSH2 0x3DCF JUMP JUMPDEST PUSH2 0x1BE9 JUMP JUMPDEST STOP JUMPDEST PUSH2 0x75C PUSH1 0x4 DUP1 CALLDATASIZE SUB DUP2 ADD SWAP1 PUSH2 0x757 SWAP2 SWAP1 PUSH2 0x3BA6 JUMP JUMPDEST PUSH2 0x1C96 JUMP JUMPDEST STOP JUMPDEST PUSH2 0x778 PUSH1 0x4 DUP1 CALLDATASIZE SUB DUP2 ADD SWAP1 PUSH2 0x773 SWAP2 SWAP1 PUSH2 0x393C JUMP JUMPDEST PUSH2 0x1CAC JUMP JUMPDEST PUSH1 0x40 MLOAD PUSH2 0x785 SWAP2 SWAP1 PUSH2 0x3CD1 JUMP JUMPDEST PUSH1 0x40 MLOAD DUP1 SWAP2 SUB SWAP1 RETURN JUMPDEST PUSH2 0x7A8 PUSH1 0x4 DUP1 CALLDATASIZE SUB DUP2 ADD SWAP1 PUSH2 0x7A3 SWAP2 SWAP1 PUSH2 0x3F22 JUMP JUMPDEST PUSH2 0x1CCA JUMP JUMPDEST STOP JUMPDEST PUSH2 0x7C4 PUSH1 0x4 DUP1 CALLDATASIZE SUB DUP2 ADD SWAP1 PUSH2 0x7BF SWAP2 SWAP1 PUSH2 0x3FF7 JUMP JUMPDEST PUSH2 0x1CE7 JUMP JUMPDEST PUSH1 0x40 MLOAD PUSH2 0x7D1 SWAP2 SWAP1 PUSH2 0x373E JUMP JUMPDEST PUSH1 0x40 MLOAD DUP1 SWAP2 SUB SWAP1 RETURN JUMPDEST PUSH2 0x7E2 PUSH2 0x1D83 JUMP JUMPDEST PUSH1 0x40 MLOAD PUSH2 0x7EF SWAP2 SWAP1 PUSH2 0x3884 JUMP JUMPDEST PUSH1 0x40 MLOAD DUP1 SWAP2 SUB SWAP1 RETURN JUMPDEST PUSH2 0x812 PUSH1 0x4 DUP1 CALLDATASIZE SUB DUP2 ADD SWAP1 PUSH2 0x80D SWAP2 SWAP1 PUSH2 0x381A JUMP JUMPDEST PUSH2 0x1DA8 JUMP JUMPDEST PUSH1 0x40 MLOAD PUSH2 0x81F SWAP2 SWAP1 PUSH2 0x37C7 JUMP JUMPDEST PUSH1 0x40 MLOAD DUP1 SWAP2 SUB SWAP1 RETURN JUMPDEST PUSH2 0x842 PUSH1 0x4 DUP1 CALLDATASIZE SUB DUP2 ADD SWAP1 PUSH2 0x83D SWAP2 SWAP1 PUSH2 0x407B JUMP JUMPDEST PUSH2 0x1E0E JUMP JUMPDEST STOP JUMPDEST PUSH2 0x84C PUSH2 0x1EBF JUMP JUMPDEST PUSH1 0x40 MLOAD PUSH2 0x859 SWAP2 SWAP1 PUSH2 0x37C7 JUMP JUMPDEST PUSH1 0x40 MLOAD DUP1 SWAP2 SUB SWAP1 RETURN JUMPDEST PUSH2 0x87C PUSH1 0x4 DUP1 CALLDATASIZE SUB DUP2 ADD SWAP1 PUSH2 0x877 SWAP2 SWAP1 PUSH2 0x393C JUMP JUMPDEST PUSH2 0x1F4B JUMP JUMPDEST PUSH1 0x40 MLOAD PUSH2 0x889 SWAP2 SWAP1 PUSH2 0x3989 JUMP JUMPDEST PUSH1 0x40 MLOAD DUP1 SWAP2 SUB SWAP1 RETURN JUMPDEST PUSH2 0x8AC PUSH1 0x4 DUP1 CALLDATASIZE SUB DUP2 ADD SWAP1 PUSH2 0x8A7 SWAP2 SWAP1 PUSH2 0x393C JUMP JUMPDEST PUSH2 0x1F6F JUMP JUMPDEST STOP JUMPDEST PUSH2 0x8C8 PUSH1 0x4 DUP1 CALLDATASIZE SUB DUP2 ADD SWAP1 PUSH2 0x8C3 SWAP2 SWAP1 PUSH2 0x3BE4 JUMP JUMPDEST PUSH2 0x1F97 JUMP JUMPDEST PUSH1 0x40 MLOAD PUSH2 0x8D5 SWAP2 SWAP1 PUSH2 0x3C31 JUMP JUMPDEST PUSH1 0x40 MLOAD DUP1 SWAP2 SUB SWAP1 RETURN JUMPDEST PUSH2 0x8F8 PUSH1 0x4 DUP1 CALLDATASIZE SUB DUP2 ADD SWAP1 PUSH2 0x8F3 SWAP2 SWAP1 PUSH2 0x393C JUMP JUMPDEST PUSH2 0x1FB7 JUMP JUMPDEST PUSH1 0x40 MLOAD PUSH2 0x905 SWAP2 SWAP1 PUSH2 0x3989 JUMP JUMPDEST PUSH1 0x40 MLOAD DUP1 SWAP2 SUB SWAP1 RETURN JUMPDEST PUSH2 0x928 PUSH1 0x4 DUP1 CALLDATASIZE SUB DUP2 ADD SWAP1 PUSH2 0x923 SWAP2 SWAP1 PUSH2 0x4157 JUMP JUMPDEST PUSH2 0x1FDB JUMP JUMPDEST STOP JUMPDEST PUSH2 0x944 PUSH1 0x4 DUP1 CALLDATASIZE SUB DUP2 ADD SWAP1 PUSH2 0x93F SWAP2 SWAP1 PUSH2 0x419E JUMP JUMPDEST PUSH2 0x1FF6 JUMP JUMPDEST STOP JUMPDEST PUSH2 0x960 PUSH1 0x4 DUP1 CALLDATASIZE SUB DUP2 ADD SWAP1 PUSH2 0x95B SWAP2 SWAP1 PUSH2 0x4234 JUMP JUMPDEST PUSH2 0x24FC JUMP JUMPDEST PUSH1 0x40 MLOAD PUSH2 0x96D SWAP2 SWAP1 PUSH2 0x373E JUMP JUMPDEST PUSH1 0x40 MLOAD DUP1 SWAP2 SUB SWAP1 RETURN JUMPDEST PUSH2 0x990 PUSH1 0x4 DUP1 CALLDATASIZE SUB DUP2 ADD SWAP1 PUSH2 0x98B SWAP2 SWAP1 PUSH2 0x3A90 JUMP JUMPDEST PUSH2 0x258A JUMP JUMPDEST STOP JUMPDEST PUSH2 0x9AC PUSH1 0x4 DUP1 CALLDATASIZE SUB DUP2 ADD SWAP1 PUSH2 0x9A7 SWAP2 SWAP1 PUSH2 0x393C JUMP JUMPDEST PUSH2 0x260E JUMP JUMPDEST PUSH1 0x40 MLOAD PUSH2 0x9B9 SWAP2 SWAP1 PUSH2 0x3989 JUMP JUMPDEST PUSH1 0x40 MLOAD DUP1 SWAP2 SUB SWAP1 RETURN JUMPDEST PUSH2 0x9DC PUSH1 0x4 DUP1 CALLDATASIZE SUB DUP2 ADD SWAP1 PUSH2 0x9D7 SWAP2 SWAP1 PUSH2 0x393C JUMP JUMPDEST PUSH2 0x2632 JUMP JUMPDEST PUSH1 0x40 MLOAD PUSH2 0x9E9 SWAP2 SWAP1 PUSH2 0x3CD1 JUMP JUMPDEST PUSH1 0x40 MLOAD DUP1 SWAP2 SUB SWAP1 RETURN JUMPDEST PUSH0 PUSH32 0x80AC58CD00000000000000000000000000000000000000000000000000000000 PUSH28 0xFFFFFFFFFFFFFFFFFFFFFFFFFFFFFFFFFFFFFFFFFFFFFFFFFFFFFFFF NOT AND DUP3 PUSH28 0xFFFFFFFFFFFFFFFFFFFFFFFFFFFFFFFFFFFFFFFFFFFFFFFFFFFFFFFF NOT AND EQ DUP1 PUSH2 0xABC JUMPI POP PUSH32 0x5B5E139F00000000000000000000000000000000000000000000000000000000 PUSH28 0xFFFFFFFFFFFFFFFFFFFFFFFFFFFFFFFFFFFFFFFFFFFFFFFFFFFFFFFF NOT AND DUP3 PUSH28 0xFFFFFFFFFFFFFFFFFFFFFFFFFFFFFFFFFFFFFFFFFFFFFFFFFFFFFFFF NOT AND EQ JUMPDEST DUP1 PUSH2 0xACC JUMPI POP PUSH2 0xACB DUP3 PUSH2 0x2650 JUMP JUMPDEST JUMPDEST SWAP1 POP SWAP2 SWAP1 POP JUMP JUMPDEST PUSH1 0x60 PUSH0 DUP1 SLOAD PUSH2 0xAE1 SWAP1 PUSH2 0x429F JUMP JUMPDEST DUP1 PUSH1 0x1F ADD PUSH1 0x20 DUP1 SWAP2 DIV MUL PUSH1 0x20 ADD PUSH1 0x40 MLOAD SWAP1 DUP2 ADD PUSH1 0x40 MSTORE DUP1 SWAP3 SWAP2 SWAP1 DUP2 DUP2 MSTORE PUSH1 0x20 ADD DUP3 DUP1 SLOAD PUSH2 0xB0D SWAP1 PUSH2 0x429F JUMP JUMPDEST DUP1 ISZERO PUSH2 0xB58 JUMPI DUP1 PUSH1 0x1F LT PUSH2 0xB2F JUMPI PUSH2 0x100 DUP1 DUP4 SLOAD DIV MUL DUP4 MSTORE SWAP2 PUSH1 0x20 ADD SWAP2 PUSH2 0xB58 JUMP JUMPDEST DUP3 ADD SWAP2 SWAP1 PUSH0 MSTORE PUSH1 0x20 PUSH0 KECCAK256 SWAP1 JUMPDEST DUP2 SLOAD DUP2 MSTORE SWAP1 PUSH1 0x1 ADD SWAP1 PUSH1 0x20 ADD DUP1 DUP4 GT PUSH2 0xB3B JUMPI DUP3 SWAP1 SUB PUSH1 0x1F AND DUP3 ADD SWAP2 JUMPDEST POP POP POP POP POP SWAP1 POP SWAP1 JUMP JUMPDEST PUSH0 PUSH2 0xB6C DUP3 PUSH2 0x26B9 JUMP JUMPDEST POP PUSH2 0xB76 DUP3 PUSH2 0x273F JUMP JUMPDEST SWAP1 POP SWAP2 SWAP1 POP JUMP JUMPDEST PUSH2 0xB8F DUP3 DUP3 PUSH2 0xB8A PUSH2 0x2778 JUMP JUMPDEST PUSH2 0x277F JUMP JUMPDEST POP POP JUMP JUMPDEST PUSH1 0xE PUSH1 0x20 MSTORE DUP1 PUSH0 MSTORE PUSH1 0x40 PUSH0 KECCAK256 PUSH0 SWAP2 POP SLOAD SWAP1 PUSH2 0x100 EXP SWAP1 DIV PUSH8 0xFFFFFFFFFFFFFFFF AND DUP2 JUMP JUMPDEST PUSH1 0x19 PUSH0 PUSH2 0xBC2 PUSH2 0x2778 JUMP JUMPDEST PUSH20 0xFFFFFFFFFFFFFFFFFFFFFFFFFFFFFFFFFFFFFFFF AND PUSH20 0xFFFFFFFFFFFFFFFFFFFFFFFFFFFFFFFFFFFFFFFF AND DUP2 MSTORE PUSH1 0x20 ADD SWAP1 DUP2 MSTORE PUSH1 0x20 ADD PUSH0 KECCAK256 PUSH0 SWAP1 SLOAD SWAP1 PUSH2 0x100 EXP SWAP1 DIV PUSH1 0xFF AND PUSH2 0xC47 JUMPI PUSH1 0x40 MLOAD PUSH32 0x8C379A000000000000000000000000000000000000000000000000000000000 DUP2 MSTORE PUSH1 0x4 ADD PUSH2 0xC3E SWAP1 PUSH2 0x4319 JUMP JUMPDEST PUSH1 0x40 MLOAD DUP1 SWAP2 SUB SWAP1 REVERT JUMPDEST DUP1 PUSH1 0x12 PUSH0 DUP5 PUSH1 0xFF AND PUSH2 0xFFFF AND DUP2 MSTORE PUSH1 0x20 ADD SWAP1 DUP2 MSTORE PUSH1 0x20 ADD PUSH0 KECCAK256 PUSH0 PUSH2 0x100 EXP DUP2 SLOAD DUP2 PUSH2 0xFFFF MUL NOT AND SWAP1 DUP4 PUSH2 0xFFFF AND MUL OR SWAP1 SSTORE POP POP POP JUMP JUMPDEST PUSH1 0x19 PUSH0 PUSH2 0xC88 PUSH2 0x2778 JUMP JUMPDEST PUSH20 0xFFFFFFFFFFFFFFFFFFFFFFFFFFFFFFFFFFFFFFFF AND PUSH20 0xFFFFFFFFFFFFFFFFFFFFFFFFFFFFFFFFFFFFFFFF AND DUP2 MSTORE PUSH1 0x20 ADD SWAP1 DUP2 MSTORE PUSH1 0x20 ADD PUSH0 KECCAK256 PUSH0 SWAP1 SLOAD SWAP1 PUSH2 0x100 EXP SWAP1 DIV PUSH1 0xFF AND PUSH2 0xD0D JUMPI PUSH1 0x40 MLOAD PUSH32 0x8C379A000000000000000000000000000000000000000000000000000000000 DUP2 MSTORE PUSH1 0x4 ADD PUSH2 0xD04 SWAP1 PUSH2 0x4319 JUMP JUMPDEST PUSH1 0x40 MLOAD DUP1 SWAP2 SUB SWAP1 REVERT JUMPDEST DUP2 PUSH1 0xD PUSH0 DUP6 PUSH1 0xFF AND PUSH2 0xFFFF AND DUP2 MSTORE PUSH1 0x20 ADD SWAP1 DUP2 MSTORE PUSH1 0x20 ADD PUSH0 KECCAK256 PUSH0 PUSH2 0x100 EXP DUP2 SLOAD DUP2 PUSH8 0xFFFFFFFFFFFFFFFF MUL NOT AND SWAP1 DUP4 PUSH8 0xFFFFFFFFFFFFFFFF AND MUL OR SWAP1 SSTORE POP DUP1 PUSH1 0xE PUSH0 DUP6 PUSH1 0xFF AND PUSH2 0xFFFF AND DUP2 MSTORE PUSH1 0x20 ADD SWAP1 DUP2 MSTORE PUSH1 0x20 ADD PUSH0 KECCAK256 PUSH0 PUSH2 0x100 EXP DUP2 SLOAD DUP2 PUSH8 0xFFFFFFFFFFFFFFFF MUL NOT AND SWAP1 DUP4 PUSH8 0xFFFFFFFFFFFFFFFF AND MUL OR SWAP1 SSTORE POP POP POP POP JUMP JUMPDEST PUSH2 0xD96 PUSH2 0x2791 JUMP JUMPDEST DUP1 PUSH1 0xA PUSH0 PUSH2 0x100 EXP DUP2 SLOAD DUP2 PUSH20 0xFFFFFFFFFFFFFFFFFFFFFFFFFFFFFFFFFFFFFFFF MUL NOT AND SWAP1 DUP4 PUSH20 0xFFFFFFFFFFFFFFFFFFFFFFFFFFFFFFFFFFFFFFFF AND MUL OR SWAP1 SSTORE POP POP JUMP JUMPDEST PUSH1 0x19 PUSH0 PUSH2 0xDE4 PUSH2 0x2778 JUMP JUMPDEST PUSH20 0xFFFFFFFFFFFFFFFFFFFFFFFFFFFFFFFFFFFFFFFF AND PUSH20 0xFFFFFFFFFFFFFFFFFFFFFFFFFFFFFFFFFFFFFFFF AND DUP2 MSTORE PUSH1 0x20 ADD SWAP1 DUP2 MSTORE PUSH1 0x20 ADD PUSH0 KECCAK256 PUSH0 SWAP1 SLOAD SWAP1 PUSH2 0x100 EXP SWAP1 DIV PUSH1 0xFF AND PUSH2 0xE69 JUMPI PUSH1 0x40 MLOAD PUSH32 0x8C379A000000000000000000000000000000000000000000000000000000000 DUP2 MSTORE PUSH1 0x4 ADD PUSH2 0xE60 SWAP1 PUSH2 0x4319 JUMP JUMPDEST PUSH1 0x40 MLOAD DUP1 SWAP2 SUB SWAP1 REVERT JUMPDEST DUP2 PUSH1 0xF PUSH0 DUP6 PUSH1 0xFF AND PUSH2 0xFFFF AND DUP2 MSTORE PUSH1 0x20 ADD SWAP1 DUP2 MSTORE PUSH1 0x20 ADD PUSH0 KECCAK256 PUSH0 PUSH2 0x100 EXP DUP2 SLOAD DUP2 PUSH8 0xFFFFFFFFFFFFFFFF MUL NOT AND SWAP1 DUP4 PUSH8 0xFFFFFFFFFFFFFFFF AND MUL OR SWAP1 SSTORE POP DUP1 PUSH1 0x10 PUSH0 DUP6 PUSH1 0xFF AND PUSH2 0xFFFF AND DUP2 MSTORE PUSH1 0x20 ADD SWAP1 DUP2 MSTORE PUSH1 0x20 ADD PUSH0 KECCAK256 PUSH0 PUSH2 0x100 EXP DUP2 SLOAD DUP2 PUSH8 0xFFFFFFFFFFFFFFFF MUL NOT AND SWAP1 DUP4 PUSH8 0xFFFFFFFFFFFFFFFF AND MUL OR SWAP1 SSTORE POP POP POP POP JUMP JUMPDEST PUSH0 PUSH20 0xFFFFFFFFFFFFFFFFFFFFFFFFFFFFFFFFFFFFFFFF AND DUP3 PUSH20 0xFFFFFFFFFFFFFFFFFFFFFFFFFFFFFFFFFFFFFFFF AND SUB PUSH2 0xF5A JUMPI PUSH0 PUSH1 0x40 MLOAD PUSH32 0x64A0AE9200000000000000000000000000000000000000000000000000000000 DUP2 MSTORE PUSH1 0x4 ADD PUSH2 0xF51 SWAP2 SWAP1 PUSH2 0x3884 JUMP JUMPDEST PUSH1 0x40 MLOAD DUP1 SWAP2 SUB SWAP1 REVERT JUMPDEST PUSH0 PUSH2 0xF6D DUP4 DUP4 PUSH2 0xF68 PUSH2 0x2778 JUMP JUMPDEST PUSH2 0x2818 JUMP JUMPDEST SWAP1 POP DUP4 PUSH20 0xFFFFFFFFFFFFFFFFFFFFFFFFFFFFFFFFFFFFFFFF AND DUP2 PUSH20 0xFFFFFFFFFFFFFFFFFFFFFFFFFFFFFFFFFFFFFFFF AND EQ PUSH2 0xFE3 JUMPI DUP4 DUP3 DUP3 PUSH1 0x40 MLOAD PUSH32 0x64283D7B00000000000000000000000000000000000000000000000000000000 DUP2 MSTORE PUSH1 0x4 ADD PUSH2 0xFDA SWAP4 SWAP3 SWAP2 SWAP1 PUSH2 0x4337 JUMP JUMPDEST PUSH1 0x40 MLOAD DUP1 SWAP2 SUB SWAP1 REVERT JUMPDEST POP POP POP POP JUMP JUMPDEST PUSH1 0xA PUSH0 SWAP1 SLOAD SWAP1 PUSH2 0x100 EXP SWAP1 DIV PUSH20 0xFFFFFFFFFFFFFFFFFFFFFFFFFFFFFFFFFFFFFFFF AND DUP2 JUMP JUMPDEST PUSH2 0x1028 DUP4 DUP4 DUP4 PUSH1 0x40 MLOAD DUP1 PUSH1 0x20 ADD PUSH1 0x40 MSTORE DUP1 PUSH0 DUP2 MSTORE POP PUSH2 0x1CCA JUMP JUMPDEST POP POP POP JUMP JUMPDEST PUSH1 0x19 PUSH0 PUSH2 0x1038 PUSH2 0x2778 JUMP JUMPDEST PUSH20 0xFFFFFFFFFFFFFFFFFFFFFFFFFFFFFFFFFFFFFFFF AND PUSH20 0xFFFFFFFFFFFFFFFFFFFFFFFFFFFFFFFFFFFFFFFF AND DUP2 MSTORE PUSH1 0x20 ADD SWAP1 DUP2 MSTORE PUSH1 0x20 ADD PUSH0 KECCAK256 PUSH0 SWAP1 SLOAD SWAP1 PUSH2 0x100 EXP SWAP1 DIV PUSH1 0xFF AND PUSH2 0x10BD JUMPI PUSH1 0x40 MLOAD PUSH32 0x8C379A000000000000000000000000000000000000000000000000000000000 DUP2 MSTORE PUSH1 0x4 ADD PUSH2 0x10B4 SWAP1 PUSH2 0x4319 JUMP JUMPDEST PUSH1 0x40 MLOAD DUP1 SWAP2 SUB SWAP1 REVERT JUMPDEST DUP1 PUSH1 0x14 PUSH0 DUP5 PUSH1 0xFF AND PUSH2 0xFFFF AND DUP2 MSTORE PUSH1 0x20 ADD SWAP1 DUP2 MSTORE PUSH1 0x20 ADD PUSH0 KECCAK256 DUP2 SWAP1 SSTORE POP POP POP JUMP JUMPDEST PUSH2 0x10E6 PUSH2 0x2791 JUMP JUMPDEST DUP1 PUSH1 0x19 PUSH0 DUP5 PUSH20 0xFFFFFFFFFFFFFFFFFFFFFFFFFFFFFFFFFFFFFFFF AND PUSH20 0xFFFFFFFFFFFFFFFFFFFFFFFFFFFFFFFFFFFFFFFF AND DUP2 MSTORE PUSH1 0x20 ADD SWAP1 DUP2 MSTORE PUSH1 0x20 ADD PUSH0 KECCAK256 PUSH0 PUSH2 0x100 EXP DUP2 SLOAD DUP2 PUSH1 0xFF MUL NOT AND SWAP1 DUP4 ISZERO ISZERO MUL OR SWAP1 SSTORE POP PUSH32 0x193DE8D500B5CB7B720089B258A39E9C1D0B840019A73AE7C51C3F9101732B02 DUP3 DUP3 PUSH1 0x40 MLOAD PUSH2 0x116B SWAP3 SWAP2 SWAP1 PUSH2 0x436C JUMP JUMPDEST PUSH1 0x40 MLOAD DUP1 SWAP2 SUB SWAP1 LOG1 POP POP JUMP JUMPDEST PUSH1 0x15 PUSH1 0x20 MSTORE DUP2 PUSH0 MSTORE PUSH1 0x40 PUSH0 KECCAK256 PUSH1 0x20 MSTORE DUP1 PUSH0 MSTORE PUSH1 0x40 PUSH0 KECCAK256 PUSH0 SWAP2 POP SWAP2 POP POP SLOAD DUP2 JUMP JUMPDEST PUSH1 0x14 PUSH1 0x20 MSTORE DUP1 PUSH0 MSTORE PUSH1 0x40 PUSH0 KECCAK256 PUSH0 SWAP2 POP SWAP1 POP SLOAD DUP2 JUMP JUMPDEST PUSH0 PUSH2 0x11B6 DUP3 PUSH2 0x26B9 JUMP JUMPDEST SWAP1 POP SWAP2 SWAP1 POP JUMP JUMPDEST PUSH1 0x19 PUSH0 PUSH2 0x11C8 PUSH2 0x2778 JUMP JUMPDEST PUSH20 0xFFFFFFFFFFFFFFFFFFFFFFFFFFFFFFFFFFFFFFFF AND PUSH20 0xFFFFFFFFFFFFFFFFFFFFFFFFFFFFFFFFFFFFFFFF AND DUP2 MSTORE PUSH1 0x20 ADD SWAP1 DUP2 MSTORE PUSH1 0x20 ADD PUSH0 KECCAK256 PUSH0 SWAP1 SLOAD SWAP1 PUSH2 0x100 EXP SWAP1 DIV PUSH1 0xFF AND PUSH2 0x124D JUMPI PUSH1 0x40 MLOAD PUSH32 0x8C379A000000000000000000000000000000000000000000000000000000000 DUP2 MSTORE PUSH1 0x4 ADD PUSH2 0x1244 SWAP1 PUSH2 0x4319 JUMP JUMPDEST PUSH1 0x40 MLOAD DUP1 SWAP2 SUB SWAP1 REVERT JUMPDEST DUP2 PUSH1 0x11 PUSH0 DUP6 PUSH1 0xFF AND PUSH2 0xFFFF AND DUP2 MSTORE PUSH1 0x20 ADD SWAP1 DUP2 MSTORE PUSH1 0x20 ADD PUSH0 KECCAK256 PUSH0 PUSH2 0x100 EXP DUP2 SLOAD DUP2 PUSH2 0xFFFF MUL NOT AND SWAP1 DUP4 PUSH2 0xFFFF AND MUL OR SWAP1 SSTORE POP DUP1 PUSH1 0x13 PUSH0 DUP6 PUSH1 0xFF AND PUSH2 0xFFFF AND DUP2 MSTORE PUSH1 0x20 ADD SWAP1 DUP2 MSTORE PUSH1 0x20 ADD PUSH0 KECCAK256 PUSH0 PUSH2 0x100 EXP DUP2 SLOAD DUP2 PUSH2 0xFFFF MUL NOT AND SWAP1 DUP4 PUSH2 0xFFFF AND MUL OR SWAP1 SSTORE POP POP POP POP JUMP JUMPDEST PUSH1 0x13 PUSH1 0x20 MSTORE DUP1 PUSH0 MSTORE PUSH1 0x40 PUSH0 KECCAK256 PUSH0 SWAP2 POP SLOAD SWAP1 PUSH2 0x100 EXP SWAP1 DIV PUSH2 0xFFFF AND DUP2 JUMP JUMPDEST PUSH2 0x12DC PUSH2 0x2791 JUMP JUMPDEST DUP1 PUSH1 0x9 PUSH0 PUSH2 0x100 EXP DUP2 SLOAD DUP2 PUSH20 0xFFFFFFFFFFFFFFFFFFFFFFFFFFFFFFFFFFFFFFFF MUL NOT AND SWAP1 DUP4 PUSH20 0xFFFFFFFFFFFFFFFFFFFFFFFFFFFFFFFFFFFFFFFF AND MUL OR SWAP1 SSTORE POP DUP1 PUSH1 0x8 PUSH0 PUSH2 0x100 EXP DUP2 SLOAD DUP2 PUSH20 0xFFFFFFFFFFFFFFFFFFFFFFFFFFFFFFFFFFFFFFFF MUL NOT AND SWAP1 DUP4 PUSH20 0xFFFFFFFFFFFFFFFFFFFFFFFFFFFFFFFFFFFFFFFF AND MUL OR SWAP1 SSTORE POP POP JUMP JUMPDEST PUSH0 DUP1 PUSH20 0xFFFFFFFFFFFFFFFFFFFFFFFFFFFFFFFFFFFFFFFF AND DUP3 PUSH20 0xFFFFFFFFFFFFFFFFFFFFFFFFFFFFFFFFFFFFFFFF AND SUB PUSH2 0x13D0 JUMPI PUSH0 PUSH1 0x40 MLOAD PUSH32 0x89C62B6400000000000000000000000000000000000000000000000000000000 DUP2 MSTORE PUSH1 0x4 ADD PUSH2 0x13C7 SWAP2 SWAP1 PUSH2 0x3884 JUMP JUMPDEST PUSH1 0x40 MLOAD DUP1 SWAP2 SUB SWAP1 REVERT JUMPDEST PUSH1 0x3 PUSH0 DUP4 PUSH20 0xFFFFFFFFFFFFFFFFFFFFFFFFFFFFFFFFFFFFFFFF AND PUSH20 0xFFFFFFFFFFFFFFFFFFFFFFFFFFFFFFFFFFFFFFFF AND DUP2 MSTORE PUSH1 0x20 ADD SWAP1 DUP2 MSTORE PUSH1 0x20 ADD PUSH0 KECCAK256 SLOAD SWAP1 POP SWAP2 SWAP1 POP JUMP JUMPDEST PUSH2 0x141D PUSH2 0x2791 JUMP JUMPDEST PUSH2 0x1426 PUSH0 PUSH2 0x28B7 JUMP JUMPDEST JUMP JUMPDEST PUSH1 0xA PUSH1 0x14 SWAP1 SLOAD SWAP1 PUSH2 0x100 EXP SWAP1 DIV PUSH1 0xFF AND DUP2 JUMP JUMPDEST PUSH1 0xA PUSH1 0x15 SWAP1 SLOAD SWAP1 PUSH2 0x100 EXP SWAP1 DIV PUSH2 0xFFFF AND DUP2 JUMP JUMPDEST PUSH1 0xC PUSH1 0x20 MSTORE DUP1 PUSH0 MSTORE PUSH1 0x40 PUSH0 KECCAK256 PUSH0 SWAP2 POP SWAP1 POP SLOAD DUP2 JUMP JUMPDEST PUSH1 0x17 PUSH1 0x20 MSTORE DUP1 PUSH0 MSTORE PUSH1 0x40 PUSH0 KECCAK256 PUSH0 SWAP2 POP SLOAD SWAP1 PUSH2 0x100 EXP SWAP1 DIV PUSH2 0xFFFF AND DUP2 JUMP JUMPDEST PUSH1 0x11 PUSH1 0x20 MSTORE DUP1 PUSH0 MSTORE PUSH1 0x40 PUSH0 KECCAK256 PUSH0 SWAP2 POP SLOAD SWAP1 PUSH2 0x100 EXP SWAP1 DIV PUSH2 0xFFFF AND DUP2 JUMP JUMPDEST PUSH0 PUSH1 0x6 PUSH0 SWAP1 SLOAD SWAP1 PUSH2 0x100 EXP SWAP1 DIV PUSH20 0xFFFFFFFFFFFFFFFFFFFFFFFFFFFFFFFFFFFFFFFF AND SWAP1 POP SWAP1 JUMP JUMPDEST PUSH0 DUP6 PUSH1 0xFF AND GT PUSH2 0x150D JUMPI PUSH1 0x40 MLOAD PUSH32 0x8C379A000000000000000000000000000000000000000000000000000000000 DUP2 MSTORE PUSH1 0x4 ADD PUSH2 0x1504 SWAP1 PUSH2 0x43DD JUMP JUMPDEST PUSH1 0x40 MLOAD DUP1 SWAP2 SUB SWAP1 REVERT JUMPDEST PUSH1 0xA PUSH1 0x15 SWAP1 SLOAD SWAP1 PUSH2 0x100 EXP SWAP1 DIV PUSH2 0xFFFF AND PUSH2 0xFFFF AND DUP6 PUSH1 0xFF AND GT ISZERO PUSH2 0x1567 JUMPI PUSH1 0x40 MLOAD PUSH32 0x8C379A000000000000000000000000000000000000000000000000000000000 DUP2 MSTORE PUSH1 0x4 ADD PUSH2 0x155E SWAP1 PUSH2 0x4445 JUMP JUMPDEST PUSH1 0x40 MLOAD DUP1 SWAP2 SUB SWAP1 REVERT JUMPDEST PUSH1 0x12 PUSH0 DUP7 PUSH1 0xFF AND PUSH2 0xFFFF AND DUP2 MSTORE PUSH1 0x20 ADD SWAP1 DUP2 MSTORE PUSH1 0x20 ADD PUSH0 KECCAK256 PUSH0 SWAP1 SLOAD SWAP1 PUSH2 0x100 EXP SWAP1 DIV PUSH2 0xFFFF AND PUSH2 0xFFFF AND DUP4 PUSH1 0xFF AND PUSH1 0x16 PUSH0 DUP9 PUSH1 0xFF AND PUSH2 0xFFFF AND DUP2 MSTORE PUSH1 0x20 ADD SWAP1 DUP2 MSTORE PUSH1 0x20 ADD PUSH0 KECCAK256 PUSH0 PUSH2 0x15B6 PUSH2 0x2778 JUMP JUMPDEST PUSH20 0xFFFFFFFFFFFFFFFFFFFFFFFFFFFFFFFFFFFFFFFF AND PUSH20 0xFFFFFFFFFFFFFFFFFFFFFFFFFFFFFFFFFFFFFFFF AND DUP2 MSTORE PUSH1 0x20 ADD SWAP1 DUP2 MSTORE PUSH1 0x20 ADD PUSH0 KECCAK256 SLOAD PUSH2 0x15FA SWAP2 SWAP1 PUSH2 0x4490 JUMP JUMPDEST GT ISZERO PUSH2 0x163B JUMPI PUSH1 0x40 MLOAD PUSH32 0x8C379A000000000000000000000000000000000000000000000000000000000 DUP2 MSTORE PUSH1 0x4 ADD PUSH2 0x1632 SWAP1 PUSH2 0x450D JUMP JUMPDEST PUSH1 0x40 MLOAD DUP1 SWAP2 SUB SWAP1 REVERT JUMPDEST PUSH1 0x11 PUSH0 DUP7 PUSH1 0xFF AND PUSH2 0xFFFF AND DUP2 MSTORE PUSH1 0x20 ADD SWAP1 DUP2 MSTORE PUSH1 0x20 ADD PUSH0 KECCAK256 PUSH0 SWAP1 SLOAD SWAP1 PUSH2 0x100 EXP SWAP1 DIV PUSH2 0xFFFF AND PUSH2 0xFFFF AND DUP4 PUSH1 0xFF AND PUSH1 0x17 PUSH0 DUP9 PUSH1 0xFF AND PUSH2 0xFFFF AND DUP2 MSTORE PUSH1 0x20 ADD SWAP1 DUP2 MSTORE PUSH1 0x20 ADD PUSH0 KECCAK256 PUSH0 SWAP1 SLOAD SWAP1 PUSH2 0x100 EXP SWAP1 DIV PUSH2 0xFFFF AND PUSH2 0x1699 SWAP2 SWAP1 PUSH2 0x452B JUMP JUMPDEST PUSH2 0xFFFF AND GT ISZERO PUSH2 0x16DE JUMPI PUSH1 0x40 MLOAD PUSH32 0x8C379A000000000000000000000000000000000000000000000000000000000 DUP2 MSTORE PUSH1 0x4 ADD PUSH2 0x16D5 SWAP1 PUSH2 0x45AA JUMP JUMPDEST PUSH1 0x40 MLOAD DUP1 SWAP2 SUB SWAP1 REVERT JUMPDEST TIMESTAMP PUSH1 0xD PUSH0 DUP8 PUSH1 0xFF AND PUSH2 0xFFFF AND DUP2 MSTORE PUSH1 0x20 ADD SWAP1 DUP2 MSTORE PUSH1 0x20 ADD PUSH0 KECCAK256 PUSH0 SWAP1 SLOAD SWAP1 PUSH2 0x100 EXP SWAP1 DIV PUSH8 0xFFFFFFFFFFFFFFFF AND PUSH8 0xFFFFFFFFFFFFFFFF AND GT ISZERO PUSH2 0x1756 JUMPI PUSH1 0x40 MLOAD PUSH32 0x8C379A000000000000000000000000000000000000000000000000000000000 DUP2 MSTORE PUSH1 0x4 ADD PUSH2 0x174D SWAP1 PUSH2 0x4612 JUMP JUMPDEST PUSH1 0x40 MLOAD DUP1 SWAP2 SUB SWAP1 REVERT JUMPDEST PUSH1 0xE PUSH0 DUP7 PUSH1 0xFF AND PUSH2 0xFFFF AND DUP2 MSTORE PUSH1 0x20 ADD SWAP1 DUP2 MSTORE PUSH1 0x20 ADD PUSH0 KECCAK256 PUSH0 SWAP1 SLOAD SWAP1 PUSH2 0x100 EXP SWAP1 DIV PUSH8 0xFFFFFFFFFFFFFFFF AND PUSH8 0xFFFFFFFFFFFFFFFF AND TIMESTAMP GT ISZERO PUSH2 0x17CE JUMPI PUSH1 0x40 MLOAD PUSH32 0x8C379A000000000000000000000000000000000000000000000000000000000 DUP2 MSTORE PUSH1 0x4 ADD PUSH2 0x17C5 SWAP1 PUSH2 0x467A JUMP JUMPDEST PUSH1 0x40 MLOAD DUP1 SWAP2 SUB SWAP1 REVERT JUMPDEST PUSH0 PUSH1 0xC PUSH0 DUP8 PUSH1 0xFF AND PUSH2 0xFFFF AND DUP2 MSTORE PUSH1 0x20 ADD SWAP1 DUP2 MSTORE PUSH1 0x20 ADD PUSH0 KECCAK256 SLOAD GT ISZERO PUSH2 0x19E7 JUMPI PUSH0 DUP4 PUSH1 0xFF AND PUSH1 0xC PUSH0 DUP9 PUSH1 0xFF AND PUSH2 0xFFFF AND DUP2 MSTORE PUSH1 0x20 ADD SWAP1 DUP2 MSTORE PUSH1 0x20 ADD PUSH0 KECCAK256 SLOAD PUSH2 0x1816 SWAP2 SWAP1 PUSH2 0x4698 JUMP JUMPDEST SWAP1 POP DUP1 PUSH1 0x8 PUSH0 SWAP1 SLOAD SWAP1 PUSH2 0x100 EXP SWAP1 DIV PUSH20 0xFFFFFFFFFFFFFFFFFFFFFFFFFFFFFFFFFFFFFFFF AND PUSH20 0xFFFFFFFFFFFFFFFFFFFFFFFFFFFFFFFFFFFFFFFF AND PUSH4 0xDD62ED3E PUSH2 0x185E PUSH2 0x2778 JUMP JUMPDEST ADDRESS PUSH1 0x40 MLOAD DUP4 PUSH4 0xFFFFFFFF AND PUSH1 0xE0 SHL DUP2 MSTORE PUSH1 0x4 ADD PUSH2 0x187C SWAP3 SWAP2 SWAP1 PUSH2 0x46D9 JUMP JUMPDEST PUSH1 0x20 PUSH1 0x40 MLOAD DUP1 DUP4 SUB DUP2 DUP7 GAS STATICCALL ISZERO DUP1 ISZERO PUSH2 0x1897 JUMPI RETURNDATASIZE PUSH0 DUP1 RETURNDATACOPY RETURNDATASIZE PUSH0 REVERT JUMPDEST POP POP POP POP PUSH1 0x40 MLOAD RETURNDATASIZE PUSH1 0x1F NOT PUSH1 0x1F DUP3 ADD AND DUP3 ADD DUP1 PUSH1 0x40 MSTORE POP DUP2 ADD SWAP1 PUSH2 0x18BB SWAP2 SWAP1 PUSH2 0x4714 JUMP JUMPDEST LT ISZERO PUSH2 0x18FC JUMPI PUSH1 0x40 MLOAD PUSH32 0x8C379A000000000000000000000000000000000000000000000000000000000 DUP2 MSTORE PUSH1 0x4 ADD PUSH2 0x18F3 SWAP1 PUSH2 0x47AF JUMP JUMPDEST PUSH1 0x40 MLOAD DUP1 SWAP2 SUB SWAP1 REVERT JUMPDEST PUSH0 PUSH1 0x8 PUSH0 SWAP1 SLOAD SWAP1 PUSH2 0x100 EXP SWAP1 DIV PUSH20 0xFFFFFFFFFFFFFFFFFFFFFFFFFFFFFFFFFFFFFFFF AND PUSH20 0xFFFFFFFFFFFFFFFFFFFFFFFFFFFFFFFFFFFFFFFF AND PUSH4 0x23B872DD PUSH2 0x1942 PUSH2 0x2778 JUMP JUMPDEST ADDRESS DUP6 PUSH1 0x40 MLOAD DUP5 PUSH4 0xFFFFFFFF AND PUSH1 0xE0 SHL DUP2 MSTORE PUSH1 0x4 ADD PUSH2 0x1962 SWAP4 SWAP3 SWAP2 SWAP1 PUSH2 0x47CD JUMP JUMPDEST PUSH1 0x20 PUSH1 0x40 MLOAD DUP1 DUP4 SUB DUP2 PUSH0 DUP8 GAS CALL ISZERO DUP1 ISZERO PUSH2 0x197E JUMPI RETURNDATASIZE PUSH0 DUP1 RETURNDATACOPY RETURNDATASIZE PUSH0 REVERT JUMPDEST POP POP POP POP PUSH1 0x40 MLOAD RETURNDATASIZE PUSH1 0x1F NOT PUSH1 0x1F DUP3 ADD AND DUP3 ADD DUP1 PUSH1 0x40 MSTORE POP DUP2 ADD SWAP1 PUSH2 0x19A2 SWAP2 SWAP1 PUSH2 0x4816 JUMP JUMPDEST SWAP1 POP DUP1 PUSH2 0x19E4 JUMPI PUSH1 0x40 MLOAD PUSH32 0x8C379A000000000000000000000000000000000000000000000000000000000 DUP2 MSTORE PUSH1 0x4 ADD PUSH2 0x19DB SWAP1 PUSH2 0x488B JUMP JUMPDEST PUSH1 0x40 MLOAD DUP1 SWAP2 SUB SWAP1 REVERT JUMPDEST POP POP JUMPDEST PUSH0 PUSH1 0x1 SWAP1 POP JUMPDEST DUP4 PUSH1 0xFF AND DUP2 GT PUSH2 0x1A70 JUMPI PUSH1 0x7 PUSH0 DUP2 SLOAD DUP1 SWAP3 SWAP2 SWAP1 PUSH2 0x1A09 SWAP1 PUSH2 0x48A9 JUMP JUMPDEST SWAP2 SWAP1 POP SSTORE POP PUSH2 0x1A1A DUP6 PUSH1 0x7 SLOAD PUSH2 0x297A JUMP JUMPDEST PUSH32 0xFA1C1C9E3DE56771B414AA501D44D6E7646AF9791AC49106823326D8110947B6 PUSH0 DUP8 DUP8 PUSH1 0x7 SLOAD DUP8 DUP8 PUSH1 0x40 MLOAD PUSH2 0x1A55 SWAP7 SWAP6 SWAP5 SWAP4 SWAP3 SWAP2 SWAP1 PUSH2 0x492B JUMP JUMPDEST PUSH1 0x40 MLOAD DUP1 SWAP2 SUB SWAP1 LOG1 DUP1 DUP1 PUSH2 0x1A68 SWAP1 PUSH2 0x48A9 JUMP JUMPDEST SWAP2 POP POP PUSH2 0x19ED JUMP JUMPDEST POP DUP3 PUSH1 0xFF AND PUSH1 0x17 PUSH0 DUP8 PUSH1 0xFF AND PUSH2 0xFFFF AND DUP2 MSTORE PUSH1 0x20 ADD SWAP1 DUP2 MSTORE PUSH1 0x20 ADD PUSH0 KECCAK256 PUSH0 DUP3 DUP3 DUP3 SWAP1 SLOAD SWAP1 PUSH2 0x100 EXP SWAP1 DIV PUSH2 0xFFFF AND PUSH2 0x1AA8 SWAP2 SWAP1 PUSH2 0x452B JUMP JUMPDEST SWAP3 POP PUSH2 0x100 EXP DUP2 SLOAD DUP2 PUSH2 0xFFFF MUL NOT AND SWAP1 DUP4 PUSH2 0xFFFF AND MUL OR SWAP1 SSTORE POP DUP3 PUSH1 0xFF AND PUSH1 0x16 PUSH0 DUP8 PUSH1 0xFF AND PUSH2 0xFFFF AND DUP2 MSTORE PUSH1 0x20 ADD SWAP1 DUP2 MSTORE PUSH1 0x20 ADD PUSH0 KECCAK256 PUSH0 PUSH2 0x1AE7 PUSH2 0x2778 JUMP JUMPDEST PUSH20 0xFFFFFFFFFFFFFFFFFFFFFFFFFFFFFFFFFFFFFFFF AND PUSH20 0xFFFFFFFFFFFFFFFFFFFFFFFFFFFFFFFFFFFFFFFF AND DUP2 MSTORE PUSH1 0x20 ADD SWAP1 DUP2 MSTORE PUSH1 0x20 ADD PUSH0 KECCAK256 PUSH0 DUP3 DUP3 SLOAD PUSH2 0x1B2E SWAP2 SWAP1 PUSH2 0x4490 JUMP JUMPDEST SWAP3 POP POP DUP2 SWAP1 SSTORE POP POP POP POP POP POP JUMP JUMPDEST PUSH1 0x60 PUSH1 0x1 DUP1 SLOAD PUSH2 0x1B4B SWAP1 PUSH2 0x429F JUMP JUMPDEST DUP1 PUSH1 0x1F ADD PUSH1 0x20 DUP1 SWAP2 DIV MUL PUSH1 0x20 ADD PUSH1 0x40 MLOAD SWAP1 DUP2 ADD PUSH1 0x40 MSTORE DUP1 SWAP3 SWAP2 SWAP1 DUP2 DUP2 MSTORE PUSH1 0x20 ADD DUP3 DUP1 SLOAD PUSH2 0x1B77 SWAP1 PUSH2 0x429F JUMP JUMPDEST DUP1 ISZERO PUSH2 0x1BC2 JUMPI DUP1 PUSH1 0x1F LT PUSH2 0x1B99 JUMPI PUSH2 0x100 DUP1 DUP4 SLOAD DIV MUL DUP4 MSTORE SWAP2 PUSH1 0x20 ADD SWAP2 PUSH2 0x1BC2 JUMP JUMPDEST DUP3 ADD SWAP2 SWAP1 PUSH0 MSTORE PUSH1 0x20 PUSH0 KECCAK256 SWAP1 JUMPDEST DUP2 SLOAD DUP2 MSTORE SWAP1 PUSH1 0x1 ADD SWAP1 PUSH1 0x20 ADD DUP1 DUP4 GT PUSH2 0x1BA5 JUMPI DUP3 SWAP1 SUB PUSH1 0x1F AND DUP3 ADD SWAP2 JUMPDEST POP POP POP POP POP SWAP1 POP SWAP1 JUMP JUMPDEST PUSH1 0x19 PUSH1 0x20 MSTORE DUP1 PUSH0 MSTORE PUSH1 0x40 PUSH0 KECCAK256 PUSH0 SWAP2 POP SLOAD SWAP1 PUSH2 0x100 EXP SWAP1 DIV PUSH1 0xFF AND DUP2 JUMP JUMPDEST PUSH1 0x19 PUSH0 PUSH2 0x1BF4 PUSH2 0x2778 JUMP JUMPDEST PUSH20 0xFFFFFFFFFFFFFFFFFFFFFFFFFFFFFFFFFFFFFFFF AND PUSH20 0xFFFFFFFFFFFFFFFFFFFFFFFFFFFFFFFFFFFFFFFF AND DUP2 MSTORE PUSH1 0x20 ADD SWAP1 DUP2 MSTORE PUSH1 0x20 ADD PUSH0 KECCAK256 PUSH0 SWAP1 SLOAD SWAP1 PUSH2 0x100 EXP SWAP1 DIV PUSH1 0xFF AND PUSH2 0x1C79 JUMPI PUSH1 0x40 MLOAD PUSH32 0x8C379A000000000000000000000000000000000000000000000000000000000 DUP2 MSTORE PUSH1 0x4 ADD PUSH2 0x1C70 SWAP1 PUSH2 0x4319 JUMP JUMPDEST PUSH1 0x40 MLOAD DUP1 SWAP2 SUB SWAP1 REVERT JUMPDEST DUP1 PUSH1 0xA PUSH1 0x14 PUSH2 0x100 EXP DUP2 SLOAD DUP2 PUSH1 0xFF MUL NOT AND SWAP1 DUP4 ISZERO ISZERO MUL OR SWAP1 SSTORE POP POP JUMP JUMPDEST PUSH2 0x1CA8 PUSH2 0x1CA1 PUSH2 0x2778 JUMP JUMPDEST DUP4 DUP4 PUSH2 0x2997 JUMP JUMPDEST POP POP JUMP JUMPDEST PUSH1 0x12 PUSH1 0x20 MSTORE DUP1 PUSH0 MSTORE PUSH1 0x40 PUSH0 KECCAK256 PUSH0 SWAP2 POP SLOAD SWAP1 PUSH2 0x100 EXP SWAP1 DIV PUSH2 0xFFFF AND DUP2 JUMP JUMPDEST PUSH2 0x1CD5 DUP5 DUP5 DUP5 PUSH2 0xEEA JUMP JUMPDEST PUSH2 0x1CE1 DUP5 DUP5 DUP5 DUP5 PUSH2 0x2B00 JUMP JUMPDEST POP POP POP POP JUMP JUMPDEST PUSH0 DUP1 DUP6 DUP6 PUSH1 0x40 MLOAD PUSH1 0x20 ADD PUSH2 0x1CFC SWAP3 SWAP2 SWAP1 PUSH2 0x49EA JUMP JUMPDEST PUSH1 0x40 MLOAD PUSH1 0x20 DUP2 DUP4 SUB SUB DUP2 MSTORE SWAP1 PUSH1 0x40 MSTORE DUP1 MLOAD SWAP1 PUSH1 0x20 ADD KECCAK256 SWAP1 POP PUSH2 0x1D77 DUP5 DUP5 DUP1 DUP1 PUSH1 0x20 MUL PUSH1 0x20 ADD PUSH1 0x40 MLOAD SWAP1 DUP2 ADD PUSH1 0x40 MSTORE DUP1 SWAP4 SWAP3 SWAP2 SWAP1 DUP2 DUP2 MSTORE PUSH1 0x20 ADD DUP4 DUP4 PUSH1 0x20 MUL DUP1 DUP3 DUP5 CALLDATACOPY PUSH0 DUP2 DUP5 ADD MSTORE PUSH1 0x1F NOT PUSH1 0x1F DUP3 ADD AND SWAP1 POP DUP1 DUP4 ADD SWAP3 POP POP POP POP POP POP POP PUSH1 0x14 PUSH0 DUP11 PUSH1 0xFF AND PUSH2 0xFFFF AND DUP2 MSTORE PUSH1 0x20 ADD SWAP1 DUP2 MSTORE PUSH1 0x20 ADD PUSH0 KECCAK256 SLOAD DUP4 PUSH2 0x2CB2 JUMP JUMPDEST SWAP2 POP POP SWAP6 SWAP5 POP POP POP POP POP JUMP JUMPDEST PUSH1 0x9 PUSH0 SWAP1 SLOAD SWAP1 PUSH2 0x100 EXP SWAP1 DIV PUSH20 0xFFFFFFFFFFFFFFFFFFFFFFFFFFFFFFFFFFFFFFFF AND DUP2 JUMP JUMPDEST PUSH1 0x60 PUSH2 0x1DB3 DUP3 PUSH2 0x26B9 JUMP JUMPDEST POP PUSH0 PUSH2 0x1DBD PUSH2 0x2CC8 JUMP JUMPDEST SWAP1 POP PUSH0 DUP2 MLOAD GT PUSH2 0x1DDB JUMPI PUSH1 0x40 MLOAD DUP1 PUSH1 0x20 ADD PUSH1 0x40 MSTORE DUP1 PUSH0 DUP2 MSTORE POP PUSH2 0x1E06 JUMP JUMPDEST DUP1 PUSH2 0x1DE5 DUP5 PUSH2 0x2D58 JUMP JUMPDEST PUSH1 0x40 MLOAD PUSH1 0x20 ADD PUSH2 0x1DF6 SWAP3 SWAP2 SWAP1 PUSH2 0x4A4F JUMP JUMPDEST PUSH1 0x40 MLOAD PUSH1 0x20 DUP2 DUP4 SUB SUB DUP2 MSTORE SWAP1 PUSH1 0x40 MSTORE JUMPDEST SWAP2 POP POP SWAP2 SWAP1 POP JUMP JUMPDEST PUSH1 0x19 PUSH0 PUSH2 0x1E19 PUSH2 0x2778 JUMP JUMPDEST PUSH20 0xFFFFFFFFFFFFFFFFFFFFFFFFFFFFFFFFFFFFFFFF AND PUSH20 0xFFFFFFFFFFFFFFFFFFFFFFFFFFFFFFFFFFFFFFFF AND DUP2 MSTORE PUSH1 0x20 ADD SWAP1 DUP2 MSTORE PUSH1 0x20 ADD PUSH0 KECCAK256 PUSH0 SWAP1 SLOAD SWAP1 PUSH2 0x100 EXP SWAP1 DIV PUSH1 0xFF AND PUSH2 0x1E9E JUMPI PUSH1 0x40 MLOAD PUSH32 0x8C379A000000000000000000000000000000000000000000000000000000000 DUP2 MSTORE PUSH1 0x4 ADD PUSH2 0x1E95 SWAP1 PUSH2 0x4319 JUMP JUMPDEST PUSH1 0x40 MLOAD DUP1 SWAP2 SUB SWAP1 REVERT JUMPDEST DUP1 PUSH1 0xC PUSH0 DUP5 PUSH1 0xFF AND PUSH2 0xFFFF AND DUP2 MSTORE PUSH1 0x20 ADD SWAP1 DUP2 MSTORE PUSH1 0x20 ADD PUSH0 KECCAK256 DUP2 SWAP1 SSTORE POP POP POP JUMP JUMPDEST PUSH1 0xB DUP1 SLOAD PUSH2 0x1ECC SWAP1 PUSH2 0x429F JUMP JUMPDEST DUP1 PUSH1 0x1F ADD PUSH1 0x20 DUP1 SWAP2 DIV MUL PUSH1 0x20 ADD PUSH1 0x40 MLOAD SWAP1 DUP2 ADD PUSH1 0x40 MSTORE DUP1 SWAP3 SWAP2 SWAP1 DUP2 DUP2 MSTORE PUSH1 0x20 ADD DUP3 DUP1 SLOAD PUSH2 0x1EF8 SWAP1 PUSH2 0x429F JUMP JUMPDEST DUP1 ISZERO PUSH2 0x1F43 JUMPI DUP1 PUSH1 0x1F LT PUSH2 0x1F1A JUMPI PUSH2 0x100 DUP1 DUP4 SLOAD DIV MUL DUP4 MSTORE SWAP2 PUSH1 0x20 ADD SWAP2 PUSH2 0x1F43 JUMP JUMPDEST DUP3 ADD SWAP2 SWAP1 PUSH0 MSTORE PUSH1 0x20 PUSH0 KECCAK256 SWAP1 JUMPDEST DUP2 SLOAD DUP2 MSTORE SWAP1 PUSH1 0x1 ADD SWAP1 PUSH1 0x20 ADD DUP1 DUP4 GT PUSH2 0x1F26 JUMPI DUP3 SWAP1 SUB PUSH1 0x1F AND DUP3 ADD SWAP2 JUMPDEST POP POP POP POP POP DUP2 JUMP JUMPDEST PUSH1 0x10 PUSH1 0x20 MSTORE DUP1 PUSH0 MSTORE PUSH1 0x40 PUSH0 KECCAK256 PUSH0 SWAP2 POP SLOAD SWAP1 PUSH2 0x100 EXP SWAP1 DIV PUSH8 0xFFFFFFFFFFFFFFFF AND DUP2 JUMP JUMPDEST PUSH2 0x1F77 PUSH2 0x2791 JUMP JUMPDEST DUP1 PUSH1 0xA PUSH1 0x15 PUSH2 0x100 EXP DUP2 SLOAD DUP2 PUSH2 0xFFFF MUL NOT AND SWAP1 DUP4 PUSH2 0xFFFF AND MUL OR SWAP1 SSTORE POP POP JUMP JUMPDEST PUSH1 0x16 PUSH1 0x20 MSTORE DUP2 PUSH0 MSTORE PUSH1 0x40 PUSH0 KECCAK256 PUSH1 0x20 MSTORE DUP1 PUSH0 MSTORE PUSH1 0x40 PUSH0 KECCAK256 PUSH0 SWAP2 POP SWAP2 POP POP SLOAD DUP2 JUMP JUMPDEST PUSH1 0xD PUSH1 0x20 MSTORE DUP1 PUSH0 MSTORE PUSH1 0x40 PUSH0 KECCAK256 PUSH0 SWAP2 POP SLOAD SWAP1 PUSH2 0x100 EXP SWAP1 DIV PUSH8 0xFFFFFFFFFFFFFFFF AND DUP2 JUMP JUMPDEST PUSH2 0x1FE3 PUSH2 0x2791 JUMP JUMPDEST DUP1 PUSH1 0xB SWAP1 DUP2 PUSH2 0x1FF2 SWAP2 SWAP1 PUSH2 0x4C0F JUMP JUMPDEST POP POP JUMP JUMPDEST PUSH0 DUP7 PUSH1 0xFF AND GT PUSH2 0x203B JUMPI PUSH1 0x40 MLOAD PUSH32 0x8C379A000000000000000000000000000000000000000000000000000000000 DUP2 MSTORE PUSH1 0x4 ADD PUSH2 0x2032 SWAP1 PUSH2 0x43DD JUMP JUMPDEST PUSH1 0x40 MLOAD DUP1 SWAP2 SUB SWAP1 REVERT JUMPDEST PUSH1 0xA PUSH1 0x15 SWAP1 SLOAD SWAP1 PUSH2 0x100 EXP SWAP1 DIV PUSH2 0xFFFF AND PUSH2 0xFFFF AND DUP7 PUSH1 0xFF AND GT ISZERO PUSH2 0x2095 JUMPI PUSH1 0x40 MLOAD PUSH32 0x8C379A000000000000000000000000000000000000000000000000000000000 DUP2 MSTORE PUSH1 0x4 ADD PUSH2 0x208C SWAP1 PUSH2 0x4445 JUMP JUMPDEST PUSH1 0x40 MLOAD DUP1 SWAP2 SUB SWAP1 REVERT JUMPDEST PUSH1 0x13 PUSH0 DUP8 PUSH1 0xFF AND PUSH2 0xFFFF AND DUP2 MSTORE PUSH1 0x20 ADD SWAP1 DUP2 MSTORE PUSH1 0x20 ADD PUSH0 KECCAK256 PUSH0 SWAP1 SLOAD SWAP1 PUSH2 0x100 EXP SWAP1 DIV PUSH2 0xFFFF AND PUSH2 0xFFFF AND DUP5 PUSH1 0xFF AND PUSH1 0x18 PUSH0 DUP10 PUSH1 0xFF AND PUSH2 0xFFFF AND DUP2 MSTORE PUSH1 0x20 ADD SWAP1 DUP2 MSTORE PUSH1 0x20 ADD PUSH0 KECCAK256 PUSH0 SWAP1 SLOAD SWAP1 PUSH2 0x100 EXP SWAP1 DIV PUSH2 0xFFFF AND PUSH2 0x20F3 SWAP2 SWAP1 PUSH2 0x452B JUMP JUMPDEST PUSH2 0xFFFF AND GT ISZERO PUSH2 0x2138 JUMPI PUSH1 0x40 MLOAD PUSH32 0x8C379A000000000000000000000000000000000000000000000000000000000 DUP2 MSTORE PUSH1 0x4 ADD PUSH2 0x212F SWAP1 PUSH2 0x450D JUMP JUMPDEST PUSH1 0x40 MLOAD DUP1 SWAP2 SUB SWAP1 REVERT JUMPDEST DUP3 DUP5 PUSH1 0xFF AND PUSH1 0x15 PUSH0 DUP10 PUSH1 0xFF AND PUSH2 0xFFFF AND DUP2 MSTORE PUSH1 0x20 ADD SWAP1 DUP2 MSTORE PUSH1 0x20 ADD PUSH0 KECCAK256 PUSH0 PUSH2 0x215E PUSH2 0x2778 JUMP JUMPDEST PUSH20 0xFFFFFFFFFFFFFFFFFFFFFFFFFFFFFFFFFFFFFFFF AND PUSH20 0xFFFFFFFFFFFFFFFFFFFFFFFFFFFFFFFFFFFFFFFF AND DUP2 MSTORE PUSH1 0x20 ADD SWAP1 DUP2 MSTORE PUSH1 0x20 ADD PUSH0 KECCAK256 SLOAD PUSH2 0x21A2 SWAP2 SWAP1 PUSH2 0x4490 JUMP JUMPDEST GT ISZERO PUSH2 0x21E3 JUMPI PUSH1 0x40 MLOAD PUSH32 0x8C379A000000000000000000000000000000000000000000000000000000000 DUP2 MSTORE PUSH1 0x4 ADD PUSH2 0x21DA SWAP1 PUSH2 0x45AA JUMP JUMPDEST PUSH1 0x40 MLOAD DUP1 SWAP2 SUB SWAP1 REVERT JUMPDEST TIMESTAMP PUSH1 0xF PUSH0 DUP9 PUSH1 0xFF AND PUSH2 0xFFFF AND DUP2 MSTORE PUSH1 0x20 ADD SWAP1 DUP2 MSTORE PUSH1 0x20 ADD PUSH0 KECCAK256 PUSH0 SWAP1 SLOAD SWAP1 PUSH2 0x100 EXP SWAP1 DIV PUSH8 0xFFFFFFFFFFFFFFFF AND PUSH8 0xFFFFFFFFFFFFFFFF AND GT ISZERO PUSH2 0x225B JUMPI PUSH1 0x40 MLOAD PUSH32 0x8C379A000000000000000000000000000000000000000000000000000000000 DUP2 MSTORE PUSH1 0x4 ADD PUSH2 0x2252 SWAP1 PUSH2 0x4612 JUMP JUMPDEST PUSH1 0x40 MLOAD DUP1 SWAP2 SUB SWAP1 REVERT JUMPDEST PUSH1 0x10 PUSH0 DUP8 PUSH1 0xFF AND PUSH2 0xFFFF AND DUP2 MSTORE PUSH1 0x20 ADD SWAP1 DUP2 MSTORE PUSH1 0x20 ADD PUSH0 KECCAK256 PUSH0 SWAP1 SLOAD SWAP1 PUSH2 0x100 EXP SWAP1 DIV PUSH8 0xFFFFFFFFFFFFFFFF AND PUSH8 0xFFFFFFFFFFFFFFFF AND TIMESTAMP GT ISZERO PUSH2 0x22D3 JUMPI PUSH1 0x40 MLOAD PUSH32 0x8C379A000000000000000000000000000000000000000000000000000000000 DUP2 MSTORE PUSH1 0x4 ADD PUSH2 0x22CA SWAP1 PUSH2 0x467A JUMP JUMPDEST PUSH1 0x40 MLOAD DUP1 SWAP2 SUB SWAP1 REVERT JUMPDEST PUSH0 PUSH2 0x22DC PUSH2 0x2778 JUMP JUMPDEST DUP5 PUSH1 0x40 MLOAD PUSH1 0x20 ADD PUSH2 0x22EE SWAP3 SWAP2 SWAP1 PUSH2 0x49EA JUMP JUMPDEST PUSH1 0x40 MLOAD PUSH1 0x20 DUP2 DUP4 SUB SUB DUP2 MSTORE SWAP1 PUSH1 0x40 MSTORE DUP1 MLOAD SWAP1 PUSH1 0x20 ADD KECCAK256 SWAP1 POP PUSH2 0x2369 DUP4 DUP4 DUP1 DUP1 PUSH1 0x20 MUL PUSH1 0x20 ADD PUSH1 0x40 MLOAD SWAP1 DUP2 ADD PUSH1 0x40 MSTORE DUP1 SWAP4 SWAP3 SWAP2 SWAP1 DUP2 DUP2 MSTORE PUSH1 0x20 ADD DUP4 DUP4 PUSH1 0x20 MUL DUP1 DUP3 DUP5 CALLDATACOPY PUSH0 DUP2 DUP5 ADD MSTORE PUSH1 0x1F NOT PUSH1 0x1F DUP3 ADD AND SWAP1 POP DUP1 DUP4 ADD SWAP3 POP POP POP POP POP POP POP PUSH1 0x14 PUSH0 DUP11 PUSH1 0xFF AND PUSH2 0xFFFF AND DUP2 MSTORE PUSH1 0x20 ADD SWAP1 DUP2 MSTORE PUSH1 0x20 ADD PUSH0 KECCAK256 SLOAD DUP4 PUSH2 0x2CB2 JUMP JUMPDEST PUSH2 0x23A8 JUMPI PUSH1 0x40 MLOAD PUSH32 0x8C379A000000000000000000000000000000000000000000000000000000000 DUP2 MSTORE PUSH1 0x4 ADD PUSH2 0x239F SWAP1 PUSH2 0x4D28 JUMP JUMPDEST PUSH1 0x40 MLOAD DUP1 SWAP2 SUB SWAP1 REVERT JUMPDEST PUSH0 PUSH1 0x1 SWAP1 POP JUMPDEST DUP6 PUSH1 0xFF AND DUP2 GT PUSH2 0x242E JUMPI PUSH1 0x7 PUSH0 DUP2 SLOAD DUP1 SWAP3 SWAP2 SWAP1 PUSH2 0x23CA SWAP1 PUSH2 0x48A9 JUMP JUMPDEST SWAP2 SWAP1 POP SSTORE POP PUSH2 0x23DB DUP8 PUSH1 0x7 SLOAD PUSH2 0x297A JUMP JUMPDEST PUSH32 0xFA1C1C9E3DE56771B414AA501D44D6E7646AF9791AC49106823326D8110947B6 PUSH1 0x1 DUP10 DUP10 PUSH1 0x7 SLOAD PUSH1 0x40 MLOAD PUSH2 0x2413 SWAP5 SWAP4 SWAP3 SWAP2 SWAP1 PUSH2 0x4D69 JUMP JUMPDEST PUSH1 0x40 MLOAD DUP1 SWAP2 SUB SWAP1 LOG1 DUP1 DUP1 PUSH2 0x2426 SWAP1 PUSH2 0x48A9 JUMP JUMPDEST SWAP2 POP POP PUSH2 0x23AE JUMP JUMPDEST POP DUP5 PUSH1 0xFF AND PUSH1 0x18 PUSH0 DUP10 PUSH1 0xFF AND PUSH2 0xFFFF AND DUP2 MSTORE PUSH1 0x20 ADD SWAP1 DUP2 MSTORE PUSH1 0x20 ADD PUSH0 KECCAK256 PUSH0 DUP3 DUP3 DUP3 SWAP1 SLOAD SWAP1 PUSH2 0x100 EXP SWAP1 DIV PUSH2 0xFFFF AND PUSH2 0x2466 SWAP2 SWAP1 PUSH2 0x452B JUMP JUMPDEST SWAP3 POP PUSH2 0x100 EXP DUP2 SLOAD DUP2 PUSH2 0xFFFF MUL NOT AND SWAP1 DUP4 PUSH2 0xFFFF AND MUL OR SWAP1 SSTORE POP DUP5 PUSH1 0xFF AND PUSH1 0x15 PUSH0 DUP10 PUSH1 0xFF AND PUSH2 0xFFFF AND DUP2 MSTORE PUSH1 0x20 ADD SWAP1 DUP2 MSTORE PUSH1 0x20 ADD PUSH0 KECCAK256 PUSH0 PUSH2 0x24A5 PUSH2 0x2778 JUMP JUMPDEST PUSH20 0xFFFFFFFFFFFFFFFFFFFFFFFFFFFFFFFFFFFFFFFF AND PUSH20 0xFFFFFFFFFFFFFFFFFFFFFFFFFFFFFFFFFFFFFFFF AND DUP2 MSTORE PUSH1 0x20 ADD SWAP1 DUP2 MSTORE PUSH1 0x20 ADD PUSH0 KECCAK256 PUSH0 DUP3 DUP3 SLOAD PUSH2 0x24EC SWAP2 SWAP1 PUSH2 0x4490 JUMP JUMPDEST SWAP3 POP POP DUP2 SWAP1 SSTORE POP POP POP POP POP POP POP POP JUMP JUMPDEST PUSH0 PUSH1 0x5 PUSH0 DUP5 PUSH20 0xFFFFFFFFFFFFFFFFFFFFFFFFFFFFFFFFFFFFFFFF AND PUSH20 0xFFFFFFFFFFFFFFFFFFFFFFFFFFFFFFFFFFFFFFFF AND DUP2 MSTORE PUSH1 0x20 ADD SWAP1 DUP2 MSTORE PUSH1 0x20 ADD PUSH0 KECCAK256 PUSH0 DUP4 PUSH20 0xFFFFFFFFFFFFFFFFFFFFFFFFFFFFFFFFFFFFFFFF AND PUSH20 0xFFFFFFFFFFFFFFFFFFFFFFFFFFFFFFFFFFFFFFFF AND DUP2 MSTORE PUSH1 0x20 ADD SWAP1 DUP2 MSTORE PUSH1 0x20 ADD PUSH0 KECCAK256 PUSH0 SWAP1 SLOAD SWAP1 PUSH2 0x100 EXP SWAP1 DIV PUSH1 0xFF AND SWAP1 POP SWAP3 SWAP2 POP POP JUMP JUMPDEST PUSH2 0x2592 PUSH2 0x2791 JUMP JUMPDEST PUSH0 PUSH20 0xFFFFFFFFFFFFFFFFFFFFFFFFFFFFFFFFFFFFFFFF AND DUP2 PUSH20 0xFFFFFFFFFFFFFFFFFFFFFFFFFFFFFFFFFFFFFFFF AND SUB PUSH2 0x2602 JUMPI PUSH0 PUSH1 0x40 MLOAD PUSH32 0x1E4FBDF700000000000000000000000000000000000000000000000000000000 DUP2 MSTORE PUSH1 0x4 ADD PUSH2 0x25F9 SWAP2 SWAP1 PUSH2 0x3884 JUMP JUMPDEST PUSH1 0x40 MLOAD DUP1 SWAP2 SUB SWAP1 REVERT JUMPDEST PUSH2 0x260B DUP2 PUSH2 0x28B7 JUMP JUMPDEST POP JUMP JUMPDEST PUSH1 0xF PUSH1 0x20 MSTORE DUP1 PUSH0 MSTORE PUSH1 0x40 PUSH0 KECCAK256 PUSH0 SWAP2 POP SLOAD SWAP1 PUSH2 0x100 EXP SWAP1 DIV PUSH8 0xFFFFFFFFFFFFFFFF AND DUP2 JUMP JUMPDEST PUSH1 0x18 PUSH1 0x20 MSTORE DUP1 PUSH0 MSTORE PUSH1 0x40 PUSH0 KECCAK256 PUSH0 SWAP2 POP SLOAD SWAP1 PUSH2 0x100 EXP SWAP1 DIV PUSH2 0xFFFF AND DUP2 JUMP JUMPDEST PUSH0 PUSH32 0x1FFC9A700000000000000000000000000000000000000000000000000000000 PUSH28 0xFFFFFFFFFFFFFFFFFFFFFFFFFFFFFFFFFFFFFFFFFFFFFFFFFFFFFFFF NOT AND DUP3 PUSH28 0xFFFFFFFFFFFFFFFFFFFFFFFFFFFFFFFFFFFFFFFFFFFFFFFFFFFFFFFF NOT AND EQ SWAP1 POP SWAP2 SWAP1 POP JUMP JUMPDEST PUSH0 DUP1 PUSH2 0x26C4 DUP4 PUSH2 0x2E22 JUMP JUMPDEST SWAP1 POP PUSH0 PUSH20 0xFFFFFFFFFFFFFFFFFFFFFFFFFFFFFFFFFFFFFFFF AND DUP2 PUSH20 0xFFFFFFFFFFFFFFFFFFFFFFFFFFFFFFFFFFFFFFFF AND SUB PUSH2 0x2736 JUMPI DUP3 PUSH1 0x40 MLOAD PUSH32 0x7E27328900000000000000000000000000000000000000000000000000000000 DUP2 MSTORE PUSH1 0x4 ADD PUSH2 0x272D SWAP2 SWAP1 PUSH2 0x3C31 JUMP JUMPDEST PUSH1 0x40 MLOAD DUP1 SWAP2 SUB SWAP1 REVERT JUMPDEST DUP1 SWAP2 POP POP SWAP2 SWAP1 POP JUMP JUMPDEST PUSH0 PUSH1 0x4 PUSH0 DUP4 DUP2 MSTORE PUSH1 0x20 ADD SWAP1 DUP2 MSTORE PUSH1 0x20 ADD PUSH0 KECCAK256 PUSH0 SWAP1 SLOAD SWAP1 PUSH2 0x100 EXP SWAP1 DIV PUSH20 0xFFFFFFFFFFFFFFFFFFFFFFFFFFFFFFFFFFFFFFFF AND SWAP1 POP SWAP2 SWAP1 POP JUMP JUMPDEST PUSH0 CALLER SWAP1 POP SWAP1 JUMP JUMPDEST PUSH2 0x278C DUP4 DUP4 DUP4 PUSH1 0x1 PUSH2 0x2E5B JUMP JUMPDEST POP POP POP JUMP JUMPDEST PUSH2 0x2799 PUSH2 0x2778 JUMP JUMPDEST PUSH20 0xFFFFFFFFFFFFFFFFFFFFFFFFFFFFFFFFFFFFFFFF AND PUSH2 0x27B7 PUSH2 0x14A0 JUMP JUMPDEST PUSH20 0xFFFFFFFFFFFFFFFFFFFFFFFFFFFFFFFFFFFFFFFF AND EQ PUSH2 0x2816 JUMPI PUSH2 0x27DA PUSH2 0x2778 JUMP JUMPDEST PUSH1 0x40 MLOAD PUSH32 0x118CDAA700000000000000000000000000000000000000000000000000000000 DUP2 MSTORE PUSH1 0x4 ADD PUSH2 0x280D SWAP2 SWAP1 PUSH2 0x3884 JUMP JUMPDEST PUSH1 0x40 MLOAD DUP1 SWAP2 SUB SWAP1 REVERT JUMPDEST JUMP JUMPDEST PUSH0 DUP1 PUSH2 0x2825 DUP6 DUP6 DUP6 PUSH2 0x301A JUMP JUMPDEST SWAP1 POP PUSH1 0xA PUSH1 0x14 SWAP1 SLOAD SWAP1 PUSH2 0x100 EXP SWAP1 DIV PUSH1 0xFF AND DUP1 PUSH2 0x286D JUMPI POP PUSH0 PUSH20 0xFFFFFFFFFFFFFFFFFFFFFFFFFFFFFFFFFFFFFFFF AND DUP2 PUSH20 0xFFFFFFFFFFFFFFFFFFFFFFFFFFFFFFFFFFFFFFFF AND EQ JUMPDEST PUSH2 0x28AC JUMPI PUSH1 0x40 MLOAD PUSH32 0x8C379A000000000000000000000000000000000000000000000000000000000 DUP2 MSTORE PUSH1 0x4 ADD PUSH2 0x28A3 SWAP1 PUSH2 0x4E09 JUMP JUMPDEST PUSH1 0x40 MLOAD DUP1 SWAP2 SUB SWAP1 REVERT JUMPDEST DUP1 SWAP2 POP POP SWAP4 SWAP3 POP POP POP JUMP JUMPDEST PUSH0 PUSH1 0x6 PUSH0 SWAP1 SLOAD SWAP1 PUSH2 0x100 EXP SWAP1 DIV PUSH20 0xFFFFFFFFFFFFFFFFFFFFFFFFFFFFFFFFFFFFFFFF AND SWAP1 POP DUP2 PUSH1 0x6 PUSH0 PUSH2 0x100 EXP DUP2 SLOAD DUP2 PUSH20 0xFFFFFFFFFFFFFFFFFFFFFFFFFFFFFFFFFFFFFFFF MUL NOT AND SWAP1 DUP4 PUSH20 0xFFFFFFFFFFFFFFFFFFFFFFFFFFFFFFFFFFFFFFFF AND MUL OR SWAP1 SSTORE POP DUP2 PUSH20 0xFFFFFFFFFFFFFFFFFFFFFFFFFFFFFFFFFFFFFFFF AND DUP2 PUSH20 0xFFFFFFFFFFFFFFFFFFFFFFFFFFFFFFFFFFFFFFFF AND PUSH32 0x8BE0079C531659141344CD1FD0A4F28419497F9722A3DAAFE3B4186F6B6457E0 PUSH1 0x40 MLOAD PUSH1 0x40 MLOAD DUP1 SWAP2 SUB SWAP1 LOG3 POP POP JUMP JUMPDEST PUSH2 0x2993 DUP3 DUP3 PUSH1 0x40 MLOAD DUP1 PUSH1 0x20 ADD PUSH1 0x40 MSTORE DUP1 PUSH0 DUP2 MSTORE POP PUSH2 0x3225 JUMP JUMPDEST POP POP JUMP JUMPDEST PUSH0 PUSH20 0xFFFFFFFFFFFFFFFFFFFFFFFFFFFFFFFFFFFFFFFF AND DUP3 PUSH20 0xFFFFFFFFFFFFFFFFFFFFFFFFFFFFFFFFFFFFFFFF AND SUB PUSH2 0x2A07 JUMPI DUP2 PUSH1 0x40 MLOAD PUSH32 0x5B08BA1800000000000000000000000000000000000000000000000000000000 DUP2 MSTORE PUSH1 0x4 ADD PUSH2 0x29FE SWAP2 SWAP1 PUSH2 0x3884 JUMP JUMPDEST PUSH1 0x40 MLOAD DUP1 SWAP2 SUB SWAP1 REVERT JUMPDEST DUP1 PUSH1 0x5 PUSH0 DUP6 PUSH20 0xFFFFFFFFFFFFFFFFFFFFFFFFFFFFFFFFFFFFFFFF AND PUSH20 0xFFFFFFFFFFFFFFFFFFFFFFFFFFFFFFFFFFFFFFFF AND DUP2 MSTORE PUSH1 0x20 ADD SWAP1 DUP2 MSTORE PUSH1 0x20 ADD PUSH0 KECCAK256 PUSH0 DUP5 PUSH20 0xFFFFFFFFFFFFFFFFFFFFFFFFFFFFFFFFFFFFFFFF AND PUSH20 0xFFFFFFFFFFFFFFFFFFFFFFFFFFFFFFFFFFFFFFFF AND DUP2 MSTORE PUSH1 0x20 ADD SWAP1 DUP2 MSTORE PUSH1 0x20 ADD PUSH0 KECCAK256 PUSH0 PUSH2 0x100 EXP DUP2 SLOAD DUP2 PUSH1 0xFF MUL NOT AND SWAP1 DUP4 ISZERO ISZERO MUL OR SWAP1 SSTORE POP DUP2 PUSH20 0xFFFFFFFFFFFFFFFFFFFFFFFFFFFFFFFFFFFFFFFF AND DUP4 PUSH20 0xFFFFFFFFFFFFFFFFFFFFFFFFFFFFFFFFFFFFFFFF AND PUSH32 0x17307EAB39AB6107E8899845AD3D59BD9653F200F220920489CA2B5937696C31 DUP4 PUSH1 0x40 MLOAD PUSH2 0x2AF3 SWAP2 SWAP1 PUSH2 0x373E JUMP JUMPDEST PUSH1 0x40 MLOAD DUP1 SWAP2 SUB SWAP1 LOG3 POP POP POP JUMP JUMPDEST PUSH0 DUP4 PUSH20 0xFFFFFFFFFFFFFFFFFFFFFFFFFFFFFFFFFFFFFFFF AND EXTCODESIZE GT ISZERO PUSH2 0x2CAC JUMPI DUP3 PUSH20 0xFFFFFFFFFFFFFFFFFFFFFFFFFFFFFFFFFFFFFFFF AND PUSH4 0x150B7A02 PUSH2 0x2B43 PUSH2 0x2778 JUMP JUMPDEST DUP7 DUP6 DUP6 PUSH1 0x40 MLOAD DUP6 PUSH4 0xFFFFFFFF AND PUSH1 0xE0 SHL DUP2 MSTORE PUSH1 0x4 ADD PUSH2 0x2B65 SWAP5 SWAP4 SWAP3 SWAP2 SWAP1 PUSH2 0x4E79 JUMP JUMPDEST PUSH1 0x20 PUSH1 0x40 MLOAD DUP1 DUP4 SUB DUP2 PUSH0 DUP8 GAS CALL SWAP3 POP POP POP DUP1 ISZERO PUSH2 0x2BA0 JUMPI POP PUSH1 0x40 MLOAD RETURNDATASIZE PUSH1 0x1F NOT PUSH1 0x1F DUP3 ADD AND DUP3 ADD DUP1 PUSH1 0x40 MSTORE POP DUP2 ADD SWAP1 PUSH2 0x2B9D SWAP2 SWAP1 PUSH2 0x4ED7 JUMP JUMPDEST PUSH1 0x1 JUMPDEST PUSH2 0x2C21 JUMPI RETURNDATASIZE DUP1 PUSH0 DUP2 EQ PUSH2 0x2BCE JUMPI PUSH1 0x40 MLOAD SWAP2 POP PUSH1 0x1F NOT PUSH1 0x3F RETURNDATASIZE ADD AND DUP3 ADD PUSH1 0x40 MSTORE RETURNDATASIZE DUP3 MSTORE RETURNDATASIZE PUSH0 PUSH1 0x20 DUP5 ADD RETURNDATACOPY PUSH2 0x2BD3 JUMP JUMPDEST PUSH1 0x60 SWAP2 POP JUMPDEST POP PUSH0 DUP2 MLOAD SUB PUSH2 0x2C19 JUMPI DUP4 PUSH1 0x40 MLOAD PUSH32 0x64A0AE9200000000000000000000000000000000000000000000000000000000 DUP2 MSTORE PUSH1 0x4 ADD PUSH2 0x2C10 SWAP2 SWAP1 PUSH2 0x3884 JUMP JUMPDEST PUSH1 0x40 MLOAD DUP1 SWAP2 SUB SWAP1 REVERT JUMPDEST DUP1 MLOAD DUP2 PUSH1 0x20 ADD REVERT JUMPDEST PUSH4 0x150B7A02 PUSH1 0xE0 SHL PUSH28 0xFFFFFFFFFFFFFFFFFFFFFFFFFFFFFFFFFFFFFFFFFFFFFFFFFFFFFFFF NOT AND DUP2 PUSH28 0xFFFFFFFFFFFFFFFFFFFFFFFFFFFFFFFFFFFFFFFFFFFFFFFFFFFFFFFF NOT AND EQ PUSH2 0x2CAA JUMPI DUP4 PUSH1 0x40 MLOAD PUSH32 0x64A0AE9200000000000000000000000000000000000000000000000000000000 DUP2 MSTORE PUSH1 0x4 ADD PUSH2 0x2CA1 SWAP2 SWAP1 PUSH2 0x3884 JUMP JUMPDEST PUSH1 0x40 MLOAD DUP1 SWAP2 SUB SWAP1 REVERT JUMPDEST POP JUMPDEST POP POP POP POP JUMP JUMPDEST PUSH0 DUP3 PUSH2 0x2CBE DUP6 DUP5 PUSH2 0x3240 JUMP JUMPDEST EQ SWAP1 POP SWAP4 SWAP3 POP POP POP JUMP JUMPDEST PUSH1 0x60 PUSH1 0xB DUP1 SLOAD PUSH2 0x2CD7 SWAP1 PUSH2 0x429F JUMP JUMPDEST DUP1 PUSH1 0x1F ADD PUSH1 0x20 DUP1 SWAP2 DIV MUL PUSH1 0x20 ADD PUSH1 0x40 MLOAD SWAP1 DUP2 ADD PUSH1 0x40 MSTORE DUP1 SWAP3 SWAP2 SWAP1 DUP2 DUP2 MSTORE PUSH1 0x20 ADD DUP3 DUP1 SLOAD PUSH2 0x2D03 SWAP1 PUSH2 0x429F JUMP JUMPDEST DUP1 ISZERO PUSH2 0x2D4E JUMPI DUP1 PUSH1 0x1F LT PUSH2 0x2D25 JUMPI PUSH2 0x100 DUP1 DUP4 SLOAD DIV MUL DUP4 MSTORE SWAP2 PUSH1 0x20 ADD SWAP2 PUSH2 0x2D4E JUMP JUMPDEST DUP3 ADD SWAP2 SWAP1 PUSH0 MSTORE PUSH1 0x20 PUSH0 KECCAK256 SWAP1 JUMPDEST DUP2 SLOAD DUP2 MSTORE SWAP1 PUSH1 0x1 ADD SWAP1 PUSH1 0x20 ADD DUP1 DUP4 GT PUSH2 0x2D31 JUMPI DUP3 SWAP1 SUB PUSH1 0x1F AND DUP3 ADD SWAP2 JUMPDEST POP POP POP POP POP SWAP1 POP SWAP1 JUMP JUMPDEST PUSH1 0x60 PUSH0 PUSH1 0x1 PUSH2 0x2D66 DUP5 PUSH2 0x328E JUMP JUMPDEST ADD SWAP1 POP PUSH0 DUP2 PUSH8 0xFFFFFFFFFFFFFFFF DUP2 GT ISZERO PUSH2 0x2D84 JUMPI PUSH2 0x2D83 PUSH2 0x3DFE JUMP JUMPDEST JUMPDEST PUSH1 0x40 MLOAD SWAP1 DUP1 DUP3 MSTORE DUP1 PUSH1 0x1F ADD PUSH1 0x1F NOT AND PUSH1 0x20 ADD DUP3 ADD PUSH1 0x40 MSTORE DUP1 ISZERO PUSH2 0x2DB6 JUMPI DUP2 PUSH1 0x20 ADD PUSH1 0x1 DUP3 MUL DUP1 CALLDATASIZE DUP4 CALLDATACOPY DUP1 DUP3 ADD SWAP2 POP POP SWAP1 POP JUMPDEST POP SWAP1 POP PUSH0 DUP3 PUSH1 0x20 ADD DUP3 ADD SWAP1 POP JUMPDEST PUSH1 0x1 ISZERO PUSH2 0x2E17 JUMPI DUP1 DUP1 PUSH1 0x1 SWAP1 SUB SWAP2 POP POP PUSH32 0x3031323334353637383961626364656600000000000000000000000000000000 PUSH1 0xA DUP7 MOD BYTE DUP2 MSTORE8 PUSH1 0xA DUP6 DUP2 PUSH2 0x2E0C JUMPI PUSH2 0x2E0B PUSH2 0x4F02 JUMP JUMPDEST JUMPDEST DIV SWAP5 POP PUSH0 DUP6 SUB PUSH2 0x2DC3 JUMPI JUMPDEST DUP2 SWAP4 POP POP POP POP SWAP2 SWAP1 POP JUMP JUMPDEST PUSH0 PUSH1 0x2 PUSH0 DUP4 DUP2 MSTORE PUSH1 0x20 ADD SWAP1 DUP2 MSTORE PUSH1 0x20 ADD PUSH0 KECCAK256 PUSH0 SWAP1 SLOAD SWAP1 PUSH2 0x100 EXP SWAP1 DIV PUSH20 0xFFFFFFFFFFFFFFFFFFFFFFFFFFFFFFFFFFFFFFFF AND SWAP1 POP SWAP2 SWAP1 POP JUMP JUMPDEST DUP1 DUP1 PUSH2 0x2E93 JUMPI POP PUSH0 PUSH20 0xFFFFFFFFFFFFFFFFFFFFFFFFFFFFFFFFFFFFFFFF AND DUP3 PUSH20 0xFFFFFFFFFFFFFFFFFFFFFFFFFFFFFFFFFFFFFFFF AND EQ ISZERO JUMPDEST ISZERO PUSH2 0x2FC5 JUMPI PUSH0 PUSH2 0x2EA2 DUP5 PUSH2 0x26B9 JUMP JUMPDEST SWAP1 POP PUSH0 PUSH20 0xFFFFFFFFFFFFFFFFFFFFFFFFFFFFFFFFFFFFFFFF AND DUP4 PUSH20 0xFFFFFFFFFFFFFFFFFFFFFFFFFFFFFFFFFFFFFFFF AND EQ ISZERO DUP1 ISZERO PUSH2 0x2F0C JUMPI POP DUP3 PUSH20 0xFFFFFFFFFFFFFFFFFFFFFFFFFFFFFFFFFFFFFFFF AND DUP2 PUSH20 0xFFFFFFFFFFFFFFFFFFFFFFFFFFFFFFFFFFFFFFFF AND EQ ISZERO JUMPDEST DUP1 ISZERO PUSH2 0x2F1F JUMPI POP PUSH2 0x2F1D DUP2 DUP5 PUSH2 0x24FC JUMP JUMPDEST ISZERO JUMPDEST ISZERO PUSH2 0x2F61 JUMPI DUP3 PUSH1 0x40 MLOAD PUSH32 0xA9FBF51F00000000000000000000000000000000000000000000000000000000 DUP2 MSTORE PUSH1 0x4 ADD PUSH2 0x2F58 SWAP2 SWAP1 PUSH2 0x3884 JUMP JUMPDEST PUSH1 0x40 MLOAD DUP1 SWAP2 SUB SWAP1 REVERT JUMPDEST DUP2 ISZERO PUSH2 0x2FC3 JUMPI DUP4 DUP6 PUSH20 0xFFFFFFFFFFFFFFFFFFFFFFFFFFFFFFFFFFFFFFFF AND DUP3 PUSH20 0xFFFFFFFFFFFFFFFFFFFFFFFFFFFFFFFFFFFFFFFF AND PUSH32 0x8C5BE1E5EBEC7D5BD14F71427D1E84F3DD0314C0F7B2291E5B200AC8C7C3B925 PUSH1 0x40 MLOAD PUSH1 0x40 MLOAD DUP1 SWAP2 SUB SWAP1 LOG4 JUMPDEST POP JUMPDEST DUP4 PUSH1 0x4 PUSH0 DUP6 DUP2 MSTORE PUSH1 0x20 ADD SWAP1 DUP2 MSTORE PUSH1 0x20 ADD PUSH0 KECCAK256 PUSH0 PUSH2 0x100 EXP DUP2 SLOAD DUP2 PUSH20 0xFFFFFFFFFFFFFFFFFFFFFFFFFFFFFFFFFFFFFFFF MUL NOT AND SWAP1 DUP4 PUSH20 0xFFFFFFFFFFFFFFFFFFFFFFFFFFFFFFFFFFFFFFFF AND MUL OR SWAP1 SSTORE POP POP POP POP POP JUMP JUMPDEST PUSH0 DUP1 PUSH2 0x3025 DUP5 PUSH2 0x2E22 JUMP JUMPDEST SWAP1 POP PUSH0 PUSH20 0xFFFFFFFFFFFFFFFFFFFFFFFFFFFFFFFFFFFFFFFF AND DUP4 PUSH20 0xFFFFFFFFFFFFFFFFFFFFFFFFFFFFFFFFFFFFFFFF AND EQ PUSH2 0x3066 JUMPI PUSH2 0x3065 DUP2 DUP5 DUP7 PUSH2 0x33DF JUMP JUMPDEST JUMPDEST PUSH0 PUSH20 0xFFFFFFFFFFFFFFFFFFFFFFFFFFFFFFFFFFFFFFFF AND DUP2 PUSH20 0xFFFFFFFFFFFFFFFFFFFFFFFFFFFFFFFFFFFFFFFF AND EQ PUSH2 0x30F1 JUMPI PUSH2 0x30A5 PUSH0 DUP6 PUSH0 DUP1 PUSH2 0x2E5B JUMP JUMPDEST PUSH1 0x1 PUSH1 0x3 PUSH0 DUP4 PUSH20 0xFFFFFFFFFFFFFFFFFFFFFFFFFFFFFFFFFFFFFFFF AND PUSH20 0xFFFFFFFFFFFFFFFFFFFFFFFFFFFFFFFFFFFFFFFF AND DUP2 MSTORE PUSH1 0x20 ADD SWAP1 DUP2 MSTORE PUSH1 0x20 ADD PUSH0 KECCAK256 PUSH0 DUP3 DUP3 SLOAD SUB SWAP3 POP POP DUP2 SWAP1 SSTORE POP JUMPDEST PUSH0 PUSH20 0xFFFFFFFFFFFFFFFFFFFFFFFFFFFFFFFFFFFFFFFF AND DUP6 PUSH20 0xFFFFFFFFFFFFFFFFFFFFFFFFFFFFFFFFFFFFFFFF AND EQ PUSH2 0x3170 JUMPI PUSH1 0x1 PUSH1 0x3 PUSH0 DUP8 PUSH20 0xFFFFFFFFFFFFFFFFFFFFFFFFFFFFFFFFFFFFFFFF AND PUSH20 0xFFFFFFFFFFFFFFFFFFFFFFFFFFFFFFFFFFFFFFFF AND DUP2 MSTORE PUSH1 0x20 ADD SWAP1 DUP2 MSTORE PUSH1 0x20 ADD PUSH0 KECCAK256 PUSH0 DUP3 DUP3 SLOAD ADD SWAP3 POP POP DUP2 SWAP1 SSTORE POP JUMPDEST DUP5 PUSH1 0x2 PUSH0 DUP7 DUP2 MSTORE PUSH1 0x20 ADD SWAP1 DUP2 MSTORE PUSH1 0x20 ADD PUSH0 KECCAK256 PUSH0 PUSH2 0x100 EXP DUP2 SLOAD DUP2 PUSH20 0xFFFFFFFFFFFFFFFFFFFFFFFFFFFFFFFFFFFFFFFF MUL NOT AND SWAP1 DUP4 PUSH20 0xFFFFFFFFFFFFFFFFFFFFFFFFFFFFFFFFFFFFFFFF AND MUL OR SWAP1 SSTORE POP DUP4 DUP6 PUSH20 0xFFFFFFFFFFFFFFFFFFFFFFFFFFFFFFFFFFFFFFFF AND DUP3 PUSH20 0xFFFFFFFFFFFFFFFFFFFFFFFFFFFFFFFFFFFFFFFF AND PUSH32 0xDDF252AD1BE2C89B69C2B068FC378DAA952BA7F163C4A11628F55A4DF523B3EF PUSH1 0x40 MLOAD PUSH1 0x40 MLOAD DUP1 SWAP2 SUB SWAP1 LOG4 DUP1 SWAP2 POP POP SWAP4 SWAP3 POP POP POP JUMP JUMPDEST PUSH2 0x322F DUP4 DUP4 PUSH2 0x34A2 JUMP JUMPDEST PUSH2 0x323B PUSH0 DUP5 DUP5 DUP5 PUSH2 0x2B00 JUMP JUMPDEST POP POP POP JUMP JUMPDEST PUSH0 DUP1 DUP3 SWAP1 POP PUSH0 JUMPDEST DUP5 MLOAD DUP2 LT ISZERO PUSH2 0x3283 JUMPI PUSH2 0x3274 DUP3 DUP7 DUP4 DUP2 MLOAD DUP2 LT PUSH2 0x3267 JUMPI PUSH2 0x3266 PUSH2 0x4F2F JUMP JUMPDEST JUMPDEST PUSH1 0x20 MUL PUSH1 0x20 ADD ADD MLOAD PUSH2 0x3595 JUMP JUMPDEST SWAP2 POP DUP1 DUP1 PUSH1 0x1 ADD SWAP2 POP POP PUSH2 0x3247 JUMP JUMPDEST POP DUP1 SWAP2 POP POP SWAP3 SWAP2 POP POP JUMP JUMPDEST PUSH0 DUP1 PUSH0 SWAP1 POP PUSH27 0x184F03E93FF9F4DAA797ED6E38ED64BF6A1F010000000000000000 DUP4 LT PUSH2 0x32EA JUMPI PUSH27 0x184F03E93FF9F4DAA797ED6E38ED64BF6A1F010000000000000000 DUP4 DUP2 PUSH2 0x32E0 JUMPI PUSH2 0x32DF PUSH2 0x4F02 JUMP JUMPDEST JUMPDEST DIV SWAP3 POP PUSH1 0x40 DUP2 ADD SWAP1 POP JUMPDEST PUSH14 0x4EE2D6D415B85ACEF8100000000 DUP4 LT PUSH2 0x3327 JUMPI PUSH14 0x4EE2D6D415B85ACEF8100000000 DUP4 DUP2 PUSH2 0x331D JUMPI PUSH2 0x331C PUSH2 0x4F02 JUMP JUMPDEST JUMPDEST DIV SWAP3 POP PUSH1 0x20 DUP2 ADD SWAP1 POP JUMPDEST PUSH7 0x2386F26FC10000 DUP4 LT PUSH2 0x3356 JUMPI PUSH7 0x2386F26FC10000 DUP4 DUP2 PUSH2 0x334C JUMPI PUSH2 0x334B PUSH2 0x4F02 JUMP JUMPDEST JUMPDEST DIV SWAP3 POP PUSH1 0x10 DUP2 ADD SWAP1 POP JUMPDEST PUSH4 0x5F5E100 DUP4 LT PUSH2 0x337F JUMPI PUSH4 0x5F5E100 DUP4 DUP2 PUSH2 0x3375 JUMPI PUSH2 0x3374 PUSH2 0x4F02 JUMP JUMPDEST JUMPDEST DIV SWAP3 POP PUSH1 0x8 DUP2 ADD SWAP1 POP JUMPDEST PUSH2 0x2710 DUP4 LT PUSH2 0x33A4 JUMPI PUSH2 0x2710 DUP4 DUP2 PUSH2 0x339A JUMPI PUSH2 0x3399 PUSH2 0x4F02 JUMP JUMPDEST JUMPDEST DIV SWAP3 POP PUSH1 0x4 DUP2 ADD SWAP1 POP JUMPDEST PUSH1 0x64 DUP4 LT PUSH2 0x33C7 JUMPI PUSH1 0x64 DUP4 DUP2 PUSH2 0x33BD JUMPI PUSH2 0x33BC PUSH2 0x4F02 JUMP JUMPDEST JUMPDEST DIV SWAP3 POP PUSH1 0x2 DUP2 ADD SWAP1 POP JUMPDEST PUSH1 0xA DUP4 LT PUSH2 0x33D6 JUMPI PUSH1 0x1 DUP2 ADD SWAP1 POP JUMPDEST DUP1 SWAP2 POP POP SWAP2 SWAP1 POP JUMP JUMPDEST PUSH2 0x33EA DUP4 DUP4 DUP4 PUSH2 0x35BF JUMP JUMPDEST PUSH2 0x349D JUMPI PUSH0 PUSH20 0xFFFFFFFFFFFFFFFFFFFFFFFFFFFFFFFFFFFFFFFF AND DUP4 PUSH20 0xFFFFFFFFFFFFFFFFFFFFFFFFFFFFFFFFFFFFFFFF AND SUB PUSH2 0x345E JUMPI DUP1 PUSH1 0x40 MLOAD PUSH32 0x7E27328900000000000000000000000000000000000000000000000000000000 DUP2 MSTORE PUSH1 0x4 ADD PUSH2 0x3455 SWAP2 SWAP1 PUSH2 0x3C31 JUMP JUMPDEST PUSH1 0x40 MLOAD DUP1 SWAP2 SUB SWAP1 REVERT JUMPDEST DUP2 DUP2 PUSH1 0x40 MLOAD PUSH32 0x177E802F00000000000000000000000000000000000000000000000000000000 DUP2 MSTORE PUSH1 0x4 ADD PUSH2 0x3494 SWAP3 SWAP2 SWAP1 PUSH2 0x4F5C JUMP JUMPDEST PUSH1 0x40 MLOAD DUP1 SWAP2 SUB SWAP1 REVERT JUMPDEST POP POP POP JUMP JUMPDEST PUSH0 PUSH20 0xFFFFFFFFFFFFFFFFFFFFFFFFFFFFFFFFFFFFFFFF AND DUP3 PUSH20 0xFFFFFFFFFFFFFFFFFFFFFFFFFFFFFFFFFFFFFFFF AND SUB PUSH2 0x3512 JUMPI PUSH0 PUSH1 0x40 MLOAD PUSH32 0x64A0AE9200000000000000000000000000000000000000000000000000000000 DUP2 MSTORE PUSH1 0x4 ADD PUSH2 0x3509 SWAP2 SWAP1 PUSH2 0x3884 JUMP JUMPDEST PUSH1 0x40 MLOAD DUP1 SWAP2 SUB SWAP1 REVERT JUMPDEST PUSH0 PUSH2 0x351E DUP4 DUP4 PUSH0 PUSH2 0x2818 JUMP JUMPDEST SWAP1 POP PUSH0 PUSH20 0xFFFFFFFFFFFFFFFFFFFFFFFFFFFFFFFFFFFFFFFF AND DUP2 PUSH20 0xFFFFFFFFFFFFFFFFFFFFFFFFFFFFFFFFFFFFFFFF AND EQ PUSH2 0x3590 JUMPI PUSH0 PUSH1 0x40 MLOAD PUSH32 0x73C6AC6E00000000000000000000000000000000000000000000000000000000 DUP2 MSTORE PUSH1 0x4 ADD PUSH2 0x3587 SWAP2 SWAP1 PUSH2 0x3884 JUMP JUMPDEST PUSH1 0x40 MLOAD DUP1 SWAP2 SUB SWAP1 REVERT JUMPDEST POP POP POP JUMP JUMPDEST PUSH0 DUP2 DUP4 LT PUSH2 0x35AC JUMPI PUSH2 0x35A7 DUP3 DUP5 PUSH2 0x367F JUMP JUMPDEST PUSH2 0x35B7 JUMP JUMPDEST PUSH2 0x35B6 DUP4 DUP4 PUSH2 0x367F JUMP JUMPDEST JUMPDEST SWAP1 POP SWAP3 SWAP2 POP POP JUMP JUMPDEST PUSH0 DUP1 PUSH20 0xFFFFFFFFFFFFFFFFFFFFFFFFFFFFFFFFFFFFFFFF AND DUP4 PUSH20 0xFFFFFFFFFFFFFFFFFFFFFFFFFFFFFFFFFFFFFFFF AND EQ ISZERO DUP1 ISZERO PUSH2 0x3676 JUMPI POP DUP3 PUSH20 0xFFFFFFFFFFFFFFFFFFFFFFFFFFFFFFFFFFFFFFFF AND DUP5 PUSH20 0xFFFFFFFFFFFFFFFFFFFFFFFFFFFFFFFFFFFFFFFF AND EQ DUP1 PUSH2 0x3637 JUMPI POP PUSH2 0x3636 DUP5 DUP5 PUSH2 0x24FC JUMP JUMPDEST JUMPDEST DUP1 PUSH2 0x3675 JUMPI POP DUP3 PUSH20 0xFFFFFFFFFFFFFFFFFFFFFFFFFFFFFFFFFFFFFFFF AND PUSH2 0x365D DUP4 PUSH2 0x273F JUMP JUMPDEST PUSH20 0xFFFFFFFFFFFFFFFFFFFFFFFFFFFFFFFFFFFFFFFF AND EQ JUMPDEST JUMPDEST SWAP1 POP SWAP4 SWAP3 POP POP POP JUMP JUMPDEST PUSH0 DUP3 PUSH0 MSTORE DUP2 PUSH1 0x20 MSTORE PUSH1 0x40 PUSH0 KECCAK256 SWAP1 POP SWAP3 SWAP2 POP POP JUMP JUMPDEST PUSH0 PUSH1 0x40 MLOAD SWAP1 POP SWAP1 JUMP JUMPDEST PUSH0 DUP1 REVERT JUMPDEST PUSH0 DUP1 REVERT JUMPDEST PUSH0 PUSH32 0xFFFFFFFF00000000000000000000000000000000000000000000000000000000 DUP3 AND SWAP1 POP SWAP2 SWAP1 POP JUMP JUMPDEST PUSH2 0x36D8 DUP2 PUSH2 0x36A4 JUMP JUMPDEST DUP2 EQ PUSH2 0x36E2 JUMPI PUSH0 DUP1 REVERT JUMPDEST POP JUMP JUMPDEST PUSH0 DUP2 CALLDATALOAD SWAP1 POP PUSH2 0x36F3 DUP2 PUSH2 0x36CF JUMP JUMPDEST SWAP3 SWAP2 POP POP JUMP JUMPDEST PUSH0 PUSH1 0x20 DUP3 DUP5 SUB SLT ISZERO PUSH2 0x370E JUMPI PUSH2 0x370D PUSH2 0x369C JUMP JUMPDEST JUMPDEST PUSH0 PUSH2 0x371B DUP5 DUP3 DUP6 ADD PUSH2 0x36E5 JUMP JUMPDEST SWAP2 POP POP SWAP3 SWAP2 POP POP JUMP JUMPDEST PUSH0 DUP2 ISZERO ISZERO SWAP1 POP SWAP2 SWAP1 POP JUMP JUMPDEST PUSH2 0x3738 DUP2 PUSH2 0x3724 JUMP JUMPDEST DUP3 MSTORE POP POP JUMP JUMPDEST PUSH0 PUSH1 0x20 DUP3 ADD SWAP1 POP PUSH2 0x3751 PUSH0 DUP4 ADD DUP5 PUSH2 0x372F JUMP JUMPDEST SWAP3 SWAP2 POP POP JUMP JUMPDEST PUSH0 DUP2 MLOAD SWAP1 POP SWAP2 SWAP1 POP JUMP JUMPDEST PUSH0 DUP3 DUP3 MSTORE PUSH1 0x20 DUP3 ADD SWAP1 POP SWAP3 SWAP2 POP POP JUMP JUMPDEST DUP3 DUP2 DUP4 MCOPY PUSH0 DUP4 DUP4 ADD MSTORE POP POP POP JUMP JUMPDEST PUSH0 PUSH1 0x1F NOT PUSH1 0x1F DUP4 ADD AND SWAP1 POP SWAP2 SWAP1 POP JUMP JUMPDEST PUSH0 PUSH2 0x3799 DUP3 PUSH2 0x3757 JUMP JUMPDEST PUSH2 0x37A3 DUP2 DUP6 PUSH2 0x3761 JUMP JUMPDEST SWAP4 POP PUSH2 0x37B3 DUP2 DUP6 PUSH1 0x20 DUP7 ADD PUSH2 0x3771 JUMP JUMPDEST PUSH2 0x37BC DUP2 PUSH2 0x377F JUMP JUMPDEST DUP5 ADD SWAP2 POP POP SWAP3 SWAP2 POP POP JUMP JUMPDEST PUSH0 PUSH1 0x20 DUP3 ADD SWAP1 POP DUP2 DUP2 SUB PUSH0 DUP4 ADD MSTORE PUSH2 0x37DF DUP2 DUP5 PUSH2 0x378F JUMP JUMPDEST SWAP1 POP SWAP3 SWAP2 POP POP JUMP JUMPDEST PUSH0 DUP2 SWAP1 POP SWAP2 SWAP1 POP JUMP JUMPDEST PUSH2 0x37F9 DUP2 PUSH2 0x37E7 JUMP JUMPDEST DUP2 EQ PUSH2 0x3803 JUMPI PUSH0 DUP1 REVERT JUMPDEST POP JUMP JUMPDEST PUSH0 DUP2 CALLDATALOAD SWAP1 POP PUSH2 0x3814 DUP2 PUSH2 0x37F0 JUMP JUMPDEST SWAP3 SWAP2 POP POP JUMP JUMPDEST PUSH0 PUSH1 0x20 DUP3 DUP5 SUB SLT ISZERO PUSH2 0x382F JUMPI PUSH2 0x382E PUSH2 0x369C JUMP JUMPDEST JUMPDEST PUSH0 PUSH2 0x383C DUP5 DUP3 DUP6 ADD PUSH2 0x3806 JUMP JUMPDEST SWAP2 POP POP SWAP3 SWAP2 POP POP JUMP JUMPDEST PUSH0 PUSH20 0xFFFFFFFFFFFFFFFFFFFFFFFFFFFFFFFFFFFFFFFF DUP3 AND SWAP1 POP SWAP2 SWAP1 POP JUMP JUMPDEST PUSH0 PUSH2 0x386E DUP3 PUSH2 0x3845 JUMP JUMPDEST SWAP1 POP SWAP2 SWAP1 POP JUMP JUMPDEST PUSH2 0x387E DUP2 PUSH2 0x3864 JUMP JUMPDEST DUP3 MSTORE POP POP JUMP JUMPDEST PUSH0 PUSH1 0x20 DUP3 ADD SWAP1 POP PUSH2 0x3897 PUSH0 DUP4 ADD DUP5 PUSH2 0x3875 JUMP JUMPDEST SWAP3 SWAP2 POP POP JUMP JUMPDEST PUSH2 0x38A6 DUP2 PUSH2 0x3864 JUMP JUMPDEST DUP2 EQ PUSH2 0x38B0 JUMPI PUSH0 DUP1 REVERT JUMPDEST POP JUMP JUMPDEST PUSH0 DUP2 CALLDATALOAD SWAP1 POP PUSH2 0x38C1 DUP2 PUSH2 0x389D JUMP JUMPDEST SWAP3 SWAP2 POP POP JUMP JUMPDEST PUSH0 DUP1 PUSH1 0x40 DUP4 DUP6 SUB SLT ISZERO PUSH2 0x38DD JUMPI PUSH2 0x38DC PUSH2 0x369C JUMP JUMPDEST JUMPDEST PUSH0 PUSH2 0x38EA DUP6 DUP3 DUP7 ADD PUSH2 0x38B3 JUMP JUMPDEST SWAP3 POP POP PUSH1 0x20 PUSH2 0x38FB DUP6 DUP3 DUP7 ADD PUSH2 0x3806 JUMP JUMPDEST SWAP2 POP POP SWAP3 POP SWAP3 SWAP1 POP JUMP JUMPDEST PUSH0 PUSH2 0xFFFF DUP3 AND SWAP1 POP SWAP2 SWAP1 POP JUMP JUMPDEST PUSH2 0x391B DUP2 PUSH2 0x3905 JUMP JUMPDEST DUP2 EQ PUSH2 0x3925 JUMPI PUSH0 DUP1 REVERT JUMPDEST POP JUMP JUMPDEST PUSH0 DUP2 CALLDATALOAD SWAP1 POP PUSH2 0x3936 DUP2 PUSH2 0x3912 JUMP JUMPDEST SWAP3 SWAP2 POP POP JUMP JUMPDEST PUSH0 PUSH1 0x20 DUP3 DUP5 SUB SLT ISZERO PUSH2 0x3951 JUMPI PUSH2 0x3950 PUSH2 0x369C JUMP JUMPDEST JUMPDEST PUSH0 PUSH2 0x395E DUP5 DUP3 DUP6 ADD PUSH2 0x3928 JUMP JUMPDEST SWAP2 POP POP SWAP3 SWAP2 POP POP JUMP JUMPDEST PUSH0 PUSH8 0xFFFFFFFFFFFFFFFF DUP3 AND SWAP1 POP SWAP2 SWAP1 POP JUMP JUMPDEST PUSH2 0x3983 DUP2 PUSH2 0x3967 JUMP JUMPDEST DUP3 MSTORE POP POP JUMP JUMPDEST PUSH0 PUSH1 0x20 DUP3 ADD SWAP1 POP PUSH2 0x399C PUSH0 DUP4 ADD DUP5 PUSH2 0x397A JUMP JUMPDEST SWAP3 SWAP2 POP POP JUMP JUMPDEST PUSH0 PUSH1 0xFF DUP3 AND SWAP1 POP SWAP2 SWAP1 POP JUMP JUMPDEST PUSH2 0x39B7 DUP2 PUSH2 0x39A2 JUMP JUMPDEST DUP2 EQ PUSH2 0x39C1 JUMPI PUSH0 DUP1 REVERT JUMPDEST POP JUMP JUMPDEST PUSH0 DUP2 CALLDATALOAD SWAP1 POP PUSH2 0x39D2 DUP2 PUSH2 0x39AE JUMP JUMPDEST SWAP3 SWAP2 POP POP JUMP JUMPDEST PUSH0 DUP1 PUSH1 0x40 DUP4 DUP6 SUB SLT ISZERO PUSH2 0x39EE JUMPI PUSH2 0x39ED PUSH2 0x369C JUMP JUMPDEST JUMPDEST PUSH0 PUSH2 0x39FB DUP6 DUP3 DUP7 ADD PUSH2 0x39C4 JUMP JUMPDEST SWAP3 POP POP PUSH1 0x20 PUSH2 0x3A0C DUP6 DUP3 DUP7 ADD PUSH2 0x3928 JUMP JUMPDEST SWAP2 POP POP SWAP3 POP SWAP3 SWAP1 POP JUMP JUMPDEST PUSH2 0x3A1F DUP2 PUSH2 0x3967 JUMP JUMPDEST DUP2 EQ PUSH2 0x3A29 JUMPI PUSH0 DUP1 REVERT JUMPDEST POP JUMP JUMPDEST PUSH0 DUP2 CALLDATALOAD SWAP1 POP PUSH2 0x3A3A DUP2 PUSH2 0x3A16 JUMP JUMPDEST SWAP3 SWAP2 POP POP JUMP JUMPDEST PUSH0 DUP1 PUSH0 PUSH1 0x60 DUP5 DUP7 SUB SLT ISZERO PUSH2 0x3A57 JUMPI PUSH2 0x3A56 PUSH2 0x369C JUMP JUMPDEST JUMPDEST PUSH0 PUSH2 0x3A64 DUP7 DUP3 DUP8 ADD PUSH2 0x39C4 JUMP JUMPDEST SWAP4 POP POP PUSH1 0x20 PUSH2 0x3A75 DUP7 DUP3 DUP8 ADD PUSH2 0x3A2C JUMP JUMPDEST SWAP3 POP POP PUSH1 0x40 PUSH2 0x3A86 DUP7 DUP3 DUP8 ADD PUSH2 0x3A2C JUMP JUMPDEST SWAP2 POP POP SWAP3 POP SWAP3 POP SWAP3 JUMP JUMPDEST PUSH0 PUSH1 0x20 DUP3 DUP5 SUB SLT ISZERO PUSH2 0x3AA5 JUMPI PUSH2 0x3AA4 PUSH2 0x369C JUMP JUMPDEST JUMPDEST PUSH0 PUSH2 0x3AB2 DUP5 DUP3 DUP6 ADD PUSH2 0x38B3 JUMP JUMPDEST SWAP2 POP POP SWAP3 SWAP2 POP POP JUMP JUMPDEST PUSH0 DUP1 PUSH0 PUSH1 0x60 DUP5 DUP7 SUB SLT ISZERO PUSH2 0x3AD2 JUMPI PUSH2 0x3AD1 PUSH2 0x369C JUMP JUMPDEST JUMPDEST PUSH0 PUSH2 0x3ADF DUP7 DUP3 DUP8 ADD PUSH2 0x38B3 JUMP JUMPDEST SWAP4 POP POP PUSH1 0x20 PUSH2 0x3AF0 DUP7 DUP3 DUP8 ADD PUSH2 0x38B3 JUMP JUMPDEST SWAP3 POP POP PUSH1 0x40 PUSH2 0x3B01 DUP7 DUP3 DUP8 ADD PUSH2 0x3806 JUMP JUMPDEST SWAP2 POP POP SWAP3 POP SWAP3 POP SWAP3 JUMP JUMPDEST PUSH0 DUP2 SWAP1 POP SWAP2 SWAP1 POP JUMP JUMPDEST PUSH2 0x3B1D DUP2 PUSH2 0x3B0B JUMP JUMPDEST DUP2 EQ PUSH2 0x3B27 JUMPI PUSH0 DUP1 REVERT JUMPDEST POP JUMP JUMPDEST PUSH0 DUP2 CALLDATALOAD SWAP1 POP PUSH2 0x3B38 DUP2 PUSH2 0x3B14 JUMP JUMPDEST SWAP3 SWAP2 POP POP JUMP JUMPDEST PUSH0 DUP1 PUSH1 0x40 DUP4 DUP6 SUB SLT ISZERO PUSH2 0x3B54 JUMPI PUSH2 0x3B53 PUSH2 0x369C JUMP JUMPDEST JUMPDEST PUSH0 PUSH2 0x3B61 DUP6 DUP3 DUP7 ADD PUSH2 0x39C4 JUMP JUMPDEST SWAP3 POP POP PUSH1 0x20 PUSH2 0x3B72 DUP6 DUP3 DUP7 ADD PUSH2 0x3B2A JUMP JUMPDEST SWAP2 POP POP SWAP3 POP SWAP3 SWAP1 POP JUMP JUMPDEST PUSH2 0x3B85 DUP2 PUSH2 0x3724 JUMP JUMPDEST DUP2 EQ PUSH2 0x3B8F JUMPI PUSH0 DUP1 REVERT JUMPDEST POP JUMP JUMPDEST PUSH0 DUP2 CALLDATALOAD SWAP1 POP PUSH2 0x3BA0 DUP2 PUSH2 0x3B7C JUMP JUMPDEST SWAP3 SWAP2 POP POP JUMP JUMPDEST PUSH0 DUP1 PUSH1 0x40 DUP4 DUP6 SUB SLT ISZERO PUSH2 0x3BBC JUMPI PUSH2 0x3BBB PUSH2 0x369C JUMP JUMPDEST JUMPDEST PUSH0 PUSH2 0x3BC9 DUP6 DUP3 DUP7 ADD PUSH2 0x38B3 JUMP JUMPDEST SWAP3 POP POP PUSH1 0x20 PUSH2 0x3BDA DUP6 DUP3 DUP7 ADD PUSH2 0x3B92 JUMP JUMPDEST SWAP2 POP POP SWAP3 POP SWAP3 SWAP1 POP JUMP JUMPDEST PUSH0 DUP1 PUSH1 0x40 DUP4 DUP6 SUB SLT ISZERO PUSH2 0x3BFA JUMPI PUSH2 0x3BF9 PUSH2 0x369C JUMP JUMPDEST JUMPDEST PUSH0 PUSH2 0x3C07 DUP6 DUP3 DUP7 ADD PUSH2 0x3928 JUMP JUMPDEST SWAP3 POP POP PUSH1 0x20 PUSH2 0x3C18 DUP6 DUP3 DUP7 ADD PUSH2 0x38B3 JUMP JUMPDEST SWAP2 POP POP SWAP3 POP SWAP3 SWAP1 POP JUMP JUMPDEST PUSH2 0x3C2B DUP2 PUSH2 0x37E7 JUMP JUMPDEST DUP3 MSTORE POP POP JUMP JUMPDEST PUSH0 PUSH1 0x20 DUP3 ADD SWAP1 POP PUSH2 0x3C44 PUSH0 DUP4 ADD DUP5 PUSH2 0x3C22 JUMP JUMPDEST SWAP3 SWAP2 POP POP JUMP JUMPDEST PUSH2 0x3C53 DUP2 PUSH2 0x3B0B JUMP JUMPDEST DUP3 MSTORE POP POP JUMP JUMPDEST PUSH0 PUSH1 0x20 DUP3 ADD SWAP1 POP PUSH2 0x3C6C PUSH0 DUP4 ADD DUP5 PUSH2 0x3C4A JUMP JUMPDEST SWAP3 SWAP2 POP POP JUMP JUMPDEST PUSH0 DUP1 PUSH0 PUSH1 0x60 DUP5 DUP7 SUB SLT ISZERO PUSH2 0x3C89 JUMPI PUSH2 0x3C88 PUSH2 0x369C JUMP JUMPDEST JUMPDEST PUSH0 PUSH2 0x3C96 DUP7 DUP3 DUP8 ADD PUSH2 0x39C4 JUMP JUMPDEST SWAP4 POP POP PUSH1 0x20 PUSH2 0x3CA7 DUP7 DUP3 DUP8 ADD PUSH2 0x3928 JUMP JUMPDEST SWAP3 POP POP PUSH1 0x40 PUSH2 0x3CB8 DUP7 DUP3 DUP8 ADD PUSH2 0x3928 JUMP JUMPDEST SWAP2 POP POP SWAP3 POP SWAP3 POP SWAP3 JUMP JUMPDEST PUSH2 0x3CCB DUP2 PUSH2 0x3905 JUMP JUMPDEST DUP3 MSTORE POP POP JUMP JUMPDEST PUSH0 PUSH1 0x20 DUP3 ADD SWAP1 POP PUSH2 0x3CE4 PUSH0 DUP4 ADD DUP5 PUSH2 0x3CC2 JUMP JUMPDEST SWAP3 SWAP2 POP POP JUMP JUMPDEST PUSH0 DUP1 REVERT JUMPDEST PUSH0 DUP1 REVERT JUMPDEST PUSH0 DUP1 REVERT JUMPDEST PUSH0 DUP1 DUP4 PUSH1 0x1F DUP5 ADD SLT PUSH2 0x3D0B JUMPI PUSH2 0x3D0A PUSH2 0x3CEA JUMP JUMPDEST JUMPDEST DUP3 CALLDATALOAD SWAP1 POP PUSH8 0xFFFFFFFFFFFFFFFF DUP2 GT ISZERO PUSH2 0x3D28 JUMPI PUSH2 0x3D27 PUSH2 0x3CEE JUMP JUMPDEST JUMPDEST PUSH1 0x20 DUP4 ADD SWAP2 POP DUP4 PUSH1 0x1 DUP3 MUL DUP4 ADD GT ISZERO PUSH2 0x3D44 JUMPI PUSH2 0x3D43 PUSH2 0x3CF2 JUMP JUMPDEST JUMPDEST SWAP3 POP SWAP3 SWAP1 POP JUMP JUMPDEST PUSH0 DUP1 PUSH0 DUP1 PUSH0 PUSH1 0x80 DUP7 DUP9 SUB SLT ISZERO PUSH2 0x3D64 JUMPI PUSH2 0x3D63 PUSH2 0x369C JUMP JUMPDEST JUMPDEST PUSH0 PUSH2 0x3D71 DUP9 DUP3 DUP10 ADD PUSH2 0x39C4 JUMP JUMPDEST SWAP6 POP POP PUSH1 0x20 PUSH2 0x3D82 DUP9 DUP3 DUP10 ADD PUSH2 0x38B3 JUMP JUMPDEST SWAP5 POP POP PUSH1 0x40 PUSH2 0x3D93 DUP9 DUP3 DUP10 ADD PUSH2 0x39C4 JUMP JUMPDEST SWAP4 POP POP PUSH1 0x60 DUP7 ADD CALLDATALOAD PUSH8 0xFFFFFFFFFFFFFFFF DUP2 GT ISZERO PUSH2 0x3DB4 JUMPI PUSH2 0x3DB3 PUSH2 0x36A0 JUMP JUMPDEST JUMPDEST PUSH2 0x3DC0 DUP9 DUP3 DUP10 ADD PUSH2 0x3CF6 JUMP JUMPDEST SWAP3 POP SWAP3 POP POP SWAP3 SWAP6 POP SWAP3 SWAP6 SWAP1 SWAP4 POP JUMP JUMPDEST PUSH0 PUSH1 0x20 DUP3 DUP5 SUB SLT ISZERO PUSH2 0x3DE4 JUMPI PUSH2 0x3DE3 PUSH2 0x369C JUMP JUMPDEST JUMPDEST PUSH0 PUSH2 0x3DF1 DUP5 DUP3 DUP6 ADD PUSH2 0x3B92 JUMP JUMPDEST SWAP2 POP POP SWAP3 SWAP2 POP POP JUMP JUMPDEST PUSH0 DUP1 REVERT JUMPDEST PUSH32 0x4E487B7100000000000000000000000000000000000000000000000000000000 PUSH0 MSTORE PUSH1 0x41 PUSH1 0x4 MSTORE PUSH1 0x24 PUSH0 REVERT JUMPDEST PUSH2 0x3E34 DUP3 PUSH2 0x377F JUMP JUMPDEST DUP2 ADD DUP2 DUP2 LT PUSH8 0xFFFFFFFFFFFFFFFF DUP3 GT OR ISZERO PUSH2 0x3E53 JUMPI PUSH2 0x3E52 PUSH2 0x3DFE JUMP JUMPDEST JUMPDEST DUP1 PUSH1 0x40 MSTORE POP POP POP JUMP JUMPDEST PUSH0 PUSH2 0x3E65 PUSH2 0x3693 JUMP JUMPDEST SWAP1 POP PUSH2 0x3E71 DUP3 DUP3 PUSH2 0x3E2B JUMP JUMPDEST SWAP2 SWAP1 POP JUMP JUMPDEST PUSH0 PUSH8 0xFFFFFFFFFFFFFFFF DUP3 GT ISZERO PUSH2 0x3E90 JUMPI PUSH2 0x3E8F PUSH2 0x3DFE JUMP JUMPDEST JUMPDEST PUSH2 0x3E99 DUP3 PUSH2 0x377F JUMP JUMPDEST SWAP1 POP PUSH1 0x20 DUP2 ADD SWAP1 POP SWAP2 SWAP1 POP JUMP JUMPDEST DUP3 DUP2 DUP4 CALLDATACOPY PUSH0 DUP4 DUP4 ADD MSTORE POP POP POP JUMP JUMPDEST PUSH0 PUSH2 0x3EC6 PUSH2 0x3EC1 DUP5 PUSH2 0x3E76 JUMP JUMPDEST PUSH2 0x3E5C JUMP JUMPDEST SWAP1 POP DUP3 DUP2 MSTORE PUSH1 0x20 DUP2 ADD DUP5 DUP5 DUP5 ADD GT ISZERO PUSH2 0x3EE2 JUMPI PUSH2 0x3EE1 PUSH2 0x3DFA JUMP JUMPDEST JUMPDEST PUSH2 0x3EED DUP5 DUP3 DUP6 PUSH2 0x3EA6 JUMP JUMPDEST POP SWAP4 SWAP3 POP POP POP JUMP JUMPDEST PUSH0 DUP3 PUSH1 0x1F DUP4 ADD SLT PUSH2 0x3F09 JUMPI PUSH2 0x3F08 PUSH2 0x3CEA JUMP JUMPDEST JUMPDEST DUP2 CALLDATALOAD PUSH2 0x3F19 DUP5 DUP3 PUSH1 0x20 DUP7 ADD PUSH2 0x3EB4 JUMP JUMPDEST SWAP2 POP POP SWAP3 SWAP2 POP POP JUMP JUMPDEST PUSH0 DUP1 PUSH0 DUP1 PUSH1 0x80 DUP6 DUP8 SUB SLT ISZERO PUSH2 0x3F3A JUMPI PUSH2 0x3F39 PUSH2 0x369C JUMP JUMPDEST JUMPDEST PUSH0 PUSH2 0x3F47 DUP8 DUP3 DUP9 ADD PUSH2 0x38B3 JUMP JUMPDEST SWAP5 POP POP PUSH1 0x20 PUSH2 0x3F58 DUP8 DUP3 DUP9 ADD PUSH2 0x38B3 JUMP JUMPDEST SWAP4 POP POP PUSH1 0x40 PUSH2 0x3F69 DUP8 DUP3 DUP9 ADD PUSH2 0x3806 JUMP JUMPDEST SWAP3 POP POP PUSH1 0x60 DUP6 ADD CALLDATALOAD PUSH8 0xFFFFFFFFFFFFFFFF DUP2 GT ISZERO PUSH2 0x3F8A JUMPI PUSH2 0x3F89 PUSH2 0x36A0 JUMP JUMPDEST JUMPDEST PUSH2 0x3F96 DUP8 DUP3 DUP9 ADD PUSH2 0x3EF5 JUMP JUMPDEST SWAP2 POP POP SWAP3 SWAP6 SWAP2 SWAP5 POP SWAP3 POP JUMP JUMPDEST PUSH0 DUP1 DUP4 PUSH1 0x1F DUP5 ADD SLT PUSH2 0x3FB7 JUMPI PUSH2 0x3FB6 PUSH2 0x3CEA JUMP JUMPDEST JUMPDEST DUP3 CALLDATALOAD SWAP1 POP PUSH8 0xFFFFFFFFFFFFFFFF DUP2 GT ISZERO PUSH2 0x3FD4 JUMPI PUSH2 0x3FD3 PUSH2 0x3CEE JUMP JUMPDEST JUMPDEST PUSH1 0x20 DUP4 ADD SWAP2 POP DUP4 PUSH1 0x20 DUP3 MUL DUP4 ADD GT ISZERO PUSH2 0x3FF0 JUMPI PUSH2 0x3FEF PUSH2 0x3CF2 JUMP JUMPDEST JUMPDEST SWAP3 POP SWAP3 SWAP1 POP JUMP JUMPDEST PUSH0 DUP1 PUSH0 DUP1 PUSH0 PUSH1 0x80 DUP7 DUP9 SUB SLT ISZERO PUSH2 0x4010 JUMPI PUSH2 0x400F PUSH2 0x369C JUMP JUMPDEST JUMPDEST PUSH0 PUSH2 0x401D DUP9 DUP3 DUP10 ADD PUSH2 0x39C4 JUMP JUMPDEST SWAP6 POP POP PUSH1 0x20 PUSH2 0x402E DUP9 DUP3 DUP10 ADD PUSH2 0x38B3 JUMP JUMPDEST SWAP5 POP POP PUSH1 0x40 PUSH2 0x403F DUP9 DUP3 DUP10 ADD PUSH2 0x3806 JUMP JUMPDEST SWAP4 POP POP PUSH1 0x60 DUP7 ADD CALLDATALOAD PUSH8 0xFFFFFFFFFFFFFFFF DUP2 GT ISZERO PUSH2 0x4060 JUMPI PUSH2 0x405F PUSH2 0x36A0 JUMP JUMPDEST JUMPDEST PUSH2 0x406C DUP9 DUP3 DUP10 ADD PUSH2 0x3FA2 JUMP JUMPDEST SWAP3 POP SWAP3 POP POP SWAP3 SWAP6 POP SWAP3 SWAP6 SWAP1 SWAP4 POP JUMP JUMPDEST PUSH0 DUP1 PUSH1 0x40 DUP4 DUP6 SUB SLT ISZERO PUSH2 0x4091 JUMPI PUSH2 0x4090 PUSH2 0x369C JUMP JUMPDEST JUMPDEST PUSH0 PUSH2 0x409E DUP6 DUP3 DUP7 ADD PUSH2 0x39C4 JUMP JUMPDEST SWAP3 POP POP PUSH1 0x20 PUSH2 0x40AF DUP6 DUP3 DUP7 ADD PUSH2 0x3806 JUMP JUMPDEST SWAP2 POP POP SWAP3 POP SWAP3 SWAP1 POP JUMP JUMPDEST PUSH0 PUSH8 0xFFFFFFFFFFFFFFFF DUP3 GT ISZERO PUSH2 0x40D3 JUMPI PUSH2 0x40D2 PUSH2 0x3DFE JUMP JUMPDEST JUMPDEST PUSH2 0x40DC DUP3 PUSH2 0x377F JUMP JUMPDEST SWAP1 POP PUSH1 0x20 DUP2 ADD SWAP1 POP SWAP2 SWAP1 POP JUMP JUMPDEST PUSH0 PUSH2 0x40FB PUSH2 0x40F6 DUP5 PUSH2 0x40B9 JUMP JUMPDEST PUSH2 0x3E5C JUMP JUMPDEST SWAP1 POP DUP3 DUP2 MSTORE PUSH1 0x20 DUP2 ADD DUP5 DUP5 DUP5 ADD GT ISZERO PUSH2 0x4117 JUMPI PUSH2 0x4116 PUSH2 0x3DFA JUMP JUMPDEST JUMPDEST PUSH2 0x4122 DUP5 DUP3 DUP6 PUSH2 0x3EA6 JUMP JUMPDEST POP SWAP4 SWAP3 POP POP POP JUMP JUMPDEST PUSH0 DUP3 PUSH1 0x1F DUP4 ADD SLT PUSH2 0x413E JUMPI PUSH2 0x413D PUSH2 0x3CEA JUMP JUMPDEST JUMPDEST DUP2 CALLDATALOAD PUSH2 0x414E DUP5 DUP3 PUSH1 0x20 DUP7 ADD PUSH2 0x40E9 JUMP JUMPDEST SWAP2 POP POP SWAP3 SWAP2 POP POP JUMP JUMPDEST PUSH0 PUSH1 0x20 DUP3 DUP5 SUB SLT ISZERO PUSH2 0x416C JUMPI PUSH2 0x416B PUSH2 0x369C JUMP JUMPDEST JUMPDEST PUSH0 DUP3 ADD CALLDATALOAD PUSH8 0xFFFFFFFFFFFFFFFF DUP2 GT ISZERO PUSH2 0x4189 JUMPI PUSH2 0x4188 PUSH2 0x36A0 JUMP JUMPDEST JUMPDEST PUSH2 0x4195 DUP5 DUP3 DUP6 ADD PUSH2 0x412A JUMP JUMPDEST SWAP2 POP POP SWAP3 SWAP2 POP POP JUMP JUMPDEST PUSH0 DUP1 PUSH0 DUP1 PUSH0 DUP1 PUSH1 0xA0 DUP8 DUP10 SUB SLT ISZERO PUSH2 0x41B8 JUMPI PUSH2 0x41B7 PUSH2 0x369C JUMP JUMPDEST JUMPDEST PUSH0 PUSH2 0x41C5 DUP10 DUP3 DUP11 ADD PUSH2 0x39C4 JUMP JUMPDEST SWAP7 POP POP PUSH1 0x20 PUSH2 0x41D6 DUP10 DUP3 DUP11 ADD PUSH2 0x38B3 JUMP JUMPDEST SWAP6 POP POP PUSH1 0x40 PUSH2 0x41E7 DUP10 DUP3 DUP11 ADD PUSH2 0x39C4 JUMP JUMPDEST SWAP5 POP POP PUSH1 0x60 PUSH2 0x41F8 DUP10 DUP3 DUP11 ADD PUSH2 0x3806 JUMP JUMPDEST SWAP4 POP POP PUSH1 0x80 DUP8 ADD CALLDATALOAD PUSH8 0xFFFFFFFFFFFFFFFF DUP2 GT ISZERO PUSH2 0x4219 JUMPI PUSH2 0x4218 PUSH2 0x36A0 JUMP JUMPDEST JUMPDEST PUSH2 0x4225 DUP10 DUP3 DUP11 ADD PUSH2 0x3FA2 JUMP JUMPDEST SWAP3 POP SWAP3 POP POP SWAP3 SWAP6 POP SWAP3 SWAP6 POP SWAP3 SWAP6 JUMP JUMPDEST PUSH0 DUP1 PUSH1 0x40 DUP4 DUP6 SUB SLT ISZERO PUSH2 0x424A JUMPI PUSH2 0x4249 PUSH2 0x369C JUMP JUMPDEST JUMPDEST PUSH0 PUSH2 0x4257 DUP6 DUP3 DUP7 ADD PUSH2 0x38B3 JUMP JUMPDEST SWAP3 POP POP PUSH1 0x20 PUSH2 0x4268 DUP6 DUP3 DUP7 ADD PUSH2 0x38B3 JUMP JUMPDEST SWAP2 POP POP SWAP3 POP SWAP3 SWAP1 POP JUMP JUMPDEST PUSH32 0x4E487B7100000000000000000000000000000000000000000000000000000000 PUSH0 MSTORE PUSH1 0x22 PUSH1 0x4 MSTORE PUSH1 0x24 PUSH0 REVERT JUMPDEST PUSH0 PUSH1 0x2 DUP3 DIV SWAP1 POP PUSH1 0x1 DUP3 AND DUP1 PUSH2 0x42B6 JUMPI PUSH1 0x7F DUP3 AND SWAP2 POP JUMPDEST PUSH1 0x20 DUP3 LT DUP2 SUB PUSH2 0x42C9 JUMPI PUSH2 0x42C8 PUSH2 0x4272 JUMP JUMPDEST JUMPDEST POP SWAP2 SWAP1 POP JUMP JUMPDEST PUSH32 0x596F7520617265206E6F7420746865206F70657261746F720000000000000000 PUSH0 DUP3 ADD MSTORE POP JUMP JUMPDEST PUSH0 PUSH2 0x4303 PUSH1 0x18 DUP4 PUSH2 0x3761 JUMP JUMPDEST SWAP2 POP PUSH2 0x430E DUP3 PUSH2 0x42CF JUMP JUMPDEST PUSH1 0x20 DUP3 ADD SWAP1 POP SWAP2 SWAP1 POP JUMP JUMPDEST PUSH0 PUSH1 0x20 DUP3 ADD SWAP1 POP DUP2 DUP2 SUB PUSH0 DUP4 ADD MSTORE PUSH2 0x4330 DUP2 PUSH2 0x42F7 JUMP JUMPDEST SWAP1 POP SWAP2 SWAP1 POP JUMP JUMPDEST PUSH0 PUSH1 0x60 DUP3 ADD SWAP1 POP PUSH2 0x434A PUSH0 DUP4 ADD DUP7 PUSH2 0x3875 JUMP JUMPDEST PUSH2 0x4357 PUSH1 0x20 DUP4 ADD DUP6 PUSH2 0x3C22 JUMP JUMPDEST PUSH2 0x4364 PUSH1 0x40 DUP4 ADD DUP5 PUSH2 0x3875 JUMP JUMPDEST SWAP5 SWAP4 POP POP POP POP JUMP JUMPDEST PUSH0 PUSH1 0x40 DUP3 ADD SWAP1 POP PUSH2 0x437F PUSH0 DUP4 ADD DUP6 PUSH2 0x3875 JUMP JUMPDEST PUSH2 0x438C PUSH1 0x20 DUP4 ADD DUP5 PUSH2 0x372F JUMP JUMPDEST SWAP4 SWAP3 POP POP POP JUMP JUMPDEST PUSH32 0x746965722043616E2774204245205A45524F0000000000000000000000000000 PUSH0 DUP3 ADD MSTORE POP JUMP JUMPDEST PUSH0 PUSH2 0x43C7 PUSH1 0x12 DUP4 PUSH2 0x3761 JUMP JUMPDEST SWAP2 POP PUSH2 0x43D2 DUP3 PUSH2 0x4393 JUMP JUMPDEST PUSH1 0x20 DUP3 ADD SWAP1 POP SWAP2 SWAP1 POP JUMP JUMPDEST PUSH0 PUSH1 0x20 DUP3 ADD SWAP1 POP DUP2 DUP2 SUB PUSH0 DUP4 ADD MSTORE PUSH2 0x43F4 DUP2 PUSH2 0x43BB JUMP JUMPDEST SWAP1 POP SWAP2 SWAP1 POP JUMP JUMPDEST PUSH32 0x7469657220544F4F204C41524745000000000000000000000000000000000000 PUSH0 DUP3 ADD MSTORE POP JUMP JUMPDEST PUSH0 PUSH2 0x442F PUSH1 0xE DUP4 PUSH2 0x3761 JUMP JUMPDEST SWAP2 POP PUSH2 0x443A DUP3 PUSH2 0x43FB JUMP JUMPDEST PUSH1 0x20 DUP3 ADD SWAP1 POP SWAP2 SWAP1 POP JUMP JUMPDEST PUSH0 PUSH1 0x20 DUP3 ADD SWAP1 POP DUP2 DUP2 SUB PUSH0 DUP4 ADD MSTORE PUSH2 0x445C DUP2 PUSH2 0x4423 JUMP JUMPDEST SWAP1 POP SWAP2 SWAP1 POP JUMP JUMPDEST PUSH32 0x4E487B7100000000000000000000000000000000000000000000000000000000 PUSH0 MSTORE PUSH1 0x11 PUSH1 0x4 MSTORE PUSH1 0x24 PUSH0 REVERT JUMPDEST PUSH0 PUSH2 0x449A DUP3 PUSH2 0x37E7 JUMP JUMPDEST SWAP2 POP PUSH2 0x44A5 DUP4 PUSH2 0x37E7 JUMP JUMPDEST SWAP3 POP DUP3 DUP3 ADD SWAP1 POP DUP1 DUP3 GT ISZERO PUSH2 0x44BD JUMPI PUSH2 0x44BC PUSH2 0x4463 JUMP JUMPDEST JUMPDEST SWAP3 SWAP2 POP POP JUMP JUMPDEST PUSH32 0x43616E2774206D696E74206D6F7265207468616E20616C6C6F77656400000000 PUSH0 DUP3 ADD MSTORE POP JUMP JUMPDEST PUSH0 PUSH2 0x44F7 PUSH1 0x1C DUP4 PUSH2 0x3761 JUMP JUMPDEST SWAP2 POP PUSH2 0x4502 DUP3 PUSH2 0x44C3 JUMP JUMPDEST PUSH1 0x20 DUP3 ADD SWAP1 POP SWAP2 SWAP1 POP JUMP JUMPDEST PUSH0 PUSH1 0x20 DUP3 ADD SWAP1 POP DUP2 DUP2 SUB PUSH0 DUP4 ADD MSTORE PUSH2 0x4524 DUP2 PUSH2 0x44EB JUMP JUMPDEST SWAP1 POP SWAP2 SWAP1 POP JUMP JUMPDEST PUSH0 PUSH2 0x4535 DUP3 PUSH2 0x3905 JUMP JUMPDEST SWAP2 POP PUSH2 0x4540 DUP4 PUSH2 0x3905 JUMP JUMPDEST SWAP3 POP DUP3 DUP3 ADD SWAP1 POP PUSH2 0xFFFF DUP2 GT ISZERO PUSH2 0x455A JUMPI PUSH2 0x4559 PUSH2 0x4463 JUMP JUMPDEST JUMPDEST SWAP3 SWAP2 POP POP JUMP JUMPDEST PUSH32 0x43616E6E6F74206D696E74206D6F7265207468616E20616C6C6F776564000000 PUSH0 DUP3 ADD MSTORE POP JUMP JUMPDEST PUSH0 PUSH2 0x4594 PUSH1 0x1D DUP4 PUSH2 0x3761 JUMP JUMPDEST SWAP2 POP PUSH2 0x459F DUP3 PUSH2 0x4560 JUMP JUMPDEST PUSH1 0x20 DUP3 ADD SWAP1 POP SWAP2 SWAP1 POP JUMP JUMPDEST PUSH0 PUSH1 0x20 DUP3 ADD SWAP1 POP DUP2 DUP2 SUB PUSH0 DUP4 ADD MSTORE PUSH2 0x45C1 DUP2 PUSH2 0x4588 JUMP JUMPDEST SWAP1 POP SWAP2 SWAP1 POP JUMP JUMPDEST PUSH32 0x73746172745F74696D657374616D70206E6F7420616C6C6F7765640000000000 PUSH0 DUP3 ADD MSTORE POP JUMP JUMPDEST PUSH0 PUSH2 0x45FC PUSH1 0x1B DUP4 PUSH2 0x3761 JUMP JUMPDEST SWAP2 POP PUSH2 0x4607 DUP3 PUSH2 0x45C8 JUMP JUMPDEST PUSH1 0x20 DUP3 ADD SWAP1 POP SWAP2 SWAP1 POP JUMP JUMPDEST PUSH0 PUSH1 0x20 DUP3 ADD SWAP1 POP DUP2 DUP2 SUB PUSH0 DUP4 ADD MSTORE PUSH2 0x4629 DUP2 PUSH2 0x45F0 JUMP JUMPDEST SWAP1 POP SWAP2 SWAP1 POP JUMP JUMPDEST PUSH32 0x656E645F74696D657374616D70206E6F7420616C6C6F77656400000000000000 PUSH0 DUP3 ADD MSTORE POP JUMP JUMPDEST PUSH0 PUSH2 0x4664 PUSH1 0x19 DUP4 PUSH2 0x3761 JUMP JUMPDEST SWAP2 POP PUSH2 0x466F DUP3 PUSH2 0x4630 JUMP JUMPDEST PUSH1 0x20 DUP3 ADD SWAP1 POP SWAP2 SWAP1 POP JUMP JUMPDEST PUSH0 PUSH1 0x20 DUP3 ADD SWAP1 POP DUP2 DUP2 SUB PUSH0 DUP4 ADD MSTORE PUSH2 0x4691 DUP2 PUSH2 0x4658 JUMP JUMPDEST SWAP1 POP SWAP2 SWAP1 POP JUMP JUMPDEST PUSH0 PUSH2 0x46A2 DUP3 PUSH2 0x37E7 JUMP JUMPDEST SWAP2 POP PUSH2 0x46AD DUP4 PUSH2 0x37E7 JUMP JUMPDEST SWAP3 POP DUP3 DUP3 MUL PUSH2 0x46BB DUP2 PUSH2 0x37E7 JUMP JUMPDEST SWAP2 POP DUP3 DUP3 DIV DUP5 EQ DUP4 ISZERO OR PUSH2 0x46D2 JUMPI PUSH2 0x46D1 PUSH2 0x4463 JUMP JUMPDEST JUMPDEST POP SWAP3 SWAP2 POP POP JUMP JUMPDEST PUSH0 PUSH1 0x40 DUP3 ADD SWAP1 POP PUSH2 0x46EC PUSH0 DUP4 ADD DUP6 PUSH2 0x3875 JUMP JUMPDEST PUSH2 0x46F9 PUSH1 0x20 DUP4 ADD DUP5 PUSH2 0x3875 JUMP JUMPDEST SWAP4 SWAP3 POP POP POP JUMP JUMPDEST PUSH0 DUP2 MLOAD SWAP1 POP PUSH2 0x470E DUP2 PUSH2 0x37F0 JUMP JUMPDEST SWAP3 SWAP2 POP POP JUMP JUMPDEST PUSH0 PUSH1 0x20 DUP3 DUP5 SUB SLT ISZERO PUSH2 0x4729 JUMPI PUSH2 0x4728 PUSH2 0x369C JUMP JUMPDEST JUMPDEST PUSH0 PUSH2 0x4736 DUP5 DUP3 DUP6 ADD PUSH2 0x4700 JUMP JUMPDEST SWAP2 POP POP SWAP3 SWAP2 POP POP JUMP JUMPDEST PUSH32 0x416C6C6F77616E6365206973206C657373207468616E207472616E7366657220 PUSH0 DUP3 ADD MSTORE PUSH32 0x616D6F756E740000000000000000000000000000000000000000000000000000 PUSH1 0x20 DUP3 ADD MSTORE POP JUMP JUMPDEST PUSH0 PUSH2 0x4799 PUSH1 0x26 DUP4 PUSH2 0x3761 JUMP JUMPDEST SWAP2 POP PUSH2 0x47A4 DUP3 PUSH2 0x473F JUMP JUMPDEST PUSH1 0x40 DUP3 ADD SWAP1 POP SWAP2 SWAP1 POP JUMP JUMPDEST PUSH0 PUSH1 0x20 DUP3 ADD SWAP1 POP DUP2 DUP2 SUB PUSH0 DUP4 ADD MSTORE PUSH2 0x47C6 DUP2 PUSH2 0x478D JUMP JUMPDEST SWAP1 POP SWAP2 SWAP1 POP JUMP JUMPDEST PUSH0 PUSH1 0x60 DUP3 ADD SWAP1 POP PUSH2 0x47E0 PUSH0 DUP4 ADD DUP7 PUSH2 0x3875 JUMP JUMPDEST PUSH2 0x47ED PUSH1 0x20 DUP4 ADD DUP6 PUSH2 0x3875 JUMP JUMPDEST PUSH2 0x47FA PUSH1 0x40 DUP4 ADD DUP5 PUSH2 0x3C22 JUMP JUMPDEST SWAP5 SWAP4 POP POP POP POP JUMP JUMPDEST PUSH0 DUP2 MLOAD SWAP1 POP PUSH2 0x4810 DUP2 PUSH2 0x3B7C JUMP JUMPDEST SWAP3 SWAP2 POP POP JUMP JUMPDEST PUSH0 PUSH1 0x20 DUP3 DUP5 SUB SLT ISZERO PUSH2 0x482B JUMPI PUSH2 0x482A PUSH2 0x369C JUMP JUMPDEST JUMPDEST PUSH0 PUSH2 0x4838 DUP5 DUP3 DUP6 ADD PUSH2 0x4802 JUMP JUMPDEST SWAP2 POP POP SWAP3 SWAP2 POP POP JUMP JUMPDEST PUSH32 0x4661696C656420746F207472616E736665722066756E64730000000000000000 PUSH0 DUP3 ADD MSTORE POP JUMP JUMPDEST PUSH0 PUSH2 0x4875 PUSH1 0x18 DUP4 PUSH2 0x3761 JUMP JUMPDEST SWAP2 POP PUSH2 0x4880 DUP3 PUSH2 0x4841 JUMP JUMPDEST PUSH1 0x20 DUP3 ADD SWAP1 POP SWAP2 SWAP1 POP JUMP JUMPDEST PUSH0 PUSH1 0x20 DUP3 ADD SWAP1 POP DUP2 DUP2 SUB PUSH0 DUP4 ADD MSTORE PUSH2 0x48A2 DUP2 PUSH2 0x4869 JUMP JUMPDEST SWAP1 POP SWAP2 SWAP1 POP JUMP JUMPDEST PUSH0 PUSH2 0x48B3 DUP3 PUSH2 0x37E7 JUMP JUMPDEST SWAP2 POP PUSH32 0xFFFFFFFFFFFFFFFFFFFFFFFFFFFFFFFFFFFFFFFFFFFFFFFFFFFFFFFFFFFFFFFF DUP3 SUB PUSH2 0x48E5 JUMPI PUSH2 0x48E4 PUSH2 0x4463 JUMP JUMPDEST JUMPDEST PUSH1 0x1 DUP3 ADD SWAP1 POP SWAP2 SWAP1 POP JUMP JUMPDEST PUSH2 0x48F9 DUP2 PUSH2 0x39A2 JUMP JUMPDEST DUP3 MSTORE POP POP JUMP JUMPDEST PUSH0 PUSH2 0x490A DUP4 DUP6 PUSH2 0x3761 JUMP JUMPDEST SWAP4 POP PUSH2 0x4917 DUP4 DUP6 DUP5 PUSH2 0x3EA6 JUMP JUMPDEST PUSH2 0x4920 DUP4 PUSH2 0x377F JUMP JUMPDEST DUP5 ADD SWAP1 POP SWAP4 SWAP3 POP POP POP JUMP JUMPDEST PUSH0 PUSH1 0xA0 DUP3 ADD SWAP1 POP PUSH2 0x493E PUSH0 DUP4 ADD DUP10 PUSH2 0x372F JUMP JUMPDEST PUSH2 0x494B PUSH1 0x20 DUP4 ADD DUP9 PUSH2 0x48F0 JUMP JUMPDEST PUSH2 0x4958 PUSH1 0x40 DUP4 ADD DUP8 PUSH2 0x3875 JUMP JUMPDEST PUSH2 0x4965 PUSH1 0x60 DUP4 ADD DUP7 PUSH2 0x3C22 JUMP JUMPDEST DUP2 DUP2 SUB PUSH1 0x80 DUP4 ADD MSTORE PUSH2 0x4978 DUP2 DUP5 DUP7 PUSH2 0x48FF JUMP JUMPDEST SWAP1 POP SWAP8 SWAP7 POP POP POP POP POP POP POP JUMP JUMPDEST PUSH0 DUP2 PUSH1 0x60 SHL SWAP1 POP SWAP2 SWAP1 POP JUMP JUMPDEST PUSH0 PUSH2 0x499B DUP3 PUSH2 0x4985 JUMP JUMPDEST SWAP1 POP SWAP2 SWAP1 POP JUMP JUMPDEST PUSH0 PUSH2 0x49AC DUP3 PUSH2 0x4991 JUMP JUMPDEST SWAP1 POP SWAP2 SWAP1 POP JUMP JUMPDEST PUSH2 0x49C4 PUSH2 0x49BF DUP3 PUSH2 0x3864 JUMP JUMPDEST PUSH2 0x49A2 JUMP JUMPDEST DUP3 MSTORE POP POP JUMP JUMPDEST PUSH0 DUP2 SWAP1 POP SWAP2 SWAP1 POP JUMP JUMPDEST PUSH2 0x49E4 PUSH2 0x49DF DUP3 PUSH2 0x37E7 JUMP JUMPDEST PUSH2 0x49CA JUMP JUMPDEST DUP3 MSTORE POP POP JUMP JUMPDEST PUSH0 PUSH2 0x49F5 DUP3 DUP6 PUSH2 0x49B3 JUMP JUMPDEST PUSH1 0x14 DUP3 ADD SWAP2 POP PUSH2 0x4A05 DUP3 DUP5 PUSH2 0x49D3 JUMP JUMPDEST PUSH1 0x20 DUP3 ADD SWAP2 POP DUP2 SWAP1 POP SWAP4 SWAP3 POP POP POP JUMP JUMPDEST PUSH0 DUP2 SWAP1 POP SWAP3 SWAP2 POP POP JUMP JUMPDEST PUSH0 PUSH2 0x4A29 DUP3 PUSH2 0x3757 JUMP JUMPDEST PUSH2 0x4A33 DUP2 DUP6 PUSH2 0x4A15 JUMP JUMPDEST SWAP4 POP PUSH2 0x4A43 DUP2 DUP6 PUSH1 0x20 DUP7 ADD PUSH2 0x3771 JUMP JUMPDEST DUP1 DUP5 ADD SWAP2 POP POP SWAP3 SWAP2 POP POP JUMP JUMPDEST PUSH0 PUSH2 0x4A5A DUP3 DUP6 PUSH2 0x4A1F JUMP JUMPDEST SWAP2 POP PUSH2 0x4A66 DUP3 DUP5 PUSH2 0x4A1F JUMP JUMPDEST SWAP2 POP DUP2 SWAP1 POP SWAP4 SWAP3 POP POP POP JUMP JUMPDEST PUSH0 DUP2 SWAP1 POP DUP2 PUSH0 MSTORE PUSH1 0x20 PUSH0 KECCAK256 SWAP1 POP SWAP2 SWAP1 POP JUMP JUMPDEST PUSH0 PUSH1 0x20 PUSH1 0x1F DUP4 ADD DIV SWAP1 POP SWAP2 SWAP1 POP JUMP JUMPDEST PUSH0 DUP3 DUP3 SHL SWAP1 POP SWAP3 SWAP2 POP POP JUMP JUMPDEST PUSH0 PUSH1 0x8 DUP4 MUL PUSH2 0x4ACE PUSH32 0xFFFFFFFFFFFFFFFFFFFFFFFFFFFFFFFFFFFFFFFFFFFFFFFFFFFFFFFFFFFFFFFF DUP3 PUSH2 0x4A93 JUMP JUMPDEST PUSH2 0x4AD8 DUP7 DUP4 PUSH2 0x4A93 JUMP JUMPDEST SWAP6 POP DUP1 NOT DUP5 AND SWAP4 POP DUP1 DUP7 AND DUP5 OR SWAP3 POP POP POP SWAP4 SWAP3 POP POP POP JUMP JUMPDEST PUSH0 DUP2 SWAP1 POP SWAP2 SWAP1 POP JUMP JUMPDEST PUSH0 PUSH2 0x4B13 PUSH2 0x4B0E PUSH2 0x4B09 DUP5 PUSH2 0x37E7 JUMP JUMPDEST PUSH2 0x4AF0 JUMP JUMPDEST PUSH2 0x37E7 JUMP JUMPDEST SWAP1 POP SWAP2 SWAP1 POP JUMP JUMPDEST PUSH0 DUP2 SWAP1 POP SWAP2 SWAP1 POP JUMP JUMPDEST PUSH2 0x4B2C DUP4 PUSH2 0x4AF9 JUMP JUMPDEST PUSH2 0x4B40 PUSH2 0x4B38 DUP3 PUSH2 0x4B1A JUMP JUMPDEST DUP5 DUP5 SLOAD PUSH2 0x4A9F JUMP JUMPDEST DUP3 SSTORE POP POP POP POP JUMP JUMPDEST PUSH0 SWAP1 JUMP JUMPDEST PUSH2 0x4B54 PUSH2 0x4B48 JUMP JUMPDEST PUSH2 0x4B5F DUP2 DUP5 DUP5 PUSH2 0x4B23 JUMP JUMPDEST POP POP POP JUMP JUMPDEST JUMPDEST DUP2 DUP2 LT ISZERO PUSH2 0x4B82 JUMPI PUSH2 0x4B77 PUSH0 DUP3 PUSH2 0x4B4C JUMP JUMPDEST PUSH1 0x1 DUP2 ADD SWAP1 POP PUSH2 0x4B65 JUMP JUMPDEST POP POP JUMP JUMPDEST PUSH1 0x1F DUP3 GT ISZERO PUSH2 0x4BC7 JUMPI PUSH2 0x4B98 DUP2 PUSH2 0x4A72 JUMP JUMPDEST PUSH2 0x4BA1 DUP5 PUSH2 0x4A84 JUMP JUMPDEST DUP2 ADD PUSH1 0x20 DUP6 LT ISZERO PUSH2 0x4BB0 JUMPI DUP2 SWAP1 POP JUMPDEST PUSH2 0x4BC4 PUSH2 0x4BBC DUP6 PUSH2 0x4A84 JUMP JUMPDEST DUP4 ADD DUP3 PUSH2 0x4B64 JUMP JUMPDEST POP POP JUMPDEST POP POP POP JUMP JUMPDEST PUSH0 DUP3 DUP3 SHR SWAP1 POP SWAP3 SWAP2 POP POP JUMP JUMPDEST PUSH0 PUSH2 0x4BE7 PUSH0 NOT DUP5 PUSH1 0x8 MUL PUSH2 0x4BCC JUMP JUMPDEST NOT DUP1 DUP4 AND SWAP2 POP POP SWAP3 SWAP2 POP POP JUMP JUMPDEST PUSH0 PUSH2 0x4BFF DUP4 DUP4 PUSH2 0x4BD8 JUMP JUMPDEST SWAP2 POP DUP3 PUSH1 0x2 MUL DUP3 OR SWAP1 POP SWAP3 SWAP2 POP POP JUMP JUMPDEST PUSH2 0x4C18 DUP3 PUSH2 0x3757 JUMP JUMPDEST PUSH8 0xFFFFFFFFFFFFFFFF DUP2 GT ISZERO PUSH2 0x4C31 JUMPI PUSH2 0x4C30 PUSH2 0x3DFE JUMP JUMPDEST JUMPDEST PUSH2 0x4C3B DUP3 SLOAD PUSH2 0x429F JUMP JUMPDEST PUSH2 0x4C46 DUP3 DUP3 DUP6 PUSH2 0x4B86 JUMP JUMPDEST PUSH0 PUSH1 0x20 SWAP1 POP PUSH1 0x1F DUP4 GT PUSH1 0x1 DUP2 EQ PUSH2 0x4C77 JUMPI PUSH0 DUP5 ISZERO PUSH2 0x4C65 JUMPI DUP3 DUP8 ADD MLOAD SWAP1 POP JUMPDEST PUSH2 0x4C6F DUP6 DUP3 PUSH2 0x4BF4 JUMP JUMPDEST DUP7 SSTORE POP PUSH2 0x4CD6 JUMP JUMPDEST PUSH1 0x1F NOT DUP5 AND PUSH2 0x4C85 DUP7 PUSH2 0x4A72 JUMP JUMPDEST PUSH0 JUMPDEST DUP3 DUP2 LT ISZERO PUSH2 0x4CAC JUMPI DUP5 DUP10 ADD MLOAD DUP3 SSTORE PUSH1 0x1 DUP3 ADD SWAP2 POP PUSH1 0x20 DUP6 ADD SWAP5 POP PUSH1 0x20 DUP2 ADD SWAP1 POP PUSH2 0x4C87 JUMP JUMPDEST DUP7 DUP4 LT ISZERO PUSH2 0x4CC9 JUMPI DUP5 DUP10 ADD MLOAD PUSH2 0x4CC5 PUSH1 0x1F DUP10 AND DUP3 PUSH2 0x4BD8 JUMP JUMPDEST DUP4 SSTORE POP JUMPDEST PUSH1 0x1 PUSH1 0x2 DUP9 MUL ADD DUP9 SSTORE POP POP POP JUMPDEST POP POP POP POP POP POP JUMP JUMPDEST PUSH32 0x496E76616C6964204D65726B6C652050726F6F66000000000000000000000000 PUSH0 DUP3 ADD MSTORE POP JUMP JUMPDEST PUSH0 PUSH2 0x4D12 PUSH1 0x14 DUP4 PUSH2 0x3761 JUMP JUMPDEST SWAP2 POP PUSH2 0x4D1D DUP3 PUSH2 0x4CDE JUMP JUMPDEST PUSH1 0x20 DUP3 ADD SWAP1 POP SWAP2 SWAP1 POP JUMP JUMPDEST PUSH0 PUSH1 0x20 DUP3 ADD SWAP1 POP DUP2 DUP2 SUB PUSH0 DUP4 ADD MSTORE PUSH2 0x4D3F DUP2 PUSH2 0x4D06 JUMP JUMPDEST SWAP1 POP SWAP2 SWAP1 POP JUMP JUMPDEST POP JUMP JUMPDEST PUSH0 PUSH2 0x4D54 PUSH0 DUP4 PUSH2 0x3761 JUMP JUMPDEST SWAP2 POP PUSH2 0x4D5F DUP3 PUSH2 0x4D46 JUMP JUMPDEST PUSH0 DUP3 ADD SWAP1 POP SWAP2 SWAP1 POP JUMP JUMPDEST PUSH0 PUSH1 0xA0 DUP3 ADD SWAP1 POP PUSH2 0x4D7C PUSH0 DUP4 ADD DUP8 PUSH2 0x372F JUMP JUMPDEST PUSH2 0x4D89 PUSH1 0x20 DUP4 ADD DUP7 PUSH2 0x48F0 JUMP JUMPDEST PUSH2 0x4D96 PUSH1 0x40 DUP4 ADD DUP6 PUSH2 0x3875 JUMP JUMPDEST PUSH2 0x4DA3 PUSH1 0x60 DUP4 ADD DUP5 PUSH2 0x3C22 JUMP JUMPDEST DUP2 DUP2 SUB PUSH1 0x80 DUP4 ADD MSTORE PUSH2 0x4DB4 DUP2 PUSH2 0x4D49 JUMP JUMPDEST SWAP1 POP SWAP6 SWAP5 POP POP POP POP POP JUMP JUMPDEST PUSH32 0x5472616E73666572206E6F7420656E61626C6564000000000000000000000000 PUSH0 DUP3 ADD MSTORE POP JUMP JUMPDEST PUSH0 PUSH2 0x4DF3 PUSH1 0x14 DUP4 PUSH2 0x3761 JUMP JUMPDEST SWAP2 POP PUSH2 0x4DFE DUP3 PUSH2 0x4DBF JUMP JUMPDEST PUSH1 0x20 DUP3 ADD SWAP1 POP SWAP2 SWAP1 POP JUMP JUMPDEST PUSH0 PUSH1 0x20 DUP3 ADD SWAP1 POP DUP2 DUP2 SUB PUSH0 DUP4 ADD MSTORE PUSH2 0x4E20 DUP2 PUSH2 0x4DE7 JUMP JUMPDEST SWAP1 POP SWAP2 SWAP1 POP JUMP JUMPDEST PUSH0 DUP2 MLOAD SWAP1 POP SWAP2 SWAP1 POP JUMP JUMPDEST PUSH0 DUP3 DUP3 MSTORE PUSH1 0x20 DUP3 ADD SWAP1 POP SWAP3 SWAP2 POP POP JUMP JUMPDEST PUSH0 PUSH2 0x4E4B DUP3 PUSH2 0x4E27 JUMP JUMPDEST PUSH2 0x4E55 DUP2 DUP6 PUSH2 0x4E31 JUMP JUMPDEST SWAP4 POP PUSH2 0x4E65 DUP2 DUP6 PUSH1 0x20 DUP7 ADD PUSH2 0x3771 JUMP JUMPDEST PUSH2 0x4E6E DUP2 PUSH2 0x377F JUMP JUMPDEST DUP5 ADD SWAP2 POP POP SWAP3 SWAP2 POP POP JUMP JUMPDEST PUSH0 PUSH1 0x80 DUP3 ADD SWAP1 POP PUSH2 0x4E8C PUSH0 DUP4 ADD DUP8 PUSH2 0x3875 JUMP JUMPDEST PUSH2 0x4E99 PUSH1 0x20 DUP4 ADD DUP7 PUSH2 0x3875 JUMP JUMPDEST PUSH2 0x4EA6 PUSH1 0x40 DUP4 ADD DUP6 PUSH2 0x3C22 JUMP JUMPDEST DUP2 DUP2 SUB PUSH1 0x60 DUP4 ADD MSTORE PUSH2 0x4EB8 DUP2 DUP5 PUSH2 0x4E41 JUMP JUMPDEST SWAP1 POP SWAP6 SWAP5 POP POP POP POP POP JUMP JUMPDEST PUSH0 DUP2 MLOAD SWAP1 POP PUSH2 0x4ED1 DUP2 PUSH2 0x36CF JUMP JUMPDEST SWAP3 SWAP2 POP POP JUMP JUMPDEST PUSH0 PUSH1 0x20 DUP3 DUP5 SUB SLT ISZERO PUSH2 0x4EEC JUMPI PUSH2 0x4EEB PUSH2 0x369C JUMP JUMPDEST JUMPDEST PUSH0 PUSH2 0x4EF9 DUP5 DUP3 DUP6 ADD PUSH2 0x4EC3 JUMP JUMPDEST SWAP2 POP POP SWAP3 SWAP2 POP POP JUMP JUMPDEST PUSH32 0x4E487B7100000000000000000000000000000000000000000000000000000000 PUSH0 MSTORE PUSH1 0x12 PUSH1 0x4 MSTORE PUSH1 0x24 PUSH0 REVERT JUMPDEST PUSH32 0x4E487B7100000000000000000000000000000000000000000000000000000000 PUSH0 MSTORE PUSH1 0x32 PUSH1 0x4 MSTORE PUSH1 0x24 PUSH0 REVERT JUMPDEST PUSH0 PUSH1 0x40 DUP3 ADD SWAP1 POP PUSH2 0x4F6F PUSH0 DUP4 ADD DUP6 PUSH2 0x3875 JUMP JUMPDEST PUSH2 0x4F7C PUSH1 0x20 DUP4 ADD DUP5 PUSH2 0x3C22 JUMP JUMPDEST SWAP4 SWAP3 POP POP POP JUMP INVALID LOG2 PUSH5 0x6970667358 0x22 SLT KECCAK256 0xD4 DUP10 TSTORE 0xB5 0x4C DUP5 0x4D 0x21 CREATE 0xC0 MSIZE 0xC1 0xAC 0x2A 0xDD SWAP2 SELFDESTRUCT 0xA6 PUSH0 0xA7 SHL BLOBBASEFEE PUSH19 0xC240F19C5F5616080564736F6C634300081900 CALLER "
		},
		"gasEstimates": {
			"creation": {
				"codeDepositCost": "4081800",
				"executionCost": "infinite",
				"totalCost": "infinite"
			},
			"external": {
				"KIPFundAddress()": "2642",
				"MaxTierAmount()": "2628",
				"TransferEnabled()": "2606",
				"approve(address,uint256)": "infinite",
				"balanceOf(address)": "infinite",
				"baseTokenURI()": "infinite",
				"check_whitelist_mint(uint8,address,uint256,bytes32[])": "infinite",
				"getApproved(uint256)": "infinite",
				"isApprovedForAll(address,address)": "infinite",
				"name()": "infinite",
				"operator(address)": "2989",
				"owner()": "2605",
				"ownerOf(uint256)": "infinite",
				"payTokenAddress()": "2663",
				"public_mint(uint8,address,uint8,string)": "infinite",
				"renounceOwnership()": "infinite",
				"safeTransferFrom(address,address,uint256)": "infinite",
				"safeTransferFrom(address,address,uint256,bytes)": "infinite",
				"setApprovalForAll(address,bool)": "infinite",
				"setDurationPublic(uint8,uint64,uint64)": "infinite",
				"setDurationWhitelist(uint8,uint64,uint64)": "infinite",
				"setKIPFundAddress(address)": "infinite",
				"setMaxTierAmount(uint16)": "infinite",
				"setMerkleRoot(uint8,bytes32)": "25099",
				"setOperator(address,bool)": "infinite",
				"setPayToken(address)": "infinite",
				"setTokenPrice(uint8,uint256)": "25120",
				"setTokenURI(string)": "infinite",
				"setTotalCap(uint8,uint16,uint16)": "infinite",
				"setTransferEnabled(bool)": "27042",
				"setUserCap(uint8,uint16)": "27368",
				"supportsInterface(bytes4)": "810",
				"symbol()": "infinite",
				"tier_end_timestamp_public(uint16)": "2926",
				"tier_end_timestamp_whitelist(uint16)": "2902",
				"tier_minted_amounts_public(uint16)": "infinite",
				"tier_minted_amounts_whitelist(uint16)": "infinite",
				"tier_price_per_token(uint16)": "2893",
				"tier_start_timestamp_public(uint16)": "2858",
				"tier_start_timestamp_whitelist(uint16)": "2901",
				"tier_total_cap_public(uint16)": "infinite",
				"tier_total_cap_whitelist(uint16)": "infinite",
				"tier_user_cap_public(uint16)": "infinite",
				"tier_whitelist_merkle_root(uint16)": "2872",
				"tokenURI(uint256)": "infinite",
				"transferFrom(address,address,uint256)": "infinite",
				"transferOwnership(address)": "infinite",
				"user_minted_amounts_public(uint16,address)": "3195",
				"user_minted_amounts_whitelist(uint16,address)": "3130",
				"whitelist_mint(uint8,address,uint8,uint256,bytes32[])": "infinite"
			},
			"internal": {
				"_baseURI()": "infinite",
				"_update(address,uint256,address)": "infinite"
			}
		},
		"methodIdentifiers": {
			"KIPFundAddress()": "378077a8",
			"MaxTierAmount()": "7679fa1e",
			"TransferEnabled()": "75fce015",
			"approve(address,uint256)": "095ea7b3",
			"balanceOf(address)": "70a08231",
			"baseTokenURI()": "d547cfb7",
			"check_whitelist_mint(uint8,address,uint256,bytes32[])": "bcedc601",
			"getApproved(uint256)": "081812fc",
			"isApprovedForAll(address,address)": "e985e9c5",
			"name()": "06fdde03",
			"operator(address)": "9a307391",
			"owner()": "8da5cb5b",
			"ownerOf(uint256)": "6352211e",
			"payTokenAddress()": "c77b5146",
			"public_mint(uint8,address,uint8,string)": "9566f24b",
			"renounceOwnership()": "715018a6",
			"safeTransferFrom(address,address,uint256)": "42842e0e",
			"safeTransferFrom(address,address,uint256,bytes)": "b88d4fde",
			"setApprovalForAll(address,bool)": "a22cb465",
			"setDurationPublic(uint8,uint64,uint64)": "12d05987",
			"setDurationWhitelist(uint8,uint64,uint64)": "219f65ce",
			"setKIPFundAddress(address)": "1bb08048",
			"setMaxTierAmount(uint16)": "d8140eb5",
			"setMerkleRoot(uint8,bytes32)": "54d77e0e",
			"setOperator(address,bool)": "558a7297",
			"setPayToken(address)": "6f96e99c",
			"setTokenPrice(uint8,uint256)": "ce8ba77e",
			"setTokenURI(string)": "e0df5b6f",
			"setTotalCap(uint8,uint16,uint16)": "6372444b",
			"setTransferEnabled(bool)": "9fe9f623",
			"setUserCap(uint8,uint16)": "0e4d023b",
			"supportsInterface(bytes4)": "01ffc9a7",
			"symbol()": "95d89b41",
			"tier_end_timestamp_public(uint16)": "0b24c83a",
			"tier_end_timestamp_whitelist(uint16)": "d5c18451",
			"tier_minted_amounts_public(uint16)": "83cefb88",
			"tier_minted_amounts_whitelist(uint16)": "fe1a53ee",
			"tier_price_per_token(uint16)": "7b3bd99d",
			"tier_start_timestamp_public(uint16)": "dcf2bff6",
			"tier_start_timestamp_whitelist(uint16)": "faf03163",
			"tier_total_cap_public(uint16)": "88b91908",
			"tier_total_cap_whitelist(uint16)": "6dbee0b7",
			"tier_user_cap_public(uint16)": "abd89694",
			"tier_whitelist_merkle_root(uint16)": "5bb0d128",
			"tokenURI(uint256)": "c87b56dd",
			"transferFrom(address,address,uint256)": "23b872dd",
			"transferOwnership(address)": "f2fde38b",
			"user_minted_amounts_public(uint16,address)": "d9f341fd",
			"user_minted_amounts_whitelist(uint16,address)": "59d8cfb1",
			"whitelist_mint(uint8,address,uint8,uint256,bytes32[])": "e6eef1ea"
		}
	},
	"abi": [
		{
			"inputs": [
				{
					"internalType": "address",
					"name": "initialOwner",
					"type": "address"
				},
				{
					"internalType": "address",
					"name": "pay_token",
					"type": "address"
				}
			],
			"stateMutability": "nonpayable",
			"type": "constructor"
		},
		{
			"inputs": [
				{
					"internalType": "address",
					"name": "sender",
					"type": "address"
				},
				{
					"internalType": "uint256",
					"name": "tokenId",
					"type": "uint256"
				},
				{
					"internalType": "address",
					"name": "owner",
					"type": "address"
				}
			],
			"name": "ERC721IncorrectOwner",
			"type": "error"
		},
		{
			"inputs": [
				{
					"internalType": "address",
					"name": "operator",
					"type": "address"
				},
				{
					"internalType": "uint256",
					"name": "tokenId",
					"type": "uint256"
				}
			],
			"name": "ERC721InsufficientApproval",
			"type": "error"
		},
		{
			"inputs": [
				{
					"internalType": "address",
					"name": "approver",
					"type": "address"
				}
			],
			"name": "ERC721InvalidApprover",
			"type": "error"
		},
		{
			"inputs": [
				{
					"internalType": "address",
					"name": "operator",
					"type": "address"
				}
			],
			"name": "ERC721InvalidOperator",
			"type": "error"
		},
		{
			"inputs": [
				{
					"internalType": "address",
					"name": "owner",
					"type": "address"
				}
			],
			"name": "ERC721InvalidOwner",
			"type": "error"
		},
		{
			"inputs": [
				{
					"internalType": "address",
					"name": "receiver",
					"type": "address"
				}
			],
			"name": "ERC721InvalidReceiver",
			"type": "error"
		},
		{
			"inputs": [
				{
					"internalType": "address",
					"name": "sender",
					"type": "address"
				}
			],
			"name": "ERC721InvalidSender",
			"type": "error"
		},
		{
			"inputs": [
				{
					"internalType": "uint256",
					"name": "tokenId",
					"type": "uint256"
				}
			],
			"name": "ERC721NonexistentToken",
			"type": "error"
		},
		{
			"inputs": [
				{
					"internalType": "address",
					"name": "owner",
					"type": "address"
				}
			],
			"name": "OwnableInvalidOwner",
			"type": "error"
		},
		{
			"inputs": [
				{
					"internalType": "address",
					"name": "account",
					"type": "address"
				}
			],
			"name": "OwnableUnauthorizedAccount",
			"type": "error"
		},
		{
			"anonymous": false,
			"inputs": [
				{
					"indexed": true,
					"internalType": "address",
					"name": "owner",
					"type": "address"
				},
				{
					"indexed": true,
					"internalType": "address",
					"name": "approved",
					"type": "address"
				},
				{
					"indexed": true,
					"internalType": "uint256",
					"name": "tokenId",
					"type": "uint256"
				}
			],
			"name": "Approval",
			"type": "event"
		},
		{
			"anonymous": false,
			"inputs": [
				{
					"indexed": true,
					"internalType": "address",
					"name": "owner",
					"type": "address"
				},
				{
					"indexed": true,
					"internalType": "address",
					"name": "operator",
					"type": "address"
				},
				{
					"indexed": false,
					"internalType": "bool",
					"name": "approved",
					"type": "bool"
				}
			],
			"name": "ApprovalForAll",
			"type": "event"
		},
		{
			"anonymous": false,
			"inputs": [
				{
					"indexed": false,
					"internalType": "address",
					"name": "operator",
					"type": "address"
				},
				{
					"indexed": false,
					"internalType": "bool",
					"name": "enabled",
					"type": "bool"
				}
			],
			"name": "OperatorChanged",
			"type": "event"
		},
		{
			"anonymous": false,
			"inputs": [
				{
					"indexed": true,
					"internalType": "address",
					"name": "previousOwner",
					"type": "address"
				},
				{
					"indexed": true,
					"internalType": "address",
					"name": "newOwner",
					"type": "address"
				}
			],
			"name": "OwnershipTransferred",
			"type": "event"
		},
		{
			"anonymous": false,
			"inputs": [
				{
					"indexed": false,
					"internalType": "bool",
					"name": "whitelist",
					"type": "bool"
				},
				{
					"indexed": false,
					"internalType": "uint8",
					"name": "tier",
					"type": "uint8"
				},
				{
					"indexed": false,
					"internalType": "address",
					"name": "to",
					"type": "address"
				},
				{
					"indexed": false,
					"internalType": "uint256",
					"name": "token_id",
					"type": "uint256"
				},
				{
					"indexed": false,
					"internalType": "string",
					"name": "_code",
					"type": "string"
				}
			],
			"name": "TokenMinted",
			"type": "event"
		},
		{
			"anonymous": false,
			"inputs": [
				{
					"indexed": true,
					"internalType": "address",
					"name": "from",
					"type": "address"
				},
				{
					"indexed": true,
					"internalType": "address",
					"name": "to",
					"type": "address"
				},
				{
					"indexed": true,
					"internalType": "uint256",
					"name": "tokenId",
					"type": "uint256"
				}
			],
			"name": "Transfer",
			"type": "event"
		},
		{
			"inputs": [],
			"name": "KIPFundAddress",
			"outputs": [
				{
					"internalType": "address",
					"name": "",
					"type": "address"
				}
			],
			"stateMutability": "view",
			"type": "function"
		},
		{
			"inputs": [],
			"name": "MaxTierAmount",
			"outputs": [
				{
					"internalType": "uint16",
					"name": "",
					"type": "uint16"
				}
			],
			"stateMutability": "view",
			"type": "function"
		},
		{
			"inputs": [],
			"name": "TransferEnabled",
			"outputs": [
				{
					"internalType": "bool",
					"name": "",
					"type": "bool"
				}
			],
			"stateMutability": "view",
			"type": "function"
		},
		{
			"inputs": [
				{
					"internalType": "address",
					"name": "to",
					"type": "address"
				},
				{
					"internalType": "uint256",
					"name": "tokenId",
					"type": "uint256"
				}
			],
			"name": "approve",
			"outputs": [],
			"stateMutability": "nonpayable",
			"type": "function"
		},
		{
			"inputs": [
				{
					"internalType": "address",
					"name": "owner",
					"type": "address"
				}
			],
			"name": "balanceOf",
			"outputs": [
				{
					"internalType": "uint256",
					"name": "",
					"type": "uint256"
				}
			],
			"stateMutability": "view",
			"type": "function"
		},
		{
			"inputs": [],
			"name": "baseTokenURI",
			"outputs": [
				{
					"internalType": "string",
					"name": "",
					"type": "string"
				}
			],
			"stateMutability": "view",
			"type": "function"
		},
		{
			"inputs": [
				{
					"internalType": "uint8",
					"name": "tier",
					"type": "uint8"
				},
				{
					"internalType": "address",
					"name": "to",
					"type": "address"
				},
				{
					"internalType": "uint256",
					"name": "_maxAmount",
					"type": "uint256"
				},
				{
					"internalType": "bytes32[]",
					"name": "_merkleProof",
					"type": "bytes32[]"
				}
			],
			"name": "check_whitelist_mint",
			"outputs": [
				{
					"internalType": "bool",
					"name": "",
					"type": "bool"
				}
			],
			"stateMutability": "view",
			"type": "function"
		},
		{
			"inputs": [
				{
					"internalType": "uint256",
					"name": "tokenId",
					"type": "uint256"
				}
			],
			"name": "getApproved",
			"outputs": [
				{
					"internalType": "address",
					"name": "",
					"type": "address"
				}
			],
			"stateMutability": "view",
			"type": "function"
		},
		{
			"inputs": [
				{
					"internalType": "address",
					"name": "owner",
					"type": "address"
				},
				{
					"internalType": "address",
					"name": "operator",
					"type": "address"
				}
			],
			"name": "isApprovedForAll",
			"outputs": [
				{
					"internalType": "bool",
					"name": "",
					"type": "bool"
				}
			],
			"stateMutability": "view",
			"type": "function"
		},
		{
			"inputs": [],
			"name": "name",
			"outputs": [
				{
					"internalType": "string",
					"name": "",
					"type": "string"
				}
			],
			"stateMutability": "view",
			"type": "function"
		},
		{
			"inputs": [
				{
					"internalType": "address",
					"name": "",
					"type": "address"
				}
			],
			"name": "operator",
			"outputs": [
				{
					"internalType": "bool",
					"name": "",
					"type": "bool"
				}
			],
			"stateMutability": "view",
			"type": "function"
		},
		{
			"inputs": [],
			"name": "owner",
			"outputs": [
				{
					"internalType": "address",
					"name": "",
					"type": "address"
				}
			],
			"stateMutability": "view",
			"type": "function"
		},
		{
			"inputs": [
				{
					"internalType": "uint256",
					"name": "tokenId",
					"type": "uint256"
				}
			],
			"name": "ownerOf",
			"outputs": [
				{
					"internalType": "address",
					"name": "",
					"type": "address"
				}
			],
			"stateMutability": "view",
			"type": "function"
		},
		{
			"inputs": [],
			"name": "payTokenAddress",
			"outputs": [
				{
					"internalType": "address",
					"name": "",
					"type": "address"
				}
			],
			"stateMutability": "view",
			"type": "function"
		},
		{
			"inputs": [
				{
					"internalType": "uint8",
					"name": "tier",
					"type": "uint8"
				},
				{
					"internalType": "address",
					"name": "to",
					"type": "address"
				},
				{
					"internalType": "uint8",
					"name": "_amount",
					"type": "uint8"
				},
				{
					"internalType": "string",
					"name": "_code",
					"type": "string"
				}
			],
			"name": "public_mint",
			"outputs": [],
			"stateMutability": "nonpayable",
			"type": "function"
		},
		{
			"inputs": [],
			"name": "renounceOwnership",
			"outputs": [],
			"stateMutability": "nonpayable",
			"type": "function"
		},
		{
			"inputs": [
				{
					"internalType": "address",
					"name": "from",
					"type": "address"
				},
				{
					"internalType": "address",
					"name": "to",
					"type": "address"
				},
				{
					"internalType": "uint256",
					"name": "tokenId",
					"type": "uint256"
				}
			],
			"name": "safeTransferFrom",
			"outputs": [],
			"stateMutability": "nonpayable",
			"type": "function"
		},
		{
			"inputs": [
				{
					"internalType": "address",
					"name": "from",
					"type": "address"
				},
				{
					"internalType": "address",
					"name": "to",
					"type": "address"
				},
				{
					"internalType": "uint256",
					"name": "tokenId",
					"type": "uint256"
				},
				{
					"internalType": "bytes",
					"name": "data",
					"type": "bytes"
				}
			],
			"name": "safeTransferFrom",
			"outputs": [],
			"stateMutability": "nonpayable",
			"type": "function"
		},
		{
			"inputs": [
				{
					"internalType": "address",
					"name": "operator",
					"type": "address"
				},
				{
					"internalType": "bool",
					"name": "approved",
					"type": "bool"
				}
			],
			"name": "setApprovalForAll",
			"outputs": [],
			"stateMutability": "nonpayable",
			"type": "function"
		},
		{
			"inputs": [
				{
					"internalType": "uint8",
					"name": "tier",
					"type": "uint8"
				},
				{
					"internalType": "uint64",
					"name": "_start",
					"type": "uint64"
				},
				{
					"internalType": "uint64",
					"name": "_end",
					"type": "uint64"
				}
			],
			"name": "setDurationPublic",
			"outputs": [],
			"stateMutability": "nonpayable",
			"type": "function"
		},
		{
			"inputs": [
				{
					"internalType": "uint8",
					"name": "tier",
					"type": "uint8"
				},
				{
					"internalType": "uint64",
					"name": "_start",
					"type": "uint64"
				},
				{
					"internalType": "uint64",
					"name": "_end",
					"type": "uint64"
				}
			],
			"name": "setDurationWhitelist",
			"outputs": [],
			"stateMutability": "nonpayable",
			"type": "function"
		},
		{
			"inputs": [
				{
					"internalType": "address",
					"name": "new_address",
					"type": "address"
				}
			],
			"name": "setKIPFundAddress",
			"outputs": [],
			"stateMutability": "nonpayable",
			"type": "function"
		},
		{
			"inputs": [
				{
					"internalType": "uint16",
					"name": "new_address",
					"type": "uint16"
				}
			],
			"name": "setMaxTierAmount",
			"outputs": [],
			"stateMutability": "nonpayable",
			"type": "function"
		},
		{
			"inputs": [
				{
					"internalType": "uint8",
					"name": "tier",
					"type": "uint8"
				},
				{
					"internalType": "bytes32",
					"name": "_merkleRoot",
					"type": "bytes32"
				}
			],
			"name": "setMerkleRoot",
			"outputs": [],
			"stateMutability": "nonpayable",
			"type": "function"
		},
		{
			"inputs": [
				{
					"internalType": "address",
					"name": "_address",
					"type": "address"
				},
				{
					"internalType": "bool",
					"name": "enabled",
					"type": "bool"
				}
			],
			"name": "setOperator",
			"outputs": [],
			"stateMutability": "nonpayable",
			"type": "function"
		},
		{
			"inputs": [
				{
					"internalType": "address",
					"name": "newtoken",
					"type": "address"
				}
			],
			"name": "setPayToken",
			"outputs": [],
			"stateMutability": "nonpayable",
			"type": "function"
		},
		{
			"inputs": [
				{
					"internalType": "uint8",
					"name": "tier",
					"type": "uint8"
				},
				{
					"internalType": "uint256",
					"name": "_price",
					"type": "uint256"
				}
			],
			"name": "setTokenPrice",
			"outputs": [],
			"stateMutability": "nonpayable",
			"type": "function"
		},
		{
			"inputs": [
				{
					"internalType": "string",
					"name": "newuri",
					"type": "string"
				}
			],
			"name": "setTokenURI",
			"outputs": [],
			"stateMutability": "nonpayable",
			"type": "function"
		},
		{
			"inputs": [
				{
					"internalType": "uint8",
					"name": "tier",
					"type": "uint8"
				},
				{
					"internalType": "uint16",
					"name": "_cap_public",
					"type": "uint16"
				},
				{
					"internalType": "uint16",
					"name": "_cap_whitelist",
					"type": "uint16"
				}
			],
			"name": "setTotalCap",
			"outputs": [],
			"stateMutability": "nonpayable",
			"type": "function"
		},
		{
			"inputs": [
				{
					"internalType": "bool",
					"name": "_enabled",
					"type": "bool"
				}
			],
			"name": "setTransferEnabled",
			"outputs": [],
			"stateMutability": "nonpayable",
			"type": "function"
		},
		{
			"inputs": [
				{
					"internalType": "uint8",
					"name": "tier",
					"type": "uint8"
				},
				{
					"internalType": "uint16",
					"name": "_cap_public",
					"type": "uint16"
				}
			],
			"name": "setUserCap",
			"outputs": [],
			"stateMutability": "nonpayable",
			"type": "function"
		},
		{
			"inputs": [
				{
					"internalType": "bytes4",
					"name": "interfaceId",
					"type": "bytes4"
				}
			],
			"name": "supportsInterface",
			"outputs": [
				{
					"internalType": "bool",
					"name": "",
					"type": "bool"
				}
			],
			"stateMutability": "view",
			"type": "function"
		},
		{
			"inputs": [],
			"name": "symbol",
			"outputs": [
				{
					"internalType": "string",
					"name": "",
					"type": "string"
				}
			],
			"stateMutability": "view",
			"type": "function"
		},
		{
			"inputs": [
				{
					"internalType": "uint16",
					"name": "",
					"type": "uint16"
				}
			],
			"name": "tier_end_timestamp_public",
			"outputs": [
				{
					"internalType": "uint64",
					"name": "",
					"type": "uint64"
				}
			],
			"stateMutability": "view",
			"type": "function"
		},
		{
			"inputs": [
				{
					"internalType": "uint16",
					"name": "",
					"type": "uint16"
				}
			],
			"name": "tier_end_timestamp_whitelist",
			"outputs": [
				{
					"internalType": "uint64",
					"name": "",
					"type": "uint64"
				}
			],
			"stateMutability": "view",
			"type": "function"
		},
		{
			"inputs": [
				{
					"internalType": "uint16",
					"name": "",
					"type": "uint16"
				}
			],
			"name": "tier_minted_amounts_public",
			"outputs": [
				{
					"internalType": "uint16",
					"name": "",
					"type": "uint16"
				}
			],
			"stateMutability": "view",
			"type": "function"
		},
		{
			"inputs": [
				{
					"internalType": "uint16",
					"name": "",
					"type": "uint16"
				}
			],
			"name": "tier_minted_amounts_whitelist",
			"outputs": [
				{
					"internalType": "uint16",
					"name": "",
					"type": "uint16"
				}
			],
			"stateMutability": "view",
			"type": "function"
		},
		{
			"inputs": [
				{
					"internalType": "uint16",
					"name": "",
					"type": "uint16"
				}
			],
			"name": "tier_price_per_token",
			"outputs": [
				{
					"internalType": "uint256",
					"name": "",
					"type": "uint256"
				}
			],
			"stateMutability": "view",
			"type": "function"
		},
		{
			"inputs": [
				{
					"internalType": "uint16",
					"name": "",
					"type": "uint16"
				}
			],
			"name": "tier_start_timestamp_public",
			"outputs": [
				{
					"internalType": "uint64",
					"name": "",
					"type": "uint64"
				}
			],
			"stateMutability": "view",
			"type": "function"
		},
		{
			"inputs": [
				{
					"internalType": "uint16",
					"name": "",
					"type": "uint16"
				}
			],
			"name": "tier_start_timestamp_whitelist",
			"outputs": [
				{
					"internalType": "uint64",
					"name": "",
					"type": "uint64"
				}
			],
			"stateMutability": "view",
			"type": "function"
		},
		{
			"inputs": [
				{
					"internalType": "uint16",
					"name": "",
					"type": "uint16"
				}
			],
			"name": "tier_total_cap_public",
			"outputs": [
				{
					"internalType": "uint16",
					"name": "",
					"type": "uint16"
				}
			],
			"stateMutability": "view",
			"type": "function"
		},
		{
			"inputs": [
				{
					"internalType": "uint16",
					"name": "",
					"type": "uint16"
				}
			],
			"name": "tier_total_cap_whitelist",
			"outputs": [
				{
					"internalType": "uint16",
					"name": "",
					"type": "uint16"
				}
			],
			"stateMutability": "view",
			"type": "function"
		},
		{
			"inputs": [
				{
					"internalType": "uint16",
					"name": "",
					"type": "uint16"
				}
			],
			"name": "tier_user_cap_public",
			"outputs": [
				{
					"internalType": "uint16",
					"name": "",
					"type": "uint16"
				}
			],
			"stateMutability": "view",
			"type": "function"
		},
		{
			"inputs": [
				{
					"internalType": "uint16",
					"name": "",
					"type": "uint16"
				}
			],
			"name": "tier_whitelist_merkle_root",
			"outputs": [
				{
					"internalType": "bytes32",
					"name": "",
					"type": "bytes32"
				}
			],
			"stateMutability": "view",
			"type": "function"
		},
		{
			"inputs": [
				{
					"internalType": "uint256",
					"name": "tokenId",
					"type": "uint256"
				}
			],
			"name": "tokenURI",
			"outputs": [
				{
					"internalType": "string",
					"name": "",
					"type": "string"
				}
			],
			"stateMutability": "view",
			"type": "function"
		},
		{
			"inputs": [
				{
					"internalType": "address",
					"name": "from",
					"type": "address"
				},
				{
					"internalType": "address",
					"name": "to",
					"type": "address"
				},
				{
					"internalType": "uint256",
					"name": "tokenId",
					"type": "uint256"
				}
			],
			"name": "transferFrom",
			"outputs": [],
			"stateMutability": "nonpayable",
			"type": "function"
		},
		{
			"inputs": [
				{
					"internalType": "address",
					"name": "newOwner",
					"type": "address"
				}
			],
			"name": "transferOwnership",
			"outputs": [],
			"stateMutability": "nonpayable",
			"type": "function"
		},
		{
			"inputs": [
				{
					"internalType": "uint16",
					"name": "",
					"type": "uint16"
				},
				{
					"internalType": "address",
					"name": "",
					"type": "address"
				}
			],
			"name": "user_minted_amounts_public",
			"outputs": [
				{
					"internalType": "uint256",
					"name": "",
					"type": "uint256"
				}
			],
			"stateMutability": "view",
			"type": "function"
		},
		{
			"inputs": [
				{
					"internalType": "uint16",
					"name": "",
					"type": "uint16"
				},
				{
					"internalType": "address",
					"name": "",
					"type": "address"
				}
			],
			"name": "user_minted_amounts_whitelist",
			"outputs": [
				{
					"internalType": "uint256",
					"name": "",
					"type": "uint256"
				}
			],
			"stateMutability": "view",
			"type": "function"
		},
		{
			"inputs": [
				{
					"internalType": "uint8",
					"name": "tier",
					"type": "uint8"
				},
				{
					"internalType": "address",
					"name": "to",
					"type": "address"
				},
				{
					"internalType": "uint8",
					"name": "_amount",
					"type": "uint8"
				},
				{
					"internalType": "uint256",
					"name": "_maxAmount",
					"type": "uint256"
				},
				{
					"internalType": "bytes32[]",
					"name": "_merkleProof",
					"type": "bytes32[]"
				}
			],
			"name": "whitelist_mint",
			"outputs": [],
			"stateMutability": "nonpayable",
			"type": "function"
		}
	]
}