{
	"data": {
		"bytecode": {
			"linkReferences": {},
			"object": "6080604052736e3bbb13330102989ac110163e4c649d0bb8877760095f6101000a81548173ffffffffffffffffffffffffffffffffffffffff021916908373ffffffffffffffffffffffffffffffffffffffff160217905550348015610063575f80fd5b5060405161535a38038061535a83398181016040528101906100859190610340565b816040518060400160405280600b81526020017f4b4950204c6963656e73650000000000000000000000000000000000000000008152506040518060400160405280600781526020017f4b49504e4f444500000000000000000000000000000000000000000000000000815250815f908161010091906105b8565b50806001908161011091906105b8565b5050505f73ffffffffffffffffffffffffffffffffffffffff168173ffffffffffffffffffffffffffffffffffffffff1603610183575f6040517f1e4fbdf700000000000000000000000000000000000000000000000000000000815260040161017a9190610696565b60405180910390fd5b6101928161021f60201b60201c565b508060075f6101000a81548173ffffffffffffffffffffffffffffffffffffffff021916908373ffffffffffffffffffffffffffffffffffffffff1602179055506040518060400160405280601981526020017f68747470733a2f2f6e6f64652d6e66742e6b69702e70726f2f000000000000008152506010908161021791906105b8565b5050506106af565b5f60065f9054906101000a900473ffffffffffffffffffffffffffffffffffffffff1690508160065f6101000a81548173ffffffffffffffffffffffffffffffffffffffff021916908373ffffffffffffffffffffffffffffffffffffffff1602179055508173ffffffffffffffffffffffffffffffffffffffff168173ffffffffffffffffffffffffffffffffffffffff167f8be0079c531659141344cd1fd0a4f28419497f9722a3daafe3b4186f6b6457e060405160405180910390a35050565b5f80fd5b5f73ffffffffffffffffffffffffffffffffffffffff82169050919050565b5f61030f826102e6565b9050919050565b61031f81610305565b8114610329575f80fd5b50565b5f8151905061033a81610316565b92915050565b5f8060408385031215610356576103556102e2565b5b5f6103638582860161032c565b92505060206103748582860161032c565b9150509250929050565b5f81519050919050565b7f4e487b71000000000000000000000000000000000000000000000000000000005f52604160045260245ffd5b7f4e487b71000000000000000000000000000000000000000000000000000000005f52602260045260245ffd5b5f60028204905060018216806103f957607f821691505b60208210810361040c5761040b6103b5565b5b50919050565b5f819050815f5260205f209050919050565b5f6020601f8301049050919050565b5f82821b905092915050565b5f6008830261046e7fffffffffffffffffffffffffffffffffffffffffffffffffffffffffffffffff82610433565b6104788683610433565b95508019841693508086168417925050509392505050565b5f819050919050565b5f819050919050565b5f6104bc6104b76104b284610490565b610499565b610490565b9050919050565b5f819050919050565b6104d5836104a2565b6104e96104e1826104c3565b84845461043f565b825550505050565b5f90565b6104fd6104f1565b6105088184846104cc565b505050565b5b8181101561052b576105205f826104f5565b60018101905061050e565b5050565b601f8211156105705761054181610412565b61054a84610424565b81016020851015610559578190505b61056d61056585610424565b83018261050d565b50505b505050565b5f82821c905092915050565b5f6105905f1984600802610575565b1980831691505092915050565b5f6105a88383610581565b9150826002028217905092915050565b6105c18261037e565b67ffffffffffffffff8111156105da576105d9610388565b5b6105e482546103e2565b6105ef82828561052f565b5f60209050601f831160018114610620575f841561060e578287015190505b610618858261059d565b86555061067f565b601f19841661062e86610412565b5f5b8281101561065557848901518255600182019150602085019450602081019050610630565b86831015610672578489015161066e601f891682610581565b8355505b6001600288020188555050505b505050505050565b61069081610305565b82525050565b5f6020820190506106a95f830184610687565b92915050565b614c9e806106bc5f395ff3fe608060405234801561000f575f80fd5b506004361061021a575f3560e01c80636c0360eb11610123578063a4532fb9116100ab578063c3d85a641161007a578063c3d85a6414610624578063c87b56dd14610654578063e985e9c514610684578063f1ce5fe0146106b4578063f2fde38b146106e95761021a565b8063a4532fb91461059a578063af3a19c7146105ce578063b8240540146105ec578063b88d4fde146106085761021a565b80638da5cb5b116100f25780638da5cb5b1461050a5780638f3f0d411461052857806395d89b41146105445780639fe9f62314610562578063a22cb4651461057e5761021a565b80636c0360eb1461049657806370a08231146104b4578063715018a6146104e457806378a80561146104ee5761021a565b80633013ce29116101a65780634cd412d5116101755780634cd412d5146103e057806355f804b3146103fe5780635686d34f1461041a5780636352211e1461044a5780636a326ab11461047a5761021a565b80633013ce291461035857806333d9f1fa14610376578063378077a8146103a657806342842e0e146103c45761021a565b80631aca45a7116101ed5780631aca45a7146102b85780631bb08048146102e85780631d68e8ce1461030457806323b872dd1461032057806327ed39981461033c5761021a565b806301ffc9a71461021e57806306fdde031461024e578063081812fc1461026c578063095ea7b31461029c575b5f80fd5b61023860048036038101906102339190613267565b610705565b60405161024591906132ac565b60405180910390f35b6102566107e6565b6040516102639190613335565b60405180910390f35b61028660048036038101906102819190613388565b610875565b60405161029391906133f2565b60405180910390f35b6102b660048036038101906102b19190613435565b610890565b005b6102d260048036038101906102cd9190613473565b6108a6565b6040516102df91906134c0565b60405180910390f35b61030260048036038101906102fd91906134d9565b6108c6565b005b61031e60048036038101906103199190613565565b61097f565b005b61033a600480360381019061033591906135fb565b610ea1565b005b6103566004803603810190610351919061366d565b610fa0565b005b610360611055565b60405161036d9190613706565b60405180910390f35b610390600480360381019061038b9190613473565b61107a565b60405161039d91906134c0565b60405180910390f35b6103ae61109a565b6040516103bb91906133f2565b60405180910390f35b6103de60048036038101906103d991906135fb565b6110bf565b005b6103e86110de565b6040516103f591906132ac565b60405180910390f35b61041860048036038101906104139190613774565b6110f0565b005b610434600480360381019061042f91906134d9565b61110e565b60405161044191906132ac565b60405180910390f35b610464600480360381019061045f9190613388565b61112b565b60405161047191906133f2565b60405180910390f35b610494600480360381019061048f91906134d9565b61113c565b005b61049e6111f5565b6040516104ab9190613335565b60405180910390f35b6104ce60048036038101906104c991906134d9565b611281565b6040516104db91906134c0565b60405180910390f35b6104ec611337565b005b610508600480360381019061050391906137e9565b61134a565b005b6105126113e3565b60405161051f91906133f2565b60405180910390f35b610542600480360381019061053d9190613845565b61140b565b005b61054c6114c0565b6040516105599190613335565b60405180910390f35b61057c60048036038101906105779190613883565b611550565b005b610598600480360381019061059391906137e9565b6115fc565b005b6105b460048036038101906105af9190613388565b611612565b6040516105c5959493929190613906565b60405180910390f35b6105d661167a565b6040516105e391906134c0565b60405180910390f35b61060660048036038101906106019190613957565b61167f565b005b610622600480360381019061061d9190613b03565b611c4f565b005b61063e60048036038101906106399190613b83565b611c6c565b60405161064b91906132ac565b60405180910390f35b61066e60048036038101906106699190613388565b611d03565b60405161067b9190613335565b60405180910390f35b61069e60048036038101906106999190613c07565b611d69565b6040516106ab91906132ac565b60405180910390f35b6106ce60048036038101906106c99190613388565b611df7565b6040516106e096959493929190613c45565b60405180910390f35b61070360048036038101906106fe91906134d9565b611e75565b005b5f7f80ac58cd000000000000000000000000000000000000000000000000000000007bffffffffffffffffffffffffffffffffffffffffffffffffffffffff1916827bffffffffffffffffffffffffffffffffffffffffffffffffffffffff191614806107cf57507f5b5e139f000000000000000000000000000000000000000000000000000000007bffffffffffffffffffffffffffffffffffffffffffffffffffffffff1916827bffffffffffffffffffffffffffffffffffffffffffffffffffffffff1916145b806107df57506107de82611ef9565b5b9050919050565b60605f80546107f490613cd1565b80601f016020809104026020016040519081016040528092919081815260200182805461082090613cd1565b801561086b5780601f106108425761010080835404028352916020019161086b565b820191905f5260205f20905b81548152906001019060200180831161084e57829003601f168201915b5050505050905090565b5f61087f82611f62565b5061088982611fe8565b9050919050565b6108a2828261089d612021565b612028565b5050565b600c602052815f5260405f20602052805f5260405f205f91509150505481565b6108ce61203a565b5f73ffffffffffffffffffffffffffffffffffffffff168173ffffffffffffffffffffffffffffffffffffffff160361093c576040517f08c379a000000000000000000000000000000000000000000000000000000000815260040161093390613d4b565b60405180910390fd5b8060095f6101000a81548173ffffffffffffffffffffffffffffffffffffffff021916908373ffffffffffffffffffffffffffffffffffffffff16021790555050565b5f8614158015610990575060268611155b80156109c857505f73ffffffffffffffffffffffffffffffffffffffff168573ffffffffffffffffffffffffffffffffffffffff1614155b80156109d457505f8414155b610a13576040517f08c379a0000000000000000000000000000000000000000000000000000000008152600401610a0a90613db3565b60405180910390fd5b5f600b5f8881526020019081526020015f206040518060a00160405290815f8201548152602001600182015f9054906101000a900463ffffffff1663ffffffff1663ffffffff16815260200160028201548152602001600382015f9054906101000a900467ffffffffffffffff1667ffffffffffffffff1667ffffffffffffffff1681526020016003820160089054906101000a900467ffffffffffffffff1667ffffffffffffffff1667ffffffffffffffff168152505090505f610ad6612021565b905042826060015167ffffffffffffffff1611158015610b045750816080015167ffffffffffffffff164211155b610b43576040517f08c379a0000000000000000000000000000000000000000000000000000000008152600401610b3a90613e1b565b60405180910390fd5b8486600c5f8b81526020019081526020015f205f8473ffffffffffffffffffffffffffffffffffffffff1673ffffffffffffffffffffffffffffffffffffffff1681526020019081526020015f2054610b9c9190613e66565b11158015610bc35750816020015163ffffffff16868360400151610bc09190613e66565b11155b610c02576040517f08c379a0000000000000000000000000000000000000000000000000000000008152600401610bf990613ee3565b60405180910390fd5b610c0f8888878787611c6c565b610c4e576040517f08c379a0000000000000000000000000000000000000000000000000000000008152600401610c4590613f4b565b60405180910390fd5b85600c5f8a81526020019081526020015f205f8373ffffffffffffffffffffffffffffffffffffffff1673ffffffffffffffffffffffffffffffffffffffff1681526020019081526020015f205f828254610ca99190613e66565b925050819055508073ffffffffffffffffffffffffffffffffffffffff167f4aaba2a3f908ff02a87e92fafa39545080802c3f1dd7507b0a428f8022e8f3ab896001600c5f8d81526020019081526020015f205f8673ffffffffffffffffffffffffffffffffffffffff1673ffffffffffffffffffffffffffffffffffffffff1681526020019081526020015f20546001604051610d4a9493929190613f69565b60405180910390a285600b5f8a81526020019081526020015f206002015f828254610d759190613e66565b925050819055508073ffffffffffffffffffffffffffffffffffffffff167f4aaba2a3f908ff02a87e92fafa39545080802c3f1dd7507b0a428f8022e8f3ab896001600b5f8d81526020019081526020015f20600201545f604051610ddd9493929190613f69565b60405180910390a25f600190505b868111610e965760085f815480929190610e0490613fac565b9190505550610e15886008546120c1565b8773ffffffffffffffffffffffffffffffffffffffff168273ffffffffffffffffffffffffffffffffffffffff167fbb9ad13c0de1a777020713212854c8c286c0c260f459a4f53aa84a65e3bc0db28b6008545f6001604051610e7b949392919061404f565b60405180910390a38080610e8e90613fac565b915050610deb565b505050505050505050565b5f73ffffffffffffffffffffffffffffffffffffffff168273ffffffffffffffffffffffffffffffffffffffff1603610f11575f6040517f64a0ae92000000000000000000000000000000000000000000000000000000008152600401610f0891906133f2565b60405180910390fd5b5f610f248383610f1f612021565b6120de565b90508373ffffffffffffffffffffffffffffffffffffffff168173ffffffffffffffffffffffffffffffffffffffff1614610f9a578382826040517f64283d7b000000000000000000000000000000000000000000000000000000008152600401610f91939291906140a5565b60405180910390fd5b50505050565b600e5f610fab612021565b73ffffffffffffffffffffffffffffffffffffffff1673ffffffffffffffffffffffffffffffffffffffff1681526020019081526020015f205f9054906101000a900460ff16611030576040517f08c379a000000000000000000000000000000000000000000000000000000000815260040161102790614124565b60405180910390fd5b80600a5f8481526020019081526020015f20818161104e91906144ae565b9050505050565b60075f9054906101000a900473ffffffffffffffffffffffffffffffffffffffff1681565b600d602052815f5260405f20602052805f5260405f205f91509150505481565b60095f9054906101000a900473ffffffffffffffffffffffffffffffffffffffff1681565b6110d983838360405180602001604052805f815250611c4f565b505050565b600f5f9054906101000a900460ff1681565b6110f861203a565b818160109182611109929190614630565b505050565b600e602052805f5260405f205f915054906101000a900460ff1681565b5f61113582611f62565b9050919050565b61114461203a565b5f73ffffffffffffffffffffffffffffffffffffffff168173ffffffffffffffffffffffffffffffffffffffff16036111b2576040517f08c379a00000000000000000000000000000000000000000000000000000000081526004016111a990613d4b565b60405180910390fd5b8060075f6101000a81548173ffffffffffffffffffffffffffffffffffffffff021916908373ffffffffffffffffffffffffffffffffffffffff16021790555050565b6010805461120290613cd1565b80601f016020809104026020016040519081016040528092919081815260200182805461122e90613cd1565b80156112795780601f1061125057610100808354040283529160200191611279565b820191905f5260205f20905b81548152906001019060200180831161125c57829003601f168201915b505050505081565b5f8073ffffffffffffffffffffffffffffffffffffffff168273ffffffffffffffffffffffffffffffffffffffff16036112f2575f6040517f89c62b640000000000000000000000000000000000000000000000000000000081526004016112e991906133f2565b60405180910390fd5b60035f8373ffffffffffffffffffffffffffffffffffffffff1673ffffffffffffffffffffffffffffffffffffffff1681526020019081526020015f20549050919050565b61133f61203a565b6113485f61217c565b565b61135261203a565b80600e5f8473ffffffffffffffffffffffffffffffffffffffff1673ffffffffffffffffffffffffffffffffffffffff1681526020019081526020015f205f6101000a81548160ff0219169083151502179055507f193de8d500b5cb7b720089b258a39e9c1d0b840019a73ae7c51c3f9101732b0282826040516113d79291906146fd565b60405180910390a15050565b5f60065f9054906101000a900473ffffffffffffffffffffffffffffffffffffffff16905090565b600e5f611416612021565b73ffffffffffffffffffffffffffffffffffffffff1673ffffffffffffffffffffffffffffffffffffffff1681526020019081526020015f205f9054906101000a900460ff1661149b576040517f08c379a000000000000000000000000000000000000000000000000000000000815260040161149290614124565b60405180910390fd5b80600b5f8481526020019081526020015f2081816114b99190614846565b9050505050565b6060600180546114cf90613cd1565b80601f01602080910402602001604051908101604052809291908181526020018280546114fb90613cd1565b80156115465780601f1061151d57610100808354040283529160200191611546565b820191905f5260205f20905b81548152906001019060200180831161152957829003601f168201915b5050505050905090565b600e5f61155b612021565b73ffffffffffffffffffffffffffffffffffffffff1673ffffffffffffffffffffffffffffffffffffffff1681526020019081526020015f205f9054906101000a900460ff166115e0576040517f08c379a00000000000000000000000000000000000000000000000000000000081526004016115d790614124565b60405180910390fd5b80600f5f6101000a81548160ff02191690831515021790555050565b61160e611607612021565b838361223f565b5050565b600b602052805f5260405f205f91509050805f015490806001015f9054906101000a900463ffffffff1690806002015490806003015f9054906101000a900467ffffffffffffffff16908060030160089054906101000a900467ffffffffffffffff16905085565b602681565b5f8514158015611690575060268511155b801561169c57505f8314155b80156116d457505f73ffffffffffffffffffffffffffffffffffffffff168473ffffffffffffffffffffffffffffffffffffffff1614155b611713576040517f08c379a000000000000000000000000000000000000000000000000000000000815260040161170a90613db3565b60405180910390fd5b5f600a5f8781526020019081526020015f206040518060c00160405290815f8201548152602001600182015f9054906101000a900463ffffffff1663ffffffff1663ffffffff1681526020016001820160049054906101000a900463ffffffff1663ffffffff1663ffffffff16815260200160028201548152602001600382015f9054906101000a900467ffffffffffffffff1667ffffffffffffffff1667ffffffffffffffff1681526020016003820160089054906101000a900467ffffffffffffffff1667ffffffffffffffff1667ffffffffffffffff168152505090505f6117fc612021565b905042826080015167ffffffffffffffff161115801561182a57508160a0015167ffffffffffffffff164211155b611869576040517f08c379a000000000000000000000000000000000000000000000000000000000815260040161186090613e1b565b60405180910390fd5b5f825f0151036118ae576040517f08c379a00000000000000000000000000000000000000000000000000000000081526004016118a59061489e565b60405180910390fd5b816040015163ffffffff1685600d5f8a81526020019081526020015f205f8473ffffffffffffffffffffffffffffffffffffffff1673ffffffffffffffffffffffffffffffffffffffff1681526020019081526020015f20546119119190613e66565b111580156119385750816020015163ffffffff168583606001516119359190613e66565b11155b611977576040517f08c379a000000000000000000000000000000000000000000000000000000000815260040161196e90613ee3565b60405180910390fd5b84600a5f8981526020019081526020015f206002015f82825461199a9190613e66565b925050819055508073ffffffffffffffffffffffffffffffffffffffff167f4aaba2a3f908ff02a87e92fafa39545080802c3f1dd7507b0a428f8022e8f3ab885f600a5f8c81526020019081526020015f20600201545f604051611a019493929190613f69565b60405180910390a284600d5f8981526020019081526020015f205f8373ffffffffffffffffffffffffffffffffffffffff1673ffffffffffffffffffffffffffffffffffffffff1681526020019081526020015f205f828254611a649190613e66565b925050819055508073ffffffffffffffffffffffffffffffffffffffff167f4aaba2a3f908ff02a87e92fafa39545080802c3f1dd7507b0a428f8022e8f3ab885f600d5f8c81526020019081526020015f205f8673ffffffffffffffffffffffffffffffffffffffff1673ffffffffffffffffffffffffffffffffffffffff1681526020019081526020015f20546001604051611b049493929190613f69565b60405180910390a25f85835f0151611b1c91906148bc565b9050611b8d8260095f9054906101000a900473ffffffffffffffffffffffffffffffffffffffff168360075f9054906101000a900473ffffffffffffffffffffffffffffffffffffffff1673ffffffffffffffffffffffffffffffffffffffff166123a8909392919063ffffffff16565b5f600190505b868111611c445760085f815480929190611bac90613fac565b9190505550611bbd886008546120c1565b8773ffffffffffffffffffffffffffffffffffffffff168373ffffffffffffffffffffffffffffffffffffffff167fbb9ad13c0de1a777020713212854c8c286c0c260f459a4f53aa84a65e3bc0db28b600854885f01515f8c8c604051611c2996959493929190614929565b60405180910390a38080611c3c90613fac565b915050611b93565b505050505050505050565b611c5a848484610ea1565b611c668484848461242a565b50505050565b5f808585604051602001611c81929190614983565b604051602081830303815290604052805190602001209050611cf78484808060200260200160405190810160405280939291908181526020018383602002808284375f81840152601f19601f82011690508083019250505050505050600b5f8a81526020019081526020015f205f0154836125dc565b91505095945050505050565b6060611d0e82611f62565b505f611d186125f2565b90505f815111611d365760405180602001604052805f815250611d61565b80611d4084612682565b604051602001611d519291906149e4565b6040516020818303038152906040525b915050919050565b5f60055f8473ffffffffffffffffffffffffffffffffffffffff1673ffffffffffffffffffffffffffffffffffffffff1681526020019081526020015f205f8373ffffffffffffffffffffffffffffffffffffffff1673ffffffffffffffffffffffffffffffffffffffff1681526020019081526020015f205f9054906101000a900460ff16905092915050565b600a602052805f5260405f205f91509050805f015490806001015f9054906101000a900463ffffffff16908060010160049054906101000a900463ffffffff1690806002015490806003015f9054906101000a900467ffffffffffffffff16908060030160089054906101000a900467ffffffffffffffff16905086565b611e7d61203a565b5f73ffffffffffffffffffffffffffffffffffffffff168173ffffffffffffffffffffffffffffffffffffffff1603611eed575f6040517f1e4fbdf7000000000000000000000000000000000000000000000000000000008152600401611ee491906133f2565b60405180910390fd5b611ef68161217c565b50565b5f7f01ffc9a7000000000000000000000000000000000000000000000000000000007bffffffffffffffffffffffffffffffffffffffffffffffffffffffff1916827bffffffffffffffffffffffffffffffffffffffffffffffffffffffff1916149050919050565b5f80611f6d8361274c565b90505f73ffffffffffffffffffffffffffffffffffffffff168173ffffffffffffffffffffffffffffffffffffffff1603611fdf57826040517f7e273289000000000000000000000000000000000000000000000000000000008152600401611fd691906134c0565b60405180910390fd5b80915050919050565b5f60045f8381526020019081526020015f205f9054906101000a900473ffffffffffffffffffffffffffffffffffffffff169050919050565b5f33905090565b6120358383836001612785565b505050565b612042612021565b73ffffffffffffffffffffffffffffffffffffffff166120606113e3565b73ffffffffffffffffffffffffffffffffffffffff16146120bf57612083612021565b6040517f118cdaa70000000000000000000000000000000000000000000000000000000081526004016120b691906133f2565b60405180910390fd5b565b6120da828260405180602001604052805f815250612944565b5050565b5f806120eb85858561295f565b9050600f5f9054906101000a900460ff168061213257505f73ffffffffffffffffffffffffffffffffffffffff168173ffffffffffffffffffffffffffffffffffffffff16145b612171576040517f08c379a000000000000000000000000000000000000000000000000000000000815260040161216890614a51565b60405180910390fd5b809150509392505050565b5f60065f9054906101000a900473ffffffffffffffffffffffffffffffffffffffff1690508160065f6101000a81548173ffffffffffffffffffffffffffffffffffffffff021916908373ffffffffffffffffffffffffffffffffffffffff1602179055508173ffffffffffffffffffffffffffffffffffffffff168173ffffffffffffffffffffffffffffffffffffffff167f8be0079c531659141344cd1fd0a4f28419497f9722a3daafe3b4186f6b6457e060405160405180910390a35050565b5f73ffffffffffffffffffffffffffffffffffffffff168273ffffffffffffffffffffffffffffffffffffffff16036122af57816040517f5b08ba180000000000000000000000000000000000000000000000000000000081526004016122a691906133f2565b60405180910390fd5b8060055f8573ffffffffffffffffffffffffffffffffffffffff1673ffffffffffffffffffffffffffffffffffffffff1681526020019081526020015f205f8473ffffffffffffffffffffffffffffffffffffffff1673ffffffffffffffffffffffffffffffffffffffff1681526020019081526020015f205f6101000a81548160ff0219169083151502179055508173ffffffffffffffffffffffffffffffffffffffff168373ffffffffffffffffffffffffffffffffffffffff167f17307eab39ab6107e8899845ad3d59bd9653f200f220920489ca2b5937696c318360405161239b91906132ac565b60405180910390a3505050565b612424848573ffffffffffffffffffffffffffffffffffffffff166323b872dd8686866040516024016123dd93929190614a6f565b604051602081830303815290604052915060e01b6020820180517bffffffffffffffffffffffffffffffffffffffffffffffffffffffff8381831617835250505050612b6a565b50505050565b5f8373ffffffffffffffffffffffffffffffffffffffff163b11156125d6578273ffffffffffffffffffffffffffffffffffffffff1663150b7a0261246d612021565b8685856040518563ffffffff1660e01b815260040161248f9493929190614af6565b6020604051808303815f875af19250505080156124ca57506040513d601f19601f820116820180604052508101906124c79190614b54565b60015b61254b573d805f81146124f8576040519150601f19603f3d011682016040523d82523d5f602084013e6124fd565b606091505b505f81510361254357836040517f64a0ae9200000000000000000000000000000000000000000000000000000000815260040161253a91906133f2565b60405180910390fd5b805181602001fd5b63150b7a0260e01b7bffffffffffffffffffffffffffffffffffffffffffffffffffffffff1916817bffffffffffffffffffffffffffffffffffffffffffffffffffffffff1916146125d457836040517f64a0ae920000000000000000000000000000000000000000000000000000000081526004016125cb91906133f2565b60405180910390fd5b505b50505050565b5f826125e88584612bff565b1490509392505050565b60606010805461260190613cd1565b80601f016020809104026020016040519081016040528092919081815260200182805461262d90613cd1565b80156126785780601f1061264f57610100808354040283529160200191612678565b820191905f5260205f20905b81548152906001019060200180831161265b57829003601f168201915b5050505050905090565b60605f600161269084612c4d565b0190505f8167ffffffffffffffff8111156126ae576126ad6139df565b5b6040519080825280601f01601f1916602001820160405280156126e05781602001600182028036833780820191505090505b5090505f82602001820190505b600115612741578080600190039150507f3031323334353637383961626364656600000000000000000000000000000000600a86061a8153600a858161273657612735614b7f565b5b0494505f85036126ed575b819350505050919050565b5f60025f8381526020019081526020015f205f9054906101000a900473ffffffffffffffffffffffffffffffffffffffff169050919050565b80806127bd57505f73ffffffffffffffffffffffffffffffffffffffff168273ffffffffffffffffffffffffffffffffffffffff1614155b156128ef575f6127cc84611f62565b90505f73ffffffffffffffffffffffffffffffffffffffff168373ffffffffffffffffffffffffffffffffffffffff161415801561283657508273ffffffffffffffffffffffffffffffffffffffff168173ffffffffffffffffffffffffffffffffffffffff1614155b801561284957506128478184611d69565b155b1561288b57826040517fa9fbf51f00000000000000000000000000000000000000000000000000000000815260040161288291906133f2565b60405180910390fd5b81156128ed57838573ffffffffffffffffffffffffffffffffffffffff168273ffffffffffffffffffffffffffffffffffffffff167f8c5be1e5ebec7d5bd14f71427d1e84f3dd0314c0f7b2291e5b200ac8c7c3b92560405160405180910390a45b505b8360045f8581526020019081526020015f205f6101000a81548173ffffffffffffffffffffffffffffffffffffffff021916908373ffffffffffffffffffffffffffffffffffffffff16021790555050505050565b61294e8383612d9e565b61295a5f84848461242a565b505050565b5f8061296a8461274c565b90505f73ffffffffffffffffffffffffffffffffffffffff168373ffffffffffffffffffffffffffffffffffffffff16146129ab576129aa818486612e91565b5b5f73ffffffffffffffffffffffffffffffffffffffff168173ffffffffffffffffffffffffffffffffffffffff1614612a36576129ea5f855f80612785565b600160035f8373ffffffffffffffffffffffffffffffffffffffff1673ffffffffffffffffffffffffffffffffffffffff1681526020019081526020015f205f82825403925050819055505b5f73ffffffffffffffffffffffffffffffffffffffff168573ffffffffffffffffffffffffffffffffffffffff1614612ab557600160035f8773ffffffffffffffffffffffffffffffffffffffff1673ffffffffffffffffffffffffffffffffffffffff1681526020019081526020015f205f82825401925050819055505b8460025f8681526020019081526020015f205f6101000a81548173ffffffffffffffffffffffffffffffffffffffff021916908373ffffffffffffffffffffffffffffffffffffffff160217905550838573ffffffffffffffffffffffffffffffffffffffff168273ffffffffffffffffffffffffffffffffffffffff167fddf252ad1be2c89b69c2b068fc378daa952ba7f163c4a11628f55a4df523b3ef60405160405180910390a4809150509392505050565b5f612b94828473ffffffffffffffffffffffffffffffffffffffff16612f5490919063ffffffff16565b90505f815114158015612bb8575080806020019051810190612bb69190614bc0565b155b15612bfa57826040517f5274afe7000000000000000000000000000000000000000000000000000000008152600401612bf191906133f2565b60405180910390fd5b505050565b5f808290505f5b8451811015612c4257612c3382868381518110612c2657612c25614beb565b5b6020026020010151612f69565b91508080600101915050612c06565b508091505092915050565b5f805f90507a184f03e93ff9f4daa797ed6e38ed64bf6a1f0100000000000000008310612ca9577a184f03e93ff9f4daa797ed6e38ed64bf6a1f0100000000000000008381612c9f57612c9e614b7f565b5b0492506040810190505b6d04ee2d6d415b85acef81000000008310612ce6576d04ee2d6d415b85acef81000000008381612cdc57612cdb614b7f565b5b0492506020810190505b662386f26fc100008310612d1557662386f26fc100008381612d0b57612d0a614b7f565b5b0492506010810190505b6305f5e1008310612d3e576305f5e1008381612d3457612d33614b7f565b5b0492506008810190505b6127108310612d63576127108381612d5957612d58614b7f565b5b0492506004810190505b60648310612d865760648381612d7c57612d7b614b7f565b5b0492506002810190505b600a8310612d95576001810190505b80915050919050565b5f73ffffffffffffffffffffffffffffffffffffffff168273ffffffffffffffffffffffffffffffffffffffff1603612e0e575f6040517f64a0ae92000000000000000000000000000000000000000000000000000000008152600401612e0591906133f2565b60405180910390fd5b5f612e1a83835f6120de565b90505f73ffffffffffffffffffffffffffffffffffffffff168173ffffffffffffffffffffffffffffffffffffffff1614612e8c575f6040517f73c6ac6e000000000000000000000000000000000000000000000000000000008152600401612e8391906133f2565b60405180910390fd5b505050565b612e9c838383612f93565b612f4f575f73ffffffffffffffffffffffffffffffffffffffff168373ffffffffffffffffffffffffffffffffffffffff1603612f1057806040517f7e273289000000000000000000000000000000000000000000000000000000008152600401612f0791906134c0565b60405180910390fd5b81816040517f177e802f000000000000000000000000000000000000000000000000000000008152600401612f46929190614983565b60405180910390fd5b505050565b6060612f6183835f613053565b905092915050565b5f818310612f8057612f7b828461311c565b612f8b565b612f8a838361311c565b5b905092915050565b5f8073ffffffffffffffffffffffffffffffffffffffff168373ffffffffffffffffffffffffffffffffffffffff161415801561304a57508273ffffffffffffffffffffffffffffffffffffffff168473ffffffffffffffffffffffffffffffffffffffff16148061300b575061300a8484611d69565b5b8061304957508273ffffffffffffffffffffffffffffffffffffffff1661303183611fe8565b73ffffffffffffffffffffffffffffffffffffffff16145b5b90509392505050565b60608147101561309a57306040517fcd78605900000000000000000000000000000000000000000000000000000000815260040161309191906133f2565b60405180910390fd5b5f808573ffffffffffffffffffffffffffffffffffffffff1684866040516130c29190614c52565b5f6040518083038185875af1925050503d805f81146130fc576040519150601f19603f3d011682016040523d82523d5f602084013e613101565b606091505b5091509150613111868383613130565b925050509392505050565b5f825f528160205260405f20905092915050565b60608261314557613140826131bd565b6131b5565b5f825114801561316b57505f8473ffffffffffffffffffffffffffffffffffffffff163b145b156131ad57836040517f9996b3150000000000000000000000000000000000000000000000000000000081526004016131a491906133f2565b60405180910390fd5b8190506131b6565b5b9392505050565b5f815111156131cf5780518082602001fd5b6040517f1425ea4200000000000000000000000000000000000000000000000000000000815260040160405180910390fd5b5f604051905090565b5f80fd5b5f80fd5b5f7fffffffff0000000000000000000000000000000000000000000000000000000082169050919050565b61324681613212565b8114613250575f80fd5b50565b5f813590506132618161323d565b92915050565b5f6020828403121561327c5761327b61320a565b5b5f61328984828501613253565b91505092915050565b5f8115159050919050565b6132a681613292565b82525050565b5f6020820190506132bf5f83018461329d565b92915050565b5f81519050919050565b5f82825260208201905092915050565b8281835e5f83830152505050565b5f601f19601f8301169050919050565b5f613307826132c5565b61331181856132cf565b93506133218185602086016132df565b61332a816132ed565b840191505092915050565b5f6020820190508181035f83015261334d81846132fd565b905092915050565b5f819050919050565b61336781613355565b8114613371575f80fd5b50565b5f813590506133828161335e565b92915050565b5f6020828403121561339d5761339c61320a565b5b5f6133aa84828501613374565b91505092915050565b5f73ffffffffffffffffffffffffffffffffffffffff82169050919050565b5f6133dc826133b3565b9050919050565b6133ec816133d2565b82525050565b5f6020820190506134055f8301846133e3565b92915050565b613414816133d2565b811461341e575f80fd5b50565b5f8135905061342f8161340b565b92915050565b5f806040838503121561344b5761344a61320a565b5b5f61345885828601613421565b925050602061346985828601613374565b9150509250929050565b5f80604083850312156134895761348861320a565b5b5f61349685828601613374565b92505060206134a785828601613421565b9150509250929050565b6134ba81613355565b82525050565b5f6020820190506134d35f8301846134b1565b92915050565b5f602082840312156134ee576134ed61320a565b5b5f6134fb84828501613421565b91505092915050565b5f80fd5b5f80fd5b5f80fd5b5f8083601f84011261352557613524613504565b5b8235905067ffffffffffffffff81111561354257613541613508565b5b60208301915083602082028301111561355e5761355d61350c565b5b9250929050565b5f805f805f8060a0878903121561357f5761357e61320a565b5b5f61358c89828a01613374565b965050602061359d89828a01613421565b95505060406135ae89828a01613374565b94505060606135bf89828a01613374565b935050608087013567ffffffffffffffff8111156135e0576135df61320e565b5b6135ec89828a01613510565b92509250509295509295509295565b5f805f606084860312156136125761361161320a565b5b5f61361f86828701613421565b935050602061363086828701613421565b925050604061364186828701613374565b9150509250925092565b5f80fd5b5f60c082840312156136645761366361364b565b5b81905092915050565b5f8060e083850312156136835761368261320a565b5b5f61369085828601613374565b92505060206136a18582860161364f565b9150509250929050565b5f819050919050565b5f6136ce6136c96136c4846133b3565b6136ab565b6133b3565b9050919050565b5f6136df826136b4565b9050919050565b5f6136f0826136d5565b9050919050565b613700816136e6565b82525050565b5f6020820190506137195f8301846136f7565b92915050565b5f8083601f84011261373457613733613504565b5b8235905067ffffffffffffffff81111561375157613750613508565b5b60208301915083600182028301111561376d5761376c61350c565b5b9250929050565b5f806020838503121561378a5761378961320a565b5b5f83013567ffffffffffffffff8111156137a7576137a661320e565b5b6137b38582860161371f565b92509250509250929050565b6137c881613292565b81146137d2575f80fd5b50565b5f813590506137e3816137bf565b92915050565b5f80604083850312156137ff576137fe61320a565b5b5f61380c85828601613421565b925050602061381d858286016137d5565b9150509250929050565b5f60a0828403121561383c5761383b61364b565b5b81905092915050565b5f8060c0838503121561385b5761385a61320a565b5b5f61386885828601613374565b925050602061387985828601613827565b9150509250929050565b5f602082840312156138985761389761320a565b5b5f6138a5848285016137d5565b91505092915050565b5f819050919050565b6138c0816138ae565b82525050565b5f63ffffffff82169050919050565b6138de816138c6565b82525050565b5f67ffffffffffffffff82169050919050565b613900816138e4565b82525050565b5f60a0820190506139195f8301886138b7565b61392660208301876138d5565b61393360408301866134b1565b61394060608301856138f7565b61394d60808301846138f7565b9695505050505050565b5f805f805f608086880312156139705761396f61320a565b5b5f61397d88828901613374565b955050602061398e88828901613421565b945050604061399f88828901613374565b935050606086013567ffffffffffffffff8111156139c0576139bf61320e565b5b6139cc8882890161371f565b92509250509295509295909350565b5f80fd5b7f4e487b71000000000000000000000000000000000000000000000000000000005f52604160045260245ffd5b613a15826132ed565b810181811067ffffffffffffffff82111715613a3457613a336139df565b5b80604052505050565b5f613a46613201565b9050613a528282613a0c565b919050565b5f67ffffffffffffffff821115613a7157613a706139df565b5b613a7a826132ed565b9050602081019050919050565b828183375f83830152505050565b5f613aa7613aa284613a57565b613a3d565b905082815260208101848484011115613ac357613ac26139db565b5b613ace848285613a87565b509392505050565b5f82601f830112613aea57613ae9613504565b5b8135613afa848260208601613a95565b91505092915050565b5f805f8060808587031215613b1b57613b1a61320a565b5b5f613b2887828801613421565b9450506020613b3987828801613421565b9350506040613b4a87828801613374565b925050606085013567ffffffffffffffff811115613b6b57613b6a61320e565b5b613b7787828801613ad6565b91505092959194509250565b5f805f805f60808688031215613b9c57613b9b61320a565b5b5f613ba988828901613374565b9550506020613bba88828901613421565b9450506040613bcb88828901613374565b935050606086013567ffffffffffffffff811115613bec57613beb61320e565b5b613bf888828901613510565b92509250509295509295909350565b5f8060408385031215613c1d57613c1c61320a565b5b5f613c2a85828601613421565b9250506020613c3b85828601613421565b9150509250929050565b5f60c082019050613c585f8301896134b1565b613c6560208301886138d5565b613c7260408301876138d5565b613c7f60608301866134b1565b613c8c60808301856138f7565b613c9960a08301846138f7565b979650505050505050565b7f4e487b71000000000000000000000000000000000000000000000000000000005f52602260045260245ffd5b5f6002820490506001821680613ce857607f821691505b602082108103613cfb57613cfa613ca4565b5b50919050565b7f53657420307830300000000000000000000000000000000000000000000000005f82015250565b5f613d356008836132cf565b9150613d4082613d01565b602082019050919050565b5f6020820190508181035f830152613d6281613d29565b9050919050565b7f496e76616c696420706172616d730000000000000000000000000000000000005f82015250565b5f613d9d600e836132cf565b9150613da882613d69565b602082019050919050565b5f6020820190508181035f830152613dca81613d91565b9050919050565b7f53616c653a204e6f74207965742073746172746564206f7220656e64656400005f82015250565b5f613e05601e836132cf565b9150613e1082613dd1565b602082019050919050565b5f6020820190508181035f830152613e3281613df9565b9050919050565b7f4e487b71000000000000000000000000000000000000000000000000000000005f52601160045260245ffd5b5f613e7082613355565b9150613e7b83613355565b9250828201905080821115613e9357613e92613e39565b5b92915050565b7f45786365656420616c6c6f77616e6365000000000000000000000000000000005f82015250565b5f613ecd6010836132cf565b9150613ed882613e99565b602082019050919050565b5f6020820190508181035f830152613efa81613ec1565b9050919050565b7f496e76616c69642070726f6f66000000000000000000000000000000000000005f82015250565b5f613f35600d836132cf565b9150613f4082613f01565b602082019050919050565b5f6020820190508181035f830152613f6281613f29565b9050919050565b5f608082019050613f7c5f8301876134b1565b613f89602083018661329d565b613f9660408301856134b1565b613fa3606083018461329d565b95945050505050565b5f613fb682613355565b91507fffffffffffffffffffffffffffffffffffffffffffffffffffffffffffffffff8203613fe857613fe7613e39565b5b600182019050919050565b5f819050919050565b5f61401661401161400c84613ff3565b6136ab565b613355565b9050919050565b61402681613ffc565b82525050565b50565b5f61403a5f836132cf565b91506140458261402c565b5f82019050919050565b5f60a0820190506140625f8301876134b1565b61406f60208301866134b1565b61407c604083018561401d565b614089606083018461329d565b818103608083015261409a8161402f565b905095945050505050565b5f6060820190506140b85f8301866133e3565b6140c560208301856134b1565b6140d260408301846133e3565b949350505050565b7f556e617574686f72697a656400000000000000000000000000000000000000005f82015250565b5f61410e600c836132cf565b9150614119826140da565b602082019050919050565b5f6020820190508181035f83015261413b81614102565b9050919050565b5f813561414e8161335e565b80915050919050565b5f815f1b9050919050565b5f7fffffffffffffffffffffffffffffffffffffffffffffffffffffffffffffffff61418d84614157565b9350801983169250808416831791505092915050565b5f6141bd6141b86141b384613355565b6136ab565b613355565b9050919050565b5f819050919050565b6141d6826141a3565b6141e96141e2826141c4565b8354614162565b8255505050565b6141f9816138c6565b8114614203575f80fd5b50565b5f8135614212816141f0565b80915050919050565b5f63ffffffff61422a84614157565b9350801983169250808416831791505092915050565b5f61425a614255614250846138c6565b6136ab565b6138c6565b9050919050565b5f819050919050565b61427382614240565b61428661427f82614261565b835461421b565b8255505050565b5f8160201b9050919050565b5f67ffffffff000000006142ac8461428d565b9350801983169250808416831791505092915050565b6142cb82614240565b6142de6142d782614261565b8354614299565b8255505050565b6142ee816138e4565b81146142f8575f80fd5b50565b5f8135614307816142e5565b80915050919050565b5f67ffffffffffffffff61432384614157565b9350801983169250808416831791505092915050565b5f61435361434e614349846138e4565b6136ab565b6138e4565b9050919050565b5f819050919050565b61436c82614339565b61437f6143788261435a565b8354614310565b8255505050565b5f8160401b9050919050565b5f6fffffffffffffffff00000000000000006143ad84614386565b9350801983169250808416831791505092915050565b6143cc82614339565b6143df6143d88261435a565b8354614392565b8255505050565b5f81015f8301806143f681614142565b905061440281846141cd565b50505060018101602083018061441781614206565b9050614423818461426a565b50505060018101604083018061443881614206565b905061444481846142c2565b50505060028101606083018061445981614142565b905061446581846141cd565b50505060038101608083018061447a816142fb565b90506144868184614363565b5050506003810160a083018061449b816142fb565b90506144a781846143c3565b5050505050565b6144b882826143e6565b5050565b5f82905092915050565b5f819050815f5260205f209050919050565b5f6020601f8301049050919050565b5f82821b905092915050565b5f600883026145227fffffffffffffffffffffffffffffffffffffffffffffffffffffffffffffffff826144e7565b61452c86836144e7565b95508019841693508086168417925050509392505050565b61454d836141a3565b614561614559826141c4565b8484546144f3565b825550505050565b5f90565b614575614569565b614580818484614544565b505050565b5b818110156145a3576145985f8261456d565b600181019050614586565b5050565b601f8211156145e8576145b9816144c6565b6145c2846144d8565b810160208510156145d1578190505b6145e56145dd856144d8565b830182614585565b50505b505050565b5f82821c905092915050565b5f6146085f19846008026145ed565b1980831691505092915050565b5f61462083836145f9565b9150826002028217905092915050565b61463a83836144bc565b67ffffffffffffffff811115614653576146526139df565b5b61465d8254613cd1565b6146688282856145a7565b5f601f831160018114614695575f8415614683578287013590505b61468d8582614615565b8655506146f4565b601f1984166146a3866144c6565b5f5b828110156146ca578489013582556001820191506020850194506020810190506146a5565b868310156146e757848901356146e3601f8916826145f9565b8355505b6001600288020188555050505b50505050505050565b5f6040820190506147105f8301856133e3565b61471d602083018461329d565b9392505050565b61472d816138ae565b8114614737575f80fd5b50565b5f813561474681614724565b80915050919050565b5f614759826138ae565b9050919050565b5f815f1c9050919050565b5f61477582614760565b9050919050565b6147858261474f565b6147986147918261476b565b8354614162565b8255505050565b5f81015f8301806147af8161473a565b90506147bb818461477c565b5050506001810160208301806147d081614206565b90506147dc818461426a565b5050506002810160408301806147f181614142565b90506147fd81846141cd565b505050600381016060830180614812816142fb565b905061481e8184614363565b505050600381016080830180614833816142fb565b905061483f81846143c3565b5050505050565b614850828261479f565b5050565b7f507269636520697320736574207a65726f0000000000000000000000000000005f82015250565b5f6148886011836132cf565b915061489382614854565b602082019050919050565b5f6020820190508181035f8301526148b58161487c565b9050919050565b5f6148c682613355565b91506148d183613355565b92508282026148df81613355565b915082820484148315176148f6576148f5613e39565b5b5092915050565b5f61490883856132cf565b9350614915838584613a87565b61491e836132ed565b840190509392505050565b5f60a08201905061493c5f8301896134b1565b61494960208301886134b1565b61495660408301876134b1565b614963606083018661329d565b81810360808301526149768184866148fd565b9050979650505050505050565b5f6040820190506149965f8301856133e3565b6149a360208301846134b1565b9392505050565b5f81905092915050565b5f6149be826132c5565b6149c881856149aa565b93506149d88185602086016132df565b80840191505092915050565b5f6149ef82856149b4565b91506149fb82846149b4565b91508190509392505050565b7f5472616e73666572206e6f7420656e61626c65640000000000000000000000005f82015250565b5f614a3b6014836132cf565b9150614a4682614a07565b602082019050919050565b5f6020820190508181035f830152614a6881614a2f565b9050919050565b5f606082019050614a825f8301866133e3565b614a8f60208301856133e3565b614a9c60408301846134b1565b949350505050565b5f81519050919050565b5f82825260208201905092915050565b5f614ac882614aa4565b614ad28185614aae565b9350614ae28185602086016132df565b614aeb816132ed565b840191505092915050565b5f608082019050614b095f8301876133e3565b614b1660208301866133e3565b614b2360408301856134b1565b8181036060830152614b358184614abe565b905095945050505050565b5f81519050614b4e8161323d565b92915050565b5f60208284031215614b6957614b6861320a565b5b5f614b7684828501614b40565b91505092915050565b7f4e487b71000000000000000000000000000000000000000000000000000000005f52601260045260245ffd5b5f81519050614bba816137bf565b92915050565b5f60208284031215614bd557614bd461320a565b5b5f614be284828501614bac565b91505092915050565b7f4e487b71000000000000000000000000000000000000000000000000000000005f52603260045260245ffd5b5f81905092915050565b5f614c2c82614aa4565b614c368185614c18565b9350614c468185602086016132df565b80840191505092915050565b5f614c5d8284614c22565b91508190509291505056fea26469706673582212207352f53fd9611b6b01e7820af2d74fa8c2a9fa50b9421b60317cf46b573f46e264736f6c63430008190033",
			"opcodes": "PUSH1 0x80 PUSH1 0x40 MSTORE PUSH20 0x6E3BBB13330102989AC110163E4C649D0BB88777 PUSH1 0x9 PUSH0 PUSH2 0x100 EXP DUP2 SLOAD DUP2 PUSH20 0xFFFFFFFFFFFFFFFFFFFFFFFFFFFFFFFFFFFFFFFF MUL NOT AND SWAP1 DUP4 PUSH20 0xFFFFFFFFFFFFFFFFFFFFFFFFFFFFFFFFFFFFFFFF AND MUL OR SWAP1 SSTORE POP CALLVALUE DUP1 ISZERO PUSH2 0x63 JUMPI PUSH0 DUP1 REVERT JUMPDEST POP PUSH1 0x40 MLOAD PUSH2 0x535A CODESIZE SUB DUP1 PUSH2 0x535A DUP4 CODECOPY DUP2 DUP2 ADD PUSH1 0x40 MSTORE DUP2 ADD SWAP1 PUSH2 0x85 SWAP2 SWAP1 PUSH2 0x340 JUMP JUMPDEST DUP2 PUSH1 0x40 MLOAD DUP1 PUSH1 0x40 ADD PUSH1 0x40 MSTORE DUP1 PUSH1 0xB DUP2 MSTORE PUSH1 0x20 ADD PUSH32 0x4B4950204C6963656E7365000000000000000000000000000000000000000000 DUP2 MSTORE POP PUSH1 0x40 MLOAD DUP1 PUSH1 0x40 ADD PUSH1 0x40 MSTORE DUP1 PUSH1 0x7 DUP2 MSTORE PUSH1 0x20 ADD PUSH32 0x4B49504E4F444500000000000000000000000000000000000000000000000000 DUP2 MSTORE POP DUP2 PUSH0 SWAP1 DUP2 PUSH2 0x100 SWAP2 SWAP1 PUSH2 0x5B8 JUMP JUMPDEST POP DUP1 PUSH1 0x1 SWAP1 DUP2 PUSH2 0x110 SWAP2 SWAP1 PUSH2 0x5B8 JUMP JUMPDEST POP POP POP PUSH0 PUSH20 0xFFFFFFFFFFFFFFFFFFFFFFFFFFFFFFFFFFFFFFFF AND DUP2 PUSH20 0xFFFFFFFFFFFFFFFFFFFFFFFFFFFFFFFFFFFFFFFF AND SUB PUSH2 0x183 JUMPI PUSH0 PUSH1 0x40 MLOAD PUSH32 0x1E4FBDF700000000000000000000000000000000000000000000000000000000 DUP2 MSTORE PUSH1 0x4 ADD PUSH2 0x17A SWAP2 SWAP1 PUSH2 0x696 JUMP JUMPDEST PUSH1 0x40 MLOAD DUP1 SWAP2 SUB SWAP1 REVERT JUMPDEST PUSH2 0x192 DUP2 PUSH2 0x21F PUSH1 0x20 SHL PUSH1 0x20 SHR JUMP JUMPDEST POP DUP1 PUSH1 0x7 PUSH0 PUSH2 0x100 EXP DUP2 SLOAD DUP2 PUSH20 0xFFFFFFFFFFFFFFFFFFFFFFFFFFFFFFFFFFFFFFFF MUL NOT AND SWAP1 DUP4 PUSH20 0xFFFFFFFFFFFFFFFFFFFFFFFFFFFFFFFFFFFFFFFF AND MUL OR SWAP1 SSTORE POP PUSH1 0x40 MLOAD DUP1 PUSH1 0x40 ADD PUSH1 0x40 MSTORE DUP1 PUSH1 0x19 DUP2 MSTORE PUSH1 0x20 ADD PUSH32 0x68747470733A2F2F6E6F64652D6E66742E6B69702E70726F2F00000000000000 DUP2 MSTORE POP PUSH1 0x10 SWAP1 DUP2 PUSH2 0x217 SWAP2 SWAP1 PUSH2 0x5B8 JUMP JUMPDEST POP POP POP PUSH2 0x6AF JUMP JUMPDEST PUSH0 PUSH1 0x6 PUSH0 SWAP1 SLOAD SWAP1 PUSH2 0x100 EXP SWAP1 DIV PUSH20 0xFFFFFFFFFFFFFFFFFFFFFFFFFFFFFFFFFFFFFFFF AND SWAP1 POP DUP2 PUSH1 0x6 PUSH0 PUSH2 0x100 EXP DUP2 SLOAD DUP2 PUSH20 0xFFFFFFFFFFFFFFFFFFFFFFFFFFFFFFFFFFFFFFFF MUL NOT AND SWAP1 DUP4 PUSH20 0xFFFFFFFFFFFFFFFFFFFFFFFFFFFFFFFFFFFFFFFF AND MUL OR SWAP1 SSTORE POP DUP2 PUSH20 0xFFFFFFFFFFFFFFFFFFFFFFFFFFFFFFFFFFFFFFFF AND DUP2 PUSH20 0xFFFFFFFFFFFFFFFFFFFFFFFFFFFFFFFFFFFFFFFF AND PUSH32 0x8BE0079C531659141344CD1FD0A4F28419497F9722A3DAAFE3B4186F6B6457E0 PUSH1 0x40 MLOAD PUSH1 0x40 MLOAD DUP1 SWAP2 SUB SWAP1 LOG3 POP POP JUMP JUMPDEST PUSH0 DUP1 REVERT JUMPDEST PUSH0 PUSH20 0xFFFFFFFFFFFFFFFFFFFFFFFFFFFFFFFFFFFFFFFF DUP3 AND SWAP1 POP SWAP2 SWAP1 POP JUMP JUMPDEST PUSH0 PUSH2 0x30F DUP3 PUSH2 0x2E6 JUMP JUMPDEST SWAP1 POP SWAP2 SWAP1 POP JUMP JUMPDEST PUSH2 0x31F DUP2 PUSH2 0x305 JUMP JUMPDEST DUP2 EQ PUSH2 0x329 JUMPI PUSH0 DUP1 REVERT JUMPDEST POP JUMP JUMPDEST PUSH0 DUP2 MLOAD SWAP1 POP PUSH2 0x33A DUP2 PUSH2 0x316 JUMP JUMPDEST SWAP3 SWAP2 POP POP JUMP JUMPDEST PUSH0 DUP1 PUSH1 0x40 DUP4 DUP6 SUB SLT ISZERO PUSH2 0x356 JUMPI PUSH2 0x355 PUSH2 0x2E2 JUMP JUMPDEST JUMPDEST PUSH0 PUSH2 0x363 DUP6 DUP3 DUP7 ADD PUSH2 0x32C JUMP JUMPDEST SWAP3 POP POP PUSH1 0x20 PUSH2 0x374 DUP6 DUP3 DUP7 ADD PUSH2 0x32C JUMP JUMPDEST SWAP2 POP POP SWAP3 POP SWAP3 SWAP1 POP JUMP JUMPDEST PUSH0 DUP2 MLOAD SWAP1 POP SWAP2 SWAP1 POP JUMP JUMPDEST PUSH32 0x4E487B7100000000000000000000000000000000000000000000000000000000 PUSH0 MSTORE PUSH1 0x41 PUSH1 0x4 MSTORE PUSH1 0x24 PUSH0 REVERT JUMPDEST PUSH32 0x4E487B7100000000000000000000000000000000000000000000000000000000 PUSH0 MSTORE PUSH1 0x22 PUSH1 0x4 MSTORE PUSH1 0x24 PUSH0 REVERT JUMPDEST PUSH0 PUSH1 0x2 DUP3 DIV SWAP1 POP PUSH1 0x1 DUP3 AND DUP1 PUSH2 0x3F9 JUMPI PUSH1 0x7F DUP3 AND SWAP2 POP JUMPDEST PUSH1 0x20 DUP3 LT DUP2 SUB PUSH2 0x40C JUMPI PUSH2 0x40B PUSH2 0x3B5 JUMP JUMPDEST JUMPDEST POP SWAP2 SWAP1 POP JUMP JUMPDEST PUSH0 DUP2 SWAP1 POP DUP2 PUSH0 MSTORE PUSH1 0x20 PUSH0 KECCAK256 SWAP1 POP SWAP2 SWAP1 POP JUMP JUMPDEST PUSH0 PUSH1 0x20 PUSH1 0x1F DUP4 ADD DIV SWAP1 POP SWAP2 SWAP1 POP JUMP JUMPDEST PUSH0 DUP3 DUP3 SHL SWAP1 POP SWAP3 SWAP2 POP POP JUMP JUMPDEST PUSH0 PUSH1 0x8 DUP4 MUL PUSH2 0x46E PUSH32 0xFFFFFFFFFFFFFFFFFFFFFFFFFFFFFFFFFFFFFFFFFFFFFFFFFFFFFFFFFFFFFFFF DUP3 PUSH2 0x433 JUMP JUMPDEST PUSH2 0x478 DUP7 DUP4 PUSH2 0x433 JUMP JUMPDEST SWAP6 POP DUP1 NOT DUP5 AND SWAP4 POP DUP1 DUP7 AND DUP5 OR SWAP3 POP POP POP SWAP4 SWAP3 POP POP POP JUMP JUMPDEST PUSH0 DUP2 SWAP1 POP SWAP2 SWAP1 POP JUMP JUMPDEST PUSH0 DUP2 SWAP1 POP SWAP2 SWAP1 POP JUMP JUMPDEST PUSH0 PUSH2 0x4BC PUSH2 0x4B7 PUSH2 0x4B2 DUP5 PUSH2 0x490 JUMP JUMPDEST PUSH2 0x499 JUMP JUMPDEST PUSH2 0x490 JUMP JUMPDEST SWAP1 POP SWAP2 SWAP1 POP JUMP JUMPDEST PUSH0 DUP2 SWAP1 POP SWAP2 SWAP1 POP JUMP JUMPDEST PUSH2 0x4D5 DUP4 PUSH2 0x4A2 JUMP JUMPDEST PUSH2 0x4E9 PUSH2 0x4E1 DUP3 PUSH2 0x4C3 JUMP JUMPDEST DUP5 DUP5 SLOAD PUSH2 0x43F JUMP JUMPDEST DUP3 SSTORE POP POP POP POP JUMP JUMPDEST PUSH0 SWAP1 JUMP JUMPDEST PUSH2 0x4FD PUSH2 0x4F1 JUMP JUMPDEST PUSH2 0x508 DUP2 DUP5 DUP5 PUSH2 0x4CC JUMP JUMPDEST POP POP POP JUMP JUMPDEST JUMPDEST DUP2 DUP2 LT ISZERO PUSH2 0x52B JUMPI PUSH2 0x520 PUSH0 DUP3 PUSH2 0x4F5 JUMP JUMPDEST PUSH1 0x1 DUP2 ADD SWAP1 POP PUSH2 0x50E JUMP JUMPDEST POP POP JUMP JUMPDEST PUSH1 0x1F DUP3 GT ISZERO PUSH2 0x570 JUMPI PUSH2 0x541 DUP2 PUSH2 0x412 JUMP JUMPDEST PUSH2 0x54A DUP5 PUSH2 0x424 JUMP JUMPDEST DUP2 ADD PUSH1 0x20 DUP6 LT ISZERO PUSH2 0x559 JUMPI DUP2 SWAP1 POP JUMPDEST PUSH2 0x56D PUSH2 0x565 DUP6 PUSH2 0x424 JUMP JUMPDEST DUP4 ADD DUP3 PUSH2 0x50D JUMP JUMPDEST POP POP JUMPDEST POP POP POP JUMP JUMPDEST PUSH0 DUP3 DUP3 SHR SWAP1 POP SWAP3 SWAP2 POP POP JUMP JUMPDEST PUSH0 PUSH2 0x590 PUSH0 NOT DUP5 PUSH1 0x8 MUL PUSH2 0x575 JUMP JUMPDEST NOT DUP1 DUP4 AND SWAP2 POP POP SWAP3 SWAP2 POP POP JUMP JUMPDEST PUSH0 PUSH2 0x5A8 DUP4 DUP4 PUSH2 0x581 JUMP JUMPDEST SWAP2 POP DUP3 PUSH1 0x2 MUL DUP3 OR SWAP1 POP SWAP3 SWAP2 POP POP JUMP JUMPDEST PUSH2 0x5C1 DUP3 PUSH2 0x37E JUMP JUMPDEST PUSH8 0xFFFFFFFFFFFFFFFF DUP2 GT ISZERO PUSH2 0x5DA JUMPI PUSH2 0x5D9 PUSH2 0x388 JUMP JUMPDEST JUMPDEST PUSH2 0x5E4 DUP3 SLOAD PUSH2 0x3E2 JUMP JUMPDEST PUSH2 0x5EF DUP3 DUP3 DUP6 PUSH2 0x52F JUMP JUMPDEST PUSH0 PUSH1 0x20 SWAP1 POP PUSH1 0x1F DUP4 GT PUSH1 0x1 DUP2 EQ PUSH2 0x620 JUMPI PUSH0 DUP5 ISZERO PUSH2 0x60E JUMPI DUP3 DUP8 ADD MLOAD SWAP1 POP JUMPDEST PUSH2 0x618 DUP6 DUP3 PUSH2 0x59D JUMP JUMPDEST DUP7 SSTORE POP PUSH2 0x67F JUMP JUMPDEST PUSH1 0x1F NOT DUP5 AND PUSH2 0x62E DUP7 PUSH2 0x412 JUMP JUMPDEST PUSH0 JUMPDEST DUP3 DUP2 LT ISZERO PUSH2 0x655 JUMPI DUP5 DUP10 ADD MLOAD DUP3 SSTORE PUSH1 0x1 DUP3 ADD SWAP2 POP PUSH1 0x20 DUP6 ADD SWAP5 POP PUSH1 0x20 DUP2 ADD SWAP1 POP PUSH2 0x630 JUMP JUMPDEST DUP7 DUP4 LT ISZERO PUSH2 0x672 JUMPI DUP5 DUP10 ADD MLOAD PUSH2 0x66E PUSH1 0x1F DUP10 AND DUP3 PUSH2 0x581 JUMP JUMPDEST DUP4 SSTORE POP JUMPDEST PUSH1 0x1 PUSH1 0x2 DUP9 MUL ADD DUP9 SSTORE POP POP POP JUMPDEST POP POP POP POP POP POP JUMP JUMPDEST PUSH2 0x690 DUP2 PUSH2 0x305 JUMP JUMPDEST DUP3 MSTORE POP POP JUMP JUMPDEST PUSH0 PUSH1 0x20 DUP3 ADD SWAP1 POP PUSH2 0x6A9 PUSH0 DUP4 ADD DUP5 PUSH2 0x687 JUMP JUMPDEST SWAP3 SWAP2 POP POP JUMP JUMPDEST PUSH2 0x4C9E DUP1 PUSH2 0x6BC PUSH0 CODECOPY PUSH0 RETURN INVALID PUSH1 0x80 PUSH1 0x40 MSTORE CALLVALUE DUP1 ISZERO PUSH2 0xF JUMPI PUSH0 DUP1 REVERT JUMPDEST POP PUSH1 0x4 CALLDATASIZE LT PUSH2 0x21A JUMPI PUSH0 CALLDATALOAD PUSH1 0xE0 SHR DUP1 PUSH4 0x6C0360EB GT PUSH2 0x123 JUMPI DUP1 PUSH4 0xA4532FB9 GT PUSH2 0xAB JUMPI DUP1 PUSH4 0xC3D85A64 GT PUSH2 0x7A JUMPI DUP1 PUSH4 0xC3D85A64 EQ PUSH2 0x624 JUMPI DUP1 PUSH4 0xC87B56DD EQ PUSH2 0x654 JUMPI DUP1 PUSH4 0xE985E9C5 EQ PUSH2 0x684 JUMPI DUP1 PUSH4 0xF1CE5FE0 EQ PUSH2 0x6B4 JUMPI DUP1 PUSH4 0xF2FDE38B EQ PUSH2 0x6E9 JUMPI PUSH2 0x21A JUMP JUMPDEST DUP1 PUSH4 0xA4532FB9 EQ PUSH2 0x59A JUMPI DUP1 PUSH4 0xAF3A19C7 EQ PUSH2 0x5CE JUMPI DUP1 PUSH4 0xB8240540 EQ PUSH2 0x5EC JUMPI DUP1 PUSH4 0xB88D4FDE EQ PUSH2 0x608 JUMPI PUSH2 0x21A JUMP JUMPDEST DUP1 PUSH4 0x8DA5CB5B GT PUSH2 0xF2 JUMPI DUP1 PUSH4 0x8DA5CB5B EQ PUSH2 0x50A JUMPI DUP1 PUSH4 0x8F3F0D41 EQ PUSH2 0x528 JUMPI DUP1 PUSH4 0x95D89B41 EQ PUSH2 0x544 JUMPI DUP1 PUSH4 0x9FE9F623 EQ PUSH2 0x562 JUMPI DUP1 PUSH4 0xA22CB465 EQ PUSH2 0x57E JUMPI PUSH2 0x21A JUMP JUMPDEST DUP1 PUSH4 0x6C0360EB EQ PUSH2 0x496 JUMPI DUP1 PUSH4 0x70A08231 EQ PUSH2 0x4B4 JUMPI DUP1 PUSH4 0x715018A6 EQ PUSH2 0x4E4 JUMPI DUP1 PUSH4 0x78A80561 EQ PUSH2 0x4EE JUMPI PUSH2 0x21A JUMP JUMPDEST DUP1 PUSH4 0x3013CE29 GT PUSH2 0x1A6 JUMPI DUP1 PUSH4 0x4CD412D5 GT PUSH2 0x175 JUMPI DUP1 PUSH4 0x4CD412D5 EQ PUSH2 0x3E0 JUMPI DUP1 PUSH4 0x55F804B3 EQ PUSH2 0x3FE JUMPI DUP1 PUSH4 0x5686D34F EQ PUSH2 0x41A JUMPI DUP1 PUSH4 0x6352211E EQ PUSH2 0x44A JUMPI DUP1 PUSH4 0x6A326AB1 EQ PUSH2 0x47A JUMPI PUSH2 0x21A JUMP JUMPDEST DUP1 PUSH4 0x3013CE29 EQ PUSH2 0x358 JUMPI DUP1 PUSH4 0x33D9F1FA EQ PUSH2 0x376 JUMPI DUP1 PUSH4 0x378077A8 EQ PUSH2 0x3A6 JUMPI DUP1 PUSH4 0x42842E0E EQ PUSH2 0x3C4 JUMPI PUSH2 0x21A JUMP JUMPDEST DUP1 PUSH4 0x1ACA45A7 GT PUSH2 0x1ED JUMPI DUP1 PUSH4 0x1ACA45A7 EQ PUSH2 0x2B8 JUMPI DUP1 PUSH4 0x1BB08048 EQ PUSH2 0x2E8 JUMPI DUP1 PUSH4 0x1D68E8CE EQ PUSH2 0x304 JUMPI DUP1 PUSH4 0x23B872DD EQ PUSH2 0x320 JUMPI DUP1 PUSH4 0x27ED3998 EQ PUSH2 0x33C JUMPI PUSH2 0x21A JUMP JUMPDEST DUP1 PUSH4 0x1FFC9A7 EQ PUSH2 0x21E JUMPI DUP1 PUSH4 0x6FDDE03 EQ PUSH2 0x24E JUMPI DUP1 PUSH4 0x81812FC EQ PUSH2 0x26C JUMPI DUP1 PUSH4 0x95EA7B3 EQ PUSH2 0x29C JUMPI JUMPDEST PUSH0 DUP1 REVERT JUMPDEST PUSH2 0x238 PUSH1 0x4 DUP1 CALLDATASIZE SUB DUP2 ADD SWAP1 PUSH2 0x233 SWAP2 SWAP1 PUSH2 0x3267 JUMP JUMPDEST PUSH2 0x705 JUMP JUMPDEST PUSH1 0x40 MLOAD PUSH2 0x245 SWAP2 SWAP1 PUSH2 0x32AC JUMP JUMPDEST PUSH1 0x40 MLOAD DUP1 SWAP2 SUB SWAP1 RETURN JUMPDEST PUSH2 0x256 PUSH2 0x7E6 JUMP JUMPDEST PUSH1 0x40 MLOAD PUSH2 0x263 SWAP2 SWAP1 PUSH2 0x3335 JUMP JUMPDEST PUSH1 0x40 MLOAD DUP1 SWAP2 SUB SWAP1 RETURN JUMPDEST PUSH2 0x286 PUSH1 0x4 DUP1 CALLDATASIZE SUB DUP2 ADD SWAP1 PUSH2 0x281 SWAP2 SWAP1 PUSH2 0x3388 JUMP JUMPDEST PUSH2 0x875 JUMP JUMPDEST PUSH1 0x40 MLOAD PUSH2 0x293 SWAP2 SWAP1 PUSH2 0x33F2 JUMP JUMPDEST PUSH1 0x40 MLOAD DUP1 SWAP2 SUB SWAP1 RETURN JUMPDEST PUSH2 0x2B6 PUSH1 0x4 DUP1 CALLDATASIZE SUB DUP2 ADD SWAP1 PUSH2 0x2B1 SWAP2 SWAP1 PUSH2 0x3435 JUMP JUMPDEST PUSH2 0x890 JUMP JUMPDEST STOP JUMPDEST PUSH2 0x2D2 PUSH1 0x4 DUP1 CALLDATASIZE SUB DUP2 ADD SWAP1 PUSH2 0x2CD SWAP2 SWAP1 PUSH2 0x3473 JUMP JUMPDEST PUSH2 0x8A6 JUMP JUMPDEST PUSH1 0x40 MLOAD PUSH2 0x2DF SWAP2 SWAP1 PUSH2 0x34C0 JUMP JUMPDEST PUSH1 0x40 MLOAD DUP1 SWAP2 SUB SWAP1 RETURN JUMPDEST PUSH2 0x302 PUSH1 0x4 DUP1 CALLDATASIZE SUB DUP2 ADD SWAP1 PUSH2 0x2FD SWAP2 SWAP1 PUSH2 0x34D9 JUMP JUMPDEST PUSH2 0x8C6 JUMP JUMPDEST STOP JUMPDEST PUSH2 0x31E PUSH1 0x4 DUP1 CALLDATASIZE SUB DUP2 ADD SWAP1 PUSH2 0x319 SWAP2 SWAP1 PUSH2 0x3565 JUMP JUMPDEST PUSH2 0x97F JUMP JUMPDEST STOP JUMPDEST PUSH2 0x33A PUSH1 0x4 DUP1 CALLDATASIZE SUB DUP2 ADD SWAP1 PUSH2 0x335 SWAP2 SWAP1 PUSH2 0x35FB JUMP JUMPDEST PUSH2 0xEA1 JUMP JUMPDEST STOP JUMPDEST PUSH2 0x356 PUSH1 0x4 DUP1 CALLDATASIZE SUB DUP2 ADD SWAP1 PUSH2 0x351 SWAP2 SWAP1 PUSH2 0x366D JUMP JUMPDEST PUSH2 0xFA0 JUMP JUMPDEST STOP JUMPDEST PUSH2 0x360 PUSH2 0x1055 JUMP JUMPDEST PUSH1 0x40 MLOAD PUSH2 0x36D SWAP2 SWAP1 PUSH2 0x3706 JUMP JUMPDEST PUSH1 0x40 MLOAD DUP1 SWAP2 SUB SWAP1 RETURN JUMPDEST PUSH2 0x390 PUSH1 0x4 DUP1 CALLDATASIZE SUB DUP2 ADD SWAP1 PUSH2 0x38B SWAP2 SWAP1 PUSH2 0x3473 JUMP JUMPDEST PUSH2 0x107A JUMP JUMPDEST PUSH1 0x40 MLOAD PUSH2 0x39D SWAP2 SWAP1 PUSH2 0x34C0 JUMP JUMPDEST PUSH1 0x40 MLOAD DUP1 SWAP2 SUB SWAP1 RETURN JUMPDEST PUSH2 0x3AE PUSH2 0x109A JUMP JUMPDEST PUSH1 0x40 MLOAD PUSH2 0x3BB SWAP2 SWAP1 PUSH2 0x33F2 JUMP JUMPDEST PUSH1 0x40 MLOAD DUP1 SWAP2 SUB SWAP1 RETURN JUMPDEST PUSH2 0x3DE PUSH1 0x4 DUP1 CALLDATASIZE SUB DUP2 ADD SWAP1 PUSH2 0x3D9 SWAP2 SWAP1 PUSH2 0x35FB JUMP JUMPDEST PUSH2 0x10BF JUMP JUMPDEST STOP JUMPDEST PUSH2 0x3E8 PUSH2 0x10DE JUMP JUMPDEST PUSH1 0x40 MLOAD PUSH2 0x3F5 SWAP2 SWAP1 PUSH2 0x32AC JUMP JUMPDEST PUSH1 0x40 MLOAD DUP1 SWAP2 SUB SWAP1 RETURN JUMPDEST PUSH2 0x418 PUSH1 0x4 DUP1 CALLDATASIZE SUB DUP2 ADD SWAP1 PUSH2 0x413 SWAP2 SWAP1 PUSH2 0x3774 JUMP JUMPDEST PUSH2 0x10F0 JUMP JUMPDEST STOP JUMPDEST PUSH2 0x434 PUSH1 0x4 DUP1 CALLDATASIZE SUB DUP2 ADD SWAP1 PUSH2 0x42F SWAP2 SWAP1 PUSH2 0x34D9 JUMP JUMPDEST PUSH2 0x110E JUMP JUMPDEST PUSH1 0x40 MLOAD PUSH2 0x441 SWAP2 SWAP1 PUSH2 0x32AC JUMP JUMPDEST PUSH1 0x40 MLOAD DUP1 SWAP2 SUB SWAP1 RETURN JUMPDEST PUSH2 0x464 PUSH1 0x4 DUP1 CALLDATASIZE SUB DUP2 ADD SWAP1 PUSH2 0x45F SWAP2 SWAP1 PUSH2 0x3388 JUMP JUMPDEST PUSH2 0x112B JUMP JUMPDEST PUSH1 0x40 MLOAD PUSH2 0x471 SWAP2 SWAP1 PUSH2 0x33F2 JUMP JUMPDEST PUSH1 0x40 MLOAD DUP1 SWAP2 SUB SWAP1 RETURN JUMPDEST PUSH2 0x494 PUSH1 0x4 DUP1 CALLDATASIZE SUB DUP2 ADD SWAP1 PUSH2 0x48F SWAP2 SWAP1 PUSH2 0x34D9 JUMP JUMPDEST PUSH2 0x113C JUMP JUMPDEST STOP JUMPDEST PUSH2 0x49E PUSH2 0x11F5 JUMP JUMPDEST PUSH1 0x40 MLOAD PUSH2 0x4AB SWAP2 SWAP1 PUSH2 0x3335 JUMP JUMPDEST PUSH1 0x40 MLOAD DUP1 SWAP2 SUB SWAP1 RETURN JUMPDEST PUSH2 0x4CE PUSH1 0x4 DUP1 CALLDATASIZE SUB DUP2 ADD SWAP1 PUSH2 0x4C9 SWAP2 SWAP1 PUSH2 0x34D9 JUMP JUMPDEST PUSH2 0x1281 JUMP JUMPDEST PUSH1 0x40 MLOAD PUSH2 0x4DB SWAP2 SWAP1 PUSH2 0x34C0 JUMP JUMPDEST PUSH1 0x40 MLOAD DUP1 SWAP2 SUB SWAP1 RETURN JUMPDEST PUSH2 0x4EC PUSH2 0x1337 JUMP JUMPDEST STOP JUMPDEST PUSH2 0x508 PUSH1 0x4 DUP1 CALLDATASIZE SUB DUP2 ADD SWAP1 PUSH2 0x503 SWAP2 SWAP1 PUSH2 0x37E9 JUMP JUMPDEST PUSH2 0x134A JUMP JUMPDEST STOP JUMPDEST PUSH2 0x512 PUSH2 0x13E3 JUMP JUMPDEST PUSH1 0x40 MLOAD PUSH2 0x51F SWAP2 SWAP1 PUSH2 0x33F2 JUMP JUMPDEST PUSH1 0x40 MLOAD DUP1 SWAP2 SUB SWAP1 RETURN JUMPDEST PUSH2 0x542 PUSH1 0x4 DUP1 CALLDATASIZE SUB DUP2 ADD SWAP1 PUSH2 0x53D SWAP2 SWAP1 PUSH2 0x3845 JUMP JUMPDEST PUSH2 0x140B JUMP JUMPDEST STOP JUMPDEST PUSH2 0x54C PUSH2 0x14C0 JUMP JUMPDEST PUSH1 0x40 MLOAD PUSH2 0x559 SWAP2 SWAP1 PUSH2 0x3335 JUMP JUMPDEST PUSH1 0x40 MLOAD DUP1 SWAP2 SUB SWAP1 RETURN JUMPDEST PUSH2 0x57C PUSH1 0x4 DUP1 CALLDATASIZE SUB DUP2 ADD SWAP1 PUSH2 0x577 SWAP2 SWAP1 PUSH2 0x3883 JUMP JUMPDEST PUSH2 0x1550 JUMP JUMPDEST STOP JUMPDEST PUSH2 0x598 PUSH1 0x4 DUP1 CALLDATASIZE SUB DUP2 ADD SWAP1 PUSH2 0x593 SWAP2 SWAP1 PUSH2 0x37E9 JUMP JUMPDEST PUSH2 0x15FC JUMP JUMPDEST STOP JUMPDEST PUSH2 0x5B4 PUSH1 0x4 DUP1 CALLDATASIZE SUB DUP2 ADD SWAP1 PUSH2 0x5AF SWAP2 SWAP1 PUSH2 0x3388 JUMP JUMPDEST PUSH2 0x1612 JUMP JUMPDEST PUSH1 0x40 MLOAD PUSH2 0x5C5 SWAP6 SWAP5 SWAP4 SWAP3 SWAP2 SWAP1 PUSH2 0x3906 JUMP JUMPDEST PUSH1 0x40 MLOAD DUP1 SWAP2 SUB SWAP1 RETURN JUMPDEST PUSH2 0x5D6 PUSH2 0x167A JUMP JUMPDEST PUSH1 0x40 MLOAD PUSH2 0x5E3 SWAP2 SWAP1 PUSH2 0x34C0 JUMP JUMPDEST PUSH1 0x40 MLOAD DUP1 SWAP2 SUB SWAP1 RETURN JUMPDEST PUSH2 0x606 PUSH1 0x4 DUP1 CALLDATASIZE SUB DUP2 ADD SWAP1 PUSH2 0x601 SWAP2 SWAP1 PUSH2 0x3957 JUMP JUMPDEST PUSH2 0x167F JUMP JUMPDEST STOP JUMPDEST PUSH2 0x622 PUSH1 0x4 DUP1 CALLDATASIZE SUB DUP2 ADD SWAP1 PUSH2 0x61D SWAP2 SWAP1 PUSH2 0x3B03 JUMP JUMPDEST PUSH2 0x1C4F JUMP JUMPDEST STOP JUMPDEST PUSH2 0x63E PUSH1 0x4 DUP1 CALLDATASIZE SUB DUP2 ADD SWAP1 PUSH2 0x639 SWAP2 SWAP1 PUSH2 0x3B83 JUMP JUMPDEST PUSH2 0x1C6C JUMP JUMPDEST PUSH1 0x40 MLOAD PUSH2 0x64B SWAP2 SWAP1 PUSH2 0x32AC JUMP JUMPDEST PUSH1 0x40 MLOAD DUP1 SWAP2 SUB SWAP1 RETURN JUMPDEST PUSH2 0x66E PUSH1 0x4 DUP1 CALLDATASIZE SUB DUP2 ADD SWAP1 PUSH2 0x669 SWAP2 SWAP1 PUSH2 0x3388 JUMP JUMPDEST PUSH2 0x1D03 JUMP JUMPDEST PUSH1 0x40 MLOAD PUSH2 0x67B SWAP2 SWAP1 PUSH2 0x3335 JUMP JUMPDEST PUSH1 0x40 MLOAD DUP1 SWAP2 SUB SWAP1 RETURN JUMPDEST PUSH2 0x69E PUSH1 0x4 DUP1 CALLDATASIZE SUB DUP2 ADD SWAP1 PUSH2 0x699 SWAP2 SWAP1 PUSH2 0x3C07 JUMP JUMPDEST PUSH2 0x1D69 JUMP JUMPDEST PUSH1 0x40 MLOAD PUSH2 0x6AB SWAP2 SWAP1 PUSH2 0x32AC JUMP JUMPDEST PUSH1 0x40 MLOAD DUP1 SWAP2 SUB SWAP1 RETURN JUMPDEST PUSH2 0x6CE PUSH1 0x4 DUP1 CALLDATASIZE SUB DUP2 ADD SWAP1 PUSH2 0x6C9 SWAP2 SWAP1 PUSH2 0x3388 JUMP JUMPDEST PUSH2 0x1DF7 JUMP JUMPDEST PUSH1 0x40 MLOAD PUSH2 0x6E0 SWAP7 SWAP6 SWAP5 SWAP4 SWAP3 SWAP2 SWAP1 PUSH2 0x3C45 JUMP JUMPDEST PUSH1 0x40 MLOAD DUP1 SWAP2 SUB SWAP1 RETURN JUMPDEST PUSH2 0x703 PUSH1 0x4 DUP1 CALLDATASIZE SUB DUP2 ADD SWAP1 PUSH2 0x6FE SWAP2 SWAP1 PUSH2 0x34D9 JUMP JUMPDEST PUSH2 0x1E75 JUMP JUMPDEST STOP JUMPDEST PUSH0 PUSH32 0x80AC58CD00000000000000000000000000000000000000000000000000000000 PUSH28 0xFFFFFFFFFFFFFFFFFFFFFFFFFFFFFFFFFFFFFFFFFFFFFFFFFFFFFFFF NOT AND DUP3 PUSH28 0xFFFFFFFFFFFFFFFFFFFFFFFFFFFFFFFFFFFFFFFFFFFFFFFFFFFFFFFF NOT AND EQ DUP1 PUSH2 0x7CF JUMPI POP PUSH32 0x5B5E139F00000000000000000000000000000000000000000000000000000000 PUSH28 0xFFFFFFFFFFFFFFFFFFFFFFFFFFFFFFFFFFFFFFFFFFFFFFFFFFFFFFFF NOT AND DUP3 PUSH28 0xFFFFFFFFFFFFFFFFFFFFFFFFFFFFFFFFFFFFFFFFFFFFFFFFFFFFFFFF NOT AND EQ JUMPDEST DUP1 PUSH2 0x7DF JUMPI POP PUSH2 0x7DE DUP3 PUSH2 0x1EF9 JUMP JUMPDEST JUMPDEST SWAP1 POP SWAP2 SWAP1 POP JUMP JUMPDEST PUSH1 0x60 PUSH0 DUP1 SLOAD PUSH2 0x7F4 SWAP1 PUSH2 0x3CD1 JUMP JUMPDEST DUP1 PUSH1 0x1F ADD PUSH1 0x20 DUP1 SWAP2 DIV MUL PUSH1 0x20 ADD PUSH1 0x40 MLOAD SWAP1 DUP2 ADD PUSH1 0x40 MSTORE DUP1 SWAP3 SWAP2 SWAP1 DUP2 DUP2 MSTORE PUSH1 0x20 ADD DUP3 DUP1 SLOAD PUSH2 0x820 SWAP1 PUSH2 0x3CD1 JUMP JUMPDEST DUP1 ISZERO PUSH2 0x86B JUMPI DUP1 PUSH1 0x1F LT PUSH2 0x842 JUMPI PUSH2 0x100 DUP1 DUP4 SLOAD DIV MUL DUP4 MSTORE SWAP2 PUSH1 0x20 ADD SWAP2 PUSH2 0x86B JUMP JUMPDEST DUP3 ADD SWAP2 SWAP1 PUSH0 MSTORE PUSH1 0x20 PUSH0 KECCAK256 SWAP1 JUMPDEST DUP2 SLOAD DUP2 MSTORE SWAP1 PUSH1 0x1 ADD SWAP1 PUSH1 0x20 ADD DUP1 DUP4 GT PUSH2 0x84E JUMPI DUP3 SWAP1 SUB PUSH1 0x1F AND DUP3 ADD SWAP2 JUMPDEST POP POP POP POP POP SWAP1 POP SWAP1 JUMP JUMPDEST PUSH0 PUSH2 0x87F DUP3 PUSH2 0x1F62 JUMP JUMPDEST POP PUSH2 0x889 DUP3 PUSH2 0x1FE8 JUMP JUMPDEST SWAP1 POP SWAP2 SWAP1 POP JUMP JUMPDEST PUSH2 0x8A2 DUP3 DUP3 PUSH2 0x89D PUSH2 0x2021 JUMP JUMPDEST PUSH2 0x2028 JUMP JUMPDEST POP POP JUMP JUMPDEST PUSH1 0xC PUSH1 0x20 MSTORE DUP2 PUSH0 MSTORE PUSH1 0x40 PUSH0 KECCAK256 PUSH1 0x20 MSTORE DUP1 PUSH0 MSTORE PUSH1 0x40 PUSH0 KECCAK256 PUSH0 SWAP2 POP SWAP2 POP POP SLOAD DUP2 JUMP JUMPDEST PUSH2 0x8CE PUSH2 0x203A JUMP JUMPDEST PUSH0 PUSH20 0xFFFFFFFFFFFFFFFFFFFFFFFFFFFFFFFFFFFFFFFF AND DUP2 PUSH20 0xFFFFFFFFFFFFFFFFFFFFFFFFFFFFFFFFFFFFFFFF AND SUB PUSH2 0x93C JUMPI PUSH1 0x40 MLOAD PUSH32 0x8C379A000000000000000000000000000000000000000000000000000000000 DUP2 MSTORE PUSH1 0x4 ADD PUSH2 0x933 SWAP1 PUSH2 0x3D4B JUMP JUMPDEST PUSH1 0x40 MLOAD DUP1 SWAP2 SUB SWAP1 REVERT JUMPDEST DUP1 PUSH1 0x9 PUSH0 PUSH2 0x100 EXP DUP2 SLOAD DUP2 PUSH20 0xFFFFFFFFFFFFFFFFFFFFFFFFFFFFFFFFFFFFFFFF MUL NOT AND SWAP1 DUP4 PUSH20 0xFFFFFFFFFFFFFFFFFFFFFFFFFFFFFFFFFFFFFFFF AND MUL OR SWAP1 SSTORE POP POP JUMP JUMPDEST PUSH0 DUP7 EQ ISZERO DUP1 ISZERO PUSH2 0x990 JUMPI POP PUSH1 0x26 DUP7 GT ISZERO JUMPDEST DUP1 ISZERO PUSH2 0x9C8 JUMPI POP PUSH0 PUSH20 0xFFFFFFFFFFFFFFFFFFFFFFFFFFFFFFFFFFFFFFFF AND DUP6 PUSH20 0xFFFFFFFFFFFFFFFFFFFFFFFFFFFFFFFFFFFFFFFF AND EQ ISZERO JUMPDEST DUP1 ISZERO PUSH2 0x9D4 JUMPI POP PUSH0 DUP5 EQ ISZERO JUMPDEST PUSH2 0xA13 JUMPI PUSH1 0x40 MLOAD PUSH32 0x8C379A000000000000000000000000000000000000000000000000000000000 DUP2 MSTORE PUSH1 0x4 ADD PUSH2 0xA0A SWAP1 PUSH2 0x3DB3 JUMP JUMPDEST PUSH1 0x40 MLOAD DUP1 SWAP2 SUB SWAP1 REVERT JUMPDEST PUSH0 PUSH1 0xB PUSH0 DUP9 DUP2 MSTORE PUSH1 0x20 ADD SWAP1 DUP2 MSTORE PUSH1 0x20 ADD PUSH0 KECCAK256 PUSH1 0x40 MLOAD DUP1 PUSH1 0xA0 ADD PUSH1 0x40 MSTORE SWAP1 DUP2 PUSH0 DUP3 ADD SLOAD DUP2 MSTORE PUSH1 0x20 ADD PUSH1 0x1 DUP3 ADD PUSH0 SWAP1 SLOAD SWAP1 PUSH2 0x100 EXP SWAP1 DIV PUSH4 0xFFFFFFFF AND PUSH4 0xFFFFFFFF AND PUSH4 0xFFFFFFFF AND DUP2 MSTORE PUSH1 0x20 ADD PUSH1 0x2 DUP3 ADD SLOAD DUP2 MSTORE PUSH1 0x20 ADD PUSH1 0x3 DUP3 ADD PUSH0 SWAP1 SLOAD SWAP1 PUSH2 0x100 EXP SWAP1 DIV PUSH8 0xFFFFFFFFFFFFFFFF AND PUSH8 0xFFFFFFFFFFFFFFFF AND PUSH8 0xFFFFFFFFFFFFFFFF AND DUP2 MSTORE PUSH1 0x20 ADD PUSH1 0x3 DUP3 ADD PUSH1 0x8 SWAP1 SLOAD SWAP1 PUSH2 0x100 EXP SWAP1 DIV PUSH8 0xFFFFFFFFFFFFFFFF AND PUSH8 0xFFFFFFFFFFFFFFFF AND PUSH8 0xFFFFFFFFFFFFFFFF AND DUP2 MSTORE POP POP SWAP1 POP PUSH0 PUSH2 0xAD6 PUSH2 0x2021 JUMP JUMPDEST SWAP1 POP TIMESTAMP DUP3 PUSH1 0x60 ADD MLOAD PUSH8 0xFFFFFFFFFFFFFFFF AND GT ISZERO DUP1 ISZERO PUSH2 0xB04 JUMPI POP DUP2 PUSH1 0x80 ADD MLOAD PUSH8 0xFFFFFFFFFFFFFFFF AND TIMESTAMP GT ISZERO JUMPDEST PUSH2 0xB43 JUMPI PUSH1 0x40 MLOAD PUSH32 0x8C379A000000000000000000000000000000000000000000000000000000000 DUP2 MSTORE PUSH1 0x4 ADD PUSH2 0xB3A SWAP1 PUSH2 0x3E1B JUMP JUMPDEST PUSH1 0x40 MLOAD DUP1 SWAP2 SUB SWAP1 REVERT JUMPDEST DUP5 DUP7 PUSH1 0xC PUSH0 DUP12 DUP2 MSTORE PUSH1 0x20 ADD SWAP1 DUP2 MSTORE PUSH1 0x20 ADD PUSH0 KECCAK256 PUSH0 DUP5 PUSH20 0xFFFFFFFFFFFFFFFFFFFFFFFFFFFFFFFFFFFFFFFF AND PUSH20 0xFFFFFFFFFFFFFFFFFFFFFFFFFFFFFFFFFFFFFFFF AND DUP2 MSTORE PUSH1 0x20 ADD SWAP1 DUP2 MSTORE PUSH1 0x20 ADD PUSH0 KECCAK256 SLOAD PUSH2 0xB9C SWAP2 SWAP1 PUSH2 0x3E66 JUMP JUMPDEST GT ISZERO DUP1 ISZERO PUSH2 0xBC3 JUMPI POP DUP2 PUSH1 0x20 ADD MLOAD PUSH4 0xFFFFFFFF AND DUP7 DUP4 PUSH1 0x40 ADD MLOAD PUSH2 0xBC0 SWAP2 SWAP1 PUSH2 0x3E66 JUMP JUMPDEST GT ISZERO JUMPDEST PUSH2 0xC02 JUMPI PUSH1 0x40 MLOAD PUSH32 0x8C379A000000000000000000000000000000000000000000000000000000000 DUP2 MSTORE PUSH1 0x4 ADD PUSH2 0xBF9 SWAP1 PUSH2 0x3EE3 JUMP JUMPDEST PUSH1 0x40 MLOAD DUP1 SWAP2 SUB SWAP1 REVERT JUMPDEST PUSH2 0xC0F DUP9 DUP9 DUP8 DUP8 DUP8 PUSH2 0x1C6C JUMP JUMPDEST PUSH2 0xC4E JUMPI PUSH1 0x40 MLOAD PUSH32 0x8C379A000000000000000000000000000000000000000000000000000000000 DUP2 MSTORE PUSH1 0x4 ADD PUSH2 0xC45 SWAP1 PUSH2 0x3F4B JUMP JUMPDEST PUSH1 0x40 MLOAD DUP1 SWAP2 SUB SWAP1 REVERT JUMPDEST DUP6 PUSH1 0xC PUSH0 DUP11 DUP2 MSTORE PUSH1 0x20 ADD SWAP1 DUP2 MSTORE PUSH1 0x20 ADD PUSH0 KECCAK256 PUSH0 DUP4 PUSH20 0xFFFFFFFFFFFFFFFFFFFFFFFFFFFFFFFFFFFFFFFF AND PUSH20 0xFFFFFFFFFFFFFFFFFFFFFFFFFFFFFFFFFFFFFFFF AND DUP2 MSTORE PUSH1 0x20 ADD SWAP1 DUP2 MSTORE PUSH1 0x20 ADD PUSH0 KECCAK256 PUSH0 DUP3 DUP3 SLOAD PUSH2 0xCA9 SWAP2 SWAP1 PUSH2 0x3E66 JUMP JUMPDEST SWAP3 POP POP DUP2 SWAP1 SSTORE POP DUP1 PUSH20 0xFFFFFFFFFFFFFFFFFFFFFFFFFFFFFFFFFFFFFFFF AND PUSH32 0x4AABA2A3F908FF02A87E92FAFA39545080802C3F1DD7507B0A428F8022E8F3AB DUP10 PUSH1 0x1 PUSH1 0xC PUSH0 DUP14 DUP2 MSTORE PUSH1 0x20 ADD SWAP1 DUP2 MSTORE PUSH1 0x20 ADD PUSH0 KECCAK256 PUSH0 DUP7 PUSH20 0xFFFFFFFFFFFFFFFFFFFFFFFFFFFFFFFFFFFFFFFF AND PUSH20 0xFFFFFFFFFFFFFFFFFFFFFFFFFFFFFFFFFFFFFFFF AND DUP2 MSTORE PUSH1 0x20 ADD SWAP1 DUP2 MSTORE PUSH1 0x20 ADD PUSH0 KECCAK256 SLOAD PUSH1 0x1 PUSH1 0x40 MLOAD PUSH2 0xD4A SWAP5 SWAP4 SWAP3 SWAP2 SWAP1 PUSH2 0x3F69 JUMP JUMPDEST PUSH1 0x40 MLOAD DUP1 SWAP2 SUB SWAP1 LOG2 DUP6 PUSH1 0xB PUSH0 DUP11 DUP2 MSTORE PUSH1 0x20 ADD SWAP1 DUP2 MSTORE PUSH1 0x20 ADD PUSH0 KECCAK256 PUSH1 0x2 ADD PUSH0 DUP3 DUP3 SLOAD PUSH2 0xD75 SWAP2 SWAP1 PUSH2 0x3E66 JUMP JUMPDEST SWAP3 POP POP DUP2 SWAP1 SSTORE POP DUP1 PUSH20 0xFFFFFFFFFFFFFFFFFFFFFFFFFFFFFFFFFFFFFFFF AND PUSH32 0x4AABA2A3F908FF02A87E92FAFA39545080802C3F1DD7507B0A428F8022E8F3AB DUP10 PUSH1 0x1 PUSH1 0xB PUSH0 DUP14 DUP2 MSTORE PUSH1 0x20 ADD SWAP1 DUP2 MSTORE PUSH1 0x20 ADD PUSH0 KECCAK256 PUSH1 0x2 ADD SLOAD PUSH0 PUSH1 0x40 MLOAD PUSH2 0xDDD SWAP5 SWAP4 SWAP3 SWAP2 SWAP1 PUSH2 0x3F69 JUMP JUMPDEST PUSH1 0x40 MLOAD DUP1 SWAP2 SUB SWAP1 LOG2 PUSH0 PUSH1 0x1 SWAP1 POP JUMPDEST DUP7 DUP2 GT PUSH2 0xE96 JUMPI PUSH1 0x8 PUSH0 DUP2 SLOAD DUP1 SWAP3 SWAP2 SWAP1 PUSH2 0xE04 SWAP1 PUSH2 0x3FAC JUMP JUMPDEST SWAP2 SWAP1 POP SSTORE POP PUSH2 0xE15 DUP9 PUSH1 0x8 SLOAD PUSH2 0x20C1 JUMP JUMPDEST DUP8 PUSH20 0xFFFFFFFFFFFFFFFFFFFFFFFFFFFFFFFFFFFFFFFF AND DUP3 PUSH20 0xFFFFFFFFFFFFFFFFFFFFFFFFFFFFFFFFFFFFFFFF AND PUSH32 0xBB9AD13C0DE1A777020713212854C8C286C0C260F459A4F53AA84A65E3BC0DB2 DUP12 PUSH1 0x8 SLOAD PUSH0 PUSH1 0x1 PUSH1 0x40 MLOAD PUSH2 0xE7B SWAP5 SWAP4 SWAP3 SWAP2 SWAP1 PUSH2 0x404F JUMP JUMPDEST PUSH1 0x40 MLOAD DUP1 SWAP2 SUB SWAP1 LOG3 DUP1 DUP1 PUSH2 0xE8E SWAP1 PUSH2 0x3FAC JUMP JUMPDEST SWAP2 POP POP PUSH2 0xDEB JUMP JUMPDEST POP POP POP POP POP POP POP POP POP JUMP JUMPDEST PUSH0 PUSH20 0xFFFFFFFFFFFFFFFFFFFFFFFFFFFFFFFFFFFFFFFF AND DUP3 PUSH20 0xFFFFFFFFFFFFFFFFFFFFFFFFFFFFFFFFFFFFFFFF AND SUB PUSH2 0xF11 JUMPI PUSH0 PUSH1 0x40 MLOAD PUSH32 0x64A0AE9200000000000000000000000000000000000000000000000000000000 DUP2 MSTORE PUSH1 0x4 ADD PUSH2 0xF08 SWAP2 SWAP1 PUSH2 0x33F2 JUMP JUMPDEST PUSH1 0x40 MLOAD DUP1 SWAP2 SUB SWAP1 REVERT JUMPDEST PUSH0 PUSH2 0xF24 DUP4 DUP4 PUSH2 0xF1F PUSH2 0x2021 JUMP JUMPDEST PUSH2 0x20DE JUMP JUMPDEST SWAP1 POP DUP4 PUSH20 0xFFFFFFFFFFFFFFFFFFFFFFFFFFFFFFFFFFFFFFFF AND DUP2 PUSH20 0xFFFFFFFFFFFFFFFFFFFFFFFFFFFFFFFFFFFFFFFF AND EQ PUSH2 0xF9A JUMPI DUP4 DUP3 DUP3 PUSH1 0x40 MLOAD PUSH32 0x64283D7B00000000000000000000000000000000000000000000000000000000 DUP2 MSTORE PUSH1 0x4 ADD PUSH2 0xF91 SWAP4 SWAP3 SWAP2 SWAP1 PUSH2 0x40A5 JUMP JUMPDEST PUSH1 0x40 MLOAD DUP1 SWAP2 SUB SWAP1 REVERT JUMPDEST POP POP POP POP JUMP JUMPDEST PUSH1 0xE PUSH0 PUSH2 0xFAB PUSH2 0x2021 JUMP JUMPDEST PUSH20 0xFFFFFFFFFFFFFFFFFFFFFFFFFFFFFFFFFFFFFFFF AND PUSH20 0xFFFFFFFFFFFFFFFFFFFFFFFFFFFFFFFFFFFFFFFF AND DUP2 MSTORE PUSH1 0x20 ADD SWAP1 DUP2 MSTORE PUSH1 0x20 ADD PUSH0 KECCAK256 PUSH0 SWAP1 SLOAD SWAP1 PUSH2 0x100 EXP SWAP1 DIV PUSH1 0xFF AND PUSH2 0x1030 JUMPI PUSH1 0x40 MLOAD PUSH32 0x8C379A000000000000000000000000000000000000000000000000000000000 DUP2 MSTORE PUSH1 0x4 ADD PUSH2 0x1027 SWAP1 PUSH2 0x4124 JUMP JUMPDEST PUSH1 0x40 MLOAD DUP1 SWAP2 SUB SWAP1 REVERT JUMPDEST DUP1 PUSH1 0xA PUSH0 DUP5 DUP2 MSTORE PUSH1 0x20 ADD SWAP1 DUP2 MSTORE PUSH1 0x20 ADD PUSH0 KECCAK256 DUP2 DUP2 PUSH2 0x104E SWAP2 SWAP1 PUSH2 0x44AE JUMP JUMPDEST SWAP1 POP POP POP POP JUMP JUMPDEST PUSH1 0x7 PUSH0 SWAP1 SLOAD SWAP1 PUSH2 0x100 EXP SWAP1 DIV PUSH20 0xFFFFFFFFFFFFFFFFFFFFFFFFFFFFFFFFFFFFFFFF AND DUP2 JUMP JUMPDEST PUSH1 0xD PUSH1 0x20 MSTORE DUP2 PUSH0 MSTORE PUSH1 0x40 PUSH0 KECCAK256 PUSH1 0x20 MSTORE DUP1 PUSH0 MSTORE PUSH1 0x40 PUSH0 KECCAK256 PUSH0 SWAP2 POP SWAP2 POP POP SLOAD DUP2 JUMP JUMPDEST PUSH1 0x9 PUSH0 SWAP1 SLOAD SWAP1 PUSH2 0x100 EXP SWAP1 DIV PUSH20 0xFFFFFFFFFFFFFFFFFFFFFFFFFFFFFFFFFFFFFFFF AND DUP2 JUMP JUMPDEST PUSH2 0x10D9 DUP4 DUP4 DUP4 PUSH1 0x40 MLOAD DUP1 PUSH1 0x20 ADD PUSH1 0x40 MSTORE DUP1 PUSH0 DUP2 MSTORE POP PUSH2 0x1C4F JUMP JUMPDEST POP POP POP JUMP JUMPDEST PUSH1 0xF PUSH0 SWAP1 SLOAD SWAP1 PUSH2 0x100 EXP SWAP1 DIV PUSH1 0xFF AND DUP2 JUMP JUMPDEST PUSH2 0x10F8 PUSH2 0x203A JUMP JUMPDEST DUP2 DUP2 PUSH1 0x10 SWAP2 DUP3 PUSH2 0x1109 SWAP3 SWAP2 SWAP1 PUSH2 0x4630 JUMP JUMPDEST POP POP POP JUMP JUMPDEST PUSH1 0xE PUSH1 0x20 MSTORE DUP1 PUSH0 MSTORE PUSH1 0x40 PUSH0 KECCAK256 PUSH0 SWAP2 POP SLOAD SWAP1 PUSH2 0x100 EXP SWAP1 DIV PUSH1 0xFF AND DUP2 JUMP JUMPDEST PUSH0 PUSH2 0x1135 DUP3 PUSH2 0x1F62 JUMP JUMPDEST SWAP1 POP SWAP2 SWAP1 POP JUMP JUMPDEST PUSH2 0x1144 PUSH2 0x203A JUMP JUMPDEST PUSH0 PUSH20 0xFFFFFFFFFFFFFFFFFFFFFFFFFFFFFFFFFFFFFFFF AND DUP2 PUSH20 0xFFFFFFFFFFFFFFFFFFFFFFFFFFFFFFFFFFFFFFFF AND SUB PUSH2 0x11B2 JUMPI PUSH1 0x40 MLOAD PUSH32 0x8C379A000000000000000000000000000000000000000000000000000000000 DUP2 MSTORE PUSH1 0x4 ADD PUSH2 0x11A9 SWAP1 PUSH2 0x3D4B JUMP JUMPDEST PUSH1 0x40 MLOAD DUP1 SWAP2 SUB SWAP1 REVERT JUMPDEST DUP1 PUSH1 0x7 PUSH0 PUSH2 0x100 EXP DUP2 SLOAD DUP2 PUSH20 0xFFFFFFFFFFFFFFFFFFFFFFFFFFFFFFFFFFFFFFFF MUL NOT AND SWAP1 DUP4 PUSH20 0xFFFFFFFFFFFFFFFFFFFFFFFFFFFFFFFFFFFFFFFF AND MUL OR SWAP1 SSTORE POP POP JUMP JUMPDEST PUSH1 0x10 DUP1 SLOAD PUSH2 0x1202 SWAP1 PUSH2 0x3CD1 JUMP JUMPDEST DUP1 PUSH1 0x1F ADD PUSH1 0x20 DUP1 SWAP2 DIV MUL PUSH1 0x20 ADD PUSH1 0x40 MLOAD SWAP1 DUP2 ADD PUSH1 0x40 MSTORE DUP1 SWAP3 SWAP2 SWAP1 DUP2 DUP2 MSTORE PUSH1 0x20 ADD DUP3 DUP1 SLOAD PUSH2 0x122E SWAP1 PUSH2 0x3CD1 JUMP JUMPDEST DUP1 ISZERO PUSH2 0x1279 JUMPI DUP1 PUSH1 0x1F LT PUSH2 0x1250 JUMPI PUSH2 0x100 DUP1 DUP4 SLOAD DIV MUL DUP4 MSTORE SWAP2 PUSH1 0x20 ADD SWAP2 PUSH2 0x1279 JUMP JUMPDEST DUP3 ADD SWAP2 SWAP1 PUSH0 MSTORE PUSH1 0x20 PUSH0 KECCAK256 SWAP1 JUMPDEST DUP2 SLOAD DUP2 MSTORE SWAP1 PUSH1 0x1 ADD SWAP1 PUSH1 0x20 ADD DUP1 DUP4 GT PUSH2 0x125C JUMPI DUP3 SWAP1 SUB PUSH1 0x1F AND DUP3 ADD SWAP2 JUMPDEST POP POP POP POP POP DUP2 JUMP JUMPDEST PUSH0 DUP1 PUSH20 0xFFFFFFFFFFFFFFFFFFFFFFFFFFFFFFFFFFFFFFFF AND DUP3 PUSH20 0xFFFFFFFFFFFFFFFFFFFFFFFFFFFFFFFFFFFFFFFF AND SUB PUSH2 0x12F2 JUMPI PUSH0 PUSH1 0x40 MLOAD PUSH32 0x89C62B6400000000000000000000000000000000000000000000000000000000 DUP2 MSTORE PUSH1 0x4 ADD PUSH2 0x12E9 SWAP2 SWAP1 PUSH2 0x33F2 JUMP JUMPDEST PUSH1 0x40 MLOAD DUP1 SWAP2 SUB SWAP1 REVERT JUMPDEST PUSH1 0x3 PUSH0 DUP4 PUSH20 0xFFFFFFFFFFFFFFFFFFFFFFFFFFFFFFFFFFFFFFFF AND PUSH20 0xFFFFFFFFFFFFFFFFFFFFFFFFFFFFFFFFFFFFFFFF AND DUP2 MSTORE PUSH1 0x20 ADD SWAP1 DUP2 MSTORE PUSH1 0x20 ADD PUSH0 KECCAK256 SLOAD SWAP1 POP SWAP2 SWAP1 POP JUMP JUMPDEST PUSH2 0x133F PUSH2 0x203A JUMP JUMPDEST PUSH2 0x1348 PUSH0 PUSH2 0x217C JUMP JUMPDEST JUMP JUMPDEST PUSH2 0x1352 PUSH2 0x203A JUMP JUMPDEST DUP1 PUSH1 0xE PUSH0 DUP5 PUSH20 0xFFFFFFFFFFFFFFFFFFFFFFFFFFFFFFFFFFFFFFFF AND PUSH20 0xFFFFFFFFFFFFFFFFFFFFFFFFFFFFFFFFFFFFFFFF AND DUP2 MSTORE PUSH1 0x20 ADD SWAP1 DUP2 MSTORE PUSH1 0x20 ADD PUSH0 KECCAK256 PUSH0 PUSH2 0x100 EXP DUP2 SLOAD DUP2 PUSH1 0xFF MUL NOT AND SWAP1 DUP4 ISZERO ISZERO MUL OR SWAP1 SSTORE POP PUSH32 0x193DE8D500B5CB7B720089B258A39E9C1D0B840019A73AE7C51C3F9101732B02 DUP3 DUP3 PUSH1 0x40 MLOAD PUSH2 0x13D7 SWAP3 SWAP2 SWAP1 PUSH2 0x46FD JUMP JUMPDEST PUSH1 0x40 MLOAD DUP1 SWAP2 SUB SWAP1 LOG1 POP POP JUMP JUMPDEST PUSH0 PUSH1 0x6 PUSH0 SWAP1 SLOAD SWAP1 PUSH2 0x100 EXP SWAP1 DIV PUSH20 0xFFFFFFFFFFFFFFFFFFFFFFFFFFFFFFFFFFFFFFFF AND SWAP1 POP SWAP1 JUMP JUMPDEST PUSH1 0xE PUSH0 PUSH2 0x1416 PUSH2 0x2021 JUMP JUMPDEST PUSH20 0xFFFFFFFFFFFFFFFFFFFFFFFFFFFFFFFFFFFFFFFF AND PUSH20 0xFFFFFFFFFFFFFFFFFFFFFFFFFFFFFFFFFFFFFFFF AND DUP2 MSTORE PUSH1 0x20 ADD SWAP1 DUP2 MSTORE PUSH1 0x20 ADD PUSH0 KECCAK256 PUSH0 SWAP1 SLOAD SWAP1 PUSH2 0x100 EXP SWAP1 DIV PUSH1 0xFF AND PUSH2 0x149B JUMPI PUSH1 0x40 MLOAD PUSH32 0x8C379A000000000000000000000000000000000000000000000000000000000 DUP2 MSTORE PUSH1 0x4 ADD PUSH2 0x1492 SWAP1 PUSH2 0x4124 JUMP JUMPDEST PUSH1 0x40 MLOAD DUP1 SWAP2 SUB SWAP1 REVERT JUMPDEST DUP1 PUSH1 0xB PUSH0 DUP5 DUP2 MSTORE PUSH1 0x20 ADD SWAP1 DUP2 MSTORE PUSH1 0x20 ADD PUSH0 KECCAK256 DUP2 DUP2 PUSH2 0x14B9 SWAP2 SWAP1 PUSH2 0x4846 JUMP JUMPDEST SWAP1 POP POP POP POP JUMP JUMPDEST PUSH1 0x60 PUSH1 0x1 DUP1 SLOAD PUSH2 0x14CF SWAP1 PUSH2 0x3CD1 JUMP JUMPDEST DUP1 PUSH1 0x1F ADD PUSH1 0x20 DUP1 SWAP2 DIV MUL PUSH1 0x20 ADD PUSH1 0x40 MLOAD SWAP1 DUP2 ADD PUSH1 0x40 MSTORE DUP1 SWAP3 SWAP2 SWAP1 DUP2 DUP2 MSTORE PUSH1 0x20 ADD DUP3 DUP1 SLOAD PUSH2 0x14FB SWAP1 PUSH2 0x3CD1 JUMP JUMPDEST DUP1 ISZERO PUSH2 0x1546 JUMPI DUP1 PUSH1 0x1F LT PUSH2 0x151D JUMPI PUSH2 0x100 DUP1 DUP4 SLOAD DIV MUL DUP4 MSTORE SWAP2 PUSH1 0x20 ADD SWAP2 PUSH2 0x1546 JUMP JUMPDEST DUP3 ADD SWAP2 SWAP1 PUSH0 MSTORE PUSH1 0x20 PUSH0 KECCAK256 SWAP1 JUMPDEST DUP2 SLOAD DUP2 MSTORE SWAP1 PUSH1 0x1 ADD SWAP1 PUSH1 0x20 ADD DUP1 DUP4 GT PUSH2 0x1529 JUMPI DUP3 SWAP1 SUB PUSH1 0x1F AND DUP3 ADD SWAP2 JUMPDEST POP POP POP POP POP SWAP1 POP SWAP1 JUMP JUMPDEST PUSH1 0xE PUSH0 PUSH2 0x155B PUSH2 0x2021 JUMP JUMPDEST PUSH20 0xFFFFFFFFFFFFFFFFFFFFFFFFFFFFFFFFFFFFFFFF AND PUSH20 0xFFFFFFFFFFFFFFFFFFFFFFFFFFFFFFFFFFFFFFFF AND DUP2 MSTORE PUSH1 0x20 ADD SWAP1 DUP2 MSTORE PUSH1 0x20 ADD PUSH0 KECCAK256 PUSH0 SWAP1 SLOAD SWAP1 PUSH2 0x100 EXP SWAP1 DIV PUSH1 0xFF AND PUSH2 0x15E0 JUMPI PUSH1 0x40 MLOAD PUSH32 0x8C379A000000000000000000000000000000000000000000000000000000000 DUP2 MSTORE PUSH1 0x4 ADD PUSH2 0x15D7 SWAP1 PUSH2 0x4124 JUMP JUMPDEST PUSH1 0x40 MLOAD DUP1 SWAP2 SUB SWAP1 REVERT JUMPDEST DUP1 PUSH1 0xF PUSH0 PUSH2 0x100 EXP DUP2 SLOAD DUP2 PUSH1 0xFF MUL NOT AND SWAP1 DUP4 ISZERO ISZERO MUL OR SWAP1 SSTORE POP POP JUMP JUMPDEST PUSH2 0x160E PUSH2 0x1607 PUSH2 0x2021 JUMP JUMPDEST DUP4 DUP4 PUSH2 0x223F JUMP JUMPDEST POP POP JUMP JUMPDEST PUSH1 0xB PUSH1 0x20 MSTORE DUP1 PUSH0 MSTORE PUSH1 0x40 PUSH0 KECCAK256 PUSH0 SWAP2 POP SWAP1 POP DUP1 PUSH0 ADD SLOAD SWAP1 DUP1 PUSH1 0x1 ADD PUSH0 SWAP1 SLOAD SWAP1 PUSH2 0x100 EXP SWAP1 DIV PUSH4 0xFFFFFFFF AND SWAP1 DUP1 PUSH1 0x2 ADD SLOAD SWAP1 DUP1 PUSH1 0x3 ADD PUSH0 SWAP1 SLOAD SWAP1 PUSH2 0x100 EXP SWAP1 DIV PUSH8 0xFFFFFFFFFFFFFFFF AND SWAP1 DUP1 PUSH1 0x3 ADD PUSH1 0x8 SWAP1 SLOAD SWAP1 PUSH2 0x100 EXP SWAP1 DIV PUSH8 0xFFFFFFFFFFFFFFFF AND SWAP1 POP DUP6 JUMP JUMPDEST PUSH1 0x26 DUP2 JUMP JUMPDEST PUSH0 DUP6 EQ ISZERO DUP1 ISZERO PUSH2 0x1690 JUMPI POP PUSH1 0x26 DUP6 GT ISZERO JUMPDEST DUP1 ISZERO PUSH2 0x169C JUMPI POP PUSH0 DUP4 EQ ISZERO JUMPDEST DUP1 ISZERO PUSH2 0x16D4 JUMPI POP PUSH0 PUSH20 0xFFFFFFFFFFFFFFFFFFFFFFFFFFFFFFFFFFFFFFFF AND DUP5 PUSH20 0xFFFFFFFFFFFFFFFFFFFFFFFFFFFFFFFFFFFFFFFF AND EQ ISZERO JUMPDEST PUSH2 0x1713 JUMPI PUSH1 0x40 MLOAD PUSH32 0x8C379A000000000000000000000000000000000000000000000000000000000 DUP2 MSTORE PUSH1 0x4 ADD PUSH2 0x170A SWAP1 PUSH2 0x3DB3 JUMP JUMPDEST PUSH1 0x40 MLOAD DUP1 SWAP2 SUB SWAP1 REVERT JUMPDEST PUSH0 PUSH1 0xA PUSH0 DUP8 DUP2 MSTORE PUSH1 0x20 ADD SWAP1 DUP2 MSTORE PUSH1 0x20 ADD PUSH0 KECCAK256 PUSH1 0x40 MLOAD DUP1 PUSH1 0xC0 ADD PUSH1 0x40 MSTORE SWAP1 DUP2 PUSH0 DUP3 ADD SLOAD DUP2 MSTORE PUSH1 0x20 ADD PUSH1 0x1 DUP3 ADD PUSH0 SWAP1 SLOAD SWAP1 PUSH2 0x100 EXP SWAP1 DIV PUSH4 0xFFFFFFFF AND PUSH4 0xFFFFFFFF AND PUSH4 0xFFFFFFFF AND DUP2 MSTORE PUSH1 0x20 ADD PUSH1 0x1 DUP3 ADD PUSH1 0x4 SWAP1 SLOAD SWAP1 PUSH2 0x100 EXP SWAP1 DIV PUSH4 0xFFFFFFFF AND PUSH4 0xFFFFFFFF AND PUSH4 0xFFFFFFFF AND DUP2 MSTORE PUSH1 0x20 ADD PUSH1 0x2 DUP3 ADD SLOAD DUP2 MSTORE PUSH1 0x20 ADD PUSH1 0x3 DUP3 ADD PUSH0 SWAP1 SLOAD SWAP1 PUSH2 0x100 EXP SWAP1 DIV PUSH8 0xFFFFFFFFFFFFFFFF AND PUSH8 0xFFFFFFFFFFFFFFFF AND PUSH8 0xFFFFFFFFFFFFFFFF AND DUP2 MSTORE PUSH1 0x20 ADD PUSH1 0x3 DUP3 ADD PUSH1 0x8 SWAP1 SLOAD SWAP1 PUSH2 0x100 EXP SWAP1 DIV PUSH8 0xFFFFFFFFFFFFFFFF AND PUSH8 0xFFFFFFFFFFFFFFFF AND PUSH8 0xFFFFFFFFFFFFFFFF AND DUP2 MSTORE POP POP SWAP1 POP PUSH0 PUSH2 0x17FC PUSH2 0x2021 JUMP JUMPDEST SWAP1 POP TIMESTAMP DUP3 PUSH1 0x80 ADD MLOAD PUSH8 0xFFFFFFFFFFFFFFFF AND GT ISZERO DUP1 ISZERO PUSH2 0x182A JUMPI POP DUP2 PUSH1 0xA0 ADD MLOAD PUSH8 0xFFFFFFFFFFFFFFFF AND TIMESTAMP GT ISZERO JUMPDEST PUSH2 0x1869 JUMPI PUSH1 0x40 MLOAD PUSH32 0x8C379A000000000000000000000000000000000000000000000000000000000 DUP2 MSTORE PUSH1 0x4 ADD PUSH2 0x1860 SWAP1 PUSH2 0x3E1B JUMP JUMPDEST PUSH1 0x40 MLOAD DUP1 SWAP2 SUB SWAP1 REVERT JUMPDEST PUSH0 DUP3 PUSH0 ADD MLOAD SUB PUSH2 0x18AE JUMPI PUSH1 0x40 MLOAD PUSH32 0x8C379A000000000000000000000000000000000000000000000000000000000 DUP2 MSTORE PUSH1 0x4 ADD PUSH2 0x18A5 SWAP1 PUSH2 0x489E JUMP JUMPDEST PUSH1 0x40 MLOAD DUP1 SWAP2 SUB SWAP1 REVERT JUMPDEST DUP2 PUSH1 0x40 ADD MLOAD PUSH4 0xFFFFFFFF AND DUP6 PUSH1 0xD PUSH0 DUP11 DUP2 MSTORE PUSH1 0x20 ADD SWAP1 DUP2 MSTORE PUSH1 0x20 ADD PUSH0 KECCAK256 PUSH0 DUP5 PUSH20 0xFFFFFFFFFFFFFFFFFFFFFFFFFFFFFFFFFFFFFFFF AND PUSH20 0xFFFFFFFFFFFFFFFFFFFFFFFFFFFFFFFFFFFFFFFF AND DUP2 MSTORE PUSH1 0x20 ADD SWAP1 DUP2 MSTORE PUSH1 0x20 ADD PUSH0 KECCAK256 SLOAD PUSH2 0x1911 SWAP2 SWAP1 PUSH2 0x3E66 JUMP JUMPDEST GT ISZERO DUP1 ISZERO PUSH2 0x1938 JUMPI POP DUP2 PUSH1 0x20 ADD MLOAD PUSH4 0xFFFFFFFF AND DUP6 DUP4 PUSH1 0x60 ADD MLOAD PUSH2 0x1935 SWAP2 SWAP1 PUSH2 0x3E66 JUMP JUMPDEST GT ISZERO JUMPDEST PUSH2 0x1977 JUMPI PUSH1 0x40 MLOAD PUSH32 0x8C379A000000000000000000000000000000000000000000000000000000000 DUP2 MSTORE PUSH1 0x4 ADD PUSH2 0x196E SWAP1 PUSH2 0x3EE3 JUMP JUMPDEST PUSH1 0x40 MLOAD DUP1 SWAP2 SUB SWAP1 REVERT JUMPDEST DUP5 PUSH1 0xA PUSH0 DUP10 DUP2 MSTORE PUSH1 0x20 ADD SWAP1 DUP2 MSTORE PUSH1 0x20 ADD PUSH0 KECCAK256 PUSH1 0x2 ADD PUSH0 DUP3 DUP3 SLOAD PUSH2 0x199A SWAP2 SWAP1 PUSH2 0x3E66 JUMP JUMPDEST SWAP3 POP POP DUP2 SWAP1 SSTORE POP DUP1 PUSH20 0xFFFFFFFFFFFFFFFFFFFFFFFFFFFFFFFFFFFFFFFF AND PUSH32 0x4AABA2A3F908FF02A87E92FAFA39545080802C3F1DD7507B0A428F8022E8F3AB DUP9 PUSH0 PUSH1 0xA PUSH0 DUP13 DUP2 MSTORE PUSH1 0x20 ADD SWAP1 DUP2 MSTORE PUSH1 0x20 ADD PUSH0 KECCAK256 PUSH1 0x2 ADD SLOAD PUSH0 PUSH1 0x40 MLOAD PUSH2 0x1A01 SWAP5 SWAP4 SWAP3 SWAP2 SWAP1 PUSH2 0x3F69 JUMP JUMPDEST PUSH1 0x40 MLOAD DUP1 SWAP2 SUB SWAP1 LOG2 DUP5 PUSH1 0xD PUSH0 DUP10 DUP2 MSTORE PUSH1 0x20 ADD SWAP1 DUP2 MSTORE PUSH1 0x20 ADD PUSH0 KECCAK256 PUSH0 DUP4 PUSH20 0xFFFFFFFFFFFFFFFFFFFFFFFFFFFFFFFFFFFFFFFF AND PUSH20 0xFFFFFFFFFFFFFFFFFFFFFFFFFFFFFFFFFFFFFFFF AND DUP2 MSTORE PUSH1 0x20 ADD SWAP1 DUP2 MSTORE PUSH1 0x20 ADD PUSH0 KECCAK256 PUSH0 DUP3 DUP3 SLOAD PUSH2 0x1A64 SWAP2 SWAP1 PUSH2 0x3E66 JUMP JUMPDEST SWAP3 POP POP DUP2 SWAP1 SSTORE POP DUP1 PUSH20 0xFFFFFFFFFFFFFFFFFFFFFFFFFFFFFFFFFFFFFFFF AND PUSH32 0x4AABA2A3F908FF02A87E92FAFA39545080802C3F1DD7507B0A428F8022E8F3AB DUP9 PUSH0 PUSH1 0xD PUSH0 DUP13 DUP2 MSTORE PUSH1 0x20 ADD SWAP1 DUP2 MSTORE PUSH1 0x20 ADD PUSH0 KECCAK256 PUSH0 DUP7 PUSH20 0xFFFFFFFFFFFFFFFFFFFFFFFFFFFFFFFFFFFFFFFF AND PUSH20 0xFFFFFFFFFFFFFFFFFFFFFFFFFFFFFFFFFFFFFFFF AND DUP2 MSTORE PUSH1 0x20 ADD SWAP1 DUP2 MSTORE PUSH1 0x20 ADD PUSH0 KECCAK256 SLOAD PUSH1 0x1 PUSH1 0x40 MLOAD PUSH2 0x1B04 SWAP5 SWAP4 SWAP3 SWAP2 SWAP1 PUSH2 0x3F69 JUMP JUMPDEST PUSH1 0x40 MLOAD DUP1 SWAP2 SUB SWAP1 LOG2 PUSH0 DUP6 DUP4 PUSH0 ADD MLOAD PUSH2 0x1B1C SWAP2 SWAP1 PUSH2 0x48BC JUMP JUMPDEST SWAP1 POP PUSH2 0x1B8D DUP3 PUSH1 0x9 PUSH0 SWAP1 SLOAD SWAP1 PUSH2 0x100 EXP SWAP1 DIV PUSH20 0xFFFFFFFFFFFFFFFFFFFFFFFFFFFFFFFFFFFFFFFF AND DUP4 PUSH1 0x7 PUSH0 SWAP1 SLOAD SWAP1 PUSH2 0x100 EXP SWAP1 DIV PUSH20 0xFFFFFFFFFFFFFFFFFFFFFFFFFFFFFFFFFFFFFFFF AND PUSH20 0xFFFFFFFFFFFFFFFFFFFFFFFFFFFFFFFFFFFFFFFF AND PUSH2 0x23A8 SWAP1 SWAP4 SWAP3 SWAP2 SWAP1 PUSH4 0xFFFFFFFF AND JUMP JUMPDEST PUSH0 PUSH1 0x1 SWAP1 POP JUMPDEST DUP7 DUP2 GT PUSH2 0x1C44 JUMPI PUSH1 0x8 PUSH0 DUP2 SLOAD DUP1 SWAP3 SWAP2 SWAP1 PUSH2 0x1BAC SWAP1 PUSH2 0x3FAC JUMP JUMPDEST SWAP2 SWAP1 POP SSTORE POP PUSH2 0x1BBD DUP9 PUSH1 0x8 SLOAD PUSH2 0x20C1 JUMP JUMPDEST DUP8 PUSH20 0xFFFFFFFFFFFFFFFFFFFFFFFFFFFFFFFFFFFFFFFF AND DUP4 PUSH20 0xFFFFFFFFFFFFFFFFFFFFFFFFFFFFFFFFFFFFFFFF AND PUSH32 0xBB9AD13C0DE1A777020713212854C8C286C0C260F459A4F53AA84A65E3BC0DB2 DUP12 PUSH1 0x8 SLOAD DUP9 PUSH0 ADD MLOAD PUSH0 DUP13 DUP13 PUSH1 0x40 MLOAD PUSH2 0x1C29 SWAP7 SWAP6 SWAP5 SWAP4 SWAP3 SWAP2 SWAP1 PUSH2 0x4929 JUMP JUMPDEST PUSH1 0x40 MLOAD DUP1 SWAP2 SUB SWAP1 LOG3 DUP1 DUP1 PUSH2 0x1C3C SWAP1 PUSH2 0x3FAC JUMP JUMPDEST SWAP2 POP POP PUSH2 0x1B93 JUMP JUMPDEST POP POP POP POP POP POP POP POP POP JUMP JUMPDEST PUSH2 0x1C5A DUP5 DUP5 DUP5 PUSH2 0xEA1 JUMP JUMPDEST PUSH2 0x1C66 DUP5 DUP5 DUP5 DUP5 PUSH2 0x242A JUMP JUMPDEST POP POP POP POP JUMP JUMPDEST PUSH0 DUP1 DUP6 DUP6 PUSH1 0x40 MLOAD PUSH1 0x20 ADD PUSH2 0x1C81 SWAP3 SWAP2 SWAP1 PUSH2 0x4983 JUMP JUMPDEST PUSH1 0x40 MLOAD PUSH1 0x20 DUP2 DUP4 SUB SUB DUP2 MSTORE SWAP1 PUSH1 0x40 MSTORE DUP1 MLOAD SWAP1 PUSH1 0x20 ADD KECCAK256 SWAP1 POP PUSH2 0x1CF7 DUP5 DUP5 DUP1 DUP1 PUSH1 0x20 MUL PUSH1 0x20 ADD PUSH1 0x40 MLOAD SWAP1 DUP2 ADD PUSH1 0x40 MSTORE DUP1 SWAP4 SWAP3 SWAP2 SWAP1 DUP2 DUP2 MSTORE PUSH1 0x20 ADD DUP4 DUP4 PUSH1 0x20 MUL DUP1 DUP3 DUP5 CALLDATACOPY PUSH0 DUP2 DUP5 ADD MSTORE PUSH1 0x1F NOT PUSH1 0x1F DUP3 ADD AND SWAP1 POP DUP1 DUP4 ADD SWAP3 POP POP POP POP POP POP POP PUSH1 0xB PUSH0 DUP11 DUP2 MSTORE PUSH1 0x20 ADD SWAP1 DUP2 MSTORE PUSH1 0x20 ADD PUSH0 KECCAK256 PUSH0 ADD SLOAD DUP4 PUSH2 0x25DC JUMP JUMPDEST SWAP2 POP POP SWAP6 SWAP5 POP POP POP POP POP JUMP JUMPDEST PUSH1 0x60 PUSH2 0x1D0E DUP3 PUSH2 0x1F62 JUMP JUMPDEST POP PUSH0 PUSH2 0x1D18 PUSH2 0x25F2 JUMP JUMPDEST SWAP1 POP PUSH0 DUP2 MLOAD GT PUSH2 0x1D36 JUMPI PUSH1 0x40 MLOAD DUP1 PUSH1 0x20 ADD PUSH1 0x40 MSTORE DUP1 PUSH0 DUP2 MSTORE POP PUSH2 0x1D61 JUMP JUMPDEST DUP1 PUSH2 0x1D40 DUP5 PUSH2 0x2682 JUMP JUMPDEST PUSH1 0x40 MLOAD PUSH1 0x20 ADD PUSH2 0x1D51 SWAP3 SWAP2 SWAP1 PUSH2 0x49E4 JUMP JUMPDEST PUSH1 0x40 MLOAD PUSH1 0x20 DUP2 DUP4 SUB SUB DUP2 MSTORE SWAP1 PUSH1 0x40 MSTORE JUMPDEST SWAP2 POP POP SWAP2 SWAP1 POP JUMP JUMPDEST PUSH0 PUSH1 0x5 PUSH0 DUP5 PUSH20 0xFFFFFFFFFFFFFFFFFFFFFFFFFFFFFFFFFFFFFFFF AND PUSH20 0xFFFFFFFFFFFFFFFFFFFFFFFFFFFFFFFFFFFFFFFF AND DUP2 MSTORE PUSH1 0x20 ADD SWAP1 DUP2 MSTORE PUSH1 0x20 ADD PUSH0 KECCAK256 PUSH0 DUP4 PUSH20 0xFFFFFFFFFFFFFFFFFFFFFFFFFFFFFFFFFFFFFFFF AND PUSH20 0xFFFFFFFFFFFFFFFFFFFFFFFFFFFFFFFFFFFFFFFF AND DUP2 MSTORE PUSH1 0x20 ADD SWAP1 DUP2 MSTORE PUSH1 0x20 ADD PUSH0 KECCAK256 PUSH0 SWAP1 SLOAD SWAP1 PUSH2 0x100 EXP SWAP1 DIV PUSH1 0xFF AND SWAP1 POP SWAP3 SWAP2 POP POP JUMP JUMPDEST PUSH1 0xA PUSH1 0x20 MSTORE DUP1 PUSH0 MSTORE PUSH1 0x40 PUSH0 KECCAK256 PUSH0 SWAP2 POP SWAP1 POP DUP1 PUSH0 ADD SLOAD SWAP1 DUP1 PUSH1 0x1 ADD PUSH0 SWAP1 SLOAD SWAP1 PUSH2 0x100 EXP SWAP1 DIV PUSH4 0xFFFFFFFF AND SWAP1 DUP1 PUSH1 0x1 ADD PUSH1 0x4 SWAP1 SLOAD SWAP1 PUSH2 0x100 EXP SWAP1 DIV PUSH4 0xFFFFFFFF AND SWAP1 DUP1 PUSH1 0x2 ADD SLOAD SWAP1 DUP1 PUSH1 0x3 ADD PUSH0 SWAP1 SLOAD SWAP1 PUSH2 0x100 EXP SWAP1 DIV PUSH8 0xFFFFFFFFFFFFFFFF AND SWAP1 DUP1 PUSH1 0x3 ADD PUSH1 0x8 SWAP1 SLOAD SWAP1 PUSH2 0x100 EXP SWAP1 DIV PUSH8 0xFFFFFFFFFFFFFFFF AND SWAP1 POP DUP7 JUMP JUMPDEST PUSH2 0x1E7D PUSH2 0x203A JUMP JUMPDEST PUSH0 PUSH20 0xFFFFFFFFFFFFFFFFFFFFFFFFFFFFFFFFFFFFFFFF AND DUP2 PUSH20 0xFFFFFFFFFFFFFFFFFFFFFFFFFFFFFFFFFFFFFFFF AND SUB PUSH2 0x1EED JUMPI PUSH0 PUSH1 0x40 MLOAD PUSH32 0x1E4FBDF700000000000000000000000000000000000000000000000000000000 DUP2 MSTORE PUSH1 0x4 ADD PUSH2 0x1EE4 SWAP2 SWAP1 PUSH2 0x33F2 JUMP JUMPDEST PUSH1 0x40 MLOAD DUP1 SWAP2 SUB SWAP1 REVERT JUMPDEST PUSH2 0x1EF6 DUP2 PUSH2 0x217C JUMP JUMPDEST POP JUMP JUMPDEST PUSH0 PUSH32 0x1FFC9A700000000000000000000000000000000000000000000000000000000 PUSH28 0xFFFFFFFFFFFFFFFFFFFFFFFFFFFFFFFFFFFFFFFFFFFFFFFFFFFFFFFF NOT AND DUP3 PUSH28 0xFFFFFFFFFFFFFFFFFFFFFFFFFFFFFFFFFFFFFFFFFFFFFFFFFFFFFFFF NOT AND EQ SWAP1 POP SWAP2 SWAP1 POP JUMP JUMPDEST PUSH0 DUP1 PUSH2 0x1F6D DUP4 PUSH2 0x274C JUMP JUMPDEST SWAP1 POP PUSH0 PUSH20 0xFFFFFFFFFFFFFFFFFFFFFFFFFFFFFFFFFFFFFFFF AND DUP2 PUSH20 0xFFFFFFFFFFFFFFFFFFFFFFFFFFFFFFFFFFFFFFFF AND SUB PUSH2 0x1FDF JUMPI DUP3 PUSH1 0x40 MLOAD PUSH32 0x7E27328900000000000000000000000000000000000000000000000000000000 DUP2 MSTORE PUSH1 0x4 ADD PUSH2 0x1FD6 SWAP2 SWAP1 PUSH2 0x34C0 JUMP JUMPDEST PUSH1 0x40 MLOAD DUP1 SWAP2 SUB SWAP1 REVERT JUMPDEST DUP1 SWAP2 POP POP SWAP2 SWAP1 POP JUMP JUMPDEST PUSH0 PUSH1 0x4 PUSH0 DUP4 DUP2 MSTORE PUSH1 0x20 ADD SWAP1 DUP2 MSTORE PUSH1 0x20 ADD PUSH0 KECCAK256 PUSH0 SWAP1 SLOAD SWAP1 PUSH2 0x100 EXP SWAP1 DIV PUSH20 0xFFFFFFFFFFFFFFFFFFFFFFFFFFFFFFFFFFFFFFFF AND SWAP1 POP SWAP2 SWAP1 POP JUMP JUMPDEST PUSH0 CALLER SWAP1 POP SWAP1 JUMP JUMPDEST PUSH2 0x2035 DUP4 DUP4 DUP4 PUSH1 0x1 PUSH2 0x2785 JUMP JUMPDEST POP POP POP JUMP JUMPDEST PUSH2 0x2042 PUSH2 0x2021 JUMP JUMPDEST PUSH20 0xFFFFFFFFFFFFFFFFFFFFFFFFFFFFFFFFFFFFFFFF AND PUSH2 0x2060 PUSH2 0x13E3 JUMP JUMPDEST PUSH20 0xFFFFFFFFFFFFFFFFFFFFFFFFFFFFFFFFFFFFFFFF AND EQ PUSH2 0x20BF JUMPI PUSH2 0x2083 PUSH2 0x2021 JUMP JUMPDEST PUSH1 0x40 MLOAD PUSH32 0x118CDAA700000000000000000000000000000000000000000000000000000000 DUP2 MSTORE PUSH1 0x4 ADD PUSH2 0x20B6 SWAP2 SWAP1 PUSH2 0x33F2 JUMP JUMPDEST PUSH1 0x40 MLOAD DUP1 SWAP2 SUB SWAP1 REVERT JUMPDEST JUMP JUMPDEST PUSH2 0x20DA DUP3 DUP3 PUSH1 0x40 MLOAD DUP1 PUSH1 0x20 ADD PUSH1 0x40 MSTORE DUP1 PUSH0 DUP2 MSTORE POP PUSH2 0x2944 JUMP JUMPDEST POP POP JUMP JUMPDEST PUSH0 DUP1 PUSH2 0x20EB DUP6 DUP6 DUP6 PUSH2 0x295F JUMP JUMPDEST SWAP1 POP PUSH1 0xF PUSH0 SWAP1 SLOAD SWAP1 PUSH2 0x100 EXP SWAP1 DIV PUSH1 0xFF AND DUP1 PUSH2 0x2132 JUMPI POP PUSH0 PUSH20 0xFFFFFFFFFFFFFFFFFFFFFFFFFFFFFFFFFFFFFFFF AND DUP2 PUSH20 0xFFFFFFFFFFFFFFFFFFFFFFFFFFFFFFFFFFFFFFFF AND EQ JUMPDEST PUSH2 0x2171 JUMPI PUSH1 0x40 MLOAD PUSH32 0x8C379A000000000000000000000000000000000000000000000000000000000 DUP2 MSTORE PUSH1 0x4 ADD PUSH2 0x2168 SWAP1 PUSH2 0x4A51 JUMP JUMPDEST PUSH1 0x40 MLOAD DUP1 SWAP2 SUB SWAP1 REVERT JUMPDEST DUP1 SWAP2 POP POP SWAP4 SWAP3 POP POP POP JUMP JUMPDEST PUSH0 PUSH1 0x6 PUSH0 SWAP1 SLOAD SWAP1 PUSH2 0x100 EXP SWAP1 DIV PUSH20 0xFFFFFFFFFFFFFFFFFFFFFFFFFFFFFFFFFFFFFFFF AND SWAP1 POP DUP2 PUSH1 0x6 PUSH0 PUSH2 0x100 EXP DUP2 SLOAD DUP2 PUSH20 0xFFFFFFFFFFFFFFFFFFFFFFFFFFFFFFFFFFFFFFFF MUL NOT AND SWAP1 DUP4 PUSH20 0xFFFFFFFFFFFFFFFFFFFFFFFFFFFFFFFFFFFFFFFF AND MUL OR SWAP1 SSTORE POP DUP2 PUSH20 0xFFFFFFFFFFFFFFFFFFFFFFFFFFFFFFFFFFFFFFFF AND DUP2 PUSH20 0xFFFFFFFFFFFFFFFFFFFFFFFFFFFFFFFFFFFFFFFF AND PUSH32 0x8BE0079C531659141344CD1FD0A4F28419497F9722A3DAAFE3B4186F6B6457E0 PUSH1 0x40 MLOAD PUSH1 0x40 MLOAD DUP1 SWAP2 SUB SWAP1 LOG3 POP POP JUMP JUMPDEST PUSH0 PUSH20 0xFFFFFFFFFFFFFFFFFFFFFFFFFFFFFFFFFFFFFFFF AND DUP3 PUSH20 0xFFFFFFFFFFFFFFFFFFFFFFFFFFFFFFFFFFFFFFFF AND SUB PUSH2 0x22AF JUMPI DUP2 PUSH1 0x40 MLOAD PUSH32 0x5B08BA1800000000000000000000000000000000000000000000000000000000 DUP2 MSTORE PUSH1 0x4 ADD PUSH2 0x22A6 SWAP2 SWAP1 PUSH2 0x33F2 JUMP JUMPDEST PUSH1 0x40 MLOAD DUP1 SWAP2 SUB SWAP1 REVERT JUMPDEST DUP1 PUSH1 0x5 PUSH0 DUP6 PUSH20 0xFFFFFFFFFFFFFFFFFFFFFFFFFFFFFFFFFFFFFFFF AND PUSH20 0xFFFFFFFFFFFFFFFFFFFFFFFFFFFFFFFFFFFFFFFF AND DUP2 MSTORE PUSH1 0x20 ADD SWAP1 DUP2 MSTORE PUSH1 0x20 ADD PUSH0 KECCAK256 PUSH0 DUP5 PUSH20 0xFFFFFFFFFFFFFFFFFFFFFFFFFFFFFFFFFFFFFFFF AND PUSH20 0xFFFFFFFFFFFFFFFFFFFFFFFFFFFFFFFFFFFFFFFF AND DUP2 MSTORE PUSH1 0x20 ADD SWAP1 DUP2 MSTORE PUSH1 0x20 ADD PUSH0 KECCAK256 PUSH0 PUSH2 0x100 EXP DUP2 SLOAD DUP2 PUSH1 0xFF MUL NOT AND SWAP1 DUP4 ISZERO ISZERO MUL OR SWAP1 SSTORE POP DUP2 PUSH20 0xFFFFFFFFFFFFFFFFFFFFFFFFFFFFFFFFFFFFFFFF AND DUP4 PUSH20 0xFFFFFFFFFFFFFFFFFFFFFFFFFFFFFFFFFFFFFFFF AND PUSH32 0x17307EAB39AB6107E8899845AD3D59BD9653F200F220920489CA2B5937696C31 DUP4 PUSH1 0x40 MLOAD PUSH2 0x239B SWAP2 SWAP1 PUSH2 0x32AC JUMP JUMPDEST PUSH1 0x40 MLOAD DUP1 SWAP2 SUB SWAP1 LOG3 POP POP POP JUMP JUMPDEST PUSH2 0x2424 DUP5 DUP6 PUSH20 0xFFFFFFFFFFFFFFFFFFFFFFFFFFFFFFFFFFFFFFFF AND PUSH4 0x23B872DD DUP7 DUP7 DUP7 PUSH1 0x40 MLOAD PUSH1 0x24 ADD PUSH2 0x23DD SWAP4 SWAP3 SWAP2 SWAP1 PUSH2 0x4A6F JUMP JUMPDEST PUSH1 0x40 MLOAD PUSH1 0x20 DUP2 DUP4 SUB SUB DUP2 MSTORE SWAP1 PUSH1 0x40 MSTORE SWAP2 POP PUSH1 0xE0 SHL PUSH1 0x20 DUP3 ADD DUP1 MLOAD PUSH28 0xFFFFFFFFFFFFFFFFFFFFFFFFFFFFFFFFFFFFFFFFFFFFFFFFFFFFFFFF DUP4 DUP2 DUP4 AND OR DUP4 MSTORE POP POP POP POP PUSH2 0x2B6A JUMP JUMPDEST POP POP POP POP JUMP JUMPDEST PUSH0 DUP4 PUSH20 0xFFFFFFFFFFFFFFFFFFFFFFFFFFFFFFFFFFFFFFFF AND EXTCODESIZE GT ISZERO PUSH2 0x25D6 JUMPI DUP3 PUSH20 0xFFFFFFFFFFFFFFFFFFFFFFFFFFFFFFFFFFFFFFFF AND PUSH4 0x150B7A02 PUSH2 0x246D PUSH2 0x2021 JUMP JUMPDEST DUP7 DUP6 DUP6 PUSH1 0x40 MLOAD DUP6 PUSH4 0xFFFFFFFF AND PUSH1 0xE0 SHL DUP2 MSTORE PUSH1 0x4 ADD PUSH2 0x248F SWAP5 SWAP4 SWAP3 SWAP2 SWAP1 PUSH2 0x4AF6 JUMP JUMPDEST PUSH1 0x20 PUSH1 0x40 MLOAD DUP1 DUP4 SUB DUP2 PUSH0 DUP8 GAS CALL SWAP3 POP POP POP DUP1 ISZERO PUSH2 0x24CA JUMPI POP PUSH1 0x40 MLOAD RETURNDATASIZE PUSH1 0x1F NOT PUSH1 0x1F DUP3 ADD AND DUP3 ADD DUP1 PUSH1 0x40 MSTORE POP DUP2 ADD SWAP1 PUSH2 0x24C7 SWAP2 SWAP1 PUSH2 0x4B54 JUMP JUMPDEST PUSH1 0x1 JUMPDEST PUSH2 0x254B JUMPI RETURNDATASIZE DUP1 PUSH0 DUP2 EQ PUSH2 0x24F8 JUMPI PUSH1 0x40 MLOAD SWAP2 POP PUSH1 0x1F NOT PUSH1 0x3F RETURNDATASIZE ADD AND DUP3 ADD PUSH1 0x40 MSTORE RETURNDATASIZE DUP3 MSTORE RETURNDATASIZE PUSH0 PUSH1 0x20 DUP5 ADD RETURNDATACOPY PUSH2 0x24FD JUMP JUMPDEST PUSH1 0x60 SWAP2 POP JUMPDEST POP PUSH0 DUP2 MLOAD SUB PUSH2 0x2543 JUMPI DUP4 PUSH1 0x40 MLOAD PUSH32 0x64A0AE9200000000000000000000000000000000000000000000000000000000 DUP2 MSTORE PUSH1 0x4 ADD PUSH2 0x253A SWAP2 SWAP1 PUSH2 0x33F2 JUMP JUMPDEST PUSH1 0x40 MLOAD DUP1 SWAP2 SUB SWAP1 REVERT JUMPDEST DUP1 MLOAD DUP2 PUSH1 0x20 ADD REVERT JUMPDEST PUSH4 0x150B7A02 PUSH1 0xE0 SHL PUSH28 0xFFFFFFFFFFFFFFFFFFFFFFFFFFFFFFFFFFFFFFFFFFFFFFFFFFFFFFFF NOT AND DUP2 PUSH28 0xFFFFFFFFFFFFFFFFFFFFFFFFFFFFFFFFFFFFFFFFFFFFFFFFFFFFFFFF NOT AND EQ PUSH2 0x25D4 JUMPI DUP4 PUSH1 0x40 MLOAD PUSH32 0x64A0AE9200000000000000000000000000000000000000000000000000000000 DUP2 MSTORE PUSH1 0x4 ADD PUSH2 0x25CB SWAP2 SWAP1 PUSH2 0x33F2 JUMP JUMPDEST PUSH1 0x40 MLOAD DUP1 SWAP2 SUB SWAP1 REVERT JUMPDEST POP JUMPDEST POP POP POP POP JUMP JUMPDEST PUSH0 DUP3 PUSH2 0x25E8 DUP6 DUP5 PUSH2 0x2BFF JUMP JUMPDEST EQ SWAP1 POP SWAP4 SWAP3 POP POP POP JUMP JUMPDEST PUSH1 0x60 PUSH1 0x10 DUP1 SLOAD PUSH2 0x2601 SWAP1 PUSH2 0x3CD1 JUMP JUMPDEST DUP1 PUSH1 0x1F ADD PUSH1 0x20 DUP1 SWAP2 DIV MUL PUSH1 0x20 ADD PUSH1 0x40 MLOAD SWAP1 DUP2 ADD PUSH1 0x40 MSTORE DUP1 SWAP3 SWAP2 SWAP1 DUP2 DUP2 MSTORE PUSH1 0x20 ADD DUP3 DUP1 SLOAD PUSH2 0x262D SWAP1 PUSH2 0x3CD1 JUMP JUMPDEST DUP1 ISZERO PUSH2 0x2678 JUMPI DUP1 PUSH1 0x1F LT PUSH2 0x264F JUMPI PUSH2 0x100 DUP1 DUP4 SLOAD DIV MUL DUP4 MSTORE SWAP2 PUSH1 0x20 ADD SWAP2 PUSH2 0x2678 JUMP JUMPDEST DUP3 ADD SWAP2 SWAP1 PUSH0 MSTORE PUSH1 0x20 PUSH0 KECCAK256 SWAP1 JUMPDEST DUP2 SLOAD DUP2 MSTORE SWAP1 PUSH1 0x1 ADD SWAP1 PUSH1 0x20 ADD DUP1 DUP4 GT PUSH2 0x265B JUMPI DUP3 SWAP1 SUB PUSH1 0x1F AND DUP3 ADD SWAP2 JUMPDEST POP POP POP POP POP SWAP1 POP SWAP1 JUMP JUMPDEST PUSH1 0x60 PUSH0 PUSH1 0x1 PUSH2 0x2690 DUP5 PUSH2 0x2C4D JUMP JUMPDEST ADD SWAP1 POP PUSH0 DUP2 PUSH8 0xFFFFFFFFFFFFFFFF DUP2 GT ISZERO PUSH2 0x26AE JUMPI PUSH2 0x26AD PUSH2 0x39DF JUMP JUMPDEST JUMPDEST PUSH1 0x40 MLOAD SWAP1 DUP1 DUP3 MSTORE DUP1 PUSH1 0x1F ADD PUSH1 0x1F NOT AND PUSH1 0x20 ADD DUP3 ADD PUSH1 0x40 MSTORE DUP1 ISZERO PUSH2 0x26E0 JUMPI DUP2 PUSH1 0x20 ADD PUSH1 0x1 DUP3 MUL DUP1 CALLDATASIZE DUP4 CALLDATACOPY DUP1 DUP3 ADD SWAP2 POP POP SWAP1 POP JUMPDEST POP SWAP1 POP PUSH0 DUP3 PUSH1 0x20 ADD DUP3 ADD SWAP1 POP JUMPDEST PUSH1 0x1 ISZERO PUSH2 0x2741 JUMPI DUP1 DUP1 PUSH1 0x1 SWAP1 SUB SWAP2 POP POP PUSH32 0x3031323334353637383961626364656600000000000000000000000000000000 PUSH1 0xA DUP7 MOD BYTE DUP2 MSTORE8 PUSH1 0xA DUP6 DUP2 PUSH2 0x2736 JUMPI PUSH2 0x2735 PUSH2 0x4B7F JUMP JUMPDEST JUMPDEST DIV SWAP5 POP PUSH0 DUP6 SUB PUSH2 0x26ED JUMPI JUMPDEST DUP2 SWAP4 POP POP POP POP SWAP2 SWAP1 POP JUMP JUMPDEST PUSH0 PUSH1 0x2 PUSH0 DUP4 DUP2 MSTORE PUSH1 0x20 ADD SWAP1 DUP2 MSTORE PUSH1 0x20 ADD PUSH0 KECCAK256 PUSH0 SWAP1 SLOAD SWAP1 PUSH2 0x100 EXP SWAP1 DIV PUSH20 0xFFFFFFFFFFFFFFFFFFFFFFFFFFFFFFFFFFFFFFFF AND SWAP1 POP SWAP2 SWAP1 POP JUMP JUMPDEST DUP1 DUP1 PUSH2 0x27BD JUMPI POP PUSH0 PUSH20 0xFFFFFFFFFFFFFFFFFFFFFFFFFFFFFFFFFFFFFFFF AND DUP3 PUSH20 0xFFFFFFFFFFFFFFFFFFFFFFFFFFFFFFFFFFFFFFFF AND EQ ISZERO JUMPDEST ISZERO PUSH2 0x28EF JUMPI PUSH0 PUSH2 0x27CC DUP5 PUSH2 0x1F62 JUMP JUMPDEST SWAP1 POP PUSH0 PUSH20 0xFFFFFFFFFFFFFFFFFFFFFFFFFFFFFFFFFFFFFFFF AND DUP4 PUSH20 0xFFFFFFFFFFFFFFFFFFFFFFFFFFFFFFFFFFFFFFFF AND EQ ISZERO DUP1 ISZERO PUSH2 0x2836 JUMPI POP DUP3 PUSH20 0xFFFFFFFFFFFFFFFFFFFFFFFFFFFFFFFFFFFFFFFF AND DUP2 PUSH20 0xFFFFFFFFFFFFFFFFFFFFFFFFFFFFFFFFFFFFFFFF AND EQ ISZERO JUMPDEST DUP1 ISZERO PUSH2 0x2849 JUMPI POP PUSH2 0x2847 DUP2 DUP5 PUSH2 0x1D69 JUMP JUMPDEST ISZERO JUMPDEST ISZERO PUSH2 0x288B JUMPI DUP3 PUSH1 0x40 MLOAD PUSH32 0xA9FBF51F00000000000000000000000000000000000000000000000000000000 DUP2 MSTORE PUSH1 0x4 ADD PUSH2 0x2882 SWAP2 SWAP1 PUSH2 0x33F2 JUMP JUMPDEST PUSH1 0x40 MLOAD DUP1 SWAP2 SUB SWAP1 REVERT JUMPDEST DUP2 ISZERO PUSH2 0x28ED JUMPI DUP4 DUP6 PUSH20 0xFFFFFFFFFFFFFFFFFFFFFFFFFFFFFFFFFFFFFFFF AND DUP3 PUSH20 0xFFFFFFFFFFFFFFFFFFFFFFFFFFFFFFFFFFFFFFFF AND PUSH32 0x8C5BE1E5EBEC7D5BD14F71427D1E84F3DD0314C0F7B2291E5B200AC8C7C3B925 PUSH1 0x40 MLOAD PUSH1 0x40 MLOAD DUP1 SWAP2 SUB SWAP1 LOG4 JUMPDEST POP JUMPDEST DUP4 PUSH1 0x4 PUSH0 DUP6 DUP2 MSTORE PUSH1 0x20 ADD SWAP1 DUP2 MSTORE PUSH1 0x20 ADD PUSH0 KECCAK256 PUSH0 PUSH2 0x100 EXP DUP2 SLOAD DUP2 PUSH20 0xFFFFFFFFFFFFFFFFFFFFFFFFFFFFFFFFFFFFFFFF MUL NOT AND SWAP1 DUP4 PUSH20 0xFFFFFFFFFFFFFFFFFFFFFFFFFFFFFFFFFFFFFFFF AND MUL OR SWAP1 SSTORE POP POP POP POP POP JUMP JUMPDEST PUSH2 0x294E DUP4 DUP4 PUSH2 0x2D9E JUMP JUMPDEST PUSH2 0x295A PUSH0 DUP5 DUP5 DUP5 PUSH2 0x242A JUMP JUMPDEST POP POP POP JUMP JUMPDEST PUSH0 DUP1 PUSH2 0x296A DUP5 PUSH2 0x274C JUMP JUMPDEST SWAP1 POP PUSH0 PUSH20 0xFFFFFFFFFFFFFFFFFFFFFFFFFFFFFFFFFFFFFFFF AND DUP4 PUSH20 0xFFFFFFFFFFFFFFFFFFFFFFFFFFFFFFFFFFFFFFFF AND EQ PUSH2 0x29AB JUMPI PUSH2 0x29AA DUP2 DUP5 DUP7 PUSH2 0x2E91 JUMP JUMPDEST JUMPDEST PUSH0 PUSH20 0xFFFFFFFFFFFFFFFFFFFFFFFFFFFFFFFFFFFFFFFF AND DUP2 PUSH20 0xFFFFFFFFFFFFFFFFFFFFFFFFFFFFFFFFFFFFFFFF AND EQ PUSH2 0x2A36 JUMPI PUSH2 0x29EA PUSH0 DUP6 PUSH0 DUP1 PUSH2 0x2785 JUMP JUMPDEST PUSH1 0x1 PUSH1 0x3 PUSH0 DUP4 PUSH20 0xFFFFFFFFFFFFFFFFFFFFFFFFFFFFFFFFFFFFFFFF AND PUSH20 0xFFFFFFFFFFFFFFFFFFFFFFFFFFFFFFFFFFFFFFFF AND DUP2 MSTORE PUSH1 0x20 ADD SWAP1 DUP2 MSTORE PUSH1 0x20 ADD PUSH0 KECCAK256 PUSH0 DUP3 DUP3 SLOAD SUB SWAP3 POP POP DUP2 SWAP1 SSTORE POP JUMPDEST PUSH0 PUSH20 0xFFFFFFFFFFFFFFFFFFFFFFFFFFFFFFFFFFFFFFFF AND DUP6 PUSH20 0xFFFFFFFFFFFFFFFFFFFFFFFFFFFFFFFFFFFFFFFF AND EQ PUSH2 0x2AB5 JUMPI PUSH1 0x1 PUSH1 0x3 PUSH0 DUP8 PUSH20 0xFFFFFFFFFFFFFFFFFFFFFFFFFFFFFFFFFFFFFFFF AND PUSH20 0xFFFFFFFFFFFFFFFFFFFFFFFFFFFFFFFFFFFFFFFF AND DUP2 MSTORE PUSH1 0x20 ADD SWAP1 DUP2 MSTORE PUSH1 0x20 ADD PUSH0 KECCAK256 PUSH0 DUP3 DUP3 SLOAD ADD SWAP3 POP POP DUP2 SWAP1 SSTORE POP JUMPDEST DUP5 PUSH1 0x2 PUSH0 DUP7 DUP2 MSTORE PUSH1 0x20 ADD SWAP1 DUP2 MSTORE PUSH1 0x20 ADD PUSH0 KECCAK256 PUSH0 PUSH2 0x100 EXP DUP2 SLOAD DUP2 PUSH20 0xFFFFFFFFFFFFFFFFFFFFFFFFFFFFFFFFFFFFFFFF MUL NOT AND SWAP1 DUP4 PUSH20 0xFFFFFFFFFFFFFFFFFFFFFFFFFFFFFFFFFFFFFFFF AND MUL OR SWAP1 SSTORE POP DUP4 DUP6 PUSH20 0xFFFFFFFFFFFFFFFFFFFFFFFFFFFFFFFFFFFFFFFF AND DUP3 PUSH20 0xFFFFFFFFFFFFFFFFFFFFFFFFFFFFFFFFFFFFFFFF AND PUSH32 0xDDF252AD1BE2C89B69C2B068FC378DAA952BA7F163C4A11628F55A4DF523B3EF PUSH1 0x40 MLOAD PUSH1 0x40 MLOAD DUP1 SWAP2 SUB SWAP1 LOG4 DUP1 SWAP2 POP POP SWAP4 SWAP3 POP POP POP JUMP JUMPDEST PUSH0 PUSH2 0x2B94 DUP3 DUP5 PUSH20 0xFFFFFFFFFFFFFFFFFFFFFFFFFFFFFFFFFFFFFFFF AND PUSH2 0x2F54 SWAP1 SWAP2 SWAP1 PUSH4 0xFFFFFFFF AND JUMP JUMPDEST SWAP1 POP PUSH0 DUP2 MLOAD EQ ISZERO DUP1 ISZERO PUSH2 0x2BB8 JUMPI POP DUP1 DUP1 PUSH1 0x20 ADD SWAP1 MLOAD DUP2 ADD SWAP1 PUSH2 0x2BB6 SWAP2 SWAP1 PUSH2 0x4BC0 JUMP JUMPDEST ISZERO JUMPDEST ISZERO PUSH2 0x2BFA JUMPI DUP3 PUSH1 0x40 MLOAD PUSH32 0x5274AFE700000000000000000000000000000000000000000000000000000000 DUP2 MSTORE PUSH1 0x4 ADD PUSH2 0x2BF1 SWAP2 SWAP1 PUSH2 0x33F2 JUMP JUMPDEST PUSH1 0x40 MLOAD DUP1 SWAP2 SUB SWAP1 REVERT JUMPDEST POP POP POP JUMP JUMPDEST PUSH0 DUP1 DUP3 SWAP1 POP PUSH0 JUMPDEST DUP5 MLOAD DUP2 LT ISZERO PUSH2 0x2C42 JUMPI PUSH2 0x2C33 DUP3 DUP7 DUP4 DUP2 MLOAD DUP2 LT PUSH2 0x2C26 JUMPI PUSH2 0x2C25 PUSH2 0x4BEB JUMP JUMPDEST JUMPDEST PUSH1 0x20 MUL PUSH1 0x20 ADD ADD MLOAD PUSH2 0x2F69 JUMP JUMPDEST SWAP2 POP DUP1 DUP1 PUSH1 0x1 ADD SWAP2 POP POP PUSH2 0x2C06 JUMP JUMPDEST POP DUP1 SWAP2 POP POP SWAP3 SWAP2 POP POP JUMP JUMPDEST PUSH0 DUP1 PUSH0 SWAP1 POP PUSH27 0x184F03E93FF9F4DAA797ED6E38ED64BF6A1F010000000000000000 DUP4 LT PUSH2 0x2CA9 JUMPI PUSH27 0x184F03E93FF9F4DAA797ED6E38ED64BF6A1F010000000000000000 DUP4 DUP2 PUSH2 0x2C9F JUMPI PUSH2 0x2C9E PUSH2 0x4B7F JUMP JUMPDEST JUMPDEST DIV SWAP3 POP PUSH1 0x40 DUP2 ADD SWAP1 POP JUMPDEST PUSH14 0x4EE2D6D415B85ACEF8100000000 DUP4 LT PUSH2 0x2CE6 JUMPI PUSH14 0x4EE2D6D415B85ACEF8100000000 DUP4 DUP2 PUSH2 0x2CDC JUMPI PUSH2 0x2CDB PUSH2 0x4B7F JUMP JUMPDEST JUMPDEST DIV SWAP3 POP PUSH1 0x20 DUP2 ADD SWAP1 POP JUMPDEST PUSH7 0x2386F26FC10000 DUP4 LT PUSH2 0x2D15 JUMPI PUSH7 0x2386F26FC10000 DUP4 DUP2 PUSH2 0x2D0B JUMPI PUSH2 0x2D0A PUSH2 0x4B7F JUMP JUMPDEST JUMPDEST DIV SWAP3 POP PUSH1 0x10 DUP2 ADD SWAP1 POP JUMPDEST PUSH4 0x5F5E100 DUP4 LT PUSH2 0x2D3E JUMPI PUSH4 0x5F5E100 DUP4 DUP2 PUSH2 0x2D34 JUMPI PUSH2 0x2D33 PUSH2 0x4B7F JUMP JUMPDEST JUMPDEST DIV SWAP3 POP PUSH1 0x8 DUP2 ADD SWAP1 POP JUMPDEST PUSH2 0x2710 DUP4 LT PUSH2 0x2D63 JUMPI PUSH2 0x2710 DUP4 DUP2 PUSH2 0x2D59 JUMPI PUSH2 0x2D58 PUSH2 0x4B7F JUMP JUMPDEST JUMPDEST DIV SWAP3 POP PUSH1 0x4 DUP2 ADD SWAP1 POP JUMPDEST PUSH1 0x64 DUP4 LT PUSH2 0x2D86 JUMPI PUSH1 0x64 DUP4 DUP2 PUSH2 0x2D7C JUMPI PUSH2 0x2D7B PUSH2 0x4B7F JUMP JUMPDEST JUMPDEST DIV SWAP3 POP PUSH1 0x2 DUP2 ADD SWAP1 POP JUMPDEST PUSH1 0xA DUP4 LT PUSH2 0x2D95 JUMPI PUSH1 0x1 DUP2 ADD SWAP1 POP JUMPDEST DUP1 SWAP2 POP POP SWAP2 SWAP1 POP JUMP JUMPDEST PUSH0 PUSH20 0xFFFFFFFFFFFFFFFFFFFFFFFFFFFFFFFFFFFFFFFF AND DUP3 PUSH20 0xFFFFFFFFFFFFFFFFFFFFFFFFFFFFFFFFFFFFFFFF AND SUB PUSH2 0x2E0E JUMPI PUSH0 PUSH1 0x40 MLOAD PUSH32 0x64A0AE9200000000000000000000000000000000000000000000000000000000 DUP2 MSTORE PUSH1 0x4 ADD PUSH2 0x2E05 SWAP2 SWAP1 PUSH2 0x33F2 JUMP JUMPDEST PUSH1 0x40 MLOAD DUP1 SWAP2 SUB SWAP1 REVERT JUMPDEST PUSH0 PUSH2 0x2E1A DUP4 DUP4 PUSH0 PUSH2 0x20DE JUMP JUMPDEST SWAP1 POP PUSH0 PUSH20 0xFFFFFFFFFFFFFFFFFFFFFFFFFFFFFFFFFFFFFFFF AND DUP2 PUSH20 0xFFFFFFFFFFFFFFFFFFFFFFFFFFFFFFFFFFFFFFFF AND EQ PUSH2 0x2E8C JUMPI PUSH0 PUSH1 0x40 MLOAD PUSH32 0x73C6AC6E00000000000000000000000000000000000000000000000000000000 DUP2 MSTORE PUSH1 0x4 ADD PUSH2 0x2E83 SWAP2 SWAP1 PUSH2 0x33F2 JUMP JUMPDEST PUSH1 0x40 MLOAD DUP1 SWAP2 SUB SWAP1 REVERT JUMPDEST POP POP POP JUMP JUMPDEST PUSH2 0x2E9C DUP4 DUP4 DUP4 PUSH2 0x2F93 JUMP JUMPDEST PUSH2 0x2F4F JUMPI PUSH0 PUSH20 0xFFFFFFFFFFFFFFFFFFFFFFFFFFFFFFFFFFFFFFFF AND DUP4 PUSH20 0xFFFFFFFFFFFFFFFFFFFFFFFFFFFFFFFFFFFFFFFF AND SUB PUSH2 0x2F10 JUMPI DUP1 PUSH1 0x40 MLOAD PUSH32 0x7E27328900000000000000000000000000000000000000000000000000000000 DUP2 MSTORE PUSH1 0x4 ADD PUSH2 0x2F07 SWAP2 SWAP1 PUSH2 0x34C0 JUMP JUMPDEST PUSH1 0x40 MLOAD DUP1 SWAP2 SUB SWAP1 REVERT JUMPDEST DUP2 DUP2 PUSH1 0x40 MLOAD PUSH32 0x177E802F00000000000000000000000000000000000000000000000000000000 DUP2 MSTORE PUSH1 0x4 ADD PUSH2 0x2F46 SWAP3 SWAP2 SWAP1 PUSH2 0x4983 JUMP JUMPDEST PUSH1 0x40 MLOAD DUP1 SWAP2 SUB SWAP1 REVERT JUMPDEST POP POP POP JUMP JUMPDEST PUSH1 0x60 PUSH2 0x2F61 DUP4 DUP4 PUSH0 PUSH2 0x3053 JUMP JUMPDEST SWAP1 POP SWAP3 SWAP2 POP POP JUMP JUMPDEST PUSH0 DUP2 DUP4 LT PUSH2 0x2F80 JUMPI PUSH2 0x2F7B DUP3 DUP5 PUSH2 0x311C JUMP JUMPDEST PUSH2 0x2F8B JUMP JUMPDEST PUSH2 0x2F8A DUP4 DUP4 PUSH2 0x311C JUMP JUMPDEST JUMPDEST SWAP1 POP SWAP3 SWAP2 POP POP JUMP JUMPDEST PUSH0 DUP1 PUSH20 0xFFFFFFFFFFFFFFFFFFFFFFFFFFFFFFFFFFFFFFFF AND DUP4 PUSH20 0xFFFFFFFFFFFFFFFFFFFFFFFFFFFFFFFFFFFFFFFF AND EQ ISZERO DUP1 ISZERO PUSH2 0x304A JUMPI POP DUP3 PUSH20 0xFFFFFFFFFFFFFFFFFFFFFFFFFFFFFFFFFFFFFFFF AND DUP5 PUSH20 0xFFFFFFFFFFFFFFFFFFFFFFFFFFFFFFFFFFFFFFFF AND EQ DUP1 PUSH2 0x300B JUMPI POP PUSH2 0x300A DUP5 DUP5 PUSH2 0x1D69 JUMP JUMPDEST JUMPDEST DUP1 PUSH2 0x3049 JUMPI POP DUP3 PUSH20 0xFFFFFFFFFFFFFFFFFFFFFFFFFFFFFFFFFFFFFFFF AND PUSH2 0x3031 DUP4 PUSH2 0x1FE8 JUMP JUMPDEST PUSH20 0xFFFFFFFFFFFFFFFFFFFFFFFFFFFFFFFFFFFFFFFF AND EQ JUMPDEST JUMPDEST SWAP1 POP SWAP4 SWAP3 POP POP POP JUMP JUMPDEST PUSH1 0x60 DUP2 SELFBALANCE LT ISZERO PUSH2 0x309A JUMPI ADDRESS PUSH1 0x40 MLOAD PUSH32 0xCD78605900000000000000000000000000000000000000000000000000000000 DUP2 MSTORE PUSH1 0x4 ADD PUSH2 0x3091 SWAP2 SWAP1 PUSH2 0x33F2 JUMP JUMPDEST PUSH1 0x40 MLOAD DUP1 SWAP2 SUB SWAP1 REVERT JUMPDEST PUSH0 DUP1 DUP6 PUSH20 0xFFFFFFFFFFFFFFFFFFFFFFFFFFFFFFFFFFFFFFFF AND DUP5 DUP7 PUSH1 0x40 MLOAD PUSH2 0x30C2 SWAP2 SWAP1 PUSH2 0x4C52 JUMP JUMPDEST PUSH0 PUSH1 0x40 MLOAD DUP1 DUP4 SUB DUP2 DUP6 DUP8 GAS CALL SWAP3 POP POP POP RETURNDATASIZE DUP1 PUSH0 DUP2 EQ PUSH2 0x30FC JUMPI PUSH1 0x40 MLOAD SWAP2 POP PUSH1 0x1F NOT PUSH1 0x3F RETURNDATASIZE ADD AND DUP3 ADD PUSH1 0x40 MSTORE RETURNDATASIZE DUP3 MSTORE RETURNDATASIZE PUSH0 PUSH1 0x20 DUP5 ADD RETURNDATACOPY PUSH2 0x3101 JUMP JUMPDEST PUSH1 0x60 SWAP2 POP JUMPDEST POP SWAP2 POP SWAP2 POP PUSH2 0x3111 DUP7 DUP4 DUP4 PUSH2 0x3130 JUMP JUMPDEST SWAP3 POP POP POP SWAP4 SWAP3 POP POP POP JUMP JUMPDEST PUSH0 DUP3 PUSH0 MSTORE DUP2 PUSH1 0x20 MSTORE PUSH1 0x40 PUSH0 KECCAK256 SWAP1 POP SWAP3 SWAP2 POP POP JUMP JUMPDEST PUSH1 0x60 DUP3 PUSH2 0x3145 JUMPI PUSH2 0x3140 DUP3 PUSH2 0x31BD JUMP JUMPDEST PUSH2 0x31B5 JUMP JUMPDEST PUSH0 DUP3 MLOAD EQ DUP1 ISZERO PUSH2 0x316B JUMPI POP PUSH0 DUP5 PUSH20 0xFFFFFFFFFFFFFFFFFFFFFFFFFFFFFFFFFFFFFFFF AND EXTCODESIZE EQ JUMPDEST ISZERO PUSH2 0x31AD JUMPI DUP4 PUSH1 0x40 MLOAD PUSH32 0x9996B31500000000000000000000000000000000000000000000000000000000 DUP2 MSTORE PUSH1 0x4 ADD PUSH2 0x31A4 SWAP2 SWAP1 PUSH2 0x33F2 JUMP JUMPDEST PUSH1 0x40 MLOAD DUP1 SWAP2 SUB SWAP1 REVERT JUMPDEST DUP2 SWAP1 POP PUSH2 0x31B6 JUMP JUMPDEST JUMPDEST SWAP4 SWAP3 POP POP POP JUMP JUMPDEST PUSH0 DUP2 MLOAD GT ISZERO PUSH2 0x31CF JUMPI DUP1 MLOAD DUP1 DUP3 PUSH1 0x20 ADD REVERT JUMPDEST PUSH1 0x40 MLOAD PUSH32 0x1425EA4200000000000000000000000000000000000000000000000000000000 DUP2 MSTORE PUSH1 0x4 ADD PUSH1 0x40 MLOAD DUP1 SWAP2 SUB SWAP1 REVERT JUMPDEST PUSH0 PUSH1 0x40 MLOAD SWAP1 POP SWAP1 JUMP JUMPDEST PUSH0 DUP1 REVERT JUMPDEST PUSH0 DUP1 REVERT JUMPDEST PUSH0 PUSH32 0xFFFFFFFF00000000000000000000000000000000000000000000000000000000 DUP3 AND SWAP1 POP SWAP2 SWAP1 POP JUMP JUMPDEST PUSH2 0x3246 DUP2 PUSH2 0x3212 JUMP JUMPDEST DUP2 EQ PUSH2 0x3250 JUMPI PUSH0 DUP1 REVERT JUMPDEST POP JUMP JUMPDEST PUSH0 DUP2 CALLDATALOAD SWAP1 POP PUSH2 0x3261 DUP2 PUSH2 0x323D JUMP JUMPDEST SWAP3 SWAP2 POP POP JUMP JUMPDEST PUSH0 PUSH1 0x20 DUP3 DUP5 SUB SLT ISZERO PUSH2 0x327C JUMPI PUSH2 0x327B PUSH2 0x320A JUMP JUMPDEST JUMPDEST PUSH0 PUSH2 0x3289 DUP5 DUP3 DUP6 ADD PUSH2 0x3253 JUMP JUMPDEST SWAP2 POP POP SWAP3 SWAP2 POP POP JUMP JUMPDEST PUSH0 DUP2 ISZERO ISZERO SWAP1 POP SWAP2 SWAP1 POP JUMP JUMPDEST PUSH2 0x32A6 DUP2 PUSH2 0x3292 JUMP JUMPDEST DUP3 MSTORE POP POP JUMP JUMPDEST PUSH0 PUSH1 0x20 DUP3 ADD SWAP1 POP PUSH2 0x32BF PUSH0 DUP4 ADD DUP5 PUSH2 0x329D JUMP JUMPDEST SWAP3 SWAP2 POP POP JUMP JUMPDEST PUSH0 DUP2 MLOAD SWAP1 POP SWAP2 SWAP1 POP JUMP JUMPDEST PUSH0 DUP3 DUP3 MSTORE PUSH1 0x20 DUP3 ADD SWAP1 POP SWAP3 SWAP2 POP POP JUMP JUMPDEST DUP3 DUP2 DUP4 MCOPY PUSH0 DUP4 DUP4 ADD MSTORE POP POP POP JUMP JUMPDEST PUSH0 PUSH1 0x1F NOT PUSH1 0x1F DUP4 ADD AND SWAP1 POP SWAP2 SWAP1 POP JUMP JUMPDEST PUSH0 PUSH2 0x3307 DUP3 PUSH2 0x32C5 JUMP JUMPDEST PUSH2 0x3311 DUP2 DUP6 PUSH2 0x32CF JUMP JUMPDEST SWAP4 POP PUSH2 0x3321 DUP2 DUP6 PUSH1 0x20 DUP7 ADD PUSH2 0x32DF JUMP JUMPDEST PUSH2 0x332A DUP2 PUSH2 0x32ED JUMP JUMPDEST DUP5 ADD SWAP2 POP POP SWAP3 SWAP2 POP POP JUMP JUMPDEST PUSH0 PUSH1 0x20 DUP3 ADD SWAP1 POP DUP2 DUP2 SUB PUSH0 DUP4 ADD MSTORE PUSH2 0x334D DUP2 DUP5 PUSH2 0x32FD JUMP JUMPDEST SWAP1 POP SWAP3 SWAP2 POP POP JUMP JUMPDEST PUSH0 DUP2 SWAP1 POP SWAP2 SWAP1 POP JUMP JUMPDEST PUSH2 0x3367 DUP2 PUSH2 0x3355 JUMP JUMPDEST DUP2 EQ PUSH2 0x3371 JUMPI PUSH0 DUP1 REVERT JUMPDEST POP JUMP JUMPDEST PUSH0 DUP2 CALLDATALOAD SWAP1 POP PUSH2 0x3382 DUP2 PUSH2 0x335E JUMP JUMPDEST SWAP3 SWAP2 POP POP JUMP JUMPDEST PUSH0 PUSH1 0x20 DUP3 DUP5 SUB SLT ISZERO PUSH2 0x339D JUMPI PUSH2 0x339C PUSH2 0x320A JUMP JUMPDEST JUMPDEST PUSH0 PUSH2 0x33AA DUP5 DUP3 DUP6 ADD PUSH2 0x3374 JUMP JUMPDEST SWAP2 POP POP SWAP3 SWAP2 POP POP JUMP JUMPDEST PUSH0 PUSH20 0xFFFFFFFFFFFFFFFFFFFFFFFFFFFFFFFFFFFFFFFF DUP3 AND SWAP1 POP SWAP2 SWAP1 POP JUMP JUMPDEST PUSH0 PUSH2 0x33DC DUP3 PUSH2 0x33B3 JUMP JUMPDEST SWAP1 POP SWAP2 SWAP1 POP JUMP JUMPDEST PUSH2 0x33EC DUP2 PUSH2 0x33D2 JUMP JUMPDEST DUP3 MSTORE POP POP JUMP JUMPDEST PUSH0 PUSH1 0x20 DUP3 ADD SWAP1 POP PUSH2 0x3405 PUSH0 DUP4 ADD DUP5 PUSH2 0x33E3 JUMP JUMPDEST SWAP3 SWAP2 POP POP JUMP JUMPDEST PUSH2 0x3414 DUP2 PUSH2 0x33D2 JUMP JUMPDEST DUP2 EQ PUSH2 0x341E JUMPI PUSH0 DUP1 REVERT JUMPDEST POP JUMP JUMPDEST PUSH0 DUP2 CALLDATALOAD SWAP1 POP PUSH2 0x342F DUP2 PUSH2 0x340B JUMP JUMPDEST SWAP3 SWAP2 POP POP JUMP JUMPDEST PUSH0 DUP1 PUSH1 0x40 DUP4 DUP6 SUB SLT ISZERO PUSH2 0x344B JUMPI PUSH2 0x344A PUSH2 0x320A JUMP JUMPDEST JUMPDEST PUSH0 PUSH2 0x3458 DUP6 DUP3 DUP7 ADD PUSH2 0x3421 JUMP JUMPDEST SWAP3 POP POP PUSH1 0x20 PUSH2 0x3469 DUP6 DUP3 DUP7 ADD PUSH2 0x3374 JUMP JUMPDEST SWAP2 POP POP SWAP3 POP SWAP3 SWAP1 POP JUMP JUMPDEST PUSH0 DUP1 PUSH1 0x40 DUP4 DUP6 SUB SLT ISZERO PUSH2 0x3489 JUMPI PUSH2 0x3488 PUSH2 0x320A JUMP JUMPDEST JUMPDEST PUSH0 PUSH2 0x3496 DUP6 DUP3 DUP7 ADD PUSH2 0x3374 JUMP JUMPDEST SWAP3 POP POP PUSH1 0x20 PUSH2 0x34A7 DUP6 DUP3 DUP7 ADD PUSH2 0x3421 JUMP JUMPDEST SWAP2 POP POP SWAP3 POP SWAP3 SWAP1 POP JUMP JUMPDEST PUSH2 0x34BA DUP2 PUSH2 0x3355 JUMP JUMPDEST DUP3 MSTORE POP POP JUMP JUMPDEST PUSH0 PUSH1 0x20 DUP3 ADD SWAP1 POP PUSH2 0x34D3 PUSH0 DUP4 ADD DUP5 PUSH2 0x34B1 JUMP JUMPDEST SWAP3 SWAP2 POP POP JUMP JUMPDEST PUSH0 PUSH1 0x20 DUP3 DUP5 SUB SLT ISZERO PUSH2 0x34EE JUMPI PUSH2 0x34ED PUSH2 0x320A JUMP JUMPDEST JUMPDEST PUSH0 PUSH2 0x34FB DUP5 DUP3 DUP6 ADD PUSH2 0x3421 JUMP JUMPDEST SWAP2 POP POP SWAP3 SWAP2 POP POP JUMP JUMPDEST PUSH0 DUP1 REVERT JUMPDEST PUSH0 DUP1 REVERT JUMPDEST PUSH0 DUP1 REVERT JUMPDEST PUSH0 DUP1 DUP4 PUSH1 0x1F DUP5 ADD SLT PUSH2 0x3525 JUMPI PUSH2 0x3524 PUSH2 0x3504 JUMP JUMPDEST JUMPDEST DUP3 CALLDATALOAD SWAP1 POP PUSH8 0xFFFFFFFFFFFFFFFF DUP2 GT ISZERO PUSH2 0x3542 JUMPI PUSH2 0x3541 PUSH2 0x3508 JUMP JUMPDEST JUMPDEST PUSH1 0x20 DUP4 ADD SWAP2 POP DUP4 PUSH1 0x20 DUP3 MUL DUP4 ADD GT ISZERO PUSH2 0x355E JUMPI PUSH2 0x355D PUSH2 0x350C JUMP JUMPDEST JUMPDEST SWAP3 POP SWAP3 SWAP1 POP JUMP JUMPDEST PUSH0 DUP1 PUSH0 DUP1 PUSH0 DUP1 PUSH1 0xA0 DUP8 DUP10 SUB SLT ISZERO PUSH2 0x357F JUMPI PUSH2 0x357E PUSH2 0x320A JUMP JUMPDEST JUMPDEST PUSH0 PUSH2 0x358C DUP10 DUP3 DUP11 ADD PUSH2 0x3374 JUMP JUMPDEST SWAP7 POP POP PUSH1 0x20 PUSH2 0x359D DUP10 DUP3 DUP11 ADD PUSH2 0x3421 JUMP JUMPDEST SWAP6 POP POP PUSH1 0x40 PUSH2 0x35AE DUP10 DUP3 DUP11 ADD PUSH2 0x3374 JUMP JUMPDEST SWAP5 POP POP PUSH1 0x60 PUSH2 0x35BF DUP10 DUP3 DUP11 ADD PUSH2 0x3374 JUMP JUMPDEST SWAP4 POP POP PUSH1 0x80 DUP8 ADD CALLDATALOAD PUSH8 0xFFFFFFFFFFFFFFFF DUP2 GT ISZERO PUSH2 0x35E0 JUMPI PUSH2 0x35DF PUSH2 0x320E JUMP JUMPDEST JUMPDEST PUSH2 0x35EC DUP10 DUP3 DUP11 ADD PUSH2 0x3510 JUMP JUMPDEST SWAP3 POP SWAP3 POP POP SWAP3 SWAP6 POP SWAP3 SWAP6 POP SWAP3 SWAP6 JUMP JUMPDEST PUSH0 DUP1 PUSH0 PUSH1 0x60 DUP5 DUP7 SUB SLT ISZERO PUSH2 0x3612 JUMPI PUSH2 0x3611 PUSH2 0x320A JUMP JUMPDEST JUMPDEST PUSH0 PUSH2 0x361F DUP7 DUP3 DUP8 ADD PUSH2 0x3421 JUMP JUMPDEST SWAP4 POP POP PUSH1 0x20 PUSH2 0x3630 DUP7 DUP3 DUP8 ADD PUSH2 0x3421 JUMP JUMPDEST SWAP3 POP POP PUSH1 0x40 PUSH2 0x3641 DUP7 DUP3 DUP8 ADD PUSH2 0x3374 JUMP JUMPDEST SWAP2 POP POP SWAP3 POP SWAP3 POP SWAP3 JUMP JUMPDEST PUSH0 DUP1 REVERT JUMPDEST PUSH0 PUSH1 0xC0 DUP3 DUP5 SUB SLT ISZERO PUSH2 0x3664 JUMPI PUSH2 0x3663 PUSH2 0x364B JUMP JUMPDEST JUMPDEST DUP2 SWAP1 POP SWAP3 SWAP2 POP POP JUMP JUMPDEST PUSH0 DUP1 PUSH1 0xE0 DUP4 DUP6 SUB SLT ISZERO PUSH2 0x3683 JUMPI PUSH2 0x3682 PUSH2 0x320A JUMP JUMPDEST JUMPDEST PUSH0 PUSH2 0x3690 DUP6 DUP3 DUP7 ADD PUSH2 0x3374 JUMP JUMPDEST SWAP3 POP POP PUSH1 0x20 PUSH2 0x36A1 DUP6 DUP3 DUP7 ADD PUSH2 0x364F JUMP JUMPDEST SWAP2 POP POP SWAP3 POP SWAP3 SWAP1 POP JUMP JUMPDEST PUSH0 DUP2 SWAP1 POP SWAP2 SWAP1 POP JUMP JUMPDEST PUSH0 PUSH2 0x36CE PUSH2 0x36C9 PUSH2 0x36C4 DUP5 PUSH2 0x33B3 JUMP JUMPDEST PUSH2 0x36AB JUMP JUMPDEST PUSH2 0x33B3 JUMP JUMPDEST SWAP1 POP SWAP2 SWAP1 POP JUMP JUMPDEST PUSH0 PUSH2 0x36DF DUP3 PUSH2 0x36B4 JUMP JUMPDEST SWAP1 POP SWAP2 SWAP1 POP JUMP JUMPDEST PUSH0 PUSH2 0x36F0 DUP3 PUSH2 0x36D5 JUMP JUMPDEST SWAP1 POP SWAP2 SWAP1 POP JUMP JUMPDEST PUSH2 0x3700 DUP2 PUSH2 0x36E6 JUMP JUMPDEST DUP3 MSTORE POP POP JUMP JUMPDEST PUSH0 PUSH1 0x20 DUP3 ADD SWAP1 POP PUSH2 0x3719 PUSH0 DUP4 ADD DUP5 PUSH2 0x36F7 JUMP JUMPDEST SWAP3 SWAP2 POP POP JUMP JUMPDEST PUSH0 DUP1 DUP4 PUSH1 0x1F DUP5 ADD SLT PUSH2 0x3734 JUMPI PUSH2 0x3733 PUSH2 0x3504 JUMP JUMPDEST JUMPDEST DUP3 CALLDATALOAD SWAP1 POP PUSH8 0xFFFFFFFFFFFFFFFF DUP2 GT ISZERO PUSH2 0x3751 JUMPI PUSH2 0x3750 PUSH2 0x3508 JUMP JUMPDEST JUMPDEST PUSH1 0x20 DUP4 ADD SWAP2 POP DUP4 PUSH1 0x1 DUP3 MUL DUP4 ADD GT ISZERO PUSH2 0x376D JUMPI PUSH2 0x376C PUSH2 0x350C JUMP JUMPDEST JUMPDEST SWAP3 POP SWAP3 SWAP1 POP JUMP JUMPDEST PUSH0 DUP1 PUSH1 0x20 DUP4 DUP6 SUB SLT ISZERO PUSH2 0x378A JUMPI PUSH2 0x3789 PUSH2 0x320A JUMP JUMPDEST JUMPDEST PUSH0 DUP4 ADD CALLDATALOAD PUSH8 0xFFFFFFFFFFFFFFFF DUP2 GT ISZERO PUSH2 0x37A7 JUMPI PUSH2 0x37A6 PUSH2 0x320E JUMP JUMPDEST JUMPDEST PUSH2 0x37B3 DUP6 DUP3 DUP7 ADD PUSH2 0x371F JUMP JUMPDEST SWAP3 POP SWAP3 POP POP SWAP3 POP SWAP3 SWAP1 POP JUMP JUMPDEST PUSH2 0x37C8 DUP2 PUSH2 0x3292 JUMP JUMPDEST DUP2 EQ PUSH2 0x37D2 JUMPI PUSH0 DUP1 REVERT JUMPDEST POP JUMP JUMPDEST PUSH0 DUP2 CALLDATALOAD SWAP1 POP PUSH2 0x37E3 DUP2 PUSH2 0x37BF JUMP JUMPDEST SWAP3 SWAP2 POP POP JUMP JUMPDEST PUSH0 DUP1 PUSH1 0x40 DUP4 DUP6 SUB SLT ISZERO PUSH2 0x37FF JUMPI PUSH2 0x37FE PUSH2 0x320A JUMP JUMPDEST JUMPDEST PUSH0 PUSH2 0x380C DUP6 DUP3 DUP7 ADD PUSH2 0x3421 JUMP JUMPDEST SWAP3 POP POP PUSH1 0x20 PUSH2 0x381D DUP6 DUP3 DUP7 ADD PUSH2 0x37D5 JUMP JUMPDEST SWAP2 POP POP SWAP3 POP SWAP3 SWAP1 POP JUMP JUMPDEST PUSH0 PUSH1 0xA0 DUP3 DUP5 SUB SLT ISZERO PUSH2 0x383C JUMPI PUSH2 0x383B PUSH2 0x364B JUMP JUMPDEST JUMPDEST DUP2 SWAP1 POP SWAP3 SWAP2 POP POP JUMP JUMPDEST PUSH0 DUP1 PUSH1 0xC0 DUP4 DUP6 SUB SLT ISZERO PUSH2 0x385B JUMPI PUSH2 0x385A PUSH2 0x320A JUMP JUMPDEST JUMPDEST PUSH0 PUSH2 0x3868 DUP6 DUP3 DUP7 ADD PUSH2 0x3374 JUMP JUMPDEST SWAP3 POP POP PUSH1 0x20 PUSH2 0x3879 DUP6 DUP3 DUP7 ADD PUSH2 0x3827 JUMP JUMPDEST SWAP2 POP POP SWAP3 POP SWAP3 SWAP1 POP JUMP JUMPDEST PUSH0 PUSH1 0x20 DUP3 DUP5 SUB SLT ISZERO PUSH2 0x3898 JUMPI PUSH2 0x3897 PUSH2 0x320A JUMP JUMPDEST JUMPDEST PUSH0 PUSH2 0x38A5 DUP5 DUP3 DUP6 ADD PUSH2 0x37D5 JUMP JUMPDEST SWAP2 POP POP SWAP3 SWAP2 POP POP JUMP JUMPDEST PUSH0 DUP2 SWAP1 POP SWAP2 SWAP1 POP JUMP JUMPDEST PUSH2 0x38C0 DUP2 PUSH2 0x38AE JUMP JUMPDEST DUP3 MSTORE POP POP JUMP JUMPDEST PUSH0 PUSH4 0xFFFFFFFF DUP3 AND SWAP1 POP SWAP2 SWAP1 POP JUMP JUMPDEST PUSH2 0x38DE DUP2 PUSH2 0x38C6 JUMP JUMPDEST DUP3 MSTORE POP POP JUMP JUMPDEST PUSH0 PUSH8 0xFFFFFFFFFFFFFFFF DUP3 AND SWAP1 POP SWAP2 SWAP1 POP JUMP JUMPDEST PUSH2 0x3900 DUP2 PUSH2 0x38E4 JUMP JUMPDEST DUP3 MSTORE POP POP JUMP JUMPDEST PUSH0 PUSH1 0xA0 DUP3 ADD SWAP1 POP PUSH2 0x3919 PUSH0 DUP4 ADD DUP9 PUSH2 0x38B7 JUMP JUMPDEST PUSH2 0x3926 PUSH1 0x20 DUP4 ADD DUP8 PUSH2 0x38D5 JUMP JUMPDEST PUSH2 0x3933 PUSH1 0x40 DUP4 ADD DUP7 PUSH2 0x34B1 JUMP JUMPDEST PUSH2 0x3940 PUSH1 0x60 DUP4 ADD DUP6 PUSH2 0x38F7 JUMP JUMPDEST PUSH2 0x394D PUSH1 0x80 DUP4 ADD DUP5 PUSH2 0x38F7 JUMP JUMPDEST SWAP7 SWAP6 POP POP POP POP POP POP JUMP JUMPDEST PUSH0 DUP1 PUSH0 DUP1 PUSH0 PUSH1 0x80 DUP7 DUP9 SUB SLT ISZERO PUSH2 0x3970 JUMPI PUSH2 0x396F PUSH2 0x320A JUMP JUMPDEST JUMPDEST PUSH0 PUSH2 0x397D DUP9 DUP3 DUP10 ADD PUSH2 0x3374 JUMP JUMPDEST SWAP6 POP POP PUSH1 0x20 PUSH2 0x398E DUP9 DUP3 DUP10 ADD PUSH2 0x3421 JUMP JUMPDEST SWAP5 POP POP PUSH1 0x40 PUSH2 0x399F DUP9 DUP3 DUP10 ADD PUSH2 0x3374 JUMP JUMPDEST SWAP4 POP POP PUSH1 0x60 DUP7 ADD CALLDATALOAD PUSH8 0xFFFFFFFFFFFFFFFF DUP2 GT ISZERO PUSH2 0x39C0 JUMPI PUSH2 0x39BF PUSH2 0x320E JUMP JUMPDEST JUMPDEST PUSH2 0x39CC DUP9 DUP3 DUP10 ADD PUSH2 0x371F JUMP JUMPDEST SWAP3 POP SWAP3 POP POP SWAP3 SWAP6 POP SWAP3 SWAP6 SWAP1 SWAP4 POP JUMP JUMPDEST PUSH0 DUP1 REVERT JUMPDEST PUSH32 0x4E487B7100000000000000000000000000000000000000000000000000000000 PUSH0 MSTORE PUSH1 0x41 PUSH1 0x4 MSTORE PUSH1 0x24 PUSH0 REVERT JUMPDEST PUSH2 0x3A15 DUP3 PUSH2 0x32ED JUMP JUMPDEST DUP2 ADD DUP2 DUP2 LT PUSH8 0xFFFFFFFFFFFFFFFF DUP3 GT OR ISZERO PUSH2 0x3A34 JUMPI PUSH2 0x3A33 PUSH2 0x39DF JUMP JUMPDEST JUMPDEST DUP1 PUSH1 0x40 MSTORE POP POP POP JUMP JUMPDEST PUSH0 PUSH2 0x3A46 PUSH2 0x3201 JUMP JUMPDEST SWAP1 POP PUSH2 0x3A52 DUP3 DUP3 PUSH2 0x3A0C JUMP JUMPDEST SWAP2 SWAP1 POP JUMP JUMPDEST PUSH0 PUSH8 0xFFFFFFFFFFFFFFFF DUP3 GT ISZERO PUSH2 0x3A71 JUMPI PUSH2 0x3A70 PUSH2 0x39DF JUMP JUMPDEST JUMPDEST PUSH2 0x3A7A DUP3 PUSH2 0x32ED JUMP JUMPDEST SWAP1 POP PUSH1 0x20 DUP2 ADD SWAP1 POP SWAP2 SWAP1 POP JUMP JUMPDEST DUP3 DUP2 DUP4 CALLDATACOPY PUSH0 DUP4 DUP4 ADD MSTORE POP POP POP JUMP JUMPDEST PUSH0 PUSH2 0x3AA7 PUSH2 0x3AA2 DUP5 PUSH2 0x3A57 JUMP JUMPDEST PUSH2 0x3A3D JUMP JUMPDEST SWAP1 POP DUP3 DUP2 MSTORE PUSH1 0x20 DUP2 ADD DUP5 DUP5 DUP5 ADD GT ISZERO PUSH2 0x3AC3 JUMPI PUSH2 0x3AC2 PUSH2 0x39DB JUMP JUMPDEST JUMPDEST PUSH2 0x3ACE DUP5 DUP3 DUP6 PUSH2 0x3A87 JUMP JUMPDEST POP SWAP4 SWAP3 POP POP POP JUMP JUMPDEST PUSH0 DUP3 PUSH1 0x1F DUP4 ADD SLT PUSH2 0x3AEA JUMPI PUSH2 0x3AE9 PUSH2 0x3504 JUMP JUMPDEST JUMPDEST DUP2 CALLDATALOAD PUSH2 0x3AFA DUP5 DUP3 PUSH1 0x20 DUP7 ADD PUSH2 0x3A95 JUMP JUMPDEST SWAP2 POP POP SWAP3 SWAP2 POP POP JUMP JUMPDEST PUSH0 DUP1 PUSH0 DUP1 PUSH1 0x80 DUP6 DUP8 SUB SLT ISZERO PUSH2 0x3B1B JUMPI PUSH2 0x3B1A PUSH2 0x320A JUMP JUMPDEST JUMPDEST PUSH0 PUSH2 0x3B28 DUP8 DUP3 DUP9 ADD PUSH2 0x3421 JUMP JUMPDEST SWAP5 POP POP PUSH1 0x20 PUSH2 0x3B39 DUP8 DUP3 DUP9 ADD PUSH2 0x3421 JUMP JUMPDEST SWAP4 POP POP PUSH1 0x40 PUSH2 0x3B4A DUP8 DUP3 DUP9 ADD PUSH2 0x3374 JUMP JUMPDEST SWAP3 POP POP PUSH1 0x60 DUP6 ADD CALLDATALOAD PUSH8 0xFFFFFFFFFFFFFFFF DUP2 GT ISZERO PUSH2 0x3B6B JUMPI PUSH2 0x3B6A PUSH2 0x320E JUMP JUMPDEST JUMPDEST PUSH2 0x3B77 DUP8 DUP3 DUP9 ADD PUSH2 0x3AD6 JUMP JUMPDEST SWAP2 POP POP SWAP3 SWAP6 SWAP2 SWAP5 POP SWAP3 POP JUMP JUMPDEST PUSH0 DUP1 PUSH0 DUP1 PUSH0 PUSH1 0x80 DUP7 DUP9 SUB SLT ISZERO PUSH2 0x3B9C JUMPI PUSH2 0x3B9B PUSH2 0x320A JUMP JUMPDEST JUMPDEST PUSH0 PUSH2 0x3BA9 DUP9 DUP3 DUP10 ADD PUSH2 0x3374 JUMP JUMPDEST SWAP6 POP POP PUSH1 0x20 PUSH2 0x3BBA DUP9 DUP3 DUP10 ADD PUSH2 0x3421 JUMP JUMPDEST SWAP5 POP POP PUSH1 0x40 PUSH2 0x3BCB DUP9 DUP3 DUP10 ADD PUSH2 0x3374 JUMP JUMPDEST SWAP4 POP POP PUSH1 0x60 DUP7 ADD CALLDATALOAD PUSH8 0xFFFFFFFFFFFFFFFF DUP2 GT ISZERO PUSH2 0x3BEC JUMPI PUSH2 0x3BEB PUSH2 0x320E JUMP JUMPDEST JUMPDEST PUSH2 0x3BF8 DUP9 DUP3 DUP10 ADD PUSH2 0x3510 JUMP JUMPDEST SWAP3 POP SWAP3 POP POP SWAP3 SWAP6 POP SWAP3 SWAP6 SWAP1 SWAP4 POP JUMP JUMPDEST PUSH0 DUP1 PUSH1 0x40 DUP4 DUP6 SUB SLT ISZERO PUSH2 0x3C1D JUMPI PUSH2 0x3C1C PUSH2 0x320A JUMP JUMPDEST JUMPDEST PUSH0 PUSH2 0x3C2A DUP6 DUP3 DUP7 ADD PUSH2 0x3421 JUMP JUMPDEST SWAP3 POP POP PUSH1 0x20 PUSH2 0x3C3B DUP6 DUP3 DUP7 ADD PUSH2 0x3421 JUMP JUMPDEST SWAP2 POP POP SWAP3 POP SWAP3 SWAP1 POP JUMP JUMPDEST PUSH0 PUSH1 0xC0 DUP3 ADD SWAP1 POP PUSH2 0x3C58 PUSH0 DUP4 ADD DUP10 PUSH2 0x34B1 JUMP JUMPDEST PUSH2 0x3C65 PUSH1 0x20 DUP4 ADD DUP9 PUSH2 0x38D5 JUMP JUMPDEST PUSH2 0x3C72 PUSH1 0x40 DUP4 ADD DUP8 PUSH2 0x38D5 JUMP JUMPDEST PUSH2 0x3C7F PUSH1 0x60 DUP4 ADD DUP7 PUSH2 0x34B1 JUMP JUMPDEST PUSH2 0x3C8C PUSH1 0x80 DUP4 ADD DUP6 PUSH2 0x38F7 JUMP JUMPDEST PUSH2 0x3C99 PUSH1 0xA0 DUP4 ADD DUP5 PUSH2 0x38F7 JUMP JUMPDEST SWAP8 SWAP7 POP POP POP POP POP POP POP JUMP JUMPDEST PUSH32 0x4E487B7100000000000000000000000000000000000000000000000000000000 PUSH0 MSTORE PUSH1 0x22 PUSH1 0x4 MSTORE PUSH1 0x24 PUSH0 REVERT JUMPDEST PUSH0 PUSH1 0x2 DUP3 DIV SWAP1 POP PUSH1 0x1 DUP3 AND DUP1 PUSH2 0x3CE8 JUMPI PUSH1 0x7F DUP3 AND SWAP2 POP JUMPDEST PUSH1 0x20 DUP3 LT DUP2 SUB PUSH2 0x3CFB JUMPI PUSH2 0x3CFA PUSH2 0x3CA4 JUMP JUMPDEST JUMPDEST POP SWAP2 SWAP1 POP JUMP JUMPDEST PUSH32 0x5365742030783030000000000000000000000000000000000000000000000000 PUSH0 DUP3 ADD MSTORE POP JUMP JUMPDEST PUSH0 PUSH2 0x3D35 PUSH1 0x8 DUP4 PUSH2 0x32CF JUMP JUMPDEST SWAP2 POP PUSH2 0x3D40 DUP3 PUSH2 0x3D01 JUMP JUMPDEST PUSH1 0x20 DUP3 ADD SWAP1 POP SWAP2 SWAP1 POP JUMP JUMPDEST PUSH0 PUSH1 0x20 DUP3 ADD SWAP1 POP DUP2 DUP2 SUB PUSH0 DUP4 ADD MSTORE PUSH2 0x3D62 DUP2 PUSH2 0x3D29 JUMP JUMPDEST SWAP1 POP SWAP2 SWAP1 POP JUMP JUMPDEST PUSH32 0x496E76616C696420706172616D73000000000000000000000000000000000000 PUSH0 DUP3 ADD MSTORE POP JUMP JUMPDEST PUSH0 PUSH2 0x3D9D PUSH1 0xE DUP4 PUSH2 0x32CF JUMP JUMPDEST SWAP2 POP PUSH2 0x3DA8 DUP3 PUSH2 0x3D69 JUMP JUMPDEST PUSH1 0x20 DUP3 ADD SWAP1 POP SWAP2 SWAP1 POP JUMP JUMPDEST PUSH0 PUSH1 0x20 DUP3 ADD SWAP1 POP DUP2 DUP2 SUB PUSH0 DUP4 ADD MSTORE PUSH2 0x3DCA DUP2 PUSH2 0x3D91 JUMP JUMPDEST SWAP1 POP SWAP2 SWAP1 POP JUMP JUMPDEST PUSH32 0x53616C653A204E6F74207965742073746172746564206F7220656E6465640000 PUSH0 DUP3 ADD MSTORE POP JUMP JUMPDEST PUSH0 PUSH2 0x3E05 PUSH1 0x1E DUP4 PUSH2 0x32CF JUMP JUMPDEST SWAP2 POP PUSH2 0x3E10 DUP3 PUSH2 0x3DD1 JUMP JUMPDEST PUSH1 0x20 DUP3 ADD SWAP1 POP SWAP2 SWAP1 POP JUMP JUMPDEST PUSH0 PUSH1 0x20 DUP3 ADD SWAP1 POP DUP2 DUP2 SUB PUSH0 DUP4 ADD MSTORE PUSH2 0x3E32 DUP2 PUSH2 0x3DF9 JUMP JUMPDEST SWAP1 POP SWAP2 SWAP1 POP JUMP JUMPDEST PUSH32 0x4E487B7100000000000000000000000000000000000000000000000000000000 PUSH0 MSTORE PUSH1 0x11 PUSH1 0x4 MSTORE PUSH1 0x24 PUSH0 REVERT JUMPDEST PUSH0 PUSH2 0x3E70 DUP3 PUSH2 0x3355 JUMP JUMPDEST SWAP2 POP PUSH2 0x3E7B DUP4 PUSH2 0x3355 JUMP JUMPDEST SWAP3 POP DUP3 DUP3 ADD SWAP1 POP DUP1 DUP3 GT ISZERO PUSH2 0x3E93 JUMPI PUSH2 0x3E92 PUSH2 0x3E39 JUMP JUMPDEST JUMPDEST SWAP3 SWAP2 POP POP JUMP JUMPDEST PUSH32 0x45786365656420616C6C6F77616E636500000000000000000000000000000000 PUSH0 DUP3 ADD MSTORE POP JUMP JUMPDEST PUSH0 PUSH2 0x3ECD PUSH1 0x10 DUP4 PUSH2 0x32CF JUMP JUMPDEST SWAP2 POP PUSH2 0x3ED8 DUP3 PUSH2 0x3E99 JUMP JUMPDEST PUSH1 0x20 DUP3 ADD SWAP1 POP SWAP2 SWAP1 POP JUMP JUMPDEST PUSH0 PUSH1 0x20 DUP3 ADD SWAP1 POP DUP2 DUP2 SUB PUSH0 DUP4 ADD MSTORE PUSH2 0x3EFA DUP2 PUSH2 0x3EC1 JUMP JUMPDEST SWAP1 POP SWAP2 SWAP1 POP JUMP JUMPDEST PUSH32 0x496E76616C69642070726F6F6600000000000000000000000000000000000000 PUSH0 DUP3 ADD MSTORE POP JUMP JUMPDEST PUSH0 PUSH2 0x3F35 PUSH1 0xD DUP4 PUSH2 0x32CF JUMP JUMPDEST SWAP2 POP PUSH2 0x3F40 DUP3 PUSH2 0x3F01 JUMP JUMPDEST PUSH1 0x20 DUP3 ADD SWAP1 POP SWAP2 SWAP1 POP JUMP JUMPDEST PUSH0 PUSH1 0x20 DUP3 ADD SWAP1 POP DUP2 DUP2 SUB PUSH0 DUP4 ADD MSTORE PUSH2 0x3F62 DUP2 PUSH2 0x3F29 JUMP JUMPDEST SWAP1 POP SWAP2 SWAP1 POP JUMP JUMPDEST PUSH0 PUSH1 0x80 DUP3 ADD SWAP1 POP PUSH2 0x3F7C PUSH0 DUP4 ADD DUP8 PUSH2 0x34B1 JUMP JUMPDEST PUSH2 0x3F89 PUSH1 0x20 DUP4 ADD DUP7 PUSH2 0x329D JUMP JUMPDEST PUSH2 0x3F96 PUSH1 0x40 DUP4 ADD DUP6 PUSH2 0x34B1 JUMP JUMPDEST PUSH2 0x3FA3 PUSH1 0x60 DUP4 ADD DUP5 PUSH2 0x329D JUMP JUMPDEST SWAP6 SWAP5 POP POP POP POP POP JUMP JUMPDEST PUSH0 PUSH2 0x3FB6 DUP3 PUSH2 0x3355 JUMP JUMPDEST SWAP2 POP PUSH32 0xFFFFFFFFFFFFFFFFFFFFFFFFFFFFFFFFFFFFFFFFFFFFFFFFFFFFFFFFFFFFFFFF DUP3 SUB PUSH2 0x3FE8 JUMPI PUSH2 0x3FE7 PUSH2 0x3E39 JUMP JUMPDEST JUMPDEST PUSH1 0x1 DUP3 ADD SWAP1 POP SWAP2 SWAP1 POP JUMP JUMPDEST PUSH0 DUP2 SWAP1 POP SWAP2 SWAP1 POP JUMP JUMPDEST PUSH0 PUSH2 0x4016 PUSH2 0x4011 PUSH2 0x400C DUP5 PUSH2 0x3FF3 JUMP JUMPDEST PUSH2 0x36AB JUMP JUMPDEST PUSH2 0x3355 JUMP JUMPDEST SWAP1 POP SWAP2 SWAP1 POP JUMP JUMPDEST PUSH2 0x4026 DUP2 PUSH2 0x3FFC JUMP JUMPDEST DUP3 MSTORE POP POP JUMP JUMPDEST POP JUMP JUMPDEST PUSH0 PUSH2 0x403A PUSH0 DUP4 PUSH2 0x32CF JUMP JUMPDEST SWAP2 POP PUSH2 0x4045 DUP3 PUSH2 0x402C JUMP JUMPDEST PUSH0 DUP3 ADD SWAP1 POP SWAP2 SWAP1 POP JUMP JUMPDEST PUSH0 PUSH1 0xA0 DUP3 ADD SWAP1 POP PUSH2 0x4062 PUSH0 DUP4 ADD DUP8 PUSH2 0x34B1 JUMP JUMPDEST PUSH2 0x406F PUSH1 0x20 DUP4 ADD DUP7 PUSH2 0x34B1 JUMP JUMPDEST PUSH2 0x407C PUSH1 0x40 DUP4 ADD DUP6 PUSH2 0x401D JUMP JUMPDEST PUSH2 0x4089 PUSH1 0x60 DUP4 ADD DUP5 PUSH2 0x329D JUMP JUMPDEST DUP2 DUP2 SUB PUSH1 0x80 DUP4 ADD MSTORE PUSH2 0x409A DUP2 PUSH2 0x402F JUMP JUMPDEST SWAP1 POP SWAP6 SWAP5 POP POP POP POP POP JUMP JUMPDEST PUSH0 PUSH1 0x60 DUP3 ADD SWAP1 POP PUSH2 0x40B8 PUSH0 DUP4 ADD DUP7 PUSH2 0x33E3 JUMP JUMPDEST PUSH2 0x40C5 PUSH1 0x20 DUP4 ADD DUP6 PUSH2 0x34B1 JUMP JUMPDEST PUSH2 0x40D2 PUSH1 0x40 DUP4 ADD DUP5 PUSH2 0x33E3 JUMP JUMPDEST SWAP5 SWAP4 POP POP POP POP JUMP JUMPDEST PUSH32 0x556E617574686F72697A65640000000000000000000000000000000000000000 PUSH0 DUP3 ADD MSTORE POP JUMP JUMPDEST PUSH0 PUSH2 0x410E PUSH1 0xC DUP4 PUSH2 0x32CF JUMP JUMPDEST SWAP2 POP PUSH2 0x4119 DUP3 PUSH2 0x40DA JUMP JUMPDEST PUSH1 0x20 DUP3 ADD SWAP1 POP SWAP2 SWAP1 POP JUMP JUMPDEST PUSH0 PUSH1 0x20 DUP3 ADD SWAP1 POP DUP2 DUP2 SUB PUSH0 DUP4 ADD MSTORE PUSH2 0x413B DUP2 PUSH2 0x4102 JUMP JUMPDEST SWAP1 POP SWAP2 SWAP1 POP JUMP JUMPDEST PUSH0 DUP2 CALLDATALOAD PUSH2 0x414E DUP2 PUSH2 0x335E JUMP JUMPDEST DUP1 SWAP2 POP POP SWAP2 SWAP1 POP JUMP JUMPDEST PUSH0 DUP2 PUSH0 SHL SWAP1 POP SWAP2 SWAP1 POP JUMP JUMPDEST PUSH0 PUSH32 0xFFFFFFFFFFFFFFFFFFFFFFFFFFFFFFFFFFFFFFFFFFFFFFFFFFFFFFFFFFFFFFFF PUSH2 0x418D DUP5 PUSH2 0x4157 JUMP JUMPDEST SWAP4 POP DUP1 NOT DUP4 AND SWAP3 POP DUP1 DUP5 AND DUP4 OR SWAP2 POP POP SWAP3 SWAP2 POP POP JUMP JUMPDEST PUSH0 PUSH2 0x41BD PUSH2 0x41B8 PUSH2 0x41B3 DUP5 PUSH2 0x3355 JUMP JUMPDEST PUSH2 0x36AB JUMP JUMPDEST PUSH2 0x3355 JUMP JUMPDEST SWAP1 POP SWAP2 SWAP1 POP JUMP JUMPDEST PUSH0 DUP2 SWAP1 POP SWAP2 SWAP1 POP JUMP JUMPDEST PUSH2 0x41D6 DUP3 PUSH2 0x41A3 JUMP JUMPDEST PUSH2 0x41E9 PUSH2 0x41E2 DUP3 PUSH2 0x41C4 JUMP JUMPDEST DUP4 SLOAD PUSH2 0x4162 JUMP JUMPDEST DUP3 SSTORE POP POP POP JUMP JUMPDEST PUSH2 0x41F9 DUP2 PUSH2 0x38C6 JUMP JUMPDEST DUP2 EQ PUSH2 0x4203 JUMPI PUSH0 DUP1 REVERT JUMPDEST POP JUMP JUMPDEST PUSH0 DUP2 CALLDATALOAD PUSH2 0x4212 DUP2 PUSH2 0x41F0 JUMP JUMPDEST DUP1 SWAP2 POP POP SWAP2 SWAP1 POP JUMP JUMPDEST PUSH0 PUSH4 0xFFFFFFFF PUSH2 0x422A DUP5 PUSH2 0x4157 JUMP JUMPDEST SWAP4 POP DUP1 NOT DUP4 AND SWAP3 POP DUP1 DUP5 AND DUP4 OR SWAP2 POP POP SWAP3 SWAP2 POP POP JUMP JUMPDEST PUSH0 PUSH2 0x425A PUSH2 0x4255 PUSH2 0x4250 DUP5 PUSH2 0x38C6 JUMP JUMPDEST PUSH2 0x36AB JUMP JUMPDEST PUSH2 0x38C6 JUMP JUMPDEST SWAP1 POP SWAP2 SWAP1 POP JUMP JUMPDEST PUSH0 DUP2 SWAP1 POP SWAP2 SWAP1 POP JUMP JUMPDEST PUSH2 0x4273 DUP3 PUSH2 0x4240 JUMP JUMPDEST PUSH2 0x4286 PUSH2 0x427F DUP3 PUSH2 0x4261 JUMP JUMPDEST DUP4 SLOAD PUSH2 0x421B JUMP JUMPDEST DUP3 SSTORE POP POP POP JUMP JUMPDEST PUSH0 DUP2 PUSH1 0x20 SHL SWAP1 POP SWAP2 SWAP1 POP JUMP JUMPDEST PUSH0 PUSH8 0xFFFFFFFF00000000 PUSH2 0x42AC DUP5 PUSH2 0x428D JUMP JUMPDEST SWAP4 POP DUP1 NOT DUP4 AND SWAP3 POP DUP1 DUP5 AND DUP4 OR SWAP2 POP POP SWAP3 SWAP2 POP POP JUMP JUMPDEST PUSH2 0x42CB DUP3 PUSH2 0x4240 JUMP JUMPDEST PUSH2 0x42DE PUSH2 0x42D7 DUP3 PUSH2 0x4261 JUMP JUMPDEST DUP4 SLOAD PUSH2 0x4299 JUMP JUMPDEST DUP3 SSTORE POP POP POP JUMP JUMPDEST PUSH2 0x42EE DUP2 PUSH2 0x38E4 JUMP JUMPDEST DUP2 EQ PUSH2 0x42F8 JUMPI PUSH0 DUP1 REVERT JUMPDEST POP JUMP JUMPDEST PUSH0 DUP2 CALLDATALOAD PUSH2 0x4307 DUP2 PUSH2 0x42E5 JUMP JUMPDEST DUP1 SWAP2 POP POP SWAP2 SWAP1 POP JUMP JUMPDEST PUSH0 PUSH8 0xFFFFFFFFFFFFFFFF PUSH2 0x4323 DUP5 PUSH2 0x4157 JUMP JUMPDEST SWAP4 POP DUP1 NOT DUP4 AND SWAP3 POP DUP1 DUP5 AND DUP4 OR SWAP2 POP POP SWAP3 SWAP2 POP POP JUMP JUMPDEST PUSH0 PUSH2 0x4353 PUSH2 0x434E PUSH2 0x4349 DUP5 PUSH2 0x38E4 JUMP JUMPDEST PUSH2 0x36AB JUMP JUMPDEST PUSH2 0x38E4 JUMP JUMPDEST SWAP1 POP SWAP2 SWAP1 POP JUMP JUMPDEST PUSH0 DUP2 SWAP1 POP SWAP2 SWAP1 POP JUMP JUMPDEST PUSH2 0x436C DUP3 PUSH2 0x4339 JUMP JUMPDEST PUSH2 0x437F PUSH2 0x4378 DUP3 PUSH2 0x435A JUMP JUMPDEST DUP4 SLOAD PUSH2 0x4310 JUMP JUMPDEST DUP3 SSTORE POP POP POP JUMP JUMPDEST PUSH0 DUP2 PUSH1 0x40 SHL SWAP1 POP SWAP2 SWAP1 POP JUMP JUMPDEST PUSH0 PUSH16 0xFFFFFFFFFFFFFFFF0000000000000000 PUSH2 0x43AD DUP5 PUSH2 0x4386 JUMP JUMPDEST SWAP4 POP DUP1 NOT DUP4 AND SWAP3 POP DUP1 DUP5 AND DUP4 OR SWAP2 POP POP SWAP3 SWAP2 POP POP JUMP JUMPDEST PUSH2 0x43CC DUP3 PUSH2 0x4339 JUMP JUMPDEST PUSH2 0x43DF PUSH2 0x43D8 DUP3 PUSH2 0x435A JUMP JUMPDEST DUP4 SLOAD PUSH2 0x4392 JUMP JUMPDEST DUP3 SSTORE POP POP POP JUMP JUMPDEST PUSH0 DUP2 ADD PUSH0 DUP4 ADD DUP1 PUSH2 0x43F6 DUP2 PUSH2 0x4142 JUMP JUMPDEST SWAP1 POP PUSH2 0x4402 DUP2 DUP5 PUSH2 0x41CD JUMP JUMPDEST POP POP POP PUSH1 0x1 DUP2 ADD PUSH1 0x20 DUP4 ADD DUP1 PUSH2 0x4417 DUP2 PUSH2 0x4206 JUMP JUMPDEST SWAP1 POP PUSH2 0x4423 DUP2 DUP5 PUSH2 0x426A JUMP JUMPDEST POP POP POP PUSH1 0x1 DUP2 ADD PUSH1 0x40 DUP4 ADD DUP1 PUSH2 0x4438 DUP2 PUSH2 0x4206 JUMP JUMPDEST SWAP1 POP PUSH2 0x4444 DUP2 DUP5 PUSH2 0x42C2 JUMP JUMPDEST POP POP POP PUSH1 0x2 DUP2 ADD PUSH1 0x60 DUP4 ADD DUP1 PUSH2 0x4459 DUP2 PUSH2 0x4142 JUMP JUMPDEST SWAP1 POP PUSH2 0x4465 DUP2 DUP5 PUSH2 0x41CD JUMP JUMPDEST POP POP POP PUSH1 0x3 DUP2 ADD PUSH1 0x80 DUP4 ADD DUP1 PUSH2 0x447A DUP2 PUSH2 0x42FB JUMP JUMPDEST SWAP1 POP PUSH2 0x4486 DUP2 DUP5 PUSH2 0x4363 JUMP JUMPDEST POP POP POP PUSH1 0x3 DUP2 ADD PUSH1 0xA0 DUP4 ADD DUP1 PUSH2 0x449B DUP2 PUSH2 0x42FB JUMP JUMPDEST SWAP1 POP PUSH2 0x44A7 DUP2 DUP5 PUSH2 0x43C3 JUMP JUMPDEST POP POP POP POP POP JUMP JUMPDEST PUSH2 0x44B8 DUP3 DUP3 PUSH2 0x43E6 JUMP JUMPDEST POP POP JUMP JUMPDEST PUSH0 DUP3 SWAP1 POP SWAP3 SWAP2 POP POP JUMP JUMPDEST PUSH0 DUP2 SWAP1 POP DUP2 PUSH0 MSTORE PUSH1 0x20 PUSH0 KECCAK256 SWAP1 POP SWAP2 SWAP1 POP JUMP JUMPDEST PUSH0 PUSH1 0x20 PUSH1 0x1F DUP4 ADD DIV SWAP1 POP SWAP2 SWAP1 POP JUMP JUMPDEST PUSH0 DUP3 DUP3 SHL SWAP1 POP SWAP3 SWAP2 POP POP JUMP JUMPDEST PUSH0 PUSH1 0x8 DUP4 MUL PUSH2 0x4522 PUSH32 0xFFFFFFFFFFFFFFFFFFFFFFFFFFFFFFFFFFFFFFFFFFFFFFFFFFFFFFFFFFFFFFFF DUP3 PUSH2 0x44E7 JUMP JUMPDEST PUSH2 0x452C DUP7 DUP4 PUSH2 0x44E7 JUMP JUMPDEST SWAP6 POP DUP1 NOT DUP5 AND SWAP4 POP DUP1 DUP7 AND DUP5 OR SWAP3 POP POP POP SWAP4 SWAP3 POP POP POP JUMP JUMPDEST PUSH2 0x454D DUP4 PUSH2 0x41A3 JUMP JUMPDEST PUSH2 0x4561 PUSH2 0x4559 DUP3 PUSH2 0x41C4 JUMP JUMPDEST DUP5 DUP5 SLOAD PUSH2 0x44F3 JUMP JUMPDEST DUP3 SSTORE POP POP POP POP JUMP JUMPDEST PUSH0 SWAP1 JUMP JUMPDEST PUSH2 0x4575 PUSH2 0x4569 JUMP JUMPDEST PUSH2 0x4580 DUP2 DUP5 DUP5 PUSH2 0x4544 JUMP JUMPDEST POP POP POP JUMP JUMPDEST JUMPDEST DUP2 DUP2 LT ISZERO PUSH2 0x45A3 JUMPI PUSH2 0x4598 PUSH0 DUP3 PUSH2 0x456D JUMP JUMPDEST PUSH1 0x1 DUP2 ADD SWAP1 POP PUSH2 0x4586 JUMP JUMPDEST POP POP JUMP JUMPDEST PUSH1 0x1F DUP3 GT ISZERO PUSH2 0x45E8 JUMPI PUSH2 0x45B9 DUP2 PUSH2 0x44C6 JUMP JUMPDEST PUSH2 0x45C2 DUP5 PUSH2 0x44D8 JUMP JUMPDEST DUP2 ADD PUSH1 0x20 DUP6 LT ISZERO PUSH2 0x45D1 JUMPI DUP2 SWAP1 POP JUMPDEST PUSH2 0x45E5 PUSH2 0x45DD DUP6 PUSH2 0x44D8 JUMP JUMPDEST DUP4 ADD DUP3 PUSH2 0x4585 JUMP JUMPDEST POP POP JUMPDEST POP POP POP JUMP JUMPDEST PUSH0 DUP3 DUP3 SHR SWAP1 POP SWAP3 SWAP2 POP POP JUMP JUMPDEST PUSH0 PUSH2 0x4608 PUSH0 NOT DUP5 PUSH1 0x8 MUL PUSH2 0x45ED JUMP JUMPDEST NOT DUP1 DUP4 AND SWAP2 POP POP SWAP3 SWAP2 POP POP JUMP JUMPDEST PUSH0 PUSH2 0x4620 DUP4 DUP4 PUSH2 0x45F9 JUMP JUMPDEST SWAP2 POP DUP3 PUSH1 0x2 MUL DUP3 OR SWAP1 POP SWAP3 SWAP2 POP POP JUMP JUMPDEST PUSH2 0x463A DUP4 DUP4 PUSH2 0x44BC JUMP JUMPDEST PUSH8 0xFFFFFFFFFFFFFFFF DUP2 GT ISZERO PUSH2 0x4653 JUMPI PUSH2 0x4652 PUSH2 0x39DF JUMP JUMPDEST JUMPDEST PUSH2 0x465D DUP3 SLOAD PUSH2 0x3CD1 JUMP JUMPDEST PUSH2 0x4668 DUP3 DUP3 DUP6 PUSH2 0x45A7 JUMP JUMPDEST PUSH0 PUSH1 0x1F DUP4 GT PUSH1 0x1 DUP2 EQ PUSH2 0x4695 JUMPI PUSH0 DUP5 ISZERO PUSH2 0x4683 JUMPI DUP3 DUP8 ADD CALLDATALOAD SWAP1 POP JUMPDEST PUSH2 0x468D DUP6 DUP3 PUSH2 0x4615 JUMP JUMPDEST DUP7 SSTORE POP PUSH2 0x46F4 JUMP JUMPDEST PUSH1 0x1F NOT DUP5 AND PUSH2 0x46A3 DUP7 PUSH2 0x44C6 JUMP JUMPDEST PUSH0 JUMPDEST DUP3 DUP2 LT ISZERO PUSH2 0x46CA JUMPI DUP5 DUP10 ADD CALLDATALOAD DUP3 SSTORE PUSH1 0x1 DUP3 ADD SWAP2 POP PUSH1 0x20 DUP6 ADD SWAP5 POP PUSH1 0x20 DUP2 ADD SWAP1 POP PUSH2 0x46A5 JUMP JUMPDEST DUP7 DUP4 LT ISZERO PUSH2 0x46E7 JUMPI DUP5 DUP10 ADD CALLDATALOAD PUSH2 0x46E3 PUSH1 0x1F DUP10 AND DUP3 PUSH2 0x45F9 JUMP JUMPDEST DUP4 SSTORE POP JUMPDEST PUSH1 0x1 PUSH1 0x2 DUP9 MUL ADD DUP9 SSTORE POP POP POP JUMPDEST POP POP POP POP POP POP POP JUMP JUMPDEST PUSH0 PUSH1 0x40 DUP3 ADD SWAP1 POP PUSH2 0x4710 PUSH0 DUP4 ADD DUP6 PUSH2 0x33E3 JUMP JUMPDEST PUSH2 0x471D PUSH1 0x20 DUP4 ADD DUP5 PUSH2 0x329D JUMP JUMPDEST SWAP4 SWAP3 POP POP POP JUMP JUMPDEST PUSH2 0x472D DUP2 PUSH2 0x38AE JUMP JUMPDEST DUP2 EQ PUSH2 0x4737 JUMPI PUSH0 DUP1 REVERT JUMPDEST POP JUMP JUMPDEST PUSH0 DUP2 CALLDATALOAD PUSH2 0x4746 DUP2 PUSH2 0x4724 JUMP JUMPDEST DUP1 SWAP2 POP POP SWAP2 SWAP1 POP JUMP JUMPDEST PUSH0 PUSH2 0x4759 DUP3 PUSH2 0x38AE JUMP JUMPDEST SWAP1 POP SWAP2 SWAP1 POP JUMP JUMPDEST PUSH0 DUP2 PUSH0 SHR SWAP1 POP SWAP2 SWAP1 POP JUMP JUMPDEST PUSH0 PUSH2 0x4775 DUP3 PUSH2 0x4760 JUMP JUMPDEST SWAP1 POP SWAP2 SWAP1 POP JUMP JUMPDEST PUSH2 0x4785 DUP3 PUSH2 0x474F JUMP JUMPDEST PUSH2 0x4798 PUSH2 0x4791 DUP3 PUSH2 0x476B JUMP JUMPDEST DUP4 SLOAD PUSH2 0x4162 JUMP JUMPDEST DUP3 SSTORE POP POP POP JUMP JUMPDEST PUSH0 DUP2 ADD PUSH0 DUP4 ADD DUP1 PUSH2 0x47AF DUP2 PUSH2 0x473A JUMP JUMPDEST SWAP1 POP PUSH2 0x47BB DUP2 DUP5 PUSH2 0x477C JUMP JUMPDEST POP POP POP PUSH1 0x1 DUP2 ADD PUSH1 0x20 DUP4 ADD DUP1 PUSH2 0x47D0 DUP2 PUSH2 0x4206 JUMP JUMPDEST SWAP1 POP PUSH2 0x47DC DUP2 DUP5 PUSH2 0x426A JUMP JUMPDEST POP POP POP PUSH1 0x2 DUP2 ADD PUSH1 0x40 DUP4 ADD DUP1 PUSH2 0x47F1 DUP2 PUSH2 0x4142 JUMP JUMPDEST SWAP1 POP PUSH2 0x47FD DUP2 DUP5 PUSH2 0x41CD JUMP JUMPDEST POP POP POP PUSH1 0x3 DUP2 ADD PUSH1 0x60 DUP4 ADD DUP1 PUSH2 0x4812 DUP2 PUSH2 0x42FB JUMP JUMPDEST SWAP1 POP PUSH2 0x481E DUP2 DUP5 PUSH2 0x4363 JUMP JUMPDEST POP POP POP PUSH1 0x3 DUP2 ADD PUSH1 0x80 DUP4 ADD DUP1 PUSH2 0x4833 DUP2 PUSH2 0x42FB JUMP JUMPDEST SWAP1 POP PUSH2 0x483F DUP2 DUP5 PUSH2 0x43C3 JUMP JUMPDEST POP POP POP POP POP JUMP JUMPDEST PUSH2 0x4850 DUP3 DUP3 PUSH2 0x479F JUMP JUMPDEST POP POP JUMP JUMPDEST PUSH32 0x507269636520697320736574207A65726F000000000000000000000000000000 PUSH0 DUP3 ADD MSTORE POP JUMP JUMPDEST PUSH0 PUSH2 0x4888 PUSH1 0x11 DUP4 PUSH2 0x32CF JUMP JUMPDEST SWAP2 POP PUSH2 0x4893 DUP3 PUSH2 0x4854 JUMP JUMPDEST PUSH1 0x20 DUP3 ADD SWAP1 POP SWAP2 SWAP1 POP JUMP JUMPDEST PUSH0 PUSH1 0x20 DUP3 ADD SWAP1 POP DUP2 DUP2 SUB PUSH0 DUP4 ADD MSTORE PUSH2 0x48B5 DUP2 PUSH2 0x487C JUMP JUMPDEST SWAP1 POP SWAP2 SWAP1 POP JUMP JUMPDEST PUSH0 PUSH2 0x48C6 DUP3 PUSH2 0x3355 JUMP JUMPDEST SWAP2 POP PUSH2 0x48D1 DUP4 PUSH2 0x3355 JUMP JUMPDEST SWAP3 POP DUP3 DUP3 MUL PUSH2 0x48DF DUP2 PUSH2 0x3355 JUMP JUMPDEST SWAP2 POP DUP3 DUP3 DIV DUP5 EQ DUP4 ISZERO OR PUSH2 0x48F6 JUMPI PUSH2 0x48F5 PUSH2 0x3E39 JUMP JUMPDEST JUMPDEST POP SWAP3 SWAP2 POP POP JUMP JUMPDEST PUSH0 PUSH2 0x4908 DUP4 DUP6 PUSH2 0x32CF JUMP JUMPDEST SWAP4 POP PUSH2 0x4915 DUP4 DUP6 DUP5 PUSH2 0x3A87 JUMP JUMPDEST PUSH2 0x491E DUP4 PUSH2 0x32ED JUMP JUMPDEST DUP5 ADD SWAP1 POP SWAP4 SWAP3 POP POP POP JUMP JUMPDEST PUSH0 PUSH1 0xA0 DUP3 ADD SWAP1 POP PUSH2 0x493C PUSH0 DUP4 ADD DUP10 PUSH2 0x34B1 JUMP JUMPDEST PUSH2 0x4949 PUSH1 0x20 DUP4 ADD DUP9 PUSH2 0x34B1 JUMP JUMPDEST PUSH2 0x4956 PUSH1 0x40 DUP4 ADD DUP8 PUSH2 0x34B1 JUMP JUMPDEST PUSH2 0x4963 PUSH1 0x60 DUP4 ADD DUP7 PUSH2 0x329D JUMP JUMPDEST DUP2 DUP2 SUB PUSH1 0x80 DUP4 ADD MSTORE PUSH2 0x4976 DUP2 DUP5 DUP7 PUSH2 0x48FD JUMP JUMPDEST SWAP1 POP SWAP8 SWAP7 POP POP POP POP POP POP POP JUMP JUMPDEST PUSH0 PUSH1 0x40 DUP3 ADD SWAP1 POP PUSH2 0x4996 PUSH0 DUP4 ADD DUP6 PUSH2 0x33E3 JUMP JUMPDEST PUSH2 0x49A3 PUSH1 0x20 DUP4 ADD DUP5 PUSH2 0x34B1 JUMP JUMPDEST SWAP4 SWAP3 POP POP POP JUMP JUMPDEST PUSH0 DUP2 SWAP1 POP SWAP3 SWAP2 POP POP JUMP JUMPDEST PUSH0 PUSH2 0x49BE DUP3 PUSH2 0x32C5 JUMP JUMPDEST PUSH2 0x49C8 DUP2 DUP6 PUSH2 0x49AA JUMP JUMPDEST SWAP4 POP PUSH2 0x49D8 DUP2 DUP6 PUSH1 0x20 DUP7 ADD PUSH2 0x32DF JUMP JUMPDEST DUP1 DUP5 ADD SWAP2 POP POP SWAP3 SWAP2 POP POP JUMP JUMPDEST PUSH0 PUSH2 0x49EF DUP3 DUP6 PUSH2 0x49B4 JUMP JUMPDEST SWAP2 POP PUSH2 0x49FB DUP3 DUP5 PUSH2 0x49B4 JUMP JUMPDEST SWAP2 POP DUP2 SWAP1 POP SWAP4 SWAP3 POP POP POP JUMP JUMPDEST PUSH32 0x5472616E73666572206E6F7420656E61626C6564000000000000000000000000 PUSH0 DUP3 ADD MSTORE POP JUMP JUMPDEST PUSH0 PUSH2 0x4A3B PUSH1 0x14 DUP4 PUSH2 0x32CF JUMP JUMPDEST SWAP2 POP PUSH2 0x4A46 DUP3 PUSH2 0x4A07 JUMP JUMPDEST PUSH1 0x20 DUP3 ADD SWAP1 POP SWAP2 SWAP1 POP JUMP JUMPDEST PUSH0 PUSH1 0x20 DUP3 ADD SWAP1 POP DUP2 DUP2 SUB PUSH0 DUP4 ADD MSTORE PUSH2 0x4A68 DUP2 PUSH2 0x4A2F JUMP JUMPDEST SWAP1 POP SWAP2 SWAP1 POP JUMP JUMPDEST PUSH0 PUSH1 0x60 DUP3 ADD SWAP1 POP PUSH2 0x4A82 PUSH0 DUP4 ADD DUP7 PUSH2 0x33E3 JUMP JUMPDEST PUSH2 0x4A8F PUSH1 0x20 DUP4 ADD DUP6 PUSH2 0x33E3 JUMP JUMPDEST PUSH2 0x4A9C PUSH1 0x40 DUP4 ADD DUP5 PUSH2 0x34B1 JUMP JUMPDEST SWAP5 SWAP4 POP POP POP POP JUMP JUMPDEST PUSH0 DUP2 MLOAD SWAP1 POP SWAP2 SWAP1 POP JUMP JUMPDEST PUSH0 DUP3 DUP3 MSTORE PUSH1 0x20 DUP3 ADD SWAP1 POP SWAP3 SWAP2 POP POP JUMP JUMPDEST PUSH0 PUSH2 0x4AC8 DUP3 PUSH2 0x4AA4 JUMP JUMPDEST PUSH2 0x4AD2 DUP2 DUP6 PUSH2 0x4AAE JUMP JUMPDEST SWAP4 POP PUSH2 0x4AE2 DUP2 DUP6 PUSH1 0x20 DUP7 ADD PUSH2 0x32DF JUMP JUMPDEST PUSH2 0x4AEB DUP2 PUSH2 0x32ED JUMP JUMPDEST DUP5 ADD SWAP2 POP POP SWAP3 SWAP2 POP POP JUMP JUMPDEST PUSH0 PUSH1 0x80 DUP3 ADD SWAP1 POP PUSH2 0x4B09 PUSH0 DUP4 ADD DUP8 PUSH2 0x33E3 JUMP JUMPDEST PUSH2 0x4B16 PUSH1 0x20 DUP4 ADD DUP7 PUSH2 0x33E3 JUMP JUMPDEST PUSH2 0x4B23 PUSH1 0x40 DUP4 ADD DUP6 PUSH2 0x34B1 JUMP JUMPDEST DUP2 DUP2 SUB PUSH1 0x60 DUP4 ADD MSTORE PUSH2 0x4B35 DUP2 DUP5 PUSH2 0x4ABE JUMP JUMPDEST SWAP1 POP SWAP6 SWAP5 POP POP POP POP POP JUMP JUMPDEST PUSH0 DUP2 MLOAD SWAP1 POP PUSH2 0x4B4E DUP2 PUSH2 0x323D JUMP JUMPDEST SWAP3 SWAP2 POP POP JUMP JUMPDEST PUSH0 PUSH1 0x20 DUP3 DUP5 SUB SLT ISZERO PUSH2 0x4B69 JUMPI PUSH2 0x4B68 PUSH2 0x320A JUMP JUMPDEST JUMPDEST PUSH0 PUSH2 0x4B76 DUP5 DUP3 DUP6 ADD PUSH2 0x4B40 JUMP JUMPDEST SWAP2 POP POP SWAP3 SWAP2 POP POP JUMP JUMPDEST PUSH32 0x4E487B7100000000000000000000000000000000000000000000000000000000 PUSH0 MSTORE PUSH1 0x12 PUSH1 0x4 MSTORE PUSH1 0x24 PUSH0 REVERT JUMPDEST PUSH0 DUP2 MLOAD SWAP1 POP PUSH2 0x4BBA DUP2 PUSH2 0x37BF JUMP JUMPDEST SWAP3 SWAP2 POP POP JUMP JUMPDEST PUSH0 PUSH1 0x20 DUP3 DUP5 SUB SLT ISZERO PUSH2 0x4BD5 JUMPI PUSH2 0x4BD4 PUSH2 0x320A JUMP JUMPDEST JUMPDEST PUSH0 PUSH2 0x4BE2 DUP5 DUP3 DUP6 ADD PUSH2 0x4BAC JUMP JUMPDEST SWAP2 POP POP SWAP3 SWAP2 POP POP JUMP JUMPDEST PUSH32 0x4E487B7100000000000000000000000000000000000000000000000000000000 PUSH0 MSTORE PUSH1 0x32 PUSH1 0x4 MSTORE PUSH1 0x24 PUSH0 REVERT JUMPDEST PUSH0 DUP2 SWAP1 POP SWAP3 SWAP2 POP POP JUMP JUMPDEST PUSH0 PUSH2 0x4C2C DUP3 PUSH2 0x4AA4 JUMP JUMPDEST PUSH2 0x4C36 DUP2 DUP6 PUSH2 0x4C18 JUMP JUMPDEST SWAP4 POP PUSH2 0x4C46 DUP2 DUP6 PUSH1 0x20 DUP7 ADD PUSH2 0x32DF JUMP JUMPDEST DUP1 DUP5 ADD SWAP2 POP POP SWAP3 SWAP2 POP POP JUMP JUMPDEST PUSH0 PUSH2 0x4C5D DUP3 DUP5 PUSH2 0x4C22 JUMP JUMPDEST SWAP2 POP DUP2 SWAP1 POP SWAP3 SWAP2 POP POP JUMP INVALID LOG2 PUSH5 0x6970667358 0x22 SLT KECCAK256 PUSH20 0x52F53FD9611B6B01E7820AF2D74FA8C2A9FA50B9 TIMESTAMP SHL PUSH1 0x31 PUSH29 0xF46B573F46E264736F6C63430008190033000000000000000000000000 "
		},
		"gasEstimates": {
			"creation": {
				"codeDepositCost": "3922800",
				"executionCost": "infinite",
				"totalCost": "infinite"
			},
			"external": {
				"KIPFundAddress()": "2598",
				"MAX_TIER()": "392",
				"approve(address,uint256)": "infinite",
				"balanceOf(address)": "infinite",
				"baseURI()": "infinite",
				"getApproved(uint256)": "infinite",
				"isApprovedForAll(address,address)": "infinite",
				"kipOperator(address)": "2922",
				"name()": "infinite",
				"owner()": "2560",
				"ownerOf(uint256)": "infinite",
				"paymentToken()": "infinite",
				"publicMint(uint256,address,uint256,string)": "infinite",
				"publicSaleConfigs(uint256)": "infinite",
				"publicUserMinted(uint256,address)": "infinite",
				"renounceOwnership()": "infinite",
				"safeTransferFrom(address,address,uint256)": "infinite",
				"safeTransferFrom(address,address,uint256,bytes)": "infinite",
				"setApprovalForAll(address,bool)": "infinite",
				"setBaseURI(string)": "infinite",
				"setKIPFundAddress(address)": "infinite",
				"setKipOperator(address,bool)": "infinite",
				"setPaymentToken(address)": "infinite",
				"setPublicSaleConfigs(uint256,(uint256,uint32,uint32,uint256,uint64,uint64))": "infinite",
				"setTransferEnabled(bool)": "27057",
				"setWhitelistSaleConfigs(uint256,(bytes32,uint32,uint256,uint64,uint64))": "infinite",
				"supportsInterface(bytes4)": "810",
				"symbol()": "infinite",
				"tokenURI(uint256)": "infinite",
				"transferEnabled()": "2511",
				"transferFrom(address,address,uint256)": "infinite",
				"transferOwnership(address)": "infinite",
				"validateProof(uint256,address,uint256,bytes32[])": "infinite",
				"whitelistMint(uint256,address,uint256,uint256,bytes32[])": "infinite",
				"whitelistSaleConfigs(uint256)": "infinite",
				"whitelistUserMinted(uint256,address)": "infinite"
			},
			"internal": {
				"_baseURI()": "infinite",
				"_update(address,uint256,address)": "infinite"
			}
		},
		"methodIdentifiers": {
			"KIPFundAddress()": "378077a8",
			"MAX_TIER()": "af3a19c7",
			"approve(address,uint256)": "095ea7b3",
			"balanceOf(address)": "70a08231",
			"baseURI()": "6c0360eb",
			"getApproved(uint256)": "081812fc",
			"isApprovedForAll(address,address)": "e985e9c5",
			"kipOperator(address)": "5686d34f",
			"name()": "06fdde03",
			"owner()": "8da5cb5b",
			"ownerOf(uint256)": "6352211e",
			"paymentToken()": "3013ce29",
			"publicMint(uint256,address,uint256,string)": "b8240540",
			"publicSaleConfigs(uint256)": "f1ce5fe0",
			"publicUserMinted(uint256,address)": "33d9f1fa",
			"renounceOwnership()": "715018a6",
			"safeTransferFrom(address,address,uint256)": "42842e0e",
			"safeTransferFrom(address,address,uint256,bytes)": "b88d4fde",
			"setApprovalForAll(address,bool)": "a22cb465",
			"setBaseURI(string)": "55f804b3",
			"setKIPFundAddress(address)": "1bb08048",
			"setKipOperator(address,bool)": "78a80561",
			"setPaymentToken(address)": "6a326ab1",
			"setPublicSaleConfigs(uint256,(uint256,uint32,uint32,uint256,uint64,uint64))": "27ed3998",
			"setTransferEnabled(bool)": "9fe9f623",
			"setWhitelistSaleConfigs(uint256,(bytes32,uint32,uint256,uint64,uint64))": "8f3f0d41",
			"supportsInterface(bytes4)": "01ffc9a7",
			"symbol()": "95d89b41",
			"tokenURI(uint256)": "c87b56dd",
			"transferEnabled()": "4cd412d5",
			"transferFrom(address,address,uint256)": "23b872dd",
			"transferOwnership(address)": "f2fde38b",
			"validateProof(uint256,address,uint256,bytes32[])": "c3d85a64",
			"whitelistMint(uint256,address,uint256,uint256,bytes32[])": "1d68e8ce",
			"whitelistSaleConfigs(uint256)": "a4532fb9",
			"whitelistUserMinted(uint256,address)": "1aca45a7"
		}
	},
	"abi": [
		{
			"inputs": [
				{
					"internalType": "address",
					"name": "initialOwner",
					"type": "address"
				},
				{
					"internalType": "address",
					"name": "paymentToken_",
					"type": "address"
				}
			],
			"stateMutability": "nonpayable",
			"type": "constructor"
		},
		{
			"inputs": [
				{
					"internalType": "address",
					"name": "target",
					"type": "address"
				}
			],
			"name": "AddressEmptyCode",
			"type": "error"
		},
		{
			"inputs": [
				{
					"internalType": "address",
					"name": "account",
					"type": "address"
				}
			],
			"name": "AddressInsufficientBalance",
			"type": "error"
		},
		{
			"inputs": [
				{
					"internalType": "address",
					"name": "sender",
					"type": "address"
				},
				{
					"internalType": "uint256",
					"name": "tokenId",
					"type": "uint256"
				},
				{
					"internalType": "address",
					"name": "owner",
					"type": "address"
				}
			],
			"name": "ERC721IncorrectOwner",
			"type": "error"
		},
		{
			"inputs": [
				{
					"internalType": "address",
					"name": "operator",
					"type": "address"
				},
				{
					"internalType": "uint256",
					"name": "tokenId",
					"type": "uint256"
				}
			],
			"name": "ERC721InsufficientApproval",
			"type": "error"
		},
		{
			"inputs": [
				{
					"internalType": "address",
					"name": "approver",
					"type": "address"
				}
			],
			"name": "ERC721InvalidApprover",
			"type": "error"
		},
		{
			"inputs": [
				{
					"internalType": "address",
					"name": "operator",
					"type": "address"
				}
			],
			"name": "ERC721InvalidOperator",
			"type": "error"
		},
		{
			"inputs": [
				{
					"internalType": "address",
					"name": "owner",
					"type": "address"
				}
			],
			"name": "ERC721InvalidOwner",
			"type": "error"
		},
		{
			"inputs": [
				{
					"internalType": "address",
					"name": "receiver",
					"type": "address"
				}
			],
			"name": "ERC721InvalidReceiver",
			"type": "error"
		},
		{
			"inputs": [
				{
					"internalType": "address",
					"name": "sender",
					"type": "address"
				}
			],
			"name": "ERC721InvalidSender",
			"type": "error"
		},
		{
			"inputs": [
				{
					"internalType": "uint256",
					"name": "tokenId",
					"type": "uint256"
				}
			],
			"name": "ERC721NonexistentToken",
			"type": "error"
		},
		{
			"inputs": [],
			"name": "FailedInnerCall",
			"type": "error"
		},
		{
			"inputs": [
				{
					"internalType": "address",
					"name": "owner",
					"type": "address"
				}
			],
			"name": "OwnableInvalidOwner",
			"type": "error"
		},
		{
			"inputs": [
				{
					"internalType": "address",
					"name": "account",
					"type": "address"
				}
			],
			"name": "OwnableUnauthorizedAccount",
			"type": "error"
		},
		{
			"inputs": [
				{
					"internalType": "address",
					"name": "token",
					"type": "address"
				}
			],
			"name": "SafeERC20FailedOperation",
			"type": "error"
		},
		{
			"anonymous": false,
			"inputs": [
				{
					"indexed": true,
					"internalType": "address",
					"name": "owner",
					"type": "address"
				},
				{
					"indexed": true,
					"internalType": "address",
					"name": "approved",
					"type": "address"
				},
				{
					"indexed": true,
					"internalType": "uint256",
					"name": "tokenId",
					"type": "uint256"
				}
			],
			"name": "Approval",
			"type": "event"
		},
		{
			"anonymous": false,
			"inputs": [
				{
					"indexed": true,
					"internalType": "address",
					"name": "owner",
					"type": "address"
				},
				{
					"indexed": true,
					"internalType": "address",
					"name": "operator",
					"type": "address"
				},
				{
					"indexed": false,
					"internalType": "bool",
					"name": "approved",
					"type": "bool"
				}
			],
			"name": "ApprovalForAll",
			"type": "event"
		},
		{
			"anonymous": false,
			"inputs": [
				{
					"indexed": true,
					"internalType": "address",
					"name": "operator",
					"type": "address"
				},
				{
					"indexed": false,
					"internalType": "uint256",
					"name": "tier",
					"type": "uint256"
				},
				{
					"indexed": false,
					"internalType": "bool",
					"name": "whitelist",
					"type": "bool"
				},
				{
					"indexed": false,
					"internalType": "uint256",
					"name": "mint_count",
					"type": "uint256"
				},
				{
					"indexed": false,
					"internalType": "bool",
					"name": "is_user",
					"type": "bool"
				}
			],
			"name": "MintCountUpdated",
			"type": "event"
		},
		{
			"anonymous": false,
			"inputs": [
				{
					"indexed": false,
					"internalType": "address",
					"name": "operator",
					"type": "address"
				},
				{
					"indexed": false,
					"internalType": "bool",
					"name": "enabled",
					"type": "bool"
				}
			],
			"name": "OperatorChanged",
			"type": "event"
		},
		{
			"anonymous": false,
			"inputs": [
				{
					"indexed": true,
					"internalType": "address",
					"name": "previousOwner",
					"type": "address"
				},
				{
					"indexed": true,
					"internalType": "address",
					"name": "newOwner",
					"type": "address"
				}
			],
			"name": "OwnershipTransferred",
			"type": "event"
		},
		{
			"anonymous": false,
			"inputs": [
				{
					"indexed": true,
					"internalType": "address",
					"name": "operator",
					"type": "address"
				},
				{
					"indexed": true,
					"internalType": "address",
					"name": "to",
					"type": "address"
				},
				{
					"indexed": false,
					"internalType": "uint256",
					"name": "tier",
					"type": "uint256"
				},
				{
					"indexed": false,
					"internalType": "uint256",
					"name": "tokenId",
					"type": "uint256"
				},
				{
					"indexed": false,
					"internalType": "uint256",
					"name": "price",
					"type": "uint256"
				},
				{
					"indexed": false,
					"internalType": "bool",
					"name": "whitelist",
					"type": "bool"
				},
				{
					"indexed": false,
					"internalType": "string",
					"name": "code",
					"type": "string"
				}
			],
			"name": "TokenMinted",
			"type": "event"
		},
		{
			"anonymous": false,
			"inputs": [
				{
					"indexed": true,
					"internalType": "address",
					"name": "from",
					"type": "address"
				},
				{
					"indexed": true,
					"internalType": "address",
					"name": "to",
					"type": "address"
				},
				{
					"indexed": true,
					"internalType": "uint256",
					"name": "tokenId",
					"type": "uint256"
				}
			],
			"name": "Transfer",
			"type": "event"
		},
		{
			"inputs": [],
			"name": "KIPFundAddress",
			"outputs": [
				{
					"internalType": "address",
					"name": "",
					"type": "address"
				}
			],
			"stateMutability": "view",
			"type": "function"
		},
		{
			"inputs": [],
			"name": "MAX_TIER",
			"outputs": [
				{
					"internalType": "uint256",
					"name": "",
					"type": "uint256"
				}
			],
			"stateMutability": "view",
			"type": "function"
		},
		{
			"inputs": [
				{
					"internalType": "address",
					"name": "to",
					"type": "address"
				},
				{
					"internalType": "uint256",
					"name": "tokenId",
					"type": "uint256"
				}
			],
			"name": "approve",
			"outputs": [],
			"stateMutability": "nonpayable",
			"type": "function"
		},
		{
			"inputs": [
				{
					"internalType": "address",
					"name": "owner",
					"type": "address"
				}
			],
			"name": "balanceOf",
			"outputs": [
				{
					"internalType": "uint256",
					"name": "",
					"type": "uint256"
				}
			],
			"stateMutability": "view",
			"type": "function"
		},
		{
			"inputs": [],
			"name": "baseURI",
			"outputs": [
				{
					"internalType": "string",
					"name": "",
					"type": "string"
				}
			],
			"stateMutability": "view",
			"type": "function"
		},
		{
			"inputs": [
				{
					"internalType": "uint256",
					"name": "tokenId",
					"type": "uint256"
				}
			],
			"name": "getApproved",
			"outputs": [
				{
					"internalType": "address",
					"name": "",
					"type": "address"
				}
			],
			"stateMutability": "view",
			"type": "function"
		},
		{
			"inputs": [
				{
					"internalType": "address",
					"name": "owner",
					"type": "address"
				},
				{
					"internalType": "address",
					"name": "operator",
					"type": "address"
				}
			],
			"name": "isApprovedForAll",
			"outputs": [
				{
					"internalType": "bool",
					"name": "",
					"type": "bool"
				}
			],
			"stateMutability": "view",
			"type": "function"
		},
		{
			"inputs": [
				{
					"internalType": "address",
					"name": "",
					"type": "address"
				}
			],
			"name": "kipOperator",
			"outputs": [
				{
					"internalType": "bool",
					"name": "",
					"type": "bool"
				}
			],
			"stateMutability": "view",
			"type": "function"
		},
		{
			"inputs": [],
			"name": "name",
			"outputs": [
				{
					"internalType": "string",
					"name": "",
					"type": "string"
				}
			],
			"stateMutability": "view",
			"type": "function"
		},
		{
			"inputs": [],
			"name": "owner",
			"outputs": [
				{
					"internalType": "address",
					"name": "",
					"type": "address"
				}
			],
			"stateMutability": "view",
			"type": "function"
		},
		{
			"inputs": [
				{
					"internalType": "uint256",
					"name": "tokenId",
					"type": "uint256"
				}
			],
			"name": "ownerOf",
			"outputs": [
				{
					"internalType": "address",
					"name": "",
					"type": "address"
				}
			],
			"stateMutability": "view",
			"type": "function"
		},
		{
			"inputs": [],
			"name": "paymentToken",
			"outputs": [
				{
					"internalType": "contract IERC20",
					"name": "",
					"type": "address"
				}
			],
			"stateMutability": "view",
			"type": "function"
		},
		{
			"inputs": [
				{
					"internalType": "uint256",
					"name": "tier",
					"type": "uint256"
				},
				{
					"internalType": "address",
					"name": "to",
					"type": "address"
				},
				{
					"internalType": "uint256",
					"name": "amount",
					"type": "uint256"
				},
				{
					"internalType": "string",
					"name": "code",
					"type": "string"
				}
			],
			"name": "publicMint",
			"outputs": [],
			"stateMutability": "nonpayable",
			"type": "function"
		},
		{
			"inputs": [
				{
					"internalType": "uint256",
					"name": "",
					"type": "uint256"
				}
			],
			"name": "publicSaleConfigs",
			"outputs": [
				{
					"internalType": "uint256",
					"name": "price",
					"type": "uint256"
				},
				{
					"internalType": "uint32",
					"name": "maxPerTier",
					"type": "uint32"
				},
				{
					"internalType": "uint32",
					"name": "maxPerUser",
					"type": "uint32"
				},
				{
					"internalType": "uint256",
					"name": "totalMintedAmount",
					"type": "uint256"
				},
				{
					"internalType": "uint64",
					"name": "start",
					"type": "uint64"
				},
				{
					"internalType": "uint64",
					"name": "end",
					"type": "uint64"
				}
			],
			"stateMutability": "view",
			"type": "function"
		},
		{
			"inputs": [
				{
					"internalType": "uint256",
					"name": "",
					"type": "uint256"
				},
				{
					"internalType": "address",
					"name": "",
					"type": "address"
				}
			],
			"name": "publicUserMinted",
			"outputs": [
				{
					"internalType": "uint256",
					"name": "",
					"type": "uint256"
				}
			],
			"stateMutability": "view",
			"type": "function"
		},
		{
			"inputs": [],
			"name": "renounceOwnership",
			"outputs": [],
			"stateMutability": "nonpayable",
			"type": "function"
		},
		{
			"inputs": [
				{
					"internalType": "address",
					"name": "from",
					"type": "address"
				},
				{
					"internalType": "address",
					"name": "to",
					"type": "address"
				},
				{
					"internalType": "uint256",
					"name": "tokenId",
					"type": "uint256"
				}
			],
			"name": "safeTransferFrom",
			"outputs": [],
			"stateMutability": "nonpayable",
			"type": "function"
		},
		{
			"inputs": [
				{
					"internalType": "address",
					"name": "from",
					"type": "address"
				},
				{
					"internalType": "address",
					"name": "to",
					"type": "address"
				},
				{
					"internalType": "uint256",
					"name": "tokenId",
					"type": "uint256"
				},
				{
					"internalType": "bytes",
					"name": "data",
					"type": "bytes"
				}
			],
			"name": "safeTransferFrom",
			"outputs": [],
			"stateMutability": "nonpayable",
			"type": "function"
		},
		{
			"inputs": [
				{
					"internalType": "address",
					"name": "operator",
					"type": "address"
				},
				{
					"internalType": "bool",
					"name": "approved",
					"type": "bool"
				}
			],
			"name": "setApprovalForAll",
			"outputs": [],
			"stateMutability": "nonpayable",
			"type": "function"
		},
		{
			"inputs": [
				{
					"internalType": "string",
					"name": "newURI",
					"type": "string"
				}
			],
			"name": "setBaseURI",
			"outputs": [],
			"stateMutability": "nonpayable",
			"type": "function"
		},
		{
			"inputs": [
				{
					"internalType": "address",
					"name": "newAddress",
					"type": "address"
				}
			],
			"name": "setKIPFundAddress",
			"outputs": [],
			"stateMutability": "nonpayable",
			"type": "function"
		},
		{
			"inputs": [
				{
					"internalType": "address",
					"name": "operator",
					"type": "address"
				},
				{
					"internalType": "bool",
					"name": "enabled",
					"type": "bool"
				}
			],
			"name": "setKipOperator",
			"outputs": [],
			"stateMutability": "nonpayable",
			"type": "function"
		},
		{
			"inputs": [
				{
					"internalType": "address",
					"name": "token",
					"type": "address"
				}
			],
			"name": "setPaymentToken",
			"outputs": [],
			"stateMutability": "nonpayable",
			"type": "function"
		},
		{
			"inputs": [
				{
					"internalType": "uint256",
					"name": "tier",
					"type": "uint256"
				},
				{
					"components": [
						{
							"internalType": "uint256",
							"name": "price",
							"type": "uint256"
						},
						{
							"internalType": "uint32",
							"name": "maxPerTier",
							"type": "uint32"
						},
						{
							"internalType": "uint32",
							"name": "maxPerUser",
							"type": "uint32"
						},
						{
							"internalType": "uint256",
							"name": "totalMintedAmount",
							"type": "uint256"
						},
						{
							"internalType": "uint64",
							"name": "start",
							"type": "uint64"
						},
						{
							"internalType": "uint64",
							"name": "end",
							"type": "uint64"
						}
					],
					"internalType": "struct KIPNode.PublicSale",
					"name": "settings",
					"type": "tuple"
				}
			],
			"name": "setPublicSaleConfigs",
			"outputs": [],
			"stateMutability": "nonpayable",
			"type": "function"
		},
		{
			"inputs": [
				{
					"internalType": "bool",
					"name": "newState",
					"type": "bool"
				}
			],
			"name": "setTransferEnabled",
			"outputs": [],
			"stateMutability": "nonpayable",
			"type": "function"
		},
		{
			"inputs": [
				{
					"internalType": "uint256",
					"name": "tier",
					"type": "uint256"
				},
				{
					"components": [
						{
							"internalType": "bytes32",
							"name": "merkleRoot",
							"type": "bytes32"
						},
						{
							"internalType": "uint32",
							"name": "maxPerTier",
							"type": "uint32"
						},
						{
							"internalType": "uint256",
							"name": "totalMintedAmount",
							"type": "uint256"
						},
						{
							"internalType": "uint64",
							"name": "start",
							"type": "uint64"
						},
						{
							"internalType": "uint64",
							"name": "end",
							"type": "uint64"
						}
					],
					"internalType": "struct KIPNode.WhitelistSale",
					"name": "settings",
					"type": "tuple"
				}
			],
			"name": "setWhitelistSaleConfigs",
			"outputs": [],
			"stateMutability": "nonpayable",
			"type": "function"
		},
		{
			"inputs": [
				{
					"internalType": "bytes4",
					"name": "interfaceId",
					"type": "bytes4"
				}
			],
			"name": "supportsInterface",
			"outputs": [
				{
					"internalType": "bool",
					"name": "",
					"type": "bool"
				}
			],
			"stateMutability": "view",
			"type": "function"
		},
		{
			"inputs": [],
			"name": "symbol",
			"outputs": [
				{
					"internalType": "string",
					"name": "",
					"type": "string"
				}
			],
			"stateMutability": "view",
			"type": "function"
		},
		{
			"inputs": [
				{
					"internalType": "uint256",
					"name": "tokenId",
					"type": "uint256"
				}
			],
			"name": "tokenURI",
			"outputs": [
				{
					"internalType": "string",
					"name": "",
					"type": "string"
				}
			],
			"stateMutability": "view",
			"type": "function"
		},
		{
			"inputs": [],
			"name": "transferEnabled",
			"outputs": [
				{
					"internalType": "bool",
					"name": "",
					"type": "bool"
				}
			],
			"stateMutability": "view",
			"type": "function"
		},
		{
			"inputs": [
				{
					"internalType": "address",
					"name": "from",
					"type": "address"
				},
				{
					"internalType": "address",
					"name": "to",
					"type": "address"
				},
				{
					"internalType": "uint256",
					"name": "tokenId",
					"type": "uint256"
				}
			],
			"name": "transferFrom",
			"outputs": [],
			"stateMutability": "nonpayable",
			"type": "function"
		},
		{
			"inputs": [
				{
					"internalType": "address",
					"name": "newOwner",
					"type": "address"
				}
			],
			"name": "transferOwnership",
			"outputs": [],
			"stateMutability": "nonpayable",
			"type": "function"
		},
		{
			"inputs": [
				{
					"internalType": "uint256",
					"name": "tier",
					"type": "uint256"
				},
				{
					"internalType": "address",
					"name": "to",
					"type": "address"
				},
				{
					"internalType": "uint256",
					"name": "maxAmount",
					"type": "uint256"
				},
				{
					"internalType": "bytes32[]",
					"name": "merkleProof",
					"type": "bytes32[]"
				}
			],
			"name": "validateProof",
			"outputs": [
				{
					"internalType": "bool",
					"name": "",
					"type": "bool"
				}
			],
			"stateMutability": "view",
			"type": "function"
		},
		{
			"inputs": [
				{
					"internalType": "uint256",
					"name": "tier",
					"type": "uint256"
				},
				{
					"internalType": "address",
					"name": "to",
					"type": "address"
				},
				{
					"internalType": "uint256",
					"name": "amount",
					"type": "uint256"
				},
				{
					"internalType": "uint256",
					"name": "maxAmount",
					"type": "uint256"
				},
				{
					"internalType": "bytes32[]",
					"name": "merkleProof",
					"type": "bytes32[]"
				}
			],
			"name": "whitelistMint",
			"outputs": [],
			"stateMutability": "nonpayable",
			"type": "function"
		},
		{
			"inputs": [
				{
					"internalType": "uint256",
					"name": "",
					"type": "uint256"
				}
			],
			"name": "whitelistSaleConfigs",
			"outputs": [
				{
					"internalType": "bytes32",
					"name": "merkleRoot",
					"type": "bytes32"
				},
				{
					"internalType": "uint32",
					"name": "maxPerTier",
					"type": "uint32"
				},
				{
					"internalType": "uint256",
					"name": "totalMintedAmount",
					"type": "uint256"
				},
				{
					"internalType": "uint64",
					"name": "start",
					"type": "uint64"
				},
				{
					"internalType": "uint64",
					"name": "end",
					"type": "uint64"
				}
			],
			"stateMutability": "view",
			"type": "function"
		},
		{
			"inputs": [
				{
					"internalType": "uint256",
					"name": "",
					"type": "uint256"
				},
				{
					"internalType": "address",
					"name": "",
					"type": "address"
				}
			],
			"name": "whitelistUserMinted",
			"outputs": [
				{
					"internalType": "uint256",
					"name": "",
					"type": "uint256"
				}
			],
			"stateMutability": "view",
			"type": "function"
		}
	]
}