{
	"data": {
		"bytecode": {
			"linkReferences": {},
			"object": "608060405234801561000f575f80fd5b506040516130b73803806130b783398101604081905261002e916101fe565b826040518060400160405280601581526020017f54455354206b697020636865636b6572206e6f64650000000000000000000000815250604051806040016040528060078152602001664b49504e4f444560c81b815250815f908161009391906102d6565b5060016100a082826102d6565b5050506001600160a01b0381166100d057604051631e4fbdf760e01b81525f600482015260240160405180910390fd5b6100d981610192565b50600880546001600160a01b03199081166001600160a01b038581169182179093556009805483169091179055600a805482169284169283179055600b80549091169091179055600c80546001600160b81b0319167526006e3bbb13330102989ac110163e4c649d0bb8877717905560408051808201909152601981527f68747470733a2f2f6e6f64652d6e66742e6b69702e70726f2f000000000000006020820152600d9061018990826102d6565b50505050610395565b600680546001600160a01b038381166001600160a01b0319831681179093556040519116919082907f8be0079c531659141344cd1fd0a4f28419497f9722a3daafe3b4186f6b6457e0905f90a35050565b80516001600160a01b03811681146101f9575f80fd5b919050565b5f805f60608486031215610210575f80fd5b610219846101e3565b9250610227602085016101e3565b9150610235604085016101e3565b90509250925092565b634e487b7160e01b5f52604160045260245ffd5b600181811c9082168061026657607f821691505b60208210810361028457634e487b7160e01b5f52602260045260245ffd5b50919050565b601f8211156102d157805f5260205f20601f840160051c810160208510156102af5750805b601f840160051c820191505b818110156102ce575f81556001016102bb565b50505b505050565b81516001600160401b038111156102ef576102ef61023e565b610303816102fd8454610252565b8461028a565b602080601f831160018114610336575f841561031f5750858301515b5f19600386901b1c1916600185901b17855561038d565b5f85815260208120601f198616915b8281101561036457888601518255948401946001909101908401610345565b508582101561038157878501515f19600388901b60f8161c191681555b505060018460011b0185555b505050505050565b612d15806103a25f395ff3fe608060405234801561000f575f80fd5b50600436106102ff575f3560e01c806375fce01511610195578063ce8ba77e116100e4578063dcf2bff61161009e578063e985e9c511610079578063e985e9c5146107b1578063f2fde38b146107c4578063faf03163146107d7578063fe1a53ee146107ff575f80fd5b8063dcf2bff614610763578063e0df5b6f1461078b578063e6eef1ea1461079e575f80fd5b8063ce8ba77e146106d0578063d547cfb7146106e3578063d5c18451146106eb578063d7f3c66d14610713578063d8140eb514610726578063d9f341fd14610739575f80fd5b806395d89b411161014f578063abd896941161012a578063abd8969414610674578063b88d4fde14610697578063bcedc601146106aa578063c87b56dd146106bd575f80fd5b806395d89b41146106465780639fe9f6231461064e578063a22cb46514610661575f80fd5b806375fce015146105a75780637679fa1e146105bb5780637b3bd99d146105d057806383cefb88146105ef57806388b91908146106125780638da5cb5b14610635575f80fd5b8063378077a8116102515780635d886f221161020b5780636c53c3c6116101e65780636c53c3c6146105435780636dbee0b71461055657806370a082311461058c578063715018a61461059f575f80fd5b80635d886f221461050a5780636352211e1461051d5780636372444b14610530575f80fd5b8063378077a81461046757806342842e0e1461047a57806354d77e0e1461048d578063558a7297146104a057806359d8cfb1146104b35780635bb0d128146104eb575f80fd5b80630f35ec07116102bc5780631f76ebf4116102975780631f76ebf41461041b578063219f65ce1461042e57806323b872dd1461044157806327f22fcb14610454575f80fd5b80630f35ec07146103d357806312d05987146103f55780631bb0804814610408575f80fd5b806301ffc9a71461030357806306fdde031461032b578063081812fc14610340578063095ea7b31461036b5780630b24c83a146103805780630e4d023b146103c0575b5f80fd5b6103166103113660046123ae565b610822565b60405190151581526020015b60405180910390f35b610333610873565b60405161032291906123f7565b61035361034e366004612409565b610902565b6040516001600160a01b039091168152602001610322565b61037e61037936600461243b565b610929565b005b6103a861038e366004612474565b60106020525f90815260409020546001600160401b031681565b6040516001600160401b039091168152602001610322565b61037e6103ce36600461249d565b610938565b6103166103e13660046124ce565b601b6020525f908152604090205460ff1681565b61037e6104033660046124fd565b610997565b61037e6104163660046124ce565b610a0e565b61037e61042936600461253d565b610a38565b61037e61043c3660046124fd565b6110d3565b61037e61044f3660046125e8565b61114a565b600954610353906001600160a01b031681565b600c54610353906001600160a01b031681565b61037e6104883660046125e8565b6111d3565b61037e61049b366004612621565b6111f2565b61037e6104ae366004612648565b611235565b6104dd6104c136600461267d565b601760209081525f928352604080842090915290825290205481565b604051908152602001610322565b6104dd6104f9366004612474565b60166020525f908152604090205481565b61037e6105183660046124ce565b61129f565b61035361052b366004612409565b6112d3565b61037e61053e3660046126a5565b6112dd565b600b54610353906001600160a01b031681565b610579610564366004612474565b60156020525f908152604090205461ffff1681565b60405161ffff9091168152602001610322565b6104dd61059a3660046124ce565b611349565b61037e61138e565b600c5461031690600160a01b900460ff1681565b600c5461057990600160a81b900461ffff1681565b6104dd6105de366004612474565b600e6020525f908152604090205481565b6105796105fd366004612474565b60196020525f908152604090205461ffff1681565b610579610620366004612474565b60136020525f908152604090205461ffff1681565b6006546001600160a01b0316610353565b6103336113a1565b61037e61065c3660046126dc565b6113b0565b61037e61066f366004612648565b6113fc565b610579610682366004612474565b60146020525f908152604090205461ffff1681565b61037e6106a536600461277d565b611407565b6103166106b836600461283a565b61141e565b6103336106cb366004612409565b6114b8565b61037e6106de366004612621565b61151d565b610333611560565b6103a86106f9366004612474565b60126020525f90815260409020546001600160401b031681565b61037e6107213660046124ce565b6115ec565b61037e610734366004612474565b611620565b6104dd61074736600461267d565b601860209081525f928352604080842090915290825290205481565b6103a8610771366004612474565b600f6020525f90815260409020546001600160401b031681565b61037e6107993660046128a3565b61164a565b61037e6107ac3660046128e7565b61165e565b6103166107bf366004612960565b611aee565b61037e6107d23660046124ce565b611b1b565b6103a86107e5366004612474565b60116020525f90815260409020546001600160401b031681565b61057961080d366004612474565b601a6020525f908152604090205461ffff1681565b5f6001600160e01b031982166380ac58cd60e01b148061085257506001600160e01b03198216635b5e139f60e01b145b8061086d57506301ffc9a760e01b6001600160e01b03198316145b92915050565b60605f80546108819061297a565b80601f01602080910402602001604051908101604052809291908181526020018280546108ad9061297a565b80156108f85780601f106108cf576101008083540402835291602001916108f8565b820191905f5260205f20905b8154815290600101906020018083116108db57829003601f168201915b5050505050905090565b5f61090c82611b58565b505f828152600460205260409020546001600160a01b031661086d565b610934828233611b90565b5050565b335f908152601b602052604090205460ff1661096f5760405162461bcd60e51b8152600401610966906129b2565b60405180910390fd5b60ff919091165f908152601460205260409020805461ffff191661ffff909216919091179055565b335f908152601b602052604090205460ff166109c55760405162461bcd60e51b8152600401610966906129b2565b60ff929092165f908152600f6020908152604080832080546001600160401b0395861667ffffffffffffffff199182161790915560109092529091208054929093169116179055565b610a16611b9d565b600c80546001600160a01b0319166001600160a01b0392909216919091179055565b5f8660ff1611610a7f5760405162461bcd60e51b8152602060048201526012602482015271746965722043616e2774204245205a45524f60701b6044820152606401610966565b600c54600160a81b900461ffff1660ff87161115610ad05760405162461bcd60e51b815260206004820152600e60248201526d7469657220544f4f204c4152474560901b6044820152606401610966565b60ff8681165f90815260146020908152604080832054601883528184203385529092529091205461ffff90911691610b0b91908716906129fd565b1115610b595760405162461bcd60e51b815260206004820152601c60248201527f43616e2774206d696e74206d6f7265207468616e20616c6c6f776564000000006044820152606401610966565b60ff8087165f9081526013602090815260408083205460199092529091205461ffff91821692610b8d929088169116612a10565b61ffff161115610bdf5760405162461bcd60e51b815260206004820152601d60248201527f43616e6e6f74206d696e74206d6f7265207468616e20616c6c6f7765640000006044820152606401610966565b60ff86165f908152600f6020526040902054426001600160401b039091161115610c4b5760405162461bcd60e51b815260206004820152601b60248201527f73746172745f74696d657374616d70206e6f7420616c6c6f77656400000000006044820152606401610966565b60ff86165f908152601060205260409020546001600160401b0316421115610cb15760405162461bcd60e51b8152602060048201526019602482015278195b9917dd1a5b595cdd185b5c081b9bdd08185b1b1bddd959603a1b6044820152606401610966565b60ff86165f908152600e602052604090205415610f9a5760ff8681165f908152600e60205260408120549091610cea9190871690612a32565b90505f8460ff16600103610e235760085482906001600160a01b031663dd62ed3e336040516001600160e01b031960e084901b1681526001600160a01b039091166004820152306024820152604401602060405180830381865afa158015610d54573d5f803e3d5ffd5b505050506040513d601f19601f82011682018060405250810190610d789190612a49565b1015610d965760405162461bcd60e51b815260040161096690612a60565b6008546001600160a01b03166323b872dd336040516001600160e01b031960e084901b1681526001600160a01b039091166004820152306024820152604481018590526064016020604051808303815f875af1158015610df8573d5f803e3d5ffd5b505050506040513d601f19601f82011682018060405250810190610e1c9190612aa6565b9050610f4a565b600a5482906001600160a01b031663dd62ed3e336040516001600160e01b031960e084901b1681526001600160a01b039091166004820152306024820152604401602060405180830381865afa158015610e7f573d5f803e3d5ffd5b505050506040513d601f19601f82011682018060405250810190610ea39190612a49565b1015610ec15760405162461bcd60e51b815260040161096690612a60565b600a546001600160a01b03166323b872dd336040516001600160e01b031960e084901b1681526001600160a01b039091166004820152306024820152604481018590526064016020604051808303815f875af1158015610f23573d5f803e3d5ffd5b505050506040513d601f19601f82011682018060405250810190610f479190612aa6565b90505b80610f975760405162461bcd60e51b815260206004820152601860248201527f4661696c656420746f207472616e736665722066756e647300000000000000006044820152606401610966565b50505b60015b8460ff1681116110305760078054905f610fb683612ac1565b9190505550610fc786600754611bca565b7f43529d0286c91584da50fdd640a99cee9335a6d18e3ed425bafaf6ca573982713360ff89165f908152600e60205260408082205460075491516110169493928d92918d91908b908b90612ad9565b60405180910390a18061102881612ac1565b915050610f9d565b5060ff8681165f90815260196020526040812080549287169290919061105b90849061ffff16612a10565b92506101000a81548161ffff021916908361ffff1602179055508360ff1660185f8860ff1661ffff1681526020019081526020015f205f6110993390565b6001600160a01b03166001600160a01b031681526020019081526020015f205f8282546110c691906129fd565b9091555050505050505050565b335f908152601b602052604090205460ff166111015760405162461bcd60e51b8152600401610966906129b2565b60ff929092165f90815260116020908152604080832080546001600160401b0395861667ffffffffffffffff199182161790915560129092529091208054929093169116179055565b6001600160a01b03821661117357604051633250574960e11b81525f6004820152602401610966565b5f61117f838333611be3565b9050836001600160a01b0316816001600160a01b0316146111cd576040516364283d7b60e01b81526001600160a01b0380861660048301526024820184905282166044820152606401610966565b50505050565b6111ed83838360405180602001604052805f815250611407565b505050565b335f908152601b602052604090205460ff166112205760405162461bcd60e51b8152600401610966906129b2565b60ff9091165f90815260166020526040902055565b61123d611b9d565b6001600160a01b0382165f818152601b6020908152604091829020805460ff19168515159081179091558251938452908301527f193de8d500b5cb7b720089b258a39e9c1d0b840019a73ae7c51c3f9101732b02910160405180910390a15050565b6112a7611b9d565b600b80546001600160a01b039092166001600160a01b03199283168117909155600a8054909216179055565b5f61086d82611b58565b335f908152601b602052604090205460ff1661130b5760405162461bcd60e51b8152600401610966906129b2565b60ff929092165f908152601360209081526040808320805461ffff95861661ffff199182161790915560159092529091208054929093169116179055565b5f6001600160a01b038216611373576040516322718ad960e21b81525f6004820152602401610966565b506001600160a01b03165f9081526003602052604090205490565b611396611b9d565b61139f5f611c5d565b565b6060600180546108819061297a565b335f908152601b602052604090205460ff166113de5760405162461bcd60e51b8152600401610966906129b2565b600c8054911515600160a01b0260ff60a01b19909216919091179055565b610934338383611cae565b61141284848461114a565b6111cd84848484611d4c565b6040516bffffffffffffffffffffffff19606086901b166020820152603481018490525f9081906054016040516020818303038152906040528051906020012090506114ad8484808060200260200160405190810160405280939291908181526020018383602002808284375f92018290525060ff8d168152601660205260409020549250859150611e729050565b979650505050505050565b60606114c382611b58565b505f6114cd611e87565b90505f8151116114eb5760405180602001604052805f815250611516565b806114f584611e96565b604051602001611506929190612b5d565b6040516020818303038152906040525b9392505050565b335f908152601b602052604090205460ff1661154b5760405162461bcd60e51b8152600401610966906129b2565b60ff9091165f908152600e6020526040902055565b600d805461156d9061297a565b80601f01602080910402602001604051908101604052809291908181526020018280546115999061297a565b80156115e45780601f106115bb576101008083540402835291602001916115e4565b820191905f5260205f20905b8154815290600101906020018083116115c757829003601f168201915b505050505081565b6115f4611b9d565b600980546001600160a01b039092166001600160a01b0319928316811790915560088054909216179055565b611628611b9d565b600c805461ffff909216600160a81b0261ffff60a81b19909216919091179055565b611652611b9d565b600d6109348282612bb5565b5f8660ff16116116a55760405162461bcd60e51b8152602060048201526012602482015271746965722043616e2774204245205a45524f60701b6044820152606401610966565b600c54600160a81b900461ffff1660ff871611156116f65760405162461bcd60e51b815260206004820152600e60248201526d7469657220544f4f204c4152474560901b6044820152606401610966565b60ff8087165f90815260156020908152604080832054601a9092529091205461ffff9182169261172a929088169116612a10565b61ffff16111561177c5760405162461bcd60e51b815260206004820152601c60248201527f43616e2774206d696e74206d6f7265207468616e20616c6c6f776564000000006044820152606401610966565b60ff8681165f90815260176020908152604080832033845290915290205484916117a991908716906129fd565b11156117f75760405162461bcd60e51b815260206004820152601d60248201527f43616e6e6f74206d696e74206d6f7265207468616e20616c6c6f7765640000006044820152606401610966565b60ff86165f90815260116020526040902054426001600160401b0390911611156118635760405162461bcd60e51b815260206004820152601b60248201527f73746172745f74696d657374616d70206e6f7420616c6c6f77656400000000006044820152606401610966565b60ff86165f908152601260205260409020546001600160401b03164211156118c95760405162461bcd60e51b8152602060048201526019602482015278195b9917dd1a5b595cdd185b5c081b9bdd08185b1b1bddd959603a1b6044820152606401610966565b6040516bffffffffffffffffffffffff193360601b166020820152603481018490525f906054016040516020818303038152906040528051906020012090506119558383808060200260200160405190810160405280939291908181526020018383602002808284375f92018290525060ff8d168152601660205260409020549250859150611e729050565b6119985760405162461bcd60e51b815260206004820152601460248201527324b73b30b634b21026b2b935b63290283937b7b360611b6044820152606401610966565b60015b8560ff168111611a4a5760078054905f6119b483612ac1565b91905055506119c587600754611bca565b600754604080513381526001602082015260ff8b16818301525f606082018190526001600160a01b038b16608083015260a082019390935260e060c08201819052810192909252517f43529d0286c91584da50fdd640a99cee9335a6d18e3ed425bafaf6ca57398271918190036101000190a180611a4281612ac1565b91505061199b565b5060ff8781165f908152601a60205260408120805492881692909190611a7590849061ffff16612a10565b92506101000a81548161ffff021916908361ffff1602179055508460ff1660175f8960ff1661ffff1681526020019081526020015f205f611ab33390565b6001600160a01b03166001600160a01b031681526020019081526020015f205f828254611ae091906129fd565b909155505050505050505050565b6001600160a01b039182165f90815260056020908152604080832093909416825291909152205460ff1690565b611b23611b9d565b6001600160a01b038116611b4c57604051631e4fbdf760e01b81525f6004820152602401610966565b611b5581611c5d565b50565b5f818152600260205260408120546001600160a01b03168061086d57604051637e27328960e01b815260048101849052602401610966565b6111ed8383836001611f25565b6006546001600160a01b0316331461139f5760405163118cdaa760e01b8152336004820152602401610966565b610934828260405180602001604052805f815250612029565b5f80611bf085858561203f565b600c54909150600160a01b900460ff1680611c1257506001600160a01b038116155b611c555760405162461bcd60e51b8152602060048201526014602482015273151c985b9cd9995c881b9bdd08195b98589b195960621b6044820152606401610966565b949350505050565b600680546001600160a01b038381166001600160a01b0319831681179093556040519116919082907f8be0079c531659141344cd1fd0a4f28419497f9722a3daafe3b4186f6b6457e0905f90a35050565b6001600160a01b038216611ce057604051630b61174360e31b81526001600160a01b0383166004820152602401610966565b6001600160a01b038381165f81815260056020908152604080832094871680845294825291829020805460ff191686151590811790915591519182527f17307eab39ab6107e8899845ad3d59bd9653f200f220920489ca2b5937696c31910160405180910390a3505050565b6001600160a01b0383163b156111cd57604051630a85bd0160e11b81526001600160a01b0384169063150b7a0290611d8e903390889087908790600401612c74565b6020604051808303815f875af1925050508015611dc8575060408051601f3d908101601f19168201909252611dc591810190612cb0565b60015b611e2f573d808015611df5576040519150601f19603f3d011682016040523d82523d5f602084013e611dfa565b606091505b5080515f03611e2757604051633250574960e11b81526001600160a01b0385166004820152602401610966565b805181602001fd5b6001600160e01b03198116630a85bd0160e11b14611e6b57604051633250574960e11b81526001600160a01b0385166004820152602401610966565b5050505050565b5f82611e7e8584612131565b14949350505050565b6060600d80546108819061297a565b60605f611ea283612173565b60010190505f816001600160401b03811115611ec057611ec06126f7565b6040519080825280601f01601f191660200182016040528015611eea576020820181803683370190505b5090508181016020015b5f19016f181899199a1a9b1b9c1cb0b131b232b360811b600a86061a8153600a8504945084611ef457509392505050565b8080611f3957506001600160a01b03821615155b15611ffa575f611f4884611b58565b90506001600160a01b03831615801590611f745750826001600160a01b0316816001600160a01b031614155b8015611f875750611f858184611aee565b155b15611fb05760405163a9fbf51f60e01b81526001600160a01b0384166004820152602401610966565b8115611ff85783856001600160a01b0316826001600160a01b03167f8c5be1e5ebec7d5bd14f71427d1e84f3dd0314c0f7b2291e5b200ac8c7c3b92560405160405180910390a45b505b50505f90815260046020526040902080546001600160a01b0319166001600160a01b0392909216919091179055565b612033838361224a565b6111ed5f848484611d4c565b5f828152600260205260408120546001600160a01b039081169083161561206b5761206b8184866122ab565b6001600160a01b038116156120a5576120865f855f80611f25565b6001600160a01b0381165f90815260036020526040902080545f190190555b6001600160a01b038516156120d3576001600160a01b0385165f908152600360205260409020805460010190555b5f8481526002602052604080822080546001600160a01b0319166001600160a01b0389811691821790925591518793918516917fddf252ad1be2c89b69c2b068fc378daa952ba7f163c4a11628f55a4df523b3ef91a4949350505050565b5f81815b845181101561216b576121618286838151811061215457612154612ccb565b602002602001015161230f565b9150600101612135565b509392505050565b5f8072184f03e93ff9f4daa797ed6e38ed64bf6a1f0160401b83106121b15772184f03e93ff9f4daa797ed6e38ed64bf6a1f0160401b830492506040015b6d04ee2d6d415b85acef810000000083106121dd576d04ee2d6d415b85acef8100000000830492506020015b662386f26fc1000083106121fb57662386f26fc10000830492506010015b6305f5e1008310612213576305f5e100830492506008015b612710831061222757612710830492506004015b60648310612239576064830492506002015b600a831061086d5760010192915050565b6001600160a01b03821661227357604051633250574960e11b81525f6004820152602401610966565b5f61227f83835f611be3565b90506001600160a01b038116156111ed576040516339e3563760e11b81525f6004820152602401610966565b6122b6838383612338565b6111ed576001600160a01b0383166122e457604051637e27328960e01b815260048101829052602401610966565b60405163177e802f60e01b81526001600160a01b038316600482015260248101829052604401610966565b5f818310612329575f828152602084905260409020611516565b505f9182526020526040902090565b5f6001600160a01b03831615801590611c555750826001600160a01b0316846001600160a01b0316148061237157506123718484611aee565b80611c555750505f908152600460205260409020546001600160a01b03908116911614919050565b6001600160e01b031981168114611b55575f80fd5b5f602082840312156123be575f80fd5b813561151681612399565b5f81518084528060208401602086015e5f602082860101526020601f19601f83011685010191505092915050565b602081525f61151660208301846123c9565b5f60208284031215612419575f80fd5b5035919050565b80356001600160a01b0381168114612436575f80fd5b919050565b5f806040838503121561244c575f80fd5b61245583612420565b946020939093013593505050565b803561ffff81168114612436575f80fd5b5f60208284031215612484575f80fd5b61151682612463565b803560ff81168114612436575f80fd5b5f80604083850312156124ae575f80fd5b6124b78361248d565b91506124c560208401612463565b90509250929050565b5f602082840312156124de575f80fd5b61151682612420565b80356001600160401b0381168114612436575f80fd5b5f805f6060848603121561250f575f80fd5b6125188461248d565b9250612526602085016124e7565b9150612534604085016124e7565b90509250925092565b5f805f805f8060a08789031215612552575f80fd5b61255b8761248d565b955061256960208801612420565b94506125776040880161248d565b93506125856060880161248d565b925060808701356001600160401b03808211156125a0575f80fd5b818901915089601f8301126125b3575f80fd5b8135818111156125c1575f80fd5b8a60208285010111156125d2575f80fd5b6020830194508093505050509295509295509295565b5f805f606084860312156125fa575f80fd5b61260384612420565b925061261160208501612420565b9150604084013590509250925092565b5f8060408385031215612632575f80fd5b6124558361248d565b8015158114611b55575f80fd5b5f8060408385031215612659575f80fd5b61266283612420565b915060208301356126728161263b565b809150509250929050565b5f806040838503121561268e575f80fd5b61269783612463565b91506124c560208401612420565b5f805f606084860312156126b7575f80fd5b6126c08461248d565b92506126ce60208501612463565b915061253460408501612463565b5f602082840312156126ec575f80fd5b81356115168161263b565b634e487b7160e01b5f52604160045260245ffd5b5f6001600160401b0380841115612724576127246126f7565b604051601f8501601f19908116603f0116810190828211818310171561274c5761274c6126f7565b81604052809350858152868686011115612764575f80fd5b858560208301375f602087830101525050509392505050565b5f805f8060808587031215612790575f80fd5b61279985612420565b93506127a760208601612420565b92506040850135915060608501356001600160401b038111156127c8575f80fd5b8501601f810187136127d8575f80fd5b6127e78782356020840161270b565b91505092959194509250565b5f8083601f840112612803575f80fd5b5081356001600160401b03811115612819575f80fd5b6020830191508360208260051b8501011115612833575f80fd5b9250929050565b5f805f805f6080868803121561284e575f80fd5b6128578661248d565b945061286560208701612420565b93506040860135925060608601356001600160401b03811115612886575f80fd5b612892888289016127f3565b969995985093965092949392505050565b5f602082840312156128b3575f80fd5b81356001600160401b038111156128c8575f80fd5b8201601f810184136128d8575f80fd5b611c558482356020840161270b565b5f805f805f8060a087890312156128fc575f80fd5b6129058761248d565b955061291360208801612420565b94506129216040880161248d565b93506060870135925060808701356001600160401b03811115612942575f80fd5b61294e89828a016127f3565b979a9699509497509295939492505050565b5f8060408385031215612971575f80fd5b61269783612420565b600181811c9082168061298e57607f821691505b6020821081036129ac57634e487b7160e01b5f52602260045260245ffd5b50919050565b60208082526018908201527f596f7520617265206e6f7420746865206f70657261746f720000000000000000604082015260600190565b634e487b7160e01b5f52601160045260245ffd5b8082018082111561086d5761086d6129e9565b61ffff818116838216019080821115612a2b57612a2b6129e9565b5092915050565b808202811582820484141761086d5761086d6129e9565b5f60208284031215612a59575f80fd5b5051919050565b60208082526026908201527f416c6c6f77616e6365206973206c657373207468616e207472616e7366657220604082015265185b5bdd5b9d60d21b606082015260800190565b5f60208284031215612ab6575f80fd5b81516115168161263b565b5f60018201612ad257612ad26129e9565b5060010190565b6001600160a01b038981168252881515602083015260ff88166040830152606082018790528516608082015260a0810184905260e060c0820181905281018290525f6101008385828501375f838501820152601f909301601f191690910190910198975050505050505050565b5f81518060208401855e5f93019283525090919050565b5f611c55612b6b8386612b46565b84612b46565b601f8211156111ed57805f5260205f20601f840160051c81016020851015612b965750805b601f840160051c820191505b81811015611e6b575f8155600101612ba2565b81516001600160401b03811115612bce57612bce6126f7565b612be281612bdc845461297a565b84612b71565b602080601f831160018114612c15575f8415612bfe5750858301515b5f19600386901b1c1916600185901b178555612c6c565b5f85815260208120601f198616915b82811015612c4357888601518255948401946001909101908401612c24565b5085821015612c6057878501515f19600388901b60f8161c191681555b505060018460011b0185555b505050505050565b6001600160a01b03858116825284166020820152604081018390526080606082018190525f90612ca6908301846123c9565b9695505050505050565b5f60208284031215612cc0575f80fd5b815161151681612399565b634e487b7160e01b5f52603260045260245ffdfea2646970667358221220c0e0abdd9b4d2dbdf7e2d1290b9d3f548d128de579b1b8ec11ba088d23903cfe64736f6c63430008190033",
			"opcodes": "PUSH1 0x80 PUSH1 0x40 MSTORE CALLVALUE DUP1 ISZERO PUSH2 0xF JUMPI PUSH0 DUP1 REVERT JUMPDEST POP PUSH1 0x40 MLOAD PUSH2 0x30B7 CODESIZE SUB DUP1 PUSH2 0x30B7 DUP4 CODECOPY DUP2 ADD PUSH1 0x40 DUP2 SWAP1 MSTORE PUSH2 0x2E SWAP2 PUSH2 0x1FE JUMP JUMPDEST DUP3 PUSH1 0x40 MLOAD DUP1 PUSH1 0x40 ADD PUSH1 0x40 MSTORE DUP1 PUSH1 0x15 DUP2 MSTORE PUSH1 0x20 ADD PUSH32 0x54455354206B697020636865636B6572206E6F64650000000000000000000000 DUP2 MSTORE POP PUSH1 0x40 MLOAD DUP1 PUSH1 0x40 ADD PUSH1 0x40 MSTORE DUP1 PUSH1 0x7 DUP2 MSTORE PUSH1 0x20 ADD PUSH7 0x4B49504E4F4445 PUSH1 0xC8 SHL DUP2 MSTORE POP DUP2 PUSH0 SWAP1 DUP2 PUSH2 0x93 SWAP2 SWAP1 PUSH2 0x2D6 JUMP JUMPDEST POP PUSH1 0x1 PUSH2 0xA0 DUP3 DUP3 PUSH2 0x2D6 JUMP JUMPDEST POP POP POP PUSH1 0x1 PUSH1 0x1 PUSH1 0xA0 SHL SUB DUP2 AND PUSH2 0xD0 JUMPI PUSH1 0x40 MLOAD PUSH4 0x1E4FBDF7 PUSH1 0xE0 SHL DUP2 MSTORE PUSH0 PUSH1 0x4 DUP3 ADD MSTORE PUSH1 0x24 ADD PUSH1 0x40 MLOAD DUP1 SWAP2 SUB SWAP1 REVERT JUMPDEST PUSH2 0xD9 DUP2 PUSH2 0x192 JUMP JUMPDEST POP PUSH1 0x8 DUP1 SLOAD PUSH1 0x1 PUSH1 0x1 PUSH1 0xA0 SHL SUB NOT SWAP1 DUP2 AND PUSH1 0x1 PUSH1 0x1 PUSH1 0xA0 SHL SUB DUP6 DUP2 AND SWAP2 DUP3 OR SWAP1 SWAP4 SSTORE PUSH1 0x9 DUP1 SLOAD DUP4 AND SWAP1 SWAP2 OR SWAP1 SSTORE PUSH1 0xA DUP1 SLOAD DUP3 AND SWAP3 DUP5 AND SWAP3 DUP4 OR SWAP1 SSTORE PUSH1 0xB DUP1 SLOAD SWAP1 SWAP2 AND SWAP1 SWAP2 OR SWAP1 SSTORE PUSH1 0xC DUP1 SLOAD PUSH1 0x1 PUSH1 0x1 PUSH1 0xB8 SHL SUB NOT AND PUSH22 0x26006E3BBB13330102989AC110163E4C649D0BB88777 OR SWAP1 SSTORE PUSH1 0x40 DUP1 MLOAD DUP1 DUP3 ADD SWAP1 SWAP2 MSTORE PUSH1 0x19 DUP2 MSTORE PUSH32 0x68747470733A2F2F6E6F64652D6E66742E6B69702E70726F2F00000000000000 PUSH1 0x20 DUP3 ADD MSTORE PUSH1 0xD SWAP1 PUSH2 0x189 SWAP1 DUP3 PUSH2 0x2D6 JUMP JUMPDEST POP POP POP POP PUSH2 0x395 JUMP JUMPDEST PUSH1 0x6 DUP1 SLOAD PUSH1 0x1 PUSH1 0x1 PUSH1 0xA0 SHL SUB DUP4 DUP2 AND PUSH1 0x1 PUSH1 0x1 PUSH1 0xA0 SHL SUB NOT DUP4 AND DUP2 OR SWAP1 SWAP4 SSTORE PUSH1 0x40 MLOAD SWAP2 AND SWAP2 SWAP1 DUP3 SWAP1 PUSH32 0x8BE0079C531659141344CD1FD0A4F28419497F9722A3DAAFE3B4186F6B6457E0 SWAP1 PUSH0 SWAP1 LOG3 POP POP JUMP JUMPDEST DUP1 MLOAD PUSH1 0x1 PUSH1 0x1 PUSH1 0xA0 SHL SUB DUP2 AND DUP2 EQ PUSH2 0x1F9 JUMPI PUSH0 DUP1 REVERT JUMPDEST SWAP2 SWAP1 POP JUMP JUMPDEST PUSH0 DUP1 PUSH0 PUSH1 0x60 DUP5 DUP7 SUB SLT ISZERO PUSH2 0x210 JUMPI PUSH0 DUP1 REVERT JUMPDEST PUSH2 0x219 DUP5 PUSH2 0x1E3 JUMP JUMPDEST SWAP3 POP PUSH2 0x227 PUSH1 0x20 DUP6 ADD PUSH2 0x1E3 JUMP JUMPDEST SWAP2 POP PUSH2 0x235 PUSH1 0x40 DUP6 ADD PUSH2 0x1E3 JUMP JUMPDEST SWAP1 POP SWAP3 POP SWAP3 POP SWAP3 JUMP JUMPDEST PUSH4 0x4E487B71 PUSH1 0xE0 SHL PUSH0 MSTORE PUSH1 0x41 PUSH1 0x4 MSTORE PUSH1 0x24 PUSH0 REVERT JUMPDEST PUSH1 0x1 DUP2 DUP2 SHR SWAP1 DUP3 AND DUP1 PUSH2 0x266 JUMPI PUSH1 0x7F DUP3 AND SWAP2 POP JUMPDEST PUSH1 0x20 DUP3 LT DUP2 SUB PUSH2 0x284 JUMPI PUSH4 0x4E487B71 PUSH1 0xE0 SHL PUSH0 MSTORE PUSH1 0x22 PUSH1 0x4 MSTORE PUSH1 0x24 PUSH0 REVERT JUMPDEST POP SWAP2 SWAP1 POP JUMP JUMPDEST PUSH1 0x1F DUP3 GT ISZERO PUSH2 0x2D1 JUMPI DUP1 PUSH0 MSTORE PUSH1 0x20 PUSH0 KECCAK256 PUSH1 0x1F DUP5 ADD PUSH1 0x5 SHR DUP2 ADD PUSH1 0x20 DUP6 LT ISZERO PUSH2 0x2AF JUMPI POP DUP1 JUMPDEST PUSH1 0x1F DUP5 ADD PUSH1 0x5 SHR DUP3 ADD SWAP2 POP JUMPDEST DUP2 DUP2 LT ISZERO PUSH2 0x2CE JUMPI PUSH0 DUP2 SSTORE PUSH1 0x1 ADD PUSH2 0x2BB JUMP JUMPDEST POP POP JUMPDEST POP POP POP JUMP JUMPDEST DUP2 MLOAD PUSH1 0x1 PUSH1 0x1 PUSH1 0x40 SHL SUB DUP2 GT ISZERO PUSH2 0x2EF JUMPI PUSH2 0x2EF PUSH2 0x23E JUMP JUMPDEST PUSH2 0x303 DUP2 PUSH2 0x2FD DUP5 SLOAD PUSH2 0x252 JUMP JUMPDEST DUP5 PUSH2 0x28A JUMP JUMPDEST PUSH1 0x20 DUP1 PUSH1 0x1F DUP4 GT PUSH1 0x1 DUP2 EQ PUSH2 0x336 JUMPI PUSH0 DUP5 ISZERO PUSH2 0x31F JUMPI POP DUP6 DUP4 ADD MLOAD JUMPDEST PUSH0 NOT PUSH1 0x3 DUP7 SWAP1 SHL SHR NOT AND PUSH1 0x1 DUP6 SWAP1 SHL OR DUP6 SSTORE PUSH2 0x38D JUMP JUMPDEST PUSH0 DUP6 DUP2 MSTORE PUSH1 0x20 DUP2 KECCAK256 PUSH1 0x1F NOT DUP7 AND SWAP2 JUMPDEST DUP3 DUP2 LT ISZERO PUSH2 0x364 JUMPI DUP9 DUP7 ADD MLOAD DUP3 SSTORE SWAP5 DUP5 ADD SWAP5 PUSH1 0x1 SWAP1 SWAP2 ADD SWAP1 DUP5 ADD PUSH2 0x345 JUMP JUMPDEST POP DUP6 DUP3 LT ISZERO PUSH2 0x381 JUMPI DUP8 DUP6 ADD MLOAD PUSH0 NOT PUSH1 0x3 DUP9 SWAP1 SHL PUSH1 0xF8 AND SHR NOT AND DUP2 SSTORE JUMPDEST POP POP PUSH1 0x1 DUP5 PUSH1 0x1 SHL ADD DUP6 SSTORE JUMPDEST POP POP POP POP POP POP JUMP JUMPDEST PUSH2 0x2D15 DUP1 PUSH2 0x3A2 PUSH0 CODECOPY PUSH0 RETURN INVALID PUSH1 0x80 PUSH1 0x40 MSTORE CALLVALUE DUP1 ISZERO PUSH2 0xF JUMPI PUSH0 DUP1 REVERT JUMPDEST POP PUSH1 0x4 CALLDATASIZE LT PUSH2 0x2FF JUMPI PUSH0 CALLDATALOAD PUSH1 0xE0 SHR DUP1 PUSH4 0x75FCE015 GT PUSH2 0x195 JUMPI DUP1 PUSH4 0xCE8BA77E GT PUSH2 0xE4 JUMPI DUP1 PUSH4 0xDCF2BFF6 GT PUSH2 0x9E JUMPI DUP1 PUSH4 0xE985E9C5 GT PUSH2 0x79 JUMPI DUP1 PUSH4 0xE985E9C5 EQ PUSH2 0x7B1 JUMPI DUP1 PUSH4 0xF2FDE38B EQ PUSH2 0x7C4 JUMPI DUP1 PUSH4 0xFAF03163 EQ PUSH2 0x7D7 JUMPI DUP1 PUSH4 0xFE1A53EE EQ PUSH2 0x7FF JUMPI PUSH0 DUP1 REVERT JUMPDEST DUP1 PUSH4 0xDCF2BFF6 EQ PUSH2 0x763 JUMPI DUP1 PUSH4 0xE0DF5B6F EQ PUSH2 0x78B JUMPI DUP1 PUSH4 0xE6EEF1EA EQ PUSH2 0x79E JUMPI PUSH0 DUP1 REVERT JUMPDEST DUP1 PUSH4 0xCE8BA77E EQ PUSH2 0x6D0 JUMPI DUP1 PUSH4 0xD547CFB7 EQ PUSH2 0x6E3 JUMPI DUP1 PUSH4 0xD5C18451 EQ PUSH2 0x6EB JUMPI DUP1 PUSH4 0xD7F3C66D EQ PUSH2 0x713 JUMPI DUP1 PUSH4 0xD8140EB5 EQ PUSH2 0x726 JUMPI DUP1 PUSH4 0xD9F341FD EQ PUSH2 0x739 JUMPI PUSH0 DUP1 REVERT JUMPDEST DUP1 PUSH4 0x95D89B41 GT PUSH2 0x14F JUMPI DUP1 PUSH4 0xABD89694 GT PUSH2 0x12A JUMPI DUP1 PUSH4 0xABD89694 EQ PUSH2 0x674 JUMPI DUP1 PUSH4 0xB88D4FDE EQ PUSH2 0x697 JUMPI DUP1 PUSH4 0xBCEDC601 EQ PUSH2 0x6AA JUMPI DUP1 PUSH4 0xC87B56DD EQ PUSH2 0x6BD JUMPI PUSH0 DUP1 REVERT JUMPDEST DUP1 PUSH4 0x95D89B41 EQ PUSH2 0x646 JUMPI DUP1 PUSH4 0x9FE9F623 EQ PUSH2 0x64E JUMPI DUP1 PUSH4 0xA22CB465 EQ PUSH2 0x661 JUMPI PUSH0 DUP1 REVERT JUMPDEST DUP1 PUSH4 0x75FCE015 EQ PUSH2 0x5A7 JUMPI DUP1 PUSH4 0x7679FA1E EQ PUSH2 0x5BB JUMPI DUP1 PUSH4 0x7B3BD99D EQ PUSH2 0x5D0 JUMPI DUP1 PUSH4 0x83CEFB88 EQ PUSH2 0x5EF JUMPI DUP1 PUSH4 0x88B91908 EQ PUSH2 0x612 JUMPI DUP1 PUSH4 0x8DA5CB5B EQ PUSH2 0x635 JUMPI PUSH0 DUP1 REVERT JUMPDEST DUP1 PUSH4 0x378077A8 GT PUSH2 0x251 JUMPI DUP1 PUSH4 0x5D886F22 GT PUSH2 0x20B JUMPI DUP1 PUSH4 0x6C53C3C6 GT PUSH2 0x1E6 JUMPI DUP1 PUSH4 0x6C53C3C6 EQ PUSH2 0x543 JUMPI DUP1 PUSH4 0x6DBEE0B7 EQ PUSH2 0x556 JUMPI DUP1 PUSH4 0x70A08231 EQ PUSH2 0x58C JUMPI DUP1 PUSH4 0x715018A6 EQ PUSH2 0x59F JUMPI PUSH0 DUP1 REVERT JUMPDEST DUP1 PUSH4 0x5D886F22 EQ PUSH2 0x50A JUMPI DUP1 PUSH4 0x6352211E EQ PUSH2 0x51D JUMPI DUP1 PUSH4 0x6372444B EQ PUSH2 0x530 JUMPI PUSH0 DUP1 REVERT JUMPDEST DUP1 PUSH4 0x378077A8 EQ PUSH2 0x467 JUMPI DUP1 PUSH4 0x42842E0E EQ PUSH2 0x47A JUMPI DUP1 PUSH4 0x54D77E0E EQ PUSH2 0x48D JUMPI DUP1 PUSH4 0x558A7297 EQ PUSH2 0x4A0 JUMPI DUP1 PUSH4 0x59D8CFB1 EQ PUSH2 0x4B3 JUMPI DUP1 PUSH4 0x5BB0D128 EQ PUSH2 0x4EB JUMPI PUSH0 DUP1 REVERT JUMPDEST DUP1 PUSH4 0xF35EC07 GT PUSH2 0x2BC JUMPI DUP1 PUSH4 0x1F76EBF4 GT PUSH2 0x297 JUMPI DUP1 PUSH4 0x1F76EBF4 EQ PUSH2 0x41B JUMPI DUP1 PUSH4 0x219F65CE EQ PUSH2 0x42E JUMPI DUP1 PUSH4 0x23B872DD EQ PUSH2 0x441 JUMPI DUP1 PUSH4 0x27F22FCB EQ PUSH2 0x454 JUMPI PUSH0 DUP1 REVERT JUMPDEST DUP1 PUSH4 0xF35EC07 EQ PUSH2 0x3D3 JUMPI DUP1 PUSH4 0x12D05987 EQ PUSH2 0x3F5 JUMPI DUP1 PUSH4 0x1BB08048 EQ PUSH2 0x408 JUMPI PUSH0 DUP1 REVERT JUMPDEST DUP1 PUSH4 0x1FFC9A7 EQ PUSH2 0x303 JUMPI DUP1 PUSH4 0x6FDDE03 EQ PUSH2 0x32B JUMPI DUP1 PUSH4 0x81812FC EQ PUSH2 0x340 JUMPI DUP1 PUSH4 0x95EA7B3 EQ PUSH2 0x36B JUMPI DUP1 PUSH4 0xB24C83A EQ PUSH2 0x380 JUMPI DUP1 PUSH4 0xE4D023B EQ PUSH2 0x3C0 JUMPI JUMPDEST PUSH0 DUP1 REVERT JUMPDEST PUSH2 0x316 PUSH2 0x311 CALLDATASIZE PUSH1 0x4 PUSH2 0x23AE JUMP JUMPDEST PUSH2 0x822 JUMP JUMPDEST PUSH1 0x40 MLOAD SWAP1 ISZERO ISZERO DUP2 MSTORE PUSH1 0x20 ADD JUMPDEST PUSH1 0x40 MLOAD DUP1 SWAP2 SUB SWAP1 RETURN JUMPDEST PUSH2 0x333 PUSH2 0x873 JUMP JUMPDEST PUSH1 0x40 MLOAD PUSH2 0x322 SWAP2 SWAP1 PUSH2 0x23F7 JUMP JUMPDEST PUSH2 0x353 PUSH2 0x34E CALLDATASIZE PUSH1 0x4 PUSH2 0x2409 JUMP JUMPDEST PUSH2 0x902 JUMP JUMPDEST PUSH1 0x40 MLOAD PUSH1 0x1 PUSH1 0x1 PUSH1 0xA0 SHL SUB SWAP1 SWAP2 AND DUP2 MSTORE PUSH1 0x20 ADD PUSH2 0x322 JUMP JUMPDEST PUSH2 0x37E PUSH2 0x379 CALLDATASIZE PUSH1 0x4 PUSH2 0x243B JUMP JUMPDEST PUSH2 0x929 JUMP JUMPDEST STOP JUMPDEST PUSH2 0x3A8 PUSH2 0x38E CALLDATASIZE PUSH1 0x4 PUSH2 0x2474 JUMP JUMPDEST PUSH1 0x10 PUSH1 0x20 MSTORE PUSH0 SWAP1 DUP2 MSTORE PUSH1 0x40 SWAP1 KECCAK256 SLOAD PUSH1 0x1 PUSH1 0x1 PUSH1 0x40 SHL SUB AND DUP2 JUMP JUMPDEST PUSH1 0x40 MLOAD PUSH1 0x1 PUSH1 0x1 PUSH1 0x40 SHL SUB SWAP1 SWAP2 AND DUP2 MSTORE PUSH1 0x20 ADD PUSH2 0x322 JUMP JUMPDEST PUSH2 0x37E PUSH2 0x3CE CALLDATASIZE PUSH1 0x4 PUSH2 0x249D JUMP JUMPDEST PUSH2 0x938 JUMP JUMPDEST PUSH2 0x316 PUSH2 0x3E1 CALLDATASIZE PUSH1 0x4 PUSH2 0x24CE JUMP JUMPDEST PUSH1 0x1B PUSH1 0x20 MSTORE PUSH0 SWAP1 DUP2 MSTORE PUSH1 0x40 SWAP1 KECCAK256 SLOAD PUSH1 0xFF AND DUP2 JUMP JUMPDEST PUSH2 0x37E PUSH2 0x403 CALLDATASIZE PUSH1 0x4 PUSH2 0x24FD JUMP JUMPDEST PUSH2 0x997 JUMP JUMPDEST PUSH2 0x37E PUSH2 0x416 CALLDATASIZE PUSH1 0x4 PUSH2 0x24CE JUMP JUMPDEST PUSH2 0xA0E JUMP JUMPDEST PUSH2 0x37E PUSH2 0x429 CALLDATASIZE PUSH1 0x4 PUSH2 0x253D JUMP JUMPDEST PUSH2 0xA38 JUMP JUMPDEST PUSH2 0x37E PUSH2 0x43C CALLDATASIZE PUSH1 0x4 PUSH2 0x24FD JUMP JUMPDEST PUSH2 0x10D3 JUMP JUMPDEST PUSH2 0x37E PUSH2 0x44F CALLDATASIZE PUSH1 0x4 PUSH2 0x25E8 JUMP JUMPDEST PUSH2 0x114A JUMP JUMPDEST PUSH1 0x9 SLOAD PUSH2 0x353 SWAP1 PUSH1 0x1 PUSH1 0x1 PUSH1 0xA0 SHL SUB AND DUP2 JUMP JUMPDEST PUSH1 0xC SLOAD PUSH2 0x353 SWAP1 PUSH1 0x1 PUSH1 0x1 PUSH1 0xA0 SHL SUB AND DUP2 JUMP JUMPDEST PUSH2 0x37E PUSH2 0x488 CALLDATASIZE PUSH1 0x4 PUSH2 0x25E8 JUMP JUMPDEST PUSH2 0x11D3 JUMP JUMPDEST PUSH2 0x37E PUSH2 0x49B CALLDATASIZE PUSH1 0x4 PUSH2 0x2621 JUMP JUMPDEST PUSH2 0x11F2 JUMP JUMPDEST PUSH2 0x37E PUSH2 0x4AE CALLDATASIZE PUSH1 0x4 PUSH2 0x2648 JUMP JUMPDEST PUSH2 0x1235 JUMP JUMPDEST PUSH2 0x4DD PUSH2 0x4C1 CALLDATASIZE PUSH1 0x4 PUSH2 0x267D JUMP JUMPDEST PUSH1 0x17 PUSH1 0x20 SWAP1 DUP2 MSTORE PUSH0 SWAP3 DUP4 MSTORE PUSH1 0x40 DUP1 DUP5 KECCAK256 SWAP1 SWAP2 MSTORE SWAP1 DUP3 MSTORE SWAP1 KECCAK256 SLOAD DUP2 JUMP JUMPDEST PUSH1 0x40 MLOAD SWAP1 DUP2 MSTORE PUSH1 0x20 ADD PUSH2 0x322 JUMP JUMPDEST PUSH2 0x4DD PUSH2 0x4F9 CALLDATASIZE PUSH1 0x4 PUSH2 0x2474 JUMP JUMPDEST PUSH1 0x16 PUSH1 0x20 MSTORE PUSH0 SWAP1 DUP2 MSTORE PUSH1 0x40 SWAP1 KECCAK256 SLOAD DUP2 JUMP JUMPDEST PUSH2 0x37E PUSH2 0x518 CALLDATASIZE PUSH1 0x4 PUSH2 0x24CE JUMP JUMPDEST PUSH2 0x129F JUMP JUMPDEST PUSH2 0x353 PUSH2 0x52B CALLDATASIZE PUSH1 0x4 PUSH2 0x2409 JUMP JUMPDEST PUSH2 0x12D3 JUMP JUMPDEST PUSH2 0x37E PUSH2 0x53E CALLDATASIZE PUSH1 0x4 PUSH2 0x26A5 JUMP JUMPDEST PUSH2 0x12DD JUMP JUMPDEST PUSH1 0xB SLOAD PUSH2 0x353 SWAP1 PUSH1 0x1 PUSH1 0x1 PUSH1 0xA0 SHL SUB AND DUP2 JUMP JUMPDEST PUSH2 0x579 PUSH2 0x564 CALLDATASIZE PUSH1 0x4 PUSH2 0x2474 JUMP JUMPDEST PUSH1 0x15 PUSH1 0x20 MSTORE PUSH0 SWAP1 DUP2 MSTORE PUSH1 0x40 SWAP1 KECCAK256 SLOAD PUSH2 0xFFFF AND DUP2 JUMP JUMPDEST PUSH1 0x40 MLOAD PUSH2 0xFFFF SWAP1 SWAP2 AND DUP2 MSTORE PUSH1 0x20 ADD PUSH2 0x322 JUMP JUMPDEST PUSH2 0x4DD PUSH2 0x59A CALLDATASIZE PUSH1 0x4 PUSH2 0x24CE JUMP JUMPDEST PUSH2 0x1349 JUMP JUMPDEST PUSH2 0x37E PUSH2 0x138E JUMP JUMPDEST PUSH1 0xC SLOAD PUSH2 0x316 SWAP1 PUSH1 0x1 PUSH1 0xA0 SHL SWAP1 DIV PUSH1 0xFF AND DUP2 JUMP JUMPDEST PUSH1 0xC SLOAD PUSH2 0x579 SWAP1 PUSH1 0x1 PUSH1 0xA8 SHL SWAP1 DIV PUSH2 0xFFFF AND DUP2 JUMP JUMPDEST PUSH2 0x4DD PUSH2 0x5DE CALLDATASIZE PUSH1 0x4 PUSH2 0x2474 JUMP JUMPDEST PUSH1 0xE PUSH1 0x20 MSTORE PUSH0 SWAP1 DUP2 MSTORE PUSH1 0x40 SWAP1 KECCAK256 SLOAD DUP2 JUMP JUMPDEST PUSH2 0x579 PUSH2 0x5FD CALLDATASIZE PUSH1 0x4 PUSH2 0x2474 JUMP JUMPDEST PUSH1 0x19 PUSH1 0x20 MSTORE PUSH0 SWAP1 DUP2 MSTORE PUSH1 0x40 SWAP1 KECCAK256 SLOAD PUSH2 0xFFFF AND DUP2 JUMP JUMPDEST PUSH2 0x579 PUSH2 0x620 CALLDATASIZE PUSH1 0x4 PUSH2 0x2474 JUMP JUMPDEST PUSH1 0x13 PUSH1 0x20 MSTORE PUSH0 SWAP1 DUP2 MSTORE PUSH1 0x40 SWAP1 KECCAK256 SLOAD PUSH2 0xFFFF AND DUP2 JUMP JUMPDEST PUSH1 0x6 SLOAD PUSH1 0x1 PUSH1 0x1 PUSH1 0xA0 SHL SUB AND PUSH2 0x353 JUMP JUMPDEST PUSH2 0x333 PUSH2 0x13A1 JUMP JUMPDEST PUSH2 0x37E PUSH2 0x65C CALLDATASIZE PUSH1 0x4 PUSH2 0x26DC JUMP JUMPDEST PUSH2 0x13B0 JUMP JUMPDEST PUSH2 0x37E PUSH2 0x66F CALLDATASIZE PUSH1 0x4 PUSH2 0x2648 JUMP JUMPDEST PUSH2 0x13FC JUMP JUMPDEST PUSH2 0x579 PUSH2 0x682 CALLDATASIZE PUSH1 0x4 PUSH2 0x2474 JUMP JUMPDEST PUSH1 0x14 PUSH1 0x20 MSTORE PUSH0 SWAP1 DUP2 MSTORE PUSH1 0x40 SWAP1 KECCAK256 SLOAD PUSH2 0xFFFF AND DUP2 JUMP JUMPDEST PUSH2 0x37E PUSH2 0x6A5 CALLDATASIZE PUSH1 0x4 PUSH2 0x277D JUMP JUMPDEST PUSH2 0x1407 JUMP JUMPDEST PUSH2 0x316 PUSH2 0x6B8 CALLDATASIZE PUSH1 0x4 PUSH2 0x283A JUMP JUMPDEST PUSH2 0x141E JUMP JUMPDEST PUSH2 0x333 PUSH2 0x6CB CALLDATASIZE PUSH1 0x4 PUSH2 0x2409 JUMP JUMPDEST PUSH2 0x14B8 JUMP JUMPDEST PUSH2 0x37E PUSH2 0x6DE CALLDATASIZE PUSH1 0x4 PUSH2 0x2621 JUMP JUMPDEST PUSH2 0x151D JUMP JUMPDEST PUSH2 0x333 PUSH2 0x1560 JUMP JUMPDEST PUSH2 0x3A8 PUSH2 0x6F9 CALLDATASIZE PUSH1 0x4 PUSH2 0x2474 JUMP JUMPDEST PUSH1 0x12 PUSH1 0x20 MSTORE PUSH0 SWAP1 DUP2 MSTORE PUSH1 0x40 SWAP1 KECCAK256 SLOAD PUSH1 0x1 PUSH1 0x1 PUSH1 0x40 SHL SUB AND DUP2 JUMP JUMPDEST PUSH2 0x37E PUSH2 0x721 CALLDATASIZE PUSH1 0x4 PUSH2 0x24CE JUMP JUMPDEST PUSH2 0x15EC JUMP JUMPDEST PUSH2 0x37E PUSH2 0x734 CALLDATASIZE PUSH1 0x4 PUSH2 0x2474 JUMP JUMPDEST PUSH2 0x1620 JUMP JUMPDEST PUSH2 0x4DD PUSH2 0x747 CALLDATASIZE PUSH1 0x4 PUSH2 0x267D JUMP JUMPDEST PUSH1 0x18 PUSH1 0x20 SWAP1 DUP2 MSTORE PUSH0 SWAP3 DUP4 MSTORE PUSH1 0x40 DUP1 DUP5 KECCAK256 SWAP1 SWAP2 MSTORE SWAP1 DUP3 MSTORE SWAP1 KECCAK256 SLOAD DUP2 JUMP JUMPDEST PUSH2 0x3A8 PUSH2 0x771 CALLDATASIZE PUSH1 0x4 PUSH2 0x2474 JUMP JUMPDEST PUSH1 0xF PUSH1 0x20 MSTORE PUSH0 SWAP1 DUP2 MSTORE PUSH1 0x40 SWAP1 KECCAK256 SLOAD PUSH1 0x1 PUSH1 0x1 PUSH1 0x40 SHL SUB AND DUP2 JUMP JUMPDEST PUSH2 0x37E PUSH2 0x799 CALLDATASIZE PUSH1 0x4 PUSH2 0x28A3 JUMP JUMPDEST PUSH2 0x164A JUMP JUMPDEST PUSH2 0x37E PUSH2 0x7AC CALLDATASIZE PUSH1 0x4 PUSH2 0x28E7 JUMP JUMPDEST PUSH2 0x165E JUMP JUMPDEST PUSH2 0x316 PUSH2 0x7BF CALLDATASIZE PUSH1 0x4 PUSH2 0x2960 JUMP JUMPDEST PUSH2 0x1AEE JUMP JUMPDEST PUSH2 0x37E PUSH2 0x7D2 CALLDATASIZE PUSH1 0x4 PUSH2 0x24CE JUMP JUMPDEST PUSH2 0x1B1B JUMP JUMPDEST PUSH2 0x3A8 PUSH2 0x7E5 CALLDATASIZE PUSH1 0x4 PUSH2 0x2474 JUMP JUMPDEST PUSH1 0x11 PUSH1 0x20 MSTORE PUSH0 SWAP1 DUP2 MSTORE PUSH1 0x40 SWAP1 KECCAK256 SLOAD PUSH1 0x1 PUSH1 0x1 PUSH1 0x40 SHL SUB AND DUP2 JUMP JUMPDEST PUSH2 0x579 PUSH2 0x80D CALLDATASIZE PUSH1 0x4 PUSH2 0x2474 JUMP JUMPDEST PUSH1 0x1A PUSH1 0x20 MSTORE PUSH0 SWAP1 DUP2 MSTORE PUSH1 0x40 SWAP1 KECCAK256 SLOAD PUSH2 0xFFFF AND DUP2 JUMP JUMPDEST PUSH0 PUSH1 0x1 PUSH1 0x1 PUSH1 0xE0 SHL SUB NOT DUP3 AND PUSH4 0x80AC58CD PUSH1 0xE0 SHL EQ DUP1 PUSH2 0x852 JUMPI POP PUSH1 0x1 PUSH1 0x1 PUSH1 0xE0 SHL SUB NOT DUP3 AND PUSH4 0x5B5E139F PUSH1 0xE0 SHL EQ JUMPDEST DUP1 PUSH2 0x86D JUMPI POP PUSH4 0x1FFC9A7 PUSH1 0xE0 SHL PUSH1 0x1 PUSH1 0x1 PUSH1 0xE0 SHL SUB NOT DUP4 AND EQ JUMPDEST SWAP3 SWAP2 POP POP JUMP JUMPDEST PUSH1 0x60 PUSH0 DUP1 SLOAD PUSH2 0x881 SWAP1 PUSH2 0x297A JUMP JUMPDEST DUP1 PUSH1 0x1F ADD PUSH1 0x20 DUP1 SWAP2 DIV MUL PUSH1 0x20 ADD PUSH1 0x40 MLOAD SWAP1 DUP2 ADD PUSH1 0x40 MSTORE DUP1 SWAP3 SWAP2 SWAP1 DUP2 DUP2 MSTORE PUSH1 0x20 ADD DUP3 DUP1 SLOAD PUSH2 0x8AD SWAP1 PUSH2 0x297A JUMP JUMPDEST DUP1 ISZERO PUSH2 0x8F8 JUMPI DUP1 PUSH1 0x1F LT PUSH2 0x8CF JUMPI PUSH2 0x100 DUP1 DUP4 SLOAD DIV MUL DUP4 MSTORE SWAP2 PUSH1 0x20 ADD SWAP2 PUSH2 0x8F8 JUMP JUMPDEST DUP3 ADD SWAP2 SWAP1 PUSH0 MSTORE PUSH1 0x20 PUSH0 KECCAK256 SWAP1 JUMPDEST DUP2 SLOAD DUP2 MSTORE SWAP1 PUSH1 0x1 ADD SWAP1 PUSH1 0x20 ADD DUP1 DUP4 GT PUSH2 0x8DB JUMPI DUP3 SWAP1 SUB PUSH1 0x1F AND DUP3 ADD SWAP2 JUMPDEST POP POP POP POP POP SWAP1 POP SWAP1 JUMP JUMPDEST PUSH0 PUSH2 0x90C DUP3 PUSH2 0x1B58 JUMP JUMPDEST POP PUSH0 DUP3 DUP2 MSTORE PUSH1 0x4 PUSH1 0x20 MSTORE PUSH1 0x40 SWAP1 KECCAK256 SLOAD PUSH1 0x1 PUSH1 0x1 PUSH1 0xA0 SHL SUB AND PUSH2 0x86D JUMP JUMPDEST PUSH2 0x934 DUP3 DUP3 CALLER PUSH2 0x1B90 JUMP JUMPDEST POP POP JUMP JUMPDEST CALLER PUSH0 SWAP1 DUP2 MSTORE PUSH1 0x1B PUSH1 0x20 MSTORE PUSH1 0x40 SWAP1 KECCAK256 SLOAD PUSH1 0xFF AND PUSH2 0x96F JUMPI PUSH1 0x40 MLOAD PUSH3 0x461BCD PUSH1 0xE5 SHL DUP2 MSTORE PUSH1 0x4 ADD PUSH2 0x966 SWAP1 PUSH2 0x29B2 JUMP JUMPDEST PUSH1 0x40 MLOAD DUP1 SWAP2 SUB SWAP1 REVERT JUMPDEST PUSH1 0xFF SWAP2 SWAP1 SWAP2 AND PUSH0 SWAP1 DUP2 MSTORE PUSH1 0x14 PUSH1 0x20 MSTORE PUSH1 0x40 SWAP1 KECCAK256 DUP1 SLOAD PUSH2 0xFFFF NOT AND PUSH2 0xFFFF SWAP1 SWAP3 AND SWAP2 SWAP1 SWAP2 OR SWAP1 SSTORE JUMP JUMPDEST CALLER PUSH0 SWAP1 DUP2 MSTORE PUSH1 0x1B PUSH1 0x20 MSTORE PUSH1 0x40 SWAP1 KECCAK256 SLOAD PUSH1 0xFF AND PUSH2 0x9C5 JUMPI PUSH1 0x40 MLOAD PUSH3 0x461BCD PUSH1 0xE5 SHL DUP2 MSTORE PUSH1 0x4 ADD PUSH2 0x966 SWAP1 PUSH2 0x29B2 JUMP JUMPDEST PUSH1 0xFF SWAP3 SWAP1 SWAP3 AND PUSH0 SWAP1 DUP2 MSTORE PUSH1 0xF PUSH1 0x20 SWAP1 DUP2 MSTORE PUSH1 0x40 DUP1 DUP4 KECCAK256 DUP1 SLOAD PUSH1 0x1 PUSH1 0x1 PUSH1 0x40 SHL SUB SWAP6 DUP7 AND PUSH8 0xFFFFFFFFFFFFFFFF NOT SWAP2 DUP3 AND OR SWAP1 SWAP2 SSTORE PUSH1 0x10 SWAP1 SWAP3 MSTORE SWAP1 SWAP2 KECCAK256 DUP1 SLOAD SWAP3 SWAP1 SWAP4 AND SWAP2 AND OR SWAP1 SSTORE JUMP JUMPDEST PUSH2 0xA16 PUSH2 0x1B9D JUMP JUMPDEST PUSH1 0xC DUP1 SLOAD PUSH1 0x1 PUSH1 0x1 PUSH1 0xA0 SHL SUB NOT AND PUSH1 0x1 PUSH1 0x1 PUSH1 0xA0 SHL SUB SWAP3 SWAP1 SWAP3 AND SWAP2 SWAP1 SWAP2 OR SWAP1 SSTORE JUMP JUMPDEST PUSH0 DUP7 PUSH1 0xFF AND GT PUSH2 0xA7F JUMPI PUSH1 0x40 MLOAD PUSH3 0x461BCD PUSH1 0xE5 SHL DUP2 MSTORE PUSH1 0x20 PUSH1 0x4 DUP3 ADD MSTORE PUSH1 0x12 PUSH1 0x24 DUP3 ADD MSTORE PUSH18 0x746965722043616E2774204245205A45524F PUSH1 0x70 SHL PUSH1 0x44 DUP3 ADD MSTORE PUSH1 0x64 ADD PUSH2 0x966 JUMP JUMPDEST PUSH1 0xC SLOAD PUSH1 0x1 PUSH1 0xA8 SHL SWAP1 DIV PUSH2 0xFFFF AND PUSH1 0xFF DUP8 AND GT ISZERO PUSH2 0xAD0 JUMPI PUSH1 0x40 MLOAD PUSH3 0x461BCD PUSH1 0xE5 SHL DUP2 MSTORE PUSH1 0x20 PUSH1 0x4 DUP3 ADD MSTORE PUSH1 0xE PUSH1 0x24 DUP3 ADD MSTORE PUSH14 0x7469657220544F4F204C41524745 PUSH1 0x90 SHL PUSH1 0x44 DUP3 ADD MSTORE PUSH1 0x64 ADD PUSH2 0x966 JUMP JUMPDEST PUSH1 0xFF DUP7 DUP2 AND PUSH0 SWAP1 DUP2 MSTORE PUSH1 0x14 PUSH1 0x20 SWAP1 DUP2 MSTORE PUSH1 0x40 DUP1 DUP4 KECCAK256 SLOAD PUSH1 0x18 DUP4 MSTORE DUP2 DUP5 KECCAK256 CALLER DUP6 MSTORE SWAP1 SWAP3 MSTORE SWAP1 SWAP2 KECCAK256 SLOAD PUSH2 0xFFFF SWAP1 SWAP2 AND SWAP2 PUSH2 0xB0B SWAP2 SWAP1 DUP8 AND SWAP1 PUSH2 0x29FD JUMP JUMPDEST GT ISZERO PUSH2 0xB59 JUMPI PUSH1 0x40 MLOAD PUSH3 0x461BCD PUSH1 0xE5 SHL DUP2 MSTORE PUSH1 0x20 PUSH1 0x4 DUP3 ADD MSTORE PUSH1 0x1C PUSH1 0x24 DUP3 ADD MSTORE PUSH32 0x43616E2774206D696E74206D6F7265207468616E20616C6C6F77656400000000 PUSH1 0x44 DUP3 ADD MSTORE PUSH1 0x64 ADD PUSH2 0x966 JUMP JUMPDEST PUSH1 0xFF DUP1 DUP8 AND PUSH0 SWAP1 DUP2 MSTORE PUSH1 0x13 PUSH1 0x20 SWAP1 DUP2 MSTORE PUSH1 0x40 DUP1 DUP4 KECCAK256 SLOAD PUSH1 0x19 SWAP1 SWAP3 MSTORE SWAP1 SWAP2 KECCAK256 SLOAD PUSH2 0xFFFF SWAP2 DUP3 AND SWAP3 PUSH2 0xB8D SWAP3 SWAP1 DUP9 AND SWAP2 AND PUSH2 0x2A10 JUMP JUMPDEST PUSH2 0xFFFF AND GT ISZERO PUSH2 0xBDF JUMPI PUSH1 0x40 MLOAD PUSH3 0x461BCD PUSH1 0xE5 SHL DUP2 MSTORE PUSH1 0x20 PUSH1 0x4 DUP3 ADD MSTORE PUSH1 0x1D PUSH1 0x24 DUP3 ADD MSTORE PUSH32 0x43616E6E6F74206D696E74206D6F7265207468616E20616C6C6F776564000000 PUSH1 0x44 DUP3 ADD MSTORE PUSH1 0x64 ADD PUSH2 0x966 JUMP JUMPDEST PUSH1 0xFF DUP7 AND PUSH0 SWAP1 DUP2 MSTORE PUSH1 0xF PUSH1 0x20 MSTORE PUSH1 0x40 SWAP1 KECCAK256 SLOAD TIMESTAMP PUSH1 0x1 PUSH1 0x1 PUSH1 0x40 SHL SUB SWAP1 SWAP2 AND GT ISZERO PUSH2 0xC4B JUMPI PUSH1 0x40 MLOAD PUSH3 0x461BCD PUSH1 0xE5 SHL DUP2 MSTORE PUSH1 0x20 PUSH1 0x4 DUP3 ADD MSTORE PUSH1 0x1B PUSH1 0x24 DUP3 ADD MSTORE PUSH32 0x73746172745F74696D657374616D70206E6F7420616C6C6F7765640000000000 PUSH1 0x44 DUP3 ADD MSTORE PUSH1 0x64 ADD PUSH2 0x966 JUMP JUMPDEST PUSH1 0xFF DUP7 AND PUSH0 SWAP1 DUP2 MSTORE PUSH1 0x10 PUSH1 0x20 MSTORE PUSH1 0x40 SWAP1 KECCAK256 SLOAD PUSH1 0x1 PUSH1 0x1 PUSH1 0x40 SHL SUB AND TIMESTAMP GT ISZERO PUSH2 0xCB1 JUMPI PUSH1 0x40 MLOAD PUSH3 0x461BCD PUSH1 0xE5 SHL DUP2 MSTORE PUSH1 0x20 PUSH1 0x4 DUP3 ADD MSTORE PUSH1 0x19 PUSH1 0x24 DUP3 ADD MSTORE PUSH25 0x195B9917DD1A5B595CDD185B5C081B9BDD08185B1B1BDDD959 PUSH1 0x3A SHL PUSH1 0x44 DUP3 ADD MSTORE PUSH1 0x64 ADD PUSH2 0x966 JUMP JUMPDEST PUSH1 0xFF DUP7 AND PUSH0 SWAP1 DUP2 MSTORE PUSH1 0xE PUSH1 0x20 MSTORE PUSH1 0x40 SWAP1 KECCAK256 SLOAD ISZERO PUSH2 0xF9A JUMPI PUSH1 0xFF DUP7 DUP2 AND PUSH0 SWAP1 DUP2 MSTORE PUSH1 0xE PUSH1 0x20 MSTORE PUSH1 0x40 DUP2 KECCAK256 SLOAD SWAP1 SWAP2 PUSH2 0xCEA SWAP2 SWAP1 DUP8 AND SWAP1 PUSH2 0x2A32 JUMP JUMPDEST SWAP1 POP PUSH0 DUP5 PUSH1 0xFF AND PUSH1 0x1 SUB PUSH2 0xE23 JUMPI PUSH1 0x8 SLOAD DUP3 SWAP1 PUSH1 0x1 PUSH1 0x1 PUSH1 0xA0 SHL SUB AND PUSH4 0xDD62ED3E CALLER PUSH1 0x40 MLOAD PUSH1 0x1 PUSH1 0x1 PUSH1 0xE0 SHL SUB NOT PUSH1 0xE0 DUP5 SWAP1 SHL AND DUP2 MSTORE PUSH1 0x1 PUSH1 0x1 PUSH1 0xA0 SHL SUB SWAP1 SWAP2 AND PUSH1 0x4 DUP3 ADD MSTORE ADDRESS PUSH1 0x24 DUP3 ADD MSTORE PUSH1 0x44 ADD PUSH1 0x20 PUSH1 0x40 MLOAD DUP1 DUP4 SUB DUP2 DUP7 GAS STATICCALL ISZERO DUP1 ISZERO PUSH2 0xD54 JUMPI RETURNDATASIZE PUSH0 DUP1 RETURNDATACOPY RETURNDATASIZE PUSH0 REVERT JUMPDEST POP POP POP POP PUSH1 0x40 MLOAD RETURNDATASIZE PUSH1 0x1F NOT PUSH1 0x1F DUP3 ADD AND DUP3 ADD DUP1 PUSH1 0x40 MSTORE POP DUP2 ADD SWAP1 PUSH2 0xD78 SWAP2 SWAP1 PUSH2 0x2A49 JUMP JUMPDEST LT ISZERO PUSH2 0xD96 JUMPI PUSH1 0x40 MLOAD PUSH3 0x461BCD PUSH1 0xE5 SHL DUP2 MSTORE PUSH1 0x4 ADD PUSH2 0x966 SWAP1 PUSH2 0x2A60 JUMP JUMPDEST PUSH1 0x8 SLOAD PUSH1 0x1 PUSH1 0x1 PUSH1 0xA0 SHL SUB AND PUSH4 0x23B872DD CALLER PUSH1 0x40 MLOAD PUSH1 0x1 PUSH1 0x1 PUSH1 0xE0 SHL SUB NOT PUSH1 0xE0 DUP5 SWAP1 SHL AND DUP2 MSTORE PUSH1 0x1 PUSH1 0x1 PUSH1 0xA0 SHL SUB SWAP1 SWAP2 AND PUSH1 0x4 DUP3 ADD MSTORE ADDRESS PUSH1 0x24 DUP3 ADD MSTORE PUSH1 0x44 DUP2 ADD DUP6 SWAP1 MSTORE PUSH1 0x64 ADD PUSH1 0x20 PUSH1 0x40 MLOAD DUP1 DUP4 SUB DUP2 PUSH0 DUP8 GAS CALL ISZERO DUP1 ISZERO PUSH2 0xDF8 JUMPI RETURNDATASIZE PUSH0 DUP1 RETURNDATACOPY RETURNDATASIZE PUSH0 REVERT JUMPDEST POP POP POP POP PUSH1 0x40 MLOAD RETURNDATASIZE PUSH1 0x1F NOT PUSH1 0x1F DUP3 ADD AND DUP3 ADD DUP1 PUSH1 0x40 MSTORE POP DUP2 ADD SWAP1 PUSH2 0xE1C SWAP2 SWAP1 PUSH2 0x2AA6 JUMP JUMPDEST SWAP1 POP PUSH2 0xF4A JUMP JUMPDEST PUSH1 0xA SLOAD DUP3 SWAP1 PUSH1 0x1 PUSH1 0x1 PUSH1 0xA0 SHL SUB AND PUSH4 0xDD62ED3E CALLER PUSH1 0x40 MLOAD PUSH1 0x1 PUSH1 0x1 PUSH1 0xE0 SHL SUB NOT PUSH1 0xE0 DUP5 SWAP1 SHL AND DUP2 MSTORE PUSH1 0x1 PUSH1 0x1 PUSH1 0xA0 SHL SUB SWAP1 SWAP2 AND PUSH1 0x4 DUP3 ADD MSTORE ADDRESS PUSH1 0x24 DUP3 ADD MSTORE PUSH1 0x44 ADD PUSH1 0x20 PUSH1 0x40 MLOAD DUP1 DUP4 SUB DUP2 DUP7 GAS STATICCALL ISZERO DUP1 ISZERO PUSH2 0xE7F JUMPI RETURNDATASIZE PUSH0 DUP1 RETURNDATACOPY RETURNDATASIZE PUSH0 REVERT JUMPDEST POP POP POP POP PUSH1 0x40 MLOAD RETURNDATASIZE PUSH1 0x1F NOT PUSH1 0x1F DUP3 ADD AND DUP3 ADD DUP1 PUSH1 0x40 MSTORE POP DUP2 ADD SWAP1 PUSH2 0xEA3 SWAP2 SWAP1 PUSH2 0x2A49 JUMP JUMPDEST LT ISZERO PUSH2 0xEC1 JUMPI PUSH1 0x40 MLOAD PUSH3 0x461BCD PUSH1 0xE5 SHL DUP2 MSTORE PUSH1 0x4 ADD PUSH2 0x966 SWAP1 PUSH2 0x2A60 JUMP JUMPDEST PUSH1 0xA SLOAD PUSH1 0x1 PUSH1 0x1 PUSH1 0xA0 SHL SUB AND PUSH4 0x23B872DD CALLER PUSH1 0x40 MLOAD PUSH1 0x1 PUSH1 0x1 PUSH1 0xE0 SHL SUB NOT PUSH1 0xE0 DUP5 SWAP1 SHL AND DUP2 MSTORE PUSH1 0x1 PUSH1 0x1 PUSH1 0xA0 SHL SUB SWAP1 SWAP2 AND PUSH1 0x4 DUP3 ADD MSTORE ADDRESS PUSH1 0x24 DUP3 ADD MSTORE PUSH1 0x44 DUP2 ADD DUP6 SWAP1 MSTORE PUSH1 0x64 ADD PUSH1 0x20 PUSH1 0x40 MLOAD DUP1 DUP4 SUB DUP2 PUSH0 DUP8 GAS CALL ISZERO DUP1 ISZERO PUSH2 0xF23 JUMPI RETURNDATASIZE PUSH0 DUP1 RETURNDATACOPY RETURNDATASIZE PUSH0 REVERT JUMPDEST POP POP POP POP PUSH1 0x40 MLOAD RETURNDATASIZE PUSH1 0x1F NOT PUSH1 0x1F DUP3 ADD AND DUP3 ADD DUP1 PUSH1 0x40 MSTORE POP DUP2 ADD SWAP1 PUSH2 0xF47 SWAP2 SWAP1 PUSH2 0x2AA6 JUMP JUMPDEST SWAP1 POP JUMPDEST DUP1 PUSH2 0xF97 JUMPI PUSH1 0x40 MLOAD PUSH3 0x461BCD PUSH1 0xE5 SHL DUP2 MSTORE PUSH1 0x20 PUSH1 0x4 DUP3 ADD MSTORE PUSH1 0x18 PUSH1 0x24 DUP3 ADD MSTORE PUSH32 0x4661696C656420746F207472616E736665722066756E64730000000000000000 PUSH1 0x44 DUP3 ADD MSTORE PUSH1 0x64 ADD PUSH2 0x966 JUMP JUMPDEST POP POP JUMPDEST PUSH1 0x1 JUMPDEST DUP5 PUSH1 0xFF AND DUP2 GT PUSH2 0x1030 JUMPI PUSH1 0x7 DUP1 SLOAD SWAP1 PUSH0 PUSH2 0xFB6 DUP4 PUSH2 0x2AC1 JUMP JUMPDEST SWAP2 SWAP1 POP SSTORE POP PUSH2 0xFC7 DUP7 PUSH1 0x7 SLOAD PUSH2 0x1BCA JUMP JUMPDEST PUSH32 0x43529D0286C91584DA50FDD640A99CEE9335A6D18E3ED425BAFAF6CA57398271 CALLER PUSH1 0xFF DUP10 AND PUSH0 SWAP1 DUP2 MSTORE PUSH1 0xE PUSH1 0x20 MSTORE PUSH1 0x40 DUP1 DUP3 KECCAK256 SLOAD PUSH1 0x7 SLOAD SWAP2 MLOAD PUSH2 0x1016 SWAP5 SWAP4 SWAP3 DUP14 SWAP3 SWAP2 DUP14 SWAP2 SWAP1 DUP12 SWAP1 DUP12 SWAP1 PUSH2 0x2AD9 JUMP JUMPDEST PUSH1 0x40 MLOAD DUP1 SWAP2 SUB SWAP1 LOG1 DUP1 PUSH2 0x1028 DUP2 PUSH2 0x2AC1 JUMP JUMPDEST SWAP2 POP POP PUSH2 0xF9D JUMP JUMPDEST POP PUSH1 0xFF DUP7 DUP2 AND PUSH0 SWAP1 DUP2 MSTORE PUSH1 0x19 PUSH1 0x20 MSTORE PUSH1 0x40 DUP2 KECCAK256 DUP1 SLOAD SWAP3 DUP8 AND SWAP3 SWAP1 SWAP2 SWAP1 PUSH2 0x105B SWAP1 DUP5 SWAP1 PUSH2 0xFFFF AND PUSH2 0x2A10 JUMP JUMPDEST SWAP3 POP PUSH2 0x100 EXP DUP2 SLOAD DUP2 PUSH2 0xFFFF MUL NOT AND SWAP1 DUP4 PUSH2 0xFFFF AND MUL OR SWAP1 SSTORE POP DUP4 PUSH1 0xFF AND PUSH1 0x18 PUSH0 DUP9 PUSH1 0xFF AND PUSH2 0xFFFF AND DUP2 MSTORE PUSH1 0x20 ADD SWAP1 DUP2 MSTORE PUSH1 0x20 ADD PUSH0 KECCAK256 PUSH0 PUSH2 0x1099 CALLER SWAP1 JUMP JUMPDEST PUSH1 0x1 PUSH1 0x1 PUSH1 0xA0 SHL SUB AND PUSH1 0x1 PUSH1 0x1 PUSH1 0xA0 SHL SUB AND DUP2 MSTORE PUSH1 0x20 ADD SWAP1 DUP2 MSTORE PUSH1 0x20 ADD PUSH0 KECCAK256 PUSH0 DUP3 DUP3 SLOAD PUSH2 0x10C6 SWAP2 SWAP1 PUSH2 0x29FD JUMP JUMPDEST SWAP1 SWAP2 SSTORE POP POP POP POP POP POP POP POP JUMP JUMPDEST CALLER PUSH0 SWAP1 DUP2 MSTORE PUSH1 0x1B PUSH1 0x20 MSTORE PUSH1 0x40 SWAP1 KECCAK256 SLOAD PUSH1 0xFF AND PUSH2 0x1101 JUMPI PUSH1 0x40 MLOAD PUSH3 0x461BCD PUSH1 0xE5 SHL DUP2 MSTORE PUSH1 0x4 ADD PUSH2 0x966 SWAP1 PUSH2 0x29B2 JUMP JUMPDEST PUSH1 0xFF SWAP3 SWAP1 SWAP3 AND PUSH0 SWAP1 DUP2 MSTORE PUSH1 0x11 PUSH1 0x20 SWAP1 DUP2 MSTORE PUSH1 0x40 DUP1 DUP4 KECCAK256 DUP1 SLOAD PUSH1 0x1 PUSH1 0x1 PUSH1 0x40 SHL SUB SWAP6 DUP7 AND PUSH8 0xFFFFFFFFFFFFFFFF NOT SWAP2 DUP3 AND OR SWAP1 SWAP2 SSTORE PUSH1 0x12 SWAP1 SWAP3 MSTORE SWAP1 SWAP2 KECCAK256 DUP1 SLOAD SWAP3 SWAP1 SWAP4 AND SWAP2 AND OR SWAP1 SSTORE JUMP JUMPDEST PUSH1 0x1 PUSH1 0x1 PUSH1 0xA0 SHL SUB DUP3 AND PUSH2 0x1173 JUMPI PUSH1 0x40 MLOAD PUSH4 0x32505749 PUSH1 0xE1 SHL DUP2 MSTORE PUSH0 PUSH1 0x4 DUP3 ADD MSTORE PUSH1 0x24 ADD PUSH2 0x966 JUMP JUMPDEST PUSH0 PUSH2 0x117F DUP4 DUP4 CALLER PUSH2 0x1BE3 JUMP JUMPDEST SWAP1 POP DUP4 PUSH1 0x1 PUSH1 0x1 PUSH1 0xA0 SHL SUB AND DUP2 PUSH1 0x1 PUSH1 0x1 PUSH1 0xA0 SHL SUB AND EQ PUSH2 0x11CD JUMPI PUSH1 0x40 MLOAD PUSH4 0x64283D7B PUSH1 0xE0 SHL DUP2 MSTORE PUSH1 0x1 PUSH1 0x1 PUSH1 0xA0 SHL SUB DUP1 DUP7 AND PUSH1 0x4 DUP4 ADD MSTORE PUSH1 0x24 DUP3 ADD DUP5 SWAP1 MSTORE DUP3 AND PUSH1 0x44 DUP3 ADD MSTORE PUSH1 0x64 ADD PUSH2 0x966 JUMP JUMPDEST POP POP POP POP JUMP JUMPDEST PUSH2 0x11ED DUP4 DUP4 DUP4 PUSH1 0x40 MLOAD DUP1 PUSH1 0x20 ADD PUSH1 0x40 MSTORE DUP1 PUSH0 DUP2 MSTORE POP PUSH2 0x1407 JUMP JUMPDEST POP POP POP JUMP JUMPDEST CALLER PUSH0 SWAP1 DUP2 MSTORE PUSH1 0x1B PUSH1 0x20 MSTORE PUSH1 0x40 SWAP1 KECCAK256 SLOAD PUSH1 0xFF AND PUSH2 0x1220 JUMPI PUSH1 0x40 MLOAD PUSH3 0x461BCD PUSH1 0xE5 SHL DUP2 MSTORE PUSH1 0x4 ADD PUSH2 0x966 SWAP1 PUSH2 0x29B2 JUMP JUMPDEST PUSH1 0xFF SWAP1 SWAP2 AND PUSH0 SWAP1 DUP2 MSTORE PUSH1 0x16 PUSH1 0x20 MSTORE PUSH1 0x40 SWAP1 KECCAK256 SSTORE JUMP JUMPDEST PUSH2 0x123D PUSH2 0x1B9D JUMP JUMPDEST PUSH1 0x1 PUSH1 0x1 PUSH1 0xA0 SHL SUB DUP3 AND PUSH0 DUP2 DUP2 MSTORE PUSH1 0x1B PUSH1 0x20 SWAP1 DUP2 MSTORE PUSH1 0x40 SWAP2 DUP3 SWAP1 KECCAK256 DUP1 SLOAD PUSH1 0xFF NOT AND DUP6 ISZERO ISZERO SWAP1 DUP2 OR SWAP1 SWAP2 SSTORE DUP3 MLOAD SWAP4 DUP5 MSTORE SWAP1 DUP4 ADD MSTORE PUSH32 0x193DE8D500B5CB7B720089B258A39E9C1D0B840019A73AE7C51C3F9101732B02 SWAP2 ADD PUSH1 0x40 MLOAD DUP1 SWAP2 SUB SWAP1 LOG1 POP POP JUMP JUMPDEST PUSH2 0x12A7 PUSH2 0x1B9D JUMP JUMPDEST PUSH1 0xB DUP1 SLOAD PUSH1 0x1 PUSH1 0x1 PUSH1 0xA0 SHL SUB SWAP1 SWAP3 AND PUSH1 0x1 PUSH1 0x1 PUSH1 0xA0 SHL SUB NOT SWAP3 DUP4 AND DUP2 OR SWAP1 SWAP2 SSTORE PUSH1 0xA DUP1 SLOAD SWAP1 SWAP3 AND OR SWAP1 SSTORE JUMP JUMPDEST PUSH0 PUSH2 0x86D DUP3 PUSH2 0x1B58 JUMP JUMPDEST CALLER PUSH0 SWAP1 DUP2 MSTORE PUSH1 0x1B PUSH1 0x20 MSTORE PUSH1 0x40 SWAP1 KECCAK256 SLOAD PUSH1 0xFF AND PUSH2 0x130B JUMPI PUSH1 0x40 MLOAD PUSH3 0x461BCD PUSH1 0xE5 SHL DUP2 MSTORE PUSH1 0x4 ADD PUSH2 0x966 SWAP1 PUSH2 0x29B2 JUMP JUMPDEST PUSH1 0xFF SWAP3 SWAP1 SWAP3 AND PUSH0 SWAP1 DUP2 MSTORE PUSH1 0x13 PUSH1 0x20 SWAP1 DUP2 MSTORE PUSH1 0x40 DUP1 DUP4 KECCAK256 DUP1 SLOAD PUSH2 0xFFFF SWAP6 DUP7 AND PUSH2 0xFFFF NOT SWAP2 DUP3 AND OR SWAP1 SWAP2 SSTORE PUSH1 0x15 SWAP1 SWAP3 MSTORE SWAP1 SWAP2 KECCAK256 DUP1 SLOAD SWAP3 SWAP1 SWAP4 AND SWAP2 AND OR SWAP1 SSTORE JUMP JUMPDEST PUSH0 PUSH1 0x1 PUSH1 0x1 PUSH1 0xA0 SHL SUB DUP3 AND PUSH2 0x1373 JUMPI PUSH1 0x40 MLOAD PUSH4 0x22718AD9 PUSH1 0xE2 SHL DUP2 MSTORE PUSH0 PUSH1 0x4 DUP3 ADD MSTORE PUSH1 0x24 ADD PUSH2 0x966 JUMP JUMPDEST POP PUSH1 0x1 PUSH1 0x1 PUSH1 0xA0 SHL SUB AND PUSH0 SWAP1 DUP2 MSTORE PUSH1 0x3 PUSH1 0x20 MSTORE PUSH1 0x40 SWAP1 KECCAK256 SLOAD SWAP1 JUMP JUMPDEST PUSH2 0x1396 PUSH2 0x1B9D JUMP JUMPDEST PUSH2 0x139F PUSH0 PUSH2 0x1C5D JUMP JUMPDEST JUMP JUMPDEST PUSH1 0x60 PUSH1 0x1 DUP1 SLOAD PUSH2 0x881 SWAP1 PUSH2 0x297A JUMP JUMPDEST CALLER PUSH0 SWAP1 DUP2 MSTORE PUSH1 0x1B PUSH1 0x20 MSTORE PUSH1 0x40 SWAP1 KECCAK256 SLOAD PUSH1 0xFF AND PUSH2 0x13DE JUMPI PUSH1 0x40 MLOAD PUSH3 0x461BCD PUSH1 0xE5 SHL DUP2 MSTORE PUSH1 0x4 ADD PUSH2 0x966 SWAP1 PUSH2 0x29B2 JUMP JUMPDEST PUSH1 0xC DUP1 SLOAD SWAP2 ISZERO ISZERO PUSH1 0x1 PUSH1 0xA0 SHL MUL PUSH1 0xFF PUSH1 0xA0 SHL NOT SWAP1 SWAP3 AND SWAP2 SWAP1 SWAP2 OR SWAP1 SSTORE JUMP JUMPDEST PUSH2 0x934 CALLER DUP4 DUP4 PUSH2 0x1CAE JUMP JUMPDEST PUSH2 0x1412 DUP5 DUP5 DUP5 PUSH2 0x114A JUMP JUMPDEST PUSH2 0x11CD DUP5 DUP5 DUP5 DUP5 PUSH2 0x1D4C JUMP JUMPDEST PUSH1 0x40 MLOAD PUSH12 0xFFFFFFFFFFFFFFFFFFFFFFFF NOT PUSH1 0x60 DUP7 SWAP1 SHL AND PUSH1 0x20 DUP3 ADD MSTORE PUSH1 0x34 DUP2 ADD DUP5 SWAP1 MSTORE PUSH0 SWAP1 DUP2 SWAP1 PUSH1 0x54 ADD PUSH1 0x40 MLOAD PUSH1 0x20 DUP2 DUP4 SUB SUB DUP2 MSTORE SWAP1 PUSH1 0x40 MSTORE DUP1 MLOAD SWAP1 PUSH1 0x20 ADD KECCAK256 SWAP1 POP PUSH2 0x14AD DUP5 DUP5 DUP1 DUP1 PUSH1 0x20 MUL PUSH1 0x20 ADD PUSH1 0x40 MLOAD SWAP1 DUP2 ADD PUSH1 0x40 MSTORE DUP1 SWAP4 SWAP3 SWAP2 SWAP1 DUP2 DUP2 MSTORE PUSH1 0x20 ADD DUP4 DUP4 PUSH1 0x20 MUL DUP1 DUP3 DUP5 CALLDATACOPY PUSH0 SWAP3 ADD DUP3 SWAP1 MSTORE POP PUSH1 0xFF DUP14 AND DUP2 MSTORE PUSH1 0x16 PUSH1 0x20 MSTORE PUSH1 0x40 SWAP1 KECCAK256 SLOAD SWAP3 POP DUP6 SWAP2 POP PUSH2 0x1E72 SWAP1 POP JUMP JUMPDEST SWAP8 SWAP7 POP POP POP POP POP POP POP JUMP JUMPDEST PUSH1 0x60 PUSH2 0x14C3 DUP3 PUSH2 0x1B58 JUMP JUMPDEST POP PUSH0 PUSH2 0x14CD PUSH2 0x1E87 JUMP JUMPDEST SWAP1 POP PUSH0 DUP2 MLOAD GT PUSH2 0x14EB JUMPI PUSH1 0x40 MLOAD DUP1 PUSH1 0x20 ADD PUSH1 0x40 MSTORE DUP1 PUSH0 DUP2 MSTORE POP PUSH2 0x1516 JUMP JUMPDEST DUP1 PUSH2 0x14F5 DUP5 PUSH2 0x1E96 JUMP JUMPDEST PUSH1 0x40 MLOAD PUSH1 0x20 ADD PUSH2 0x1506 SWAP3 SWAP2 SWAP1 PUSH2 0x2B5D JUMP JUMPDEST PUSH1 0x40 MLOAD PUSH1 0x20 DUP2 DUP4 SUB SUB DUP2 MSTORE SWAP1 PUSH1 0x40 MSTORE JUMPDEST SWAP4 SWAP3 POP POP POP JUMP JUMPDEST CALLER PUSH0 SWAP1 DUP2 MSTORE PUSH1 0x1B PUSH1 0x20 MSTORE PUSH1 0x40 SWAP1 KECCAK256 SLOAD PUSH1 0xFF AND PUSH2 0x154B JUMPI PUSH1 0x40 MLOAD PUSH3 0x461BCD PUSH1 0xE5 SHL DUP2 MSTORE PUSH1 0x4 ADD PUSH2 0x966 SWAP1 PUSH2 0x29B2 JUMP JUMPDEST PUSH1 0xFF SWAP1 SWAP2 AND PUSH0 SWAP1 DUP2 MSTORE PUSH1 0xE PUSH1 0x20 MSTORE PUSH1 0x40 SWAP1 KECCAK256 SSTORE JUMP JUMPDEST PUSH1 0xD DUP1 SLOAD PUSH2 0x156D SWAP1 PUSH2 0x297A JUMP JUMPDEST DUP1 PUSH1 0x1F ADD PUSH1 0x20 DUP1 SWAP2 DIV MUL PUSH1 0x20 ADD PUSH1 0x40 MLOAD SWAP1 DUP2 ADD PUSH1 0x40 MSTORE DUP1 SWAP3 SWAP2 SWAP1 DUP2 DUP2 MSTORE PUSH1 0x20 ADD DUP3 DUP1 SLOAD PUSH2 0x1599 SWAP1 PUSH2 0x297A JUMP JUMPDEST DUP1 ISZERO PUSH2 0x15E4 JUMPI DUP1 PUSH1 0x1F LT PUSH2 0x15BB JUMPI PUSH2 0x100 DUP1 DUP4 SLOAD DIV MUL DUP4 MSTORE SWAP2 PUSH1 0x20 ADD SWAP2 PUSH2 0x15E4 JUMP JUMPDEST DUP3 ADD SWAP2 SWAP1 PUSH0 MSTORE PUSH1 0x20 PUSH0 KECCAK256 SWAP1 JUMPDEST DUP2 SLOAD DUP2 MSTORE SWAP1 PUSH1 0x1 ADD SWAP1 PUSH1 0x20 ADD DUP1 DUP4 GT PUSH2 0x15C7 JUMPI DUP3 SWAP1 SUB PUSH1 0x1F AND DUP3 ADD SWAP2 JUMPDEST POP POP POP POP POP DUP2 JUMP JUMPDEST PUSH2 0x15F4 PUSH2 0x1B9D JUMP JUMPDEST PUSH1 0x9 DUP1 SLOAD PUSH1 0x1 PUSH1 0x1 PUSH1 0xA0 SHL SUB SWAP1 SWAP3 AND PUSH1 0x1 PUSH1 0x1 PUSH1 0xA0 SHL SUB NOT SWAP3 DUP4 AND DUP2 OR SWAP1 SWAP2 SSTORE PUSH1 0x8 DUP1 SLOAD SWAP1 SWAP3 AND OR SWAP1 SSTORE JUMP JUMPDEST PUSH2 0x1628 PUSH2 0x1B9D JUMP JUMPDEST PUSH1 0xC DUP1 SLOAD PUSH2 0xFFFF SWAP1 SWAP3 AND PUSH1 0x1 PUSH1 0xA8 SHL MUL PUSH2 0xFFFF PUSH1 0xA8 SHL NOT SWAP1 SWAP3 AND SWAP2 SWAP1 SWAP2 OR SWAP1 SSTORE JUMP JUMPDEST PUSH2 0x1652 PUSH2 0x1B9D JUMP JUMPDEST PUSH1 0xD PUSH2 0x934 DUP3 DUP3 PUSH2 0x2BB5 JUMP JUMPDEST PUSH0 DUP7 PUSH1 0xFF AND GT PUSH2 0x16A5 JUMPI PUSH1 0x40 MLOAD PUSH3 0x461BCD PUSH1 0xE5 SHL DUP2 MSTORE PUSH1 0x20 PUSH1 0x4 DUP3 ADD MSTORE PUSH1 0x12 PUSH1 0x24 DUP3 ADD MSTORE PUSH18 0x746965722043616E2774204245205A45524F PUSH1 0x70 SHL PUSH1 0x44 DUP3 ADD MSTORE PUSH1 0x64 ADD PUSH2 0x966 JUMP JUMPDEST PUSH1 0xC SLOAD PUSH1 0x1 PUSH1 0xA8 SHL SWAP1 DIV PUSH2 0xFFFF AND PUSH1 0xFF DUP8 AND GT ISZERO PUSH2 0x16F6 JUMPI PUSH1 0x40 MLOAD PUSH3 0x461BCD PUSH1 0xE5 SHL DUP2 MSTORE PUSH1 0x20 PUSH1 0x4 DUP3 ADD MSTORE PUSH1 0xE PUSH1 0x24 DUP3 ADD MSTORE PUSH14 0x7469657220544F4F204C41524745 PUSH1 0x90 SHL PUSH1 0x44 DUP3 ADD MSTORE PUSH1 0x64 ADD PUSH2 0x966 JUMP JUMPDEST PUSH1 0xFF DUP1 DUP8 AND PUSH0 SWAP1 DUP2 MSTORE PUSH1 0x15 PUSH1 0x20 SWAP1 DUP2 MSTORE PUSH1 0x40 DUP1 DUP4 KECCAK256 SLOAD PUSH1 0x1A SWAP1 SWAP3 MSTORE SWAP1 SWAP2 KECCAK256 SLOAD PUSH2 0xFFFF SWAP2 DUP3 AND SWAP3 PUSH2 0x172A SWAP3 SWAP1 DUP9 AND SWAP2 AND PUSH2 0x2A10 JUMP JUMPDEST PUSH2 0xFFFF AND GT ISZERO PUSH2 0x177C JUMPI PUSH1 0x40 MLOAD PUSH3 0x461BCD PUSH1 0xE5 SHL DUP2 MSTORE PUSH1 0x20 PUSH1 0x4 DUP3 ADD MSTORE PUSH1 0x1C PUSH1 0x24 DUP3 ADD MSTORE PUSH32 0x43616E2774206D696E74206D6F7265207468616E20616C6C6F77656400000000 PUSH1 0x44 DUP3 ADD MSTORE PUSH1 0x64 ADD PUSH2 0x966 JUMP JUMPDEST PUSH1 0xFF DUP7 DUP2 AND PUSH0 SWAP1 DUP2 MSTORE PUSH1 0x17 PUSH1 0x20 SWAP1 DUP2 MSTORE PUSH1 0x40 DUP1 DUP4 KECCAK256 CALLER DUP5 MSTORE SWAP1 SWAP2 MSTORE SWAP1 KECCAK256 SLOAD DUP5 SWAP2 PUSH2 0x17A9 SWAP2 SWAP1 DUP8 AND SWAP1 PUSH2 0x29FD JUMP JUMPDEST GT ISZERO PUSH2 0x17F7 JUMPI PUSH1 0x40 MLOAD PUSH3 0x461BCD PUSH1 0xE5 SHL DUP2 MSTORE PUSH1 0x20 PUSH1 0x4 DUP3 ADD MSTORE PUSH1 0x1D PUSH1 0x24 DUP3 ADD MSTORE PUSH32 0x43616E6E6F74206D696E74206D6F7265207468616E20616C6C6F776564000000 PUSH1 0x44 DUP3 ADD MSTORE PUSH1 0x64 ADD PUSH2 0x966 JUMP JUMPDEST PUSH1 0xFF DUP7 AND PUSH0 SWAP1 DUP2 MSTORE PUSH1 0x11 PUSH1 0x20 MSTORE PUSH1 0x40 SWAP1 KECCAK256 SLOAD TIMESTAMP PUSH1 0x1 PUSH1 0x1 PUSH1 0x40 SHL SUB SWAP1 SWAP2 AND GT ISZERO PUSH2 0x1863 JUMPI PUSH1 0x40 MLOAD PUSH3 0x461BCD PUSH1 0xE5 SHL DUP2 MSTORE PUSH1 0x20 PUSH1 0x4 DUP3 ADD MSTORE PUSH1 0x1B PUSH1 0x24 DUP3 ADD MSTORE PUSH32 0x73746172745F74696D657374616D70206E6F7420616C6C6F7765640000000000 PUSH1 0x44 DUP3 ADD MSTORE PUSH1 0x64 ADD PUSH2 0x966 JUMP JUMPDEST PUSH1 0xFF DUP7 AND PUSH0 SWAP1 DUP2 MSTORE PUSH1 0x12 PUSH1 0x20 MSTORE PUSH1 0x40 SWAP1 KECCAK256 SLOAD PUSH1 0x1 PUSH1 0x1 PUSH1 0x40 SHL SUB AND TIMESTAMP GT ISZERO PUSH2 0x18C9 JUMPI PUSH1 0x40 MLOAD PUSH3 0x461BCD PUSH1 0xE5 SHL DUP2 MSTORE PUSH1 0x20 PUSH1 0x4 DUP3 ADD MSTORE PUSH1 0x19 PUSH1 0x24 DUP3 ADD MSTORE PUSH25 0x195B9917DD1A5B595CDD185B5C081B9BDD08185B1B1BDDD959 PUSH1 0x3A SHL PUSH1 0x44 DUP3 ADD MSTORE PUSH1 0x64 ADD PUSH2 0x966 JUMP JUMPDEST PUSH1 0x40 MLOAD PUSH12 0xFFFFFFFFFFFFFFFFFFFFFFFF NOT CALLER PUSH1 0x60 SHL AND PUSH1 0x20 DUP3 ADD MSTORE PUSH1 0x34 DUP2 ADD DUP5 SWAP1 MSTORE PUSH0 SWAP1 PUSH1 0x54 ADD PUSH1 0x40 MLOAD PUSH1 0x20 DUP2 DUP4 SUB SUB DUP2 MSTORE SWAP1 PUSH1 0x40 MSTORE DUP1 MLOAD SWAP1 PUSH1 0x20 ADD KECCAK256 SWAP1 POP PUSH2 0x1955 DUP4 DUP4 DUP1 DUP1 PUSH1 0x20 MUL PUSH1 0x20 ADD PUSH1 0x40 MLOAD SWAP1 DUP2 ADD PUSH1 0x40 MSTORE DUP1 SWAP4 SWAP3 SWAP2 SWAP1 DUP2 DUP2 MSTORE PUSH1 0x20 ADD DUP4 DUP4 PUSH1 0x20 MUL DUP1 DUP3 DUP5 CALLDATACOPY PUSH0 SWAP3 ADD DUP3 SWAP1 MSTORE POP PUSH1 0xFF DUP14 AND DUP2 MSTORE PUSH1 0x16 PUSH1 0x20 MSTORE PUSH1 0x40 SWAP1 KECCAK256 SLOAD SWAP3 POP DUP6 SWAP2 POP PUSH2 0x1E72 SWAP1 POP JUMP JUMPDEST PUSH2 0x1998 JUMPI PUSH1 0x40 MLOAD PUSH3 0x461BCD PUSH1 0xE5 SHL DUP2 MSTORE PUSH1 0x20 PUSH1 0x4 DUP3 ADD MSTORE PUSH1 0x14 PUSH1 0x24 DUP3 ADD MSTORE PUSH20 0x24B73B30B634B21026B2B935B63290283937B7B3 PUSH1 0x61 SHL PUSH1 0x44 DUP3 ADD MSTORE PUSH1 0x64 ADD PUSH2 0x966 JUMP JUMPDEST PUSH1 0x1 JUMPDEST DUP6 PUSH1 0xFF AND DUP2 GT PUSH2 0x1A4A JUMPI PUSH1 0x7 DUP1 SLOAD SWAP1 PUSH0 PUSH2 0x19B4 DUP4 PUSH2 0x2AC1 JUMP JUMPDEST SWAP2 SWAP1 POP SSTORE POP PUSH2 0x19C5 DUP8 PUSH1 0x7 SLOAD PUSH2 0x1BCA JUMP JUMPDEST PUSH1 0x7 SLOAD PUSH1 0x40 DUP1 MLOAD CALLER DUP2 MSTORE PUSH1 0x1 PUSH1 0x20 DUP3 ADD MSTORE PUSH1 0xFF DUP12 AND DUP2 DUP4 ADD MSTORE PUSH0 PUSH1 0x60 DUP3 ADD DUP2 SWAP1 MSTORE PUSH1 0x1 PUSH1 0x1 PUSH1 0xA0 SHL SUB DUP12 AND PUSH1 0x80 DUP4 ADD MSTORE PUSH1 0xA0 DUP3 ADD SWAP4 SWAP1 SWAP4 MSTORE PUSH1 0xE0 PUSH1 0xC0 DUP3 ADD DUP2 SWAP1 MSTORE DUP2 ADD SWAP3 SWAP1 SWAP3 MSTORE MLOAD PUSH32 0x43529D0286C91584DA50FDD640A99CEE9335A6D18E3ED425BAFAF6CA57398271 SWAP2 DUP2 SWAP1 SUB PUSH2 0x100 ADD SWAP1 LOG1 DUP1 PUSH2 0x1A42 DUP2 PUSH2 0x2AC1 JUMP JUMPDEST SWAP2 POP POP PUSH2 0x199B JUMP JUMPDEST POP PUSH1 0xFF DUP8 DUP2 AND PUSH0 SWAP1 DUP2 MSTORE PUSH1 0x1A PUSH1 0x20 MSTORE PUSH1 0x40 DUP2 KECCAK256 DUP1 SLOAD SWAP3 DUP9 AND SWAP3 SWAP1 SWAP2 SWAP1 PUSH2 0x1A75 SWAP1 DUP5 SWAP1 PUSH2 0xFFFF AND PUSH2 0x2A10 JUMP JUMPDEST SWAP3 POP PUSH2 0x100 EXP DUP2 SLOAD DUP2 PUSH2 0xFFFF MUL NOT AND SWAP1 DUP4 PUSH2 0xFFFF AND MUL OR SWAP1 SSTORE POP DUP5 PUSH1 0xFF AND PUSH1 0x17 PUSH0 DUP10 PUSH1 0xFF AND PUSH2 0xFFFF AND DUP2 MSTORE PUSH1 0x20 ADD SWAP1 DUP2 MSTORE PUSH1 0x20 ADD PUSH0 KECCAK256 PUSH0 PUSH2 0x1AB3 CALLER SWAP1 JUMP JUMPDEST PUSH1 0x1 PUSH1 0x1 PUSH1 0xA0 SHL SUB AND PUSH1 0x1 PUSH1 0x1 PUSH1 0xA0 SHL SUB AND DUP2 MSTORE PUSH1 0x20 ADD SWAP1 DUP2 MSTORE PUSH1 0x20 ADD PUSH0 KECCAK256 PUSH0 DUP3 DUP3 SLOAD PUSH2 0x1AE0 SWAP2 SWAP1 PUSH2 0x29FD JUMP JUMPDEST SWAP1 SWAP2 SSTORE POP POP POP POP POP POP POP POP POP JUMP JUMPDEST PUSH1 0x1 PUSH1 0x1 PUSH1 0xA0 SHL SUB SWAP2 DUP3 AND PUSH0 SWAP1 DUP2 MSTORE PUSH1 0x5 PUSH1 0x20 SWAP1 DUP2 MSTORE PUSH1 0x40 DUP1 DUP4 KECCAK256 SWAP4 SWAP1 SWAP5 AND DUP3 MSTORE SWAP2 SWAP1 SWAP2 MSTORE KECCAK256 SLOAD PUSH1 0xFF AND SWAP1 JUMP JUMPDEST PUSH2 0x1B23 PUSH2 0x1B9D JUMP JUMPDEST PUSH1 0x1 PUSH1 0x1 PUSH1 0xA0 SHL SUB DUP2 AND PUSH2 0x1B4C JUMPI PUSH1 0x40 MLOAD PUSH4 0x1E4FBDF7 PUSH1 0xE0 SHL DUP2 MSTORE PUSH0 PUSH1 0x4 DUP3 ADD MSTORE PUSH1 0x24 ADD PUSH2 0x966 JUMP JUMPDEST PUSH2 0x1B55 DUP2 PUSH2 0x1C5D JUMP JUMPDEST POP JUMP JUMPDEST PUSH0 DUP2 DUP2 MSTORE PUSH1 0x2 PUSH1 0x20 MSTORE PUSH1 0x40 DUP2 KECCAK256 SLOAD PUSH1 0x1 PUSH1 0x1 PUSH1 0xA0 SHL SUB AND DUP1 PUSH2 0x86D JUMPI PUSH1 0x40 MLOAD PUSH4 0x7E273289 PUSH1 0xE0 SHL DUP2 MSTORE PUSH1 0x4 DUP2 ADD DUP5 SWAP1 MSTORE PUSH1 0x24 ADD PUSH2 0x966 JUMP JUMPDEST PUSH2 0x11ED DUP4 DUP4 DUP4 PUSH1 0x1 PUSH2 0x1F25 JUMP JUMPDEST PUSH1 0x6 SLOAD PUSH1 0x1 PUSH1 0x1 PUSH1 0xA0 SHL SUB AND CALLER EQ PUSH2 0x139F JUMPI PUSH1 0x40 MLOAD PUSH4 0x118CDAA7 PUSH1 0xE0 SHL DUP2 MSTORE CALLER PUSH1 0x4 DUP3 ADD MSTORE PUSH1 0x24 ADD PUSH2 0x966 JUMP JUMPDEST PUSH2 0x934 DUP3 DUP3 PUSH1 0x40 MLOAD DUP1 PUSH1 0x20 ADD PUSH1 0x40 MSTORE DUP1 PUSH0 DUP2 MSTORE POP PUSH2 0x2029 JUMP JUMPDEST PUSH0 DUP1 PUSH2 0x1BF0 DUP6 DUP6 DUP6 PUSH2 0x203F JUMP JUMPDEST PUSH1 0xC SLOAD SWAP1 SWAP2 POP PUSH1 0x1 PUSH1 0xA0 SHL SWAP1 DIV PUSH1 0xFF AND DUP1 PUSH2 0x1C12 JUMPI POP PUSH1 0x1 PUSH1 0x1 PUSH1 0xA0 SHL SUB DUP2 AND ISZERO JUMPDEST PUSH2 0x1C55 JUMPI PUSH1 0x40 MLOAD PUSH3 0x461BCD PUSH1 0xE5 SHL DUP2 MSTORE PUSH1 0x20 PUSH1 0x4 DUP3 ADD MSTORE PUSH1 0x14 PUSH1 0x24 DUP3 ADD MSTORE PUSH20 0x151C985B9CD9995C881B9BDD08195B98589B1959 PUSH1 0x62 SHL PUSH1 0x44 DUP3 ADD MSTORE PUSH1 0x64 ADD PUSH2 0x966 JUMP JUMPDEST SWAP5 SWAP4 POP POP POP POP JUMP JUMPDEST PUSH1 0x6 DUP1 SLOAD PUSH1 0x1 PUSH1 0x1 PUSH1 0xA0 SHL SUB DUP4 DUP2 AND PUSH1 0x1 PUSH1 0x1 PUSH1 0xA0 SHL SUB NOT DUP4 AND DUP2 OR SWAP1 SWAP4 SSTORE PUSH1 0x40 MLOAD SWAP2 AND SWAP2 SWAP1 DUP3 SWAP1 PUSH32 0x8BE0079C531659141344CD1FD0A4F28419497F9722A3DAAFE3B4186F6B6457E0 SWAP1 PUSH0 SWAP1 LOG3 POP POP JUMP JUMPDEST PUSH1 0x1 PUSH1 0x1 PUSH1 0xA0 SHL SUB DUP3 AND PUSH2 0x1CE0 JUMPI PUSH1 0x40 MLOAD PUSH4 0xB611743 PUSH1 0xE3 SHL DUP2 MSTORE PUSH1 0x1 PUSH1 0x1 PUSH1 0xA0 SHL SUB DUP4 AND PUSH1 0x4 DUP3 ADD MSTORE PUSH1 0x24 ADD PUSH2 0x966 JUMP JUMPDEST PUSH1 0x1 PUSH1 0x1 PUSH1 0xA0 SHL SUB DUP4 DUP2 AND PUSH0 DUP2 DUP2 MSTORE PUSH1 0x5 PUSH1 0x20 SWAP1 DUP2 MSTORE PUSH1 0x40 DUP1 DUP4 KECCAK256 SWAP5 DUP8 AND DUP1 DUP5 MSTORE SWAP5 DUP3 MSTORE SWAP2 DUP3 SWAP1 KECCAK256 DUP1 SLOAD PUSH1 0xFF NOT AND DUP7 ISZERO ISZERO SWAP1 DUP2 OR SWAP1 SWAP2 SSTORE SWAP2 MLOAD SWAP2 DUP3 MSTORE PUSH32 0x17307EAB39AB6107E8899845AD3D59BD9653F200F220920489CA2B5937696C31 SWAP2 ADD PUSH1 0x40 MLOAD DUP1 SWAP2 SUB SWAP1 LOG3 POP POP POP JUMP JUMPDEST PUSH1 0x1 PUSH1 0x1 PUSH1 0xA0 SHL SUB DUP4 AND EXTCODESIZE ISZERO PUSH2 0x11CD JUMPI PUSH1 0x40 MLOAD PUSH4 0xA85BD01 PUSH1 0xE1 SHL DUP2 MSTORE PUSH1 0x1 PUSH1 0x1 PUSH1 0xA0 SHL SUB DUP5 AND SWAP1 PUSH4 0x150B7A02 SWAP1 PUSH2 0x1D8E SWAP1 CALLER SWAP1 DUP9 SWAP1 DUP8 SWAP1 DUP8 SWAP1 PUSH1 0x4 ADD PUSH2 0x2C74 JUMP JUMPDEST PUSH1 0x20 PUSH1 0x40 MLOAD DUP1 DUP4 SUB DUP2 PUSH0 DUP8 GAS CALL SWAP3 POP POP POP DUP1 ISZERO PUSH2 0x1DC8 JUMPI POP PUSH1 0x40 DUP1 MLOAD PUSH1 0x1F RETURNDATASIZE SWAP1 DUP2 ADD PUSH1 0x1F NOT AND DUP3 ADD SWAP1 SWAP3 MSTORE PUSH2 0x1DC5 SWAP2 DUP2 ADD SWAP1 PUSH2 0x2CB0 JUMP JUMPDEST PUSH1 0x1 JUMPDEST PUSH2 0x1E2F JUMPI RETURNDATASIZE DUP1 DUP1 ISZERO PUSH2 0x1DF5 JUMPI PUSH1 0x40 MLOAD SWAP2 POP PUSH1 0x1F NOT PUSH1 0x3F RETURNDATASIZE ADD AND DUP3 ADD PUSH1 0x40 MSTORE RETURNDATASIZE DUP3 MSTORE RETURNDATASIZE PUSH0 PUSH1 0x20 DUP5 ADD RETURNDATACOPY PUSH2 0x1DFA JUMP JUMPDEST PUSH1 0x60 SWAP2 POP JUMPDEST POP DUP1 MLOAD PUSH0 SUB PUSH2 0x1E27 JUMPI PUSH1 0x40 MLOAD PUSH4 0x32505749 PUSH1 0xE1 SHL DUP2 MSTORE PUSH1 0x1 PUSH1 0x1 PUSH1 0xA0 SHL SUB DUP6 AND PUSH1 0x4 DUP3 ADD MSTORE PUSH1 0x24 ADD PUSH2 0x966 JUMP JUMPDEST DUP1 MLOAD DUP2 PUSH1 0x20 ADD REVERT JUMPDEST PUSH1 0x1 PUSH1 0x1 PUSH1 0xE0 SHL SUB NOT DUP2 AND PUSH4 0xA85BD01 PUSH1 0xE1 SHL EQ PUSH2 0x1E6B JUMPI PUSH1 0x40 MLOAD PUSH4 0x32505749 PUSH1 0xE1 SHL DUP2 MSTORE PUSH1 0x1 PUSH1 0x1 PUSH1 0xA0 SHL SUB DUP6 AND PUSH1 0x4 DUP3 ADD MSTORE PUSH1 0x24 ADD PUSH2 0x966 JUMP JUMPDEST POP POP POP POP POP JUMP JUMPDEST PUSH0 DUP3 PUSH2 0x1E7E DUP6 DUP5 PUSH2 0x2131 JUMP JUMPDEST EQ SWAP5 SWAP4 POP POP POP POP JUMP JUMPDEST PUSH1 0x60 PUSH1 0xD DUP1 SLOAD PUSH2 0x881 SWAP1 PUSH2 0x297A JUMP JUMPDEST PUSH1 0x60 PUSH0 PUSH2 0x1EA2 DUP4 PUSH2 0x2173 JUMP JUMPDEST PUSH1 0x1 ADD SWAP1 POP PUSH0 DUP2 PUSH1 0x1 PUSH1 0x1 PUSH1 0x40 SHL SUB DUP2 GT ISZERO PUSH2 0x1EC0 JUMPI PUSH2 0x1EC0 PUSH2 0x26F7 JUMP JUMPDEST PUSH1 0x40 MLOAD SWAP1 DUP1 DUP3 MSTORE DUP1 PUSH1 0x1F ADD PUSH1 0x1F NOT AND PUSH1 0x20 ADD DUP3 ADD PUSH1 0x40 MSTORE DUP1 ISZERO PUSH2 0x1EEA JUMPI PUSH1 0x20 DUP3 ADD DUP2 DUP1 CALLDATASIZE DUP4 CALLDATACOPY ADD SWAP1 POP JUMPDEST POP SWAP1 POP DUP2 DUP2 ADD PUSH1 0x20 ADD JUMPDEST PUSH0 NOT ADD PUSH16 0x181899199A1A9B1B9C1CB0B131B232B3 PUSH1 0x81 SHL PUSH1 0xA DUP7 MOD BYTE DUP2 MSTORE8 PUSH1 0xA DUP6 DIV SWAP5 POP DUP5 PUSH2 0x1EF4 JUMPI POP SWAP4 SWAP3 POP POP POP JUMP JUMPDEST DUP1 DUP1 PUSH2 0x1F39 JUMPI POP PUSH1 0x1 PUSH1 0x1 PUSH1 0xA0 SHL SUB DUP3 AND ISZERO ISZERO JUMPDEST ISZERO PUSH2 0x1FFA JUMPI PUSH0 PUSH2 0x1F48 DUP5 PUSH2 0x1B58 JUMP JUMPDEST SWAP1 POP PUSH1 0x1 PUSH1 0x1 PUSH1 0xA0 SHL SUB DUP4 AND ISZERO DUP1 ISZERO SWAP1 PUSH2 0x1F74 JUMPI POP DUP3 PUSH1 0x1 PUSH1 0x1 PUSH1 0xA0 SHL SUB AND DUP2 PUSH1 0x1 PUSH1 0x1 PUSH1 0xA0 SHL SUB AND EQ ISZERO JUMPDEST DUP1 ISZERO PUSH2 0x1F87 JUMPI POP PUSH2 0x1F85 DUP2 DUP5 PUSH2 0x1AEE JUMP JUMPDEST ISZERO JUMPDEST ISZERO PUSH2 0x1FB0 JUMPI PUSH1 0x40 MLOAD PUSH4 0xA9FBF51F PUSH1 0xE0 SHL DUP2 MSTORE PUSH1 0x1 PUSH1 0x1 PUSH1 0xA0 SHL SUB DUP5 AND PUSH1 0x4 DUP3 ADD MSTORE PUSH1 0x24 ADD PUSH2 0x966 JUMP JUMPDEST DUP2 ISZERO PUSH2 0x1FF8 JUMPI DUP4 DUP6 PUSH1 0x1 PUSH1 0x1 PUSH1 0xA0 SHL SUB AND DUP3 PUSH1 0x1 PUSH1 0x1 PUSH1 0xA0 SHL SUB AND PUSH32 0x8C5BE1E5EBEC7D5BD14F71427D1E84F3DD0314C0F7B2291E5B200AC8C7C3B925 PUSH1 0x40 MLOAD PUSH1 0x40 MLOAD DUP1 SWAP2 SUB SWAP1 LOG4 JUMPDEST POP JUMPDEST POP POP PUSH0 SWAP1 DUP2 MSTORE PUSH1 0x4 PUSH1 0x20 MSTORE PUSH1 0x40 SWAP1 KECCAK256 DUP1 SLOAD PUSH1 0x1 PUSH1 0x1 PUSH1 0xA0 SHL SUB NOT AND PUSH1 0x1 PUSH1 0x1 PUSH1 0xA0 SHL SUB SWAP3 SWAP1 SWAP3 AND SWAP2 SWAP1 SWAP2 OR SWAP1 SSTORE JUMP JUMPDEST PUSH2 0x2033 DUP4 DUP4 PUSH2 0x224A JUMP JUMPDEST PUSH2 0x11ED PUSH0 DUP5 DUP5 DUP5 PUSH2 0x1D4C JUMP JUMPDEST PUSH0 DUP3 DUP2 MSTORE PUSH1 0x2 PUSH1 0x20 MSTORE PUSH1 0x40 DUP2 KECCAK256 SLOAD PUSH1 0x1 PUSH1 0x1 PUSH1 0xA0 SHL SUB SWAP1 DUP2 AND SWAP1 DUP4 AND ISZERO PUSH2 0x206B JUMPI PUSH2 0x206B DUP2 DUP5 DUP7 PUSH2 0x22AB JUMP JUMPDEST PUSH1 0x1 PUSH1 0x1 PUSH1 0xA0 SHL SUB DUP2 AND ISZERO PUSH2 0x20A5 JUMPI PUSH2 0x2086 PUSH0 DUP6 PUSH0 DUP1 PUSH2 0x1F25 JUMP JUMPDEST PUSH1 0x1 PUSH1 0x1 PUSH1 0xA0 SHL SUB DUP2 AND PUSH0 SWAP1 DUP2 MSTORE PUSH1 0x3 PUSH1 0x20 MSTORE PUSH1 0x40 SWAP1 KECCAK256 DUP1 SLOAD PUSH0 NOT ADD SWAP1 SSTORE JUMPDEST PUSH1 0x1 PUSH1 0x1 PUSH1 0xA0 SHL SUB DUP6 AND ISZERO PUSH2 0x20D3 JUMPI PUSH1 0x1 PUSH1 0x1 PUSH1 0xA0 SHL SUB DUP6 AND PUSH0 SWAP1 DUP2 MSTORE PUSH1 0x3 PUSH1 0x20 MSTORE PUSH1 0x40 SWAP1 KECCAK256 DUP1 SLOAD PUSH1 0x1 ADD SWAP1 SSTORE JUMPDEST PUSH0 DUP5 DUP2 MSTORE PUSH1 0x2 PUSH1 0x20 MSTORE PUSH1 0x40 DUP1 DUP3 KECCAK256 DUP1 SLOAD PUSH1 0x1 PUSH1 0x1 PUSH1 0xA0 SHL SUB NOT AND PUSH1 0x1 PUSH1 0x1 PUSH1 0xA0 SHL SUB DUP10 DUP2 AND SWAP2 DUP3 OR SWAP1 SWAP3 SSTORE SWAP2 MLOAD DUP8 SWAP4 SWAP2 DUP6 AND SWAP2 PUSH32 0xDDF252AD1BE2C89B69C2B068FC378DAA952BA7F163C4A11628F55A4DF523B3EF SWAP2 LOG4 SWAP5 SWAP4 POP POP POP POP JUMP JUMPDEST PUSH0 DUP2 DUP2 JUMPDEST DUP5 MLOAD DUP2 LT ISZERO PUSH2 0x216B JUMPI PUSH2 0x2161 DUP3 DUP7 DUP4 DUP2 MLOAD DUP2 LT PUSH2 0x2154 JUMPI PUSH2 0x2154 PUSH2 0x2CCB JUMP JUMPDEST PUSH1 0x20 MUL PUSH1 0x20 ADD ADD MLOAD PUSH2 0x230F JUMP JUMPDEST SWAP2 POP PUSH1 0x1 ADD PUSH2 0x2135 JUMP JUMPDEST POP SWAP4 SWAP3 POP POP POP JUMP JUMPDEST PUSH0 DUP1 PUSH19 0x184F03E93FF9F4DAA797ED6E38ED64BF6A1F01 PUSH1 0x40 SHL DUP4 LT PUSH2 0x21B1 JUMPI PUSH19 0x184F03E93FF9F4DAA797ED6E38ED64BF6A1F01 PUSH1 0x40 SHL DUP4 DIV SWAP3 POP PUSH1 0x40 ADD JUMPDEST PUSH14 0x4EE2D6D415B85ACEF8100000000 DUP4 LT PUSH2 0x21DD JUMPI PUSH14 0x4EE2D6D415B85ACEF8100000000 DUP4 DIV SWAP3 POP PUSH1 0x20 ADD JUMPDEST PUSH7 0x2386F26FC10000 DUP4 LT PUSH2 0x21FB JUMPI PUSH7 0x2386F26FC10000 DUP4 DIV SWAP3 POP PUSH1 0x10 ADD JUMPDEST PUSH4 0x5F5E100 DUP4 LT PUSH2 0x2213 JUMPI PUSH4 0x5F5E100 DUP4 DIV SWAP3 POP PUSH1 0x8 ADD JUMPDEST PUSH2 0x2710 DUP4 LT PUSH2 0x2227 JUMPI PUSH2 0x2710 DUP4 DIV SWAP3 POP PUSH1 0x4 ADD JUMPDEST PUSH1 0x64 DUP4 LT PUSH2 0x2239 JUMPI PUSH1 0x64 DUP4 DIV SWAP3 POP PUSH1 0x2 ADD JUMPDEST PUSH1 0xA DUP4 LT PUSH2 0x86D JUMPI PUSH1 0x1 ADD SWAP3 SWAP2 POP POP JUMP JUMPDEST PUSH1 0x1 PUSH1 0x1 PUSH1 0xA0 SHL SUB DUP3 AND PUSH2 0x2273 JUMPI PUSH1 0x40 MLOAD PUSH4 0x32505749 PUSH1 0xE1 SHL DUP2 MSTORE PUSH0 PUSH1 0x4 DUP3 ADD MSTORE PUSH1 0x24 ADD PUSH2 0x966 JUMP JUMPDEST PUSH0 PUSH2 0x227F DUP4 DUP4 PUSH0 PUSH2 0x1BE3 JUMP JUMPDEST SWAP1 POP PUSH1 0x1 PUSH1 0x1 PUSH1 0xA0 SHL SUB DUP2 AND ISZERO PUSH2 0x11ED JUMPI PUSH1 0x40 MLOAD PUSH4 0x39E35637 PUSH1 0xE1 SHL DUP2 MSTORE PUSH0 PUSH1 0x4 DUP3 ADD MSTORE PUSH1 0x24 ADD PUSH2 0x966 JUMP JUMPDEST PUSH2 0x22B6 DUP4 DUP4 DUP4 PUSH2 0x2338 JUMP JUMPDEST PUSH2 0x11ED JUMPI PUSH1 0x1 PUSH1 0x1 PUSH1 0xA0 SHL SUB DUP4 AND PUSH2 0x22E4 JUMPI PUSH1 0x40 MLOAD PUSH4 0x7E273289 PUSH1 0xE0 SHL DUP2 MSTORE PUSH1 0x4 DUP2 ADD DUP3 SWAP1 MSTORE PUSH1 0x24 ADD PUSH2 0x966 JUMP JUMPDEST PUSH1 0x40 MLOAD PUSH4 0x177E802F PUSH1 0xE0 SHL DUP2 MSTORE PUSH1 0x1 PUSH1 0x1 PUSH1 0xA0 SHL SUB DUP4 AND PUSH1 0x4 DUP3 ADD MSTORE PUSH1 0x24 DUP2 ADD DUP3 SWAP1 MSTORE PUSH1 0x44 ADD PUSH2 0x966 JUMP JUMPDEST PUSH0 DUP2 DUP4 LT PUSH2 0x2329 JUMPI PUSH0 DUP3 DUP2 MSTORE PUSH1 0x20 DUP5 SWAP1 MSTORE PUSH1 0x40 SWAP1 KECCAK256 PUSH2 0x1516 JUMP JUMPDEST POP PUSH0 SWAP2 DUP3 MSTORE PUSH1 0x20 MSTORE PUSH1 0x40 SWAP1 KECCAK256 SWAP1 JUMP JUMPDEST PUSH0 PUSH1 0x1 PUSH1 0x1 PUSH1 0xA0 SHL SUB DUP4 AND ISZERO DUP1 ISZERO SWAP1 PUSH2 0x1C55 JUMPI POP DUP3 PUSH1 0x1 PUSH1 0x1 PUSH1 0xA0 SHL SUB AND DUP5 PUSH1 0x1 PUSH1 0x1 PUSH1 0xA0 SHL SUB AND EQ DUP1 PUSH2 0x2371 JUMPI POP PUSH2 0x2371 DUP5 DUP5 PUSH2 0x1AEE JUMP JUMPDEST DUP1 PUSH2 0x1C55 JUMPI POP POP PUSH0 SWAP1 DUP2 MSTORE PUSH1 0x4 PUSH1 0x20 MSTORE PUSH1 0x40 SWAP1 KECCAK256 SLOAD PUSH1 0x1 PUSH1 0x1 PUSH1 0xA0 SHL SUB SWAP1 DUP2 AND SWAP2 AND EQ SWAP2 SWAP1 POP JUMP JUMPDEST PUSH1 0x1 PUSH1 0x1 PUSH1 0xE0 SHL SUB NOT DUP2 AND DUP2 EQ PUSH2 0x1B55 JUMPI PUSH0 DUP1 REVERT JUMPDEST PUSH0 PUSH1 0x20 DUP3 DUP5 SUB SLT ISZERO PUSH2 0x23BE JUMPI PUSH0 DUP1 REVERT JUMPDEST DUP2 CALLDATALOAD PUSH2 0x1516 DUP2 PUSH2 0x2399 JUMP JUMPDEST PUSH0 DUP2 MLOAD DUP1 DUP5 MSTORE DUP1 PUSH1 0x20 DUP5 ADD PUSH1 0x20 DUP7 ADD MCOPY PUSH0 PUSH1 0x20 DUP3 DUP7 ADD ADD MSTORE PUSH1 0x20 PUSH1 0x1F NOT PUSH1 0x1F DUP4 ADD AND DUP6 ADD ADD SWAP2 POP POP SWAP3 SWAP2 POP POP JUMP JUMPDEST PUSH1 0x20 DUP2 MSTORE PUSH0 PUSH2 0x1516 PUSH1 0x20 DUP4 ADD DUP5 PUSH2 0x23C9 JUMP JUMPDEST PUSH0 PUSH1 0x20 DUP3 DUP5 SUB SLT ISZERO PUSH2 0x2419 JUMPI PUSH0 DUP1 REVERT JUMPDEST POP CALLDATALOAD SWAP2 SWAP1 POP JUMP JUMPDEST DUP1 CALLDATALOAD PUSH1 0x1 PUSH1 0x1 PUSH1 0xA0 SHL SUB DUP2 AND DUP2 EQ PUSH2 0x2436 JUMPI PUSH0 DUP1 REVERT JUMPDEST SWAP2 SWAP1 POP JUMP JUMPDEST PUSH0 DUP1 PUSH1 0x40 DUP4 DUP6 SUB SLT ISZERO PUSH2 0x244C JUMPI PUSH0 DUP1 REVERT JUMPDEST PUSH2 0x2455 DUP4 PUSH2 0x2420 JUMP JUMPDEST SWAP5 PUSH1 0x20 SWAP4 SWAP1 SWAP4 ADD CALLDATALOAD SWAP4 POP POP POP JUMP JUMPDEST DUP1 CALLDATALOAD PUSH2 0xFFFF DUP2 AND DUP2 EQ PUSH2 0x2436 JUMPI PUSH0 DUP1 REVERT JUMPDEST PUSH0 PUSH1 0x20 DUP3 DUP5 SUB SLT ISZERO PUSH2 0x2484 JUMPI PUSH0 DUP1 REVERT JUMPDEST PUSH2 0x1516 DUP3 PUSH2 0x2463 JUMP JUMPDEST DUP1 CALLDATALOAD PUSH1 0xFF DUP2 AND DUP2 EQ PUSH2 0x2436 JUMPI PUSH0 DUP1 REVERT JUMPDEST PUSH0 DUP1 PUSH1 0x40 DUP4 DUP6 SUB SLT ISZERO PUSH2 0x24AE JUMPI PUSH0 DUP1 REVERT JUMPDEST PUSH2 0x24B7 DUP4 PUSH2 0x248D JUMP JUMPDEST SWAP2 POP PUSH2 0x24C5 PUSH1 0x20 DUP5 ADD PUSH2 0x2463 JUMP JUMPDEST SWAP1 POP SWAP3 POP SWAP3 SWAP1 POP JUMP JUMPDEST PUSH0 PUSH1 0x20 DUP3 DUP5 SUB SLT ISZERO PUSH2 0x24DE JUMPI PUSH0 DUP1 REVERT JUMPDEST PUSH2 0x1516 DUP3 PUSH2 0x2420 JUMP JUMPDEST DUP1 CALLDATALOAD PUSH1 0x1 PUSH1 0x1 PUSH1 0x40 SHL SUB DUP2 AND DUP2 EQ PUSH2 0x2436 JUMPI PUSH0 DUP1 REVERT JUMPDEST PUSH0 DUP1 PUSH0 PUSH1 0x60 DUP5 DUP7 SUB SLT ISZERO PUSH2 0x250F JUMPI PUSH0 DUP1 REVERT JUMPDEST PUSH2 0x2518 DUP5 PUSH2 0x248D JUMP JUMPDEST SWAP3 POP PUSH2 0x2526 PUSH1 0x20 DUP6 ADD PUSH2 0x24E7 JUMP JUMPDEST SWAP2 POP PUSH2 0x2534 PUSH1 0x40 DUP6 ADD PUSH2 0x24E7 JUMP JUMPDEST SWAP1 POP SWAP3 POP SWAP3 POP SWAP3 JUMP JUMPDEST PUSH0 DUP1 PUSH0 DUP1 PUSH0 DUP1 PUSH1 0xA0 DUP8 DUP10 SUB SLT ISZERO PUSH2 0x2552 JUMPI PUSH0 DUP1 REVERT JUMPDEST PUSH2 0x255B DUP8 PUSH2 0x248D JUMP JUMPDEST SWAP6 POP PUSH2 0x2569 PUSH1 0x20 DUP9 ADD PUSH2 0x2420 JUMP JUMPDEST SWAP5 POP PUSH2 0x2577 PUSH1 0x40 DUP9 ADD PUSH2 0x248D JUMP JUMPDEST SWAP4 POP PUSH2 0x2585 PUSH1 0x60 DUP9 ADD PUSH2 0x248D JUMP JUMPDEST SWAP3 POP PUSH1 0x80 DUP8 ADD CALLDATALOAD PUSH1 0x1 PUSH1 0x1 PUSH1 0x40 SHL SUB DUP1 DUP3 GT ISZERO PUSH2 0x25A0 JUMPI PUSH0 DUP1 REVERT JUMPDEST DUP2 DUP10 ADD SWAP2 POP DUP10 PUSH1 0x1F DUP4 ADD SLT PUSH2 0x25B3 JUMPI PUSH0 DUP1 REVERT JUMPDEST DUP2 CALLDATALOAD DUP2 DUP2 GT ISZERO PUSH2 0x25C1 JUMPI PUSH0 DUP1 REVERT JUMPDEST DUP11 PUSH1 0x20 DUP3 DUP6 ADD ADD GT ISZERO PUSH2 0x25D2 JUMPI PUSH0 DUP1 REVERT JUMPDEST PUSH1 0x20 DUP4 ADD SWAP5 POP DUP1 SWAP4 POP POP POP POP SWAP3 SWAP6 POP SWAP3 SWAP6 POP SWAP3 SWAP6 JUMP JUMPDEST PUSH0 DUP1 PUSH0 PUSH1 0x60 DUP5 DUP7 SUB SLT ISZERO PUSH2 0x25FA JUMPI PUSH0 DUP1 REVERT JUMPDEST PUSH2 0x2603 DUP5 PUSH2 0x2420 JUMP JUMPDEST SWAP3 POP PUSH2 0x2611 PUSH1 0x20 DUP6 ADD PUSH2 0x2420 JUMP JUMPDEST SWAP2 POP PUSH1 0x40 DUP5 ADD CALLDATALOAD SWAP1 POP SWAP3 POP SWAP3 POP SWAP3 JUMP JUMPDEST PUSH0 DUP1 PUSH1 0x40 DUP4 DUP6 SUB SLT ISZERO PUSH2 0x2632 JUMPI PUSH0 DUP1 REVERT JUMPDEST PUSH2 0x2455 DUP4 PUSH2 0x248D JUMP JUMPDEST DUP1 ISZERO ISZERO DUP2 EQ PUSH2 0x1B55 JUMPI PUSH0 DUP1 REVERT JUMPDEST PUSH0 DUP1 PUSH1 0x40 DUP4 DUP6 SUB SLT ISZERO PUSH2 0x2659 JUMPI PUSH0 DUP1 REVERT JUMPDEST PUSH2 0x2662 DUP4 PUSH2 0x2420 JUMP JUMPDEST SWAP2 POP PUSH1 0x20 DUP4 ADD CALLDATALOAD PUSH2 0x2672 DUP2 PUSH2 0x263B JUMP JUMPDEST DUP1 SWAP2 POP POP SWAP3 POP SWAP3 SWAP1 POP JUMP JUMPDEST PUSH0 DUP1 PUSH1 0x40 DUP4 DUP6 SUB SLT ISZERO PUSH2 0x268E JUMPI PUSH0 DUP1 REVERT JUMPDEST PUSH2 0x2697 DUP4 PUSH2 0x2463 JUMP JUMPDEST SWAP2 POP PUSH2 0x24C5 PUSH1 0x20 DUP5 ADD PUSH2 0x2420 JUMP JUMPDEST PUSH0 DUP1 PUSH0 PUSH1 0x60 DUP5 DUP7 SUB SLT ISZERO PUSH2 0x26B7 JUMPI PUSH0 DUP1 REVERT JUMPDEST PUSH2 0x26C0 DUP5 PUSH2 0x248D JUMP JUMPDEST SWAP3 POP PUSH2 0x26CE PUSH1 0x20 DUP6 ADD PUSH2 0x2463 JUMP JUMPDEST SWAP2 POP PUSH2 0x2534 PUSH1 0x40 DUP6 ADD PUSH2 0x2463 JUMP JUMPDEST PUSH0 PUSH1 0x20 DUP3 DUP5 SUB SLT ISZERO PUSH2 0x26EC JUMPI PUSH0 DUP1 REVERT JUMPDEST DUP2 CALLDATALOAD PUSH2 0x1516 DUP2 PUSH2 0x263B JUMP JUMPDEST PUSH4 0x4E487B71 PUSH1 0xE0 SHL PUSH0 MSTORE PUSH1 0x41 PUSH1 0x4 MSTORE PUSH1 0x24 PUSH0 REVERT JUMPDEST PUSH0 PUSH1 0x1 PUSH1 0x1 PUSH1 0x40 SHL SUB DUP1 DUP5 GT ISZERO PUSH2 0x2724 JUMPI PUSH2 0x2724 PUSH2 0x26F7 JUMP JUMPDEST PUSH1 0x40 MLOAD PUSH1 0x1F DUP6 ADD PUSH1 0x1F NOT SWAP1 DUP2 AND PUSH1 0x3F ADD AND DUP2 ADD SWAP1 DUP3 DUP3 GT DUP2 DUP4 LT OR ISZERO PUSH2 0x274C JUMPI PUSH2 0x274C PUSH2 0x26F7 JUMP JUMPDEST DUP2 PUSH1 0x40 MSTORE DUP1 SWAP4 POP DUP6 DUP2 MSTORE DUP7 DUP7 DUP7 ADD GT ISZERO PUSH2 0x2764 JUMPI PUSH0 DUP1 REVERT JUMPDEST DUP6 DUP6 PUSH1 0x20 DUP4 ADD CALLDATACOPY PUSH0 PUSH1 0x20 DUP8 DUP4 ADD ADD MSTORE POP POP POP SWAP4 SWAP3 POP POP POP JUMP JUMPDEST PUSH0 DUP1 PUSH0 DUP1 PUSH1 0x80 DUP6 DUP8 SUB SLT ISZERO PUSH2 0x2790 JUMPI PUSH0 DUP1 REVERT JUMPDEST PUSH2 0x2799 DUP6 PUSH2 0x2420 JUMP JUMPDEST SWAP4 POP PUSH2 0x27A7 PUSH1 0x20 DUP7 ADD PUSH2 0x2420 JUMP JUMPDEST SWAP3 POP PUSH1 0x40 DUP6 ADD CALLDATALOAD SWAP2 POP PUSH1 0x60 DUP6 ADD CALLDATALOAD PUSH1 0x1 PUSH1 0x1 PUSH1 0x40 SHL SUB DUP2 GT ISZERO PUSH2 0x27C8 JUMPI PUSH0 DUP1 REVERT JUMPDEST DUP6 ADD PUSH1 0x1F DUP2 ADD DUP8 SGT PUSH2 0x27D8 JUMPI PUSH0 DUP1 REVERT JUMPDEST PUSH2 0x27E7 DUP8 DUP3 CALLDATALOAD PUSH1 0x20 DUP5 ADD PUSH2 0x270B JUMP JUMPDEST SWAP2 POP POP SWAP3 SWAP6 SWAP2 SWAP5 POP SWAP3 POP JUMP JUMPDEST PUSH0 DUP1 DUP4 PUSH1 0x1F DUP5 ADD SLT PUSH2 0x2803 JUMPI PUSH0 DUP1 REVERT JUMPDEST POP DUP2 CALLDATALOAD PUSH1 0x1 PUSH1 0x1 PUSH1 0x40 SHL SUB DUP2 GT ISZERO PUSH2 0x2819 JUMPI PUSH0 DUP1 REVERT JUMPDEST PUSH1 0x20 DUP4 ADD SWAP2 POP DUP4 PUSH1 0x20 DUP3 PUSH1 0x5 SHL DUP6 ADD ADD GT ISZERO PUSH2 0x2833 JUMPI PUSH0 DUP1 REVERT JUMPDEST SWAP3 POP SWAP3 SWAP1 POP JUMP JUMPDEST PUSH0 DUP1 PUSH0 DUP1 PUSH0 PUSH1 0x80 DUP7 DUP9 SUB SLT ISZERO PUSH2 0x284E JUMPI PUSH0 DUP1 REVERT JUMPDEST PUSH2 0x2857 DUP7 PUSH2 0x248D JUMP JUMPDEST SWAP5 POP PUSH2 0x2865 PUSH1 0x20 DUP8 ADD PUSH2 0x2420 JUMP JUMPDEST SWAP4 POP PUSH1 0x40 DUP7 ADD CALLDATALOAD SWAP3 POP PUSH1 0x60 DUP7 ADD CALLDATALOAD PUSH1 0x1 PUSH1 0x1 PUSH1 0x40 SHL SUB DUP2 GT ISZERO PUSH2 0x2886 JUMPI PUSH0 DUP1 REVERT JUMPDEST PUSH2 0x2892 DUP9 DUP3 DUP10 ADD PUSH2 0x27F3 JUMP JUMPDEST SWAP7 SWAP10 SWAP6 SWAP9 POP SWAP4 SWAP7 POP SWAP3 SWAP5 SWAP4 SWAP3 POP POP POP JUMP JUMPDEST PUSH0 PUSH1 0x20 DUP3 DUP5 SUB SLT ISZERO PUSH2 0x28B3 JUMPI PUSH0 DUP1 REVERT JUMPDEST DUP2 CALLDATALOAD PUSH1 0x1 PUSH1 0x1 PUSH1 0x40 SHL SUB DUP2 GT ISZERO PUSH2 0x28C8 JUMPI PUSH0 DUP1 REVERT JUMPDEST DUP3 ADD PUSH1 0x1F DUP2 ADD DUP5 SGT PUSH2 0x28D8 JUMPI PUSH0 DUP1 REVERT JUMPDEST PUSH2 0x1C55 DUP5 DUP3 CALLDATALOAD PUSH1 0x20 DUP5 ADD PUSH2 0x270B JUMP JUMPDEST PUSH0 DUP1 PUSH0 DUP1 PUSH0 DUP1 PUSH1 0xA0 DUP8 DUP10 SUB SLT ISZERO PUSH2 0x28FC JUMPI PUSH0 DUP1 REVERT JUMPDEST PUSH2 0x2905 DUP8 PUSH2 0x248D JUMP JUMPDEST SWAP6 POP PUSH2 0x2913 PUSH1 0x20 DUP9 ADD PUSH2 0x2420 JUMP JUMPDEST SWAP5 POP PUSH2 0x2921 PUSH1 0x40 DUP9 ADD PUSH2 0x248D JUMP JUMPDEST SWAP4 POP PUSH1 0x60 DUP8 ADD CALLDATALOAD SWAP3 POP PUSH1 0x80 DUP8 ADD CALLDATALOAD PUSH1 0x1 PUSH1 0x1 PUSH1 0x40 SHL SUB DUP2 GT ISZERO PUSH2 0x2942 JUMPI PUSH0 DUP1 REVERT JUMPDEST PUSH2 0x294E DUP10 DUP3 DUP11 ADD PUSH2 0x27F3 JUMP JUMPDEST SWAP8 SWAP11 SWAP7 SWAP10 POP SWAP5 SWAP8 POP SWAP3 SWAP6 SWAP4 SWAP5 SWAP3 POP POP POP JUMP JUMPDEST PUSH0 DUP1 PUSH1 0x40 DUP4 DUP6 SUB SLT ISZERO PUSH2 0x2971 JUMPI PUSH0 DUP1 REVERT JUMPDEST PUSH2 0x2697 DUP4 PUSH2 0x2420 JUMP JUMPDEST PUSH1 0x1 DUP2 DUP2 SHR SWAP1 DUP3 AND DUP1 PUSH2 0x298E JUMPI PUSH1 0x7F DUP3 AND SWAP2 POP JUMPDEST PUSH1 0x20 DUP3 LT DUP2 SUB PUSH2 0x29AC JUMPI PUSH4 0x4E487B71 PUSH1 0xE0 SHL PUSH0 MSTORE PUSH1 0x22 PUSH1 0x4 MSTORE PUSH1 0x24 PUSH0 REVERT JUMPDEST POP SWAP2 SWAP1 POP JUMP JUMPDEST PUSH1 0x20 DUP1 DUP3 MSTORE PUSH1 0x18 SWAP1 DUP3 ADD MSTORE PUSH32 0x596F7520617265206E6F7420746865206F70657261746F720000000000000000 PUSH1 0x40 DUP3 ADD MSTORE PUSH1 0x60 ADD SWAP1 JUMP JUMPDEST PUSH4 0x4E487B71 PUSH1 0xE0 SHL PUSH0 MSTORE PUSH1 0x11 PUSH1 0x4 MSTORE PUSH1 0x24 PUSH0 REVERT JUMPDEST DUP1 DUP3 ADD DUP1 DUP3 GT ISZERO PUSH2 0x86D JUMPI PUSH2 0x86D PUSH2 0x29E9 JUMP JUMPDEST PUSH2 0xFFFF DUP2 DUP2 AND DUP4 DUP3 AND ADD SWAP1 DUP1 DUP3 GT ISZERO PUSH2 0x2A2B JUMPI PUSH2 0x2A2B PUSH2 0x29E9 JUMP JUMPDEST POP SWAP3 SWAP2 POP POP JUMP JUMPDEST DUP1 DUP3 MUL DUP2 ISZERO DUP3 DUP3 DIV DUP5 EQ OR PUSH2 0x86D JUMPI PUSH2 0x86D PUSH2 0x29E9 JUMP JUMPDEST PUSH0 PUSH1 0x20 DUP3 DUP5 SUB SLT ISZERO PUSH2 0x2A59 JUMPI PUSH0 DUP1 REVERT JUMPDEST POP MLOAD SWAP2 SWAP1 POP JUMP JUMPDEST PUSH1 0x20 DUP1 DUP3 MSTORE PUSH1 0x26 SWAP1 DUP3 ADD MSTORE PUSH32 0x416C6C6F77616E6365206973206C657373207468616E207472616E7366657220 PUSH1 0x40 DUP3 ADD MSTORE PUSH6 0x185B5BDD5B9D PUSH1 0xD2 SHL PUSH1 0x60 DUP3 ADD MSTORE PUSH1 0x80 ADD SWAP1 JUMP JUMPDEST PUSH0 PUSH1 0x20 DUP3 DUP5 SUB SLT ISZERO PUSH2 0x2AB6 JUMPI PUSH0 DUP1 REVERT JUMPDEST DUP2 MLOAD PUSH2 0x1516 DUP2 PUSH2 0x263B JUMP JUMPDEST PUSH0 PUSH1 0x1 DUP3 ADD PUSH2 0x2AD2 JUMPI PUSH2 0x2AD2 PUSH2 0x29E9 JUMP JUMPDEST POP PUSH1 0x1 ADD SWAP1 JUMP JUMPDEST PUSH1 0x1 PUSH1 0x1 PUSH1 0xA0 SHL SUB DUP10 DUP2 AND DUP3 MSTORE DUP9 ISZERO ISZERO PUSH1 0x20 DUP4 ADD MSTORE PUSH1 0xFF DUP9 AND PUSH1 0x40 DUP4 ADD MSTORE PUSH1 0x60 DUP3 ADD DUP8 SWAP1 MSTORE DUP6 AND PUSH1 0x80 DUP3 ADD MSTORE PUSH1 0xA0 DUP2 ADD DUP5 SWAP1 MSTORE PUSH1 0xE0 PUSH1 0xC0 DUP3 ADD DUP2 SWAP1 MSTORE DUP2 ADD DUP3 SWAP1 MSTORE PUSH0 PUSH2 0x100 DUP4 DUP6 DUP3 DUP6 ADD CALLDATACOPY PUSH0 DUP4 DUP6 ADD DUP3 ADD MSTORE PUSH1 0x1F SWAP1 SWAP4 ADD PUSH1 0x1F NOT AND SWAP1 SWAP2 ADD SWAP1 SWAP2 ADD SWAP9 SWAP8 POP POP POP POP POP POP POP POP JUMP JUMPDEST PUSH0 DUP2 MLOAD DUP1 PUSH1 0x20 DUP5 ADD DUP6 MCOPY PUSH0 SWAP4 ADD SWAP3 DUP4 MSTORE POP SWAP1 SWAP2 SWAP1 POP JUMP JUMPDEST PUSH0 PUSH2 0x1C55 PUSH2 0x2B6B DUP4 DUP7 PUSH2 0x2B46 JUMP JUMPDEST DUP5 PUSH2 0x2B46 JUMP JUMPDEST PUSH1 0x1F DUP3 GT ISZERO PUSH2 0x11ED JUMPI DUP1 PUSH0 MSTORE PUSH1 0x20 PUSH0 KECCAK256 PUSH1 0x1F DUP5 ADD PUSH1 0x5 SHR DUP2 ADD PUSH1 0x20 DUP6 LT ISZERO PUSH2 0x2B96 JUMPI POP DUP1 JUMPDEST PUSH1 0x1F DUP5 ADD PUSH1 0x5 SHR DUP3 ADD SWAP2 POP JUMPDEST DUP2 DUP2 LT ISZERO PUSH2 0x1E6B JUMPI PUSH0 DUP2 SSTORE PUSH1 0x1 ADD PUSH2 0x2BA2 JUMP JUMPDEST DUP2 MLOAD PUSH1 0x1 PUSH1 0x1 PUSH1 0x40 SHL SUB DUP2 GT ISZERO PUSH2 0x2BCE JUMPI PUSH2 0x2BCE PUSH2 0x26F7 JUMP JUMPDEST PUSH2 0x2BE2 DUP2 PUSH2 0x2BDC DUP5 SLOAD PUSH2 0x297A JUMP JUMPDEST DUP5 PUSH2 0x2B71 JUMP JUMPDEST PUSH1 0x20 DUP1 PUSH1 0x1F DUP4 GT PUSH1 0x1 DUP2 EQ PUSH2 0x2C15 JUMPI PUSH0 DUP5 ISZERO PUSH2 0x2BFE JUMPI POP DUP6 DUP4 ADD MLOAD JUMPDEST PUSH0 NOT PUSH1 0x3 DUP7 SWAP1 SHL SHR NOT AND PUSH1 0x1 DUP6 SWAP1 SHL OR DUP6 SSTORE PUSH2 0x2C6C JUMP JUMPDEST PUSH0 DUP6 DUP2 MSTORE PUSH1 0x20 DUP2 KECCAK256 PUSH1 0x1F NOT DUP7 AND SWAP2 JUMPDEST DUP3 DUP2 LT ISZERO PUSH2 0x2C43 JUMPI DUP9 DUP7 ADD MLOAD DUP3 SSTORE SWAP5 DUP5 ADD SWAP5 PUSH1 0x1 SWAP1 SWAP2 ADD SWAP1 DUP5 ADD PUSH2 0x2C24 JUMP JUMPDEST POP DUP6 DUP3 LT ISZERO PUSH2 0x2C60 JUMPI DUP8 DUP6 ADD MLOAD PUSH0 NOT PUSH1 0x3 DUP9 SWAP1 SHL PUSH1 0xF8 AND SHR NOT AND DUP2 SSTORE JUMPDEST POP POP PUSH1 0x1 DUP5 PUSH1 0x1 SHL ADD DUP6 SSTORE JUMPDEST POP POP POP POP POP POP JUMP JUMPDEST PUSH1 0x1 PUSH1 0x1 PUSH1 0xA0 SHL SUB DUP6 DUP2 AND DUP3 MSTORE DUP5 AND PUSH1 0x20 DUP3 ADD MSTORE PUSH1 0x40 DUP2 ADD DUP4 SWAP1 MSTORE PUSH1 0x80 PUSH1 0x60 DUP3 ADD DUP2 SWAP1 MSTORE PUSH0 SWAP1 PUSH2 0x2CA6 SWAP1 DUP4 ADD DUP5 PUSH2 0x23C9 JUMP JUMPDEST SWAP7 SWAP6 POP POP POP POP POP POP JUMP JUMPDEST PUSH0 PUSH1 0x20 DUP3 DUP5 SUB SLT ISZERO PUSH2 0x2CC0 JUMPI PUSH0 DUP1 REVERT JUMPDEST DUP2 MLOAD PUSH2 0x1516 DUP2 PUSH2 0x2399 JUMP JUMPDEST PUSH4 0x4E487B71 PUSH1 0xE0 SHL PUSH0 MSTORE PUSH1 0x32 PUSH1 0x4 MSTORE PUSH1 0x24 PUSH0 REVERT INVALID LOG2 PUSH5 0x6970667358 0x22 SLT KECCAK256 0xC0 0xE0 0xAB 0xDD SWAP12 0x4D 0x2D 0xBD 0xF7 0xE2 0xD1 0x29 SIGNEXTEND SWAP14 EXTCODEHASH SLOAD DUP14 SLT DUP14 0xE5 PUSH26 0xB1B8EC11BA088D23903CFE64736F6C6343000819003300000000 "
		},
		"gasEstimates": {
			"creation": {
				"codeDepositCost": "2308200",
				"executionCost": "infinite",
				"totalCost": "infinite"
			},
			"external": {
				"KIPFundAddress()": "2382",
				"MaxTierAmount()": "2397",
				"TransferEnabled()": "2361",
				"USDC_TokenAddress()": "2403",
				"USDT_TokenAddress()": "2470",
				"approve(address,uint256)": "31554",
				"balanceOf(address)": "2696",
				"baseTokenURI()": "infinite",
				"check_whitelist_mint(uint8,address,uint256,bytes32[])": "infinite",
				"getApproved(uint256)": "infinite",
				"isApprovedForAll(address,address)": "infinite",
				"kip_operator(address)": "2586",
				"name()": "infinite",
				"owner()": "2486",
				"ownerOf(uint256)": "infinite",
				"public_mint(uint8,address,uint8,uint8,string)": "infinite",
				"renounceOwnership()": "infinite",
				"safeTransferFrom(address,address,uint256)": "infinite",
				"safeTransferFrom(address,address,uint256,bytes)": "infinite",
				"setApprovalForAll(address,bool)": "26797",
				"setDurationPublic(uint8,uint64,uint64)": "infinite",
				"setDurationWhitelist(uint8,uint64,uint64)": "infinite",
				"setKIPFundAddress(address)": "26846",
				"setMaxTierAmount(uint16)": "26853",
				"setMerkleRoot(uint8,bytes32)": "24769",
				"setOperator(address,bool)": "28331",
				"setTokenPrice(uint8,uint256)": "24724",
				"setTokenURI(string)": "infinite",
				"setTotalCap(uint8,uint16,uint16)": "infinite",
				"setTransferEnabled(bool)": "26827",
				"setUsdcToken(address)": "51022",
				"setUsdtToken(address)": "51065",
				"setUserCap(uint8,uint16)": "infinite",
				"supportsInterface(bytes4)": "554",
				"symbol()": "infinite",
				"tier_end_timestamp_public(uint16)": "2678",
				"tier_end_timestamp_whitelist(uint16)": "2632",
				"tier_minted_amounts_public(uint16)": "2631",
				"tier_minted_amounts_whitelist(uint16)": "2651",
				"tier_price_per_token(uint16)": "2594",
				"tier_start_timestamp_public(uint16)": "2610",
				"tier_start_timestamp_whitelist(uint16)": "2653",
				"tier_total_cap_public(uint16)": "2653",
				"tier_total_cap_whitelist(uint16)": "2608",
				"tier_user_cap_public(uint16)": "2586",
				"tier_whitelist_merkle_root(uint16)": "2660",
				"tokenURI(uint256)": "infinite",
				"transferFrom(address,address,uint256)": "infinite",
				"transferOwnership(address)": "28421",
				"user_minted_amounts_public(uint16,address)": "infinite",
				"user_minted_amounts_whitelist(uint16,address)": "infinite",
				"whitelist_mint(uint8,address,uint8,uint256,bytes32[])": "infinite"
			},
			"internal": {
				"_baseURI()": "infinite",
				"_update(address,uint256,address)": "infinite"
			}
		},
		"methodIdentifiers": {
			"KIPFundAddress()": "378077a8",
			"MaxTierAmount()": "7679fa1e",
			"TransferEnabled()": "75fce015",
			"USDC_TokenAddress()": "6c53c3c6",
			"USDT_TokenAddress()": "27f22fcb",
			"approve(address,uint256)": "095ea7b3",
			"balanceOf(address)": "70a08231",
			"baseTokenURI()": "d547cfb7",
			"check_whitelist_mint(uint8,address,uint256,bytes32[])": "bcedc601",
			"getApproved(uint256)": "081812fc",
			"isApprovedForAll(address,address)": "e985e9c5",
			"kip_operator(address)": "0f35ec07",
			"name()": "06fdde03",
			"owner()": "8da5cb5b",
			"ownerOf(uint256)": "6352211e",
			"public_mint(uint8,address,uint8,uint8,string)": "1f76ebf4",
			"renounceOwnership()": "715018a6",
			"safeTransferFrom(address,address,uint256)": "42842e0e",
			"safeTransferFrom(address,address,uint256,bytes)": "b88d4fde",
			"setApprovalForAll(address,bool)": "a22cb465",
			"setDurationPublic(uint8,uint64,uint64)": "12d05987",
			"setDurationWhitelist(uint8,uint64,uint64)": "219f65ce",
			"setKIPFundAddress(address)": "1bb08048",
			"setMaxTierAmount(uint16)": "d8140eb5",
			"setMerkleRoot(uint8,bytes32)": "54d77e0e",
			"setOperator(address,bool)": "558a7297",
			"setTokenPrice(uint8,uint256)": "ce8ba77e",
			"setTokenURI(string)": "e0df5b6f",
			"setTotalCap(uint8,uint16,uint16)": "6372444b",
			"setTransferEnabled(bool)": "9fe9f623",
			"setUsdcToken(address)": "5d886f22",
			"setUsdtToken(address)": "d7f3c66d",
			"setUserCap(uint8,uint16)": "0e4d023b",
			"supportsInterface(bytes4)": "01ffc9a7",
			"symbol()": "95d89b41",
			"tier_end_timestamp_public(uint16)": "0b24c83a",
			"tier_end_timestamp_whitelist(uint16)": "d5c18451",
			"tier_minted_amounts_public(uint16)": "83cefb88",
			"tier_minted_amounts_whitelist(uint16)": "fe1a53ee",
			"tier_price_per_token(uint16)": "7b3bd99d",
			"tier_start_timestamp_public(uint16)": "dcf2bff6",
			"tier_start_timestamp_whitelist(uint16)": "faf03163",
			"tier_total_cap_public(uint16)": "88b91908",
			"tier_total_cap_whitelist(uint16)": "6dbee0b7",
			"tier_user_cap_public(uint16)": "abd89694",
			"tier_whitelist_merkle_root(uint16)": "5bb0d128",
			"tokenURI(uint256)": "c87b56dd",
			"transferFrom(address,address,uint256)": "23b872dd",
			"transferOwnership(address)": "f2fde38b",
			"user_minted_amounts_public(uint16,address)": "d9f341fd",
			"user_minted_amounts_whitelist(uint16,address)": "59d8cfb1",
			"whitelist_mint(uint8,address,uint8,uint256,bytes32[])": "e6eef1ea"
		}
	},
	"abi": [
		{
			"inputs": [
				{
					"internalType": "address",
					"name": "initialOwner",
					"type": "address"
				},
				{
					"internalType": "address",
					"name": "usdt_token",
					"type": "address"
				},
				{
					"internalType": "address",
					"name": "usdc_token",
					"type": "address"
				}
			],
			"stateMutability": "nonpayable",
			"type": "constructor"
		},
		{
			"inputs": [
				{
					"internalType": "address",
					"name": "sender",
					"type": "address"
				},
				{
					"internalType": "uint256",
					"name": "tokenId",
					"type": "uint256"
				},
				{
					"internalType": "address",
					"name": "owner",
					"type": "address"
				}
			],
			"name": "ERC721IncorrectOwner",
			"type": "error"
		},
		{
			"inputs": [
				{
					"internalType": "address",
					"name": "operator",
					"type": "address"
				},
				{
					"internalType": "uint256",
					"name": "tokenId",
					"type": "uint256"
				}
			],
			"name": "ERC721InsufficientApproval",
			"type": "error"
		},
		{
			"inputs": [
				{
					"internalType": "address",
					"name": "approver",
					"type": "address"
				}
			],
			"name": "ERC721InvalidApprover",
			"type": "error"
		},
		{
			"inputs": [
				{
					"internalType": "address",
					"name": "operator",
					"type": "address"
				}
			],
			"name": "ERC721InvalidOperator",
			"type": "error"
		},
		{
			"inputs": [
				{
					"internalType": "address",
					"name": "owner",
					"type": "address"
				}
			],
			"name": "ERC721InvalidOwner",
			"type": "error"
		},
		{
			"inputs": [
				{
					"internalType": "address",
					"name": "receiver",
					"type": "address"
				}
			],
			"name": "ERC721InvalidReceiver",
			"type": "error"
		},
		{
			"inputs": [
				{
					"internalType": "address",
					"name": "sender",
					"type": "address"
				}
			],
			"name": "ERC721InvalidSender",
			"type": "error"
		},
		{
			"inputs": [
				{
					"internalType": "uint256",
					"name": "tokenId",
					"type": "uint256"
				}
			],
			"name": "ERC721NonexistentToken",
			"type": "error"
		},
		{
			"inputs": [
				{
					"internalType": "address",
					"name": "owner",
					"type": "address"
				}
			],
			"name": "OwnableInvalidOwner",
			"type": "error"
		},
		{
			"inputs": [
				{
					"internalType": "address",
					"name": "account",
					"type": "address"
				}
			],
			"name": "OwnableUnauthorizedAccount",
			"type": "error"
		},
		{
			"anonymous": false,
			"inputs": [
				{
					"indexed": true,
					"internalType": "address",
					"name": "owner",
					"type": "address"
				},
				{
					"indexed": true,
					"internalType": "address",
					"name": "approved",
					"type": "address"
				},
				{
					"indexed": true,
					"internalType": "uint256",
					"name": "tokenId",
					"type": "uint256"
				}
			],
			"name": "Approval",
			"type": "event"
		},
		{
			"anonymous": false,
			"inputs": [
				{
					"indexed": true,
					"internalType": "address",
					"name": "owner",
					"type": "address"
				},
				{
					"indexed": true,
					"internalType": "address",
					"name": "operator",
					"type": "address"
				},
				{
					"indexed": false,
					"internalType": "bool",
					"name": "approved",
					"type": "bool"
				}
			],
			"name": "ApprovalForAll",
			"type": "event"
		},
		{
			"anonymous": false,
			"inputs": [
				{
					"indexed": false,
					"internalType": "address",
					"name": "operator",
					"type": "address"
				},
				{
					"indexed": false,
					"internalType": "bool",
					"name": "enabled",
					"type": "bool"
				}
			],
			"name": "OperatorChanged",
			"type": "event"
		},
		{
			"anonymous": false,
			"inputs": [
				{
					"indexed": true,
					"internalType": "address",
					"name": "previousOwner",
					"type": "address"
				},
				{
					"indexed": true,
					"internalType": "address",
					"name": "newOwner",
					"type": "address"
				}
			],
			"name": "OwnershipTransferred",
			"type": "event"
		},
		{
			"anonymous": false,
			"inputs": [
				{
					"indexed": false,
					"internalType": "address",
					"name": "operator",
					"type": "address"
				},
				{
					"indexed": false,
					"internalType": "bool",
					"name": "whitelist",
					"type": "bool"
				},
				{
					"indexed": false,
					"internalType": "uint8",
					"name": "tier",
					"type": "uint8"
				},
				{
					"indexed": false,
					"internalType": "uint256",
					"name": "price",
					"type": "uint256"
				},
				{
					"indexed": false,
					"internalType": "address",
					"name": "to",
					"type": "address"
				},
				{
					"indexed": false,
					"internalType": "uint256",
					"name": "token_id",
					"type": "uint256"
				},
				{
					"indexed": false,
					"internalType": "string",
					"name": "code",
					"type": "string"
				}
			],
			"name": "TokenMinted",
			"type": "event"
		},
		{
			"anonymous": false,
			"inputs": [
				{
					"indexed": true,
					"internalType": "address",
					"name": "from",
					"type": "address"
				},
				{
					"indexed": true,
					"internalType": "address",
					"name": "to",
					"type": "address"
				},
				{
					"indexed": true,
					"internalType": "uint256",
					"name": "tokenId",
					"type": "uint256"
				}
			],
			"name": "Transfer",
			"type": "event"
		},
		{
			"inputs": [],
			"name": "KIPFundAddress",
			"outputs": [
				{
					"internalType": "address",
					"name": "",
					"type": "address"
				}
			],
			"stateMutability": "view",
			"type": "function"
		},
		{
			"inputs": [],
			"name": "MaxTierAmount",
			"outputs": [
				{
					"internalType": "uint16",
					"name": "",
					"type": "uint16"
				}
			],
			"stateMutability": "view",
			"type": "function"
		},
		{
			"inputs": [],
			"name": "TransferEnabled",
			"outputs": [
				{
					"internalType": "bool",
					"name": "",
					"type": "bool"
				}
			],
			"stateMutability": "view",
			"type": "function"
		},
		{
			"inputs": [],
			"name": "USDC_TokenAddress",
			"outputs": [
				{
					"internalType": "address",
					"name": "",
					"type": "address"
				}
			],
			"stateMutability": "view",
			"type": "function"
		},
		{
			"inputs": [],
			"name": "USDT_TokenAddress",
			"outputs": [
				{
					"internalType": "address",
					"name": "",
					"type": "address"
				}
			],
			"stateMutability": "view",
			"type": "function"
		},
		{
			"inputs": [
				{
					"internalType": "address",
					"name": "to",
					"type": "address"
				},
				{
					"internalType": "uint256",
					"name": "tokenId",
					"type": "uint256"
				}
			],
			"name": "approve",
			"outputs": [],
			"stateMutability": "nonpayable",
			"type": "function"
		},
		{
			"inputs": [
				{
					"internalType": "address",
					"name": "owner",
					"type": "address"
				}
			],
			"name": "balanceOf",
			"outputs": [
				{
					"internalType": "uint256",
					"name": "",
					"type": "uint256"
				}
			],
			"stateMutability": "view",
			"type": "function"
		},
		{
			"inputs": [],
			"name": "baseTokenURI",
			"outputs": [
				{
					"internalType": "string",
					"name": "",
					"type": "string"
				}
			],
			"stateMutability": "view",
			"type": "function"
		},
		{
			"inputs": [
				{
					"internalType": "uint8",
					"name": "tier",
					"type": "uint8"
				},
				{
					"internalType": "address",
					"name": "to",
					"type": "address"
				},
				{
					"internalType": "uint256",
					"name": "_maxAmount",
					"type": "uint256"
				},
				{
					"internalType": "bytes32[]",
					"name": "_merkleProof",
					"type": "bytes32[]"
				}
			],
			"name": "check_whitelist_mint",
			"outputs": [
				{
					"internalType": "bool",
					"name": "",
					"type": "bool"
				}
			],
			"stateMutability": "view",
			"type": "function"
		},
		{
			"inputs": [
				{
					"internalType": "uint256",
					"name": "tokenId",
					"type": "uint256"
				}
			],
			"name": "getApproved",
			"outputs": [
				{
					"internalType": "address",
					"name": "",
					"type": "address"
				}
			],
			"stateMutability": "view",
			"type": "function"
		},
		{
			"inputs": [
				{
					"internalType": "address",
					"name": "owner",
					"type": "address"
				},
				{
					"internalType": "address",
					"name": "operator",
					"type": "address"
				}
			],
			"name": "isApprovedForAll",
			"outputs": [
				{
					"internalType": "bool",
					"name": "",
					"type": "bool"
				}
			],
			"stateMutability": "view",
			"type": "function"
		},
		{
			"inputs": [
				{
					"internalType": "address",
					"name": "",
					"type": "address"
				}
			],
			"name": "kip_operator",
			"outputs": [
				{
					"internalType": "bool",
					"name": "",
					"type": "bool"
				}
			],
			"stateMutability": "view",
			"type": "function"
		},
		{
			"inputs": [],
			"name": "name",
			"outputs": [
				{
					"internalType": "string",
					"name": "",
					"type": "string"
				}
			],
			"stateMutability": "view",
			"type": "function"
		},
		{
			"inputs": [],
			"name": "owner",
			"outputs": [
				{
					"internalType": "address",
					"name": "",
					"type": "address"
				}
			],
			"stateMutability": "view",
			"type": "function"
		},
		{
			"inputs": [
				{
					"internalType": "uint256",
					"name": "tokenId",
					"type": "uint256"
				}
			],
			"name": "ownerOf",
			"outputs": [
				{
					"internalType": "address",
					"name": "",
					"type": "address"
				}
			],
			"stateMutability": "view",
			"type": "function"
		},
		{
			"inputs": [
				{
					"internalType": "uint8",
					"name": "tier",
					"type": "uint8"
				},
				{
					"internalType": "address",
					"name": "to",
					"type": "address"
				},
				{
					"internalType": "uint8",
					"name": "_amount",
					"type": "uint8"
				},
				{
					"internalType": "uint8",
					"name": "payment_token",
					"type": "uint8"
				},
				{
					"internalType": "string",
					"name": "_code",
					"type": "string"
				}
			],
			"name": "public_mint",
			"outputs": [],
			"stateMutability": "nonpayable",
			"type": "function"
		},
		{
			"inputs": [],
			"name": "renounceOwnership",
			"outputs": [],
			"stateMutability": "nonpayable",
			"type": "function"
		},
		{
			"inputs": [
				{
					"internalType": "address",
					"name": "from",
					"type": "address"
				},
				{
					"internalType": "address",
					"name": "to",
					"type": "address"
				},
				{
					"internalType": "uint256",
					"name": "tokenId",
					"type": "uint256"
				}
			],
			"name": "safeTransferFrom",
			"outputs": [],
			"stateMutability": "nonpayable",
			"type": "function"
		},
		{
			"inputs": [
				{
					"internalType": "address",
					"name": "from",
					"type": "address"
				},
				{
					"internalType": "address",
					"name": "to",
					"type": "address"
				},
				{
					"internalType": "uint256",
					"name": "tokenId",
					"type": "uint256"
				},
				{
					"internalType": "bytes",
					"name": "data",
					"type": "bytes"
				}
			],
			"name": "safeTransferFrom",
			"outputs": [],
			"stateMutability": "nonpayable",
			"type": "function"
		},
		{
			"inputs": [
				{
					"internalType": "address",
					"name": "operator",
					"type": "address"
				},
				{
					"internalType": "bool",
					"name": "approved",
					"type": "bool"
				}
			],
			"name": "setApprovalForAll",
			"outputs": [],
			"stateMutability": "nonpayable",
			"type": "function"
		},
		{
			"inputs": [
				{
					"internalType": "uint8",
					"name": "tier",
					"type": "uint8"
				},
				{
					"internalType": "uint64",
					"name": "_start",
					"type": "uint64"
				},
				{
					"internalType": "uint64",
					"name": "_end",
					"type": "uint64"
				}
			],
			"name": "setDurationPublic",
			"outputs": [],
			"stateMutability": "nonpayable",
			"type": "function"
		},
		{
			"inputs": [
				{
					"internalType": "uint8",
					"name": "tier",
					"type": "uint8"
				},
				{
					"internalType": "uint64",
					"name": "_start",
					"type": "uint64"
				},
				{
					"internalType": "uint64",
					"name": "_end",
					"type": "uint64"
				}
			],
			"name": "setDurationWhitelist",
			"outputs": [],
			"stateMutability": "nonpayable",
			"type": "function"
		},
		{
			"inputs": [
				{
					"internalType": "address",
					"name": "new_address",
					"type": "address"
				}
			],
			"name": "setKIPFundAddress",
			"outputs": [],
			"stateMutability": "nonpayable",
			"type": "function"
		},
		{
			"inputs": [
				{
					"internalType": "uint16",
					"name": "new_address",
					"type": "uint16"
				}
			],
			"name": "setMaxTierAmount",
			"outputs": [],
			"stateMutability": "nonpayable",
			"type": "function"
		},
		{
			"inputs": [
				{
					"internalType": "uint8",
					"name": "tier",
					"type": "uint8"
				},
				{
					"internalType": "bytes32",
					"name": "_merkleRoot",
					"type": "bytes32"
				}
			],
			"name": "setMerkleRoot",
			"outputs": [],
			"stateMutability": "nonpayable",
			"type": "function"
		},
		{
			"inputs": [
				{
					"internalType": "address",
					"name": "_address",
					"type": "address"
				},
				{
					"internalType": "bool",
					"name": "enabled",
					"type": "bool"
				}
			],
			"name": "setOperator",
			"outputs": [],
			"stateMutability": "nonpayable",
			"type": "function"
		},
		{
			"inputs": [
				{
					"internalType": "uint8",
					"name": "tier",
					"type": "uint8"
				},
				{
					"internalType": "uint256",
					"name": "_price",
					"type": "uint256"
				}
			],
			"name": "setTokenPrice",
			"outputs": [],
			"stateMutability": "nonpayable",
			"type": "function"
		},
		{
			"inputs": [
				{
					"internalType": "string",
					"name": "newuri",
					"type": "string"
				}
			],
			"name": "setTokenURI",
			"outputs": [],
			"stateMutability": "nonpayable",
			"type": "function"
		},
		{
			"inputs": [
				{
					"internalType": "uint8",
					"name": "tier",
					"type": "uint8"
				},
				{
					"internalType": "uint16",
					"name": "_cap_public",
					"type": "uint16"
				},
				{
					"internalType": "uint16",
					"name": "_cap_whitelist",
					"type": "uint16"
				}
			],
			"name": "setTotalCap",
			"outputs": [],
			"stateMutability": "nonpayable",
			"type": "function"
		},
		{
			"inputs": [
				{
					"internalType": "bool",
					"name": "_enabled",
					"type": "bool"
				}
			],
			"name": "setTransferEnabled",
			"outputs": [],
			"stateMutability": "nonpayable",
			"type": "function"
		},
		{
			"inputs": [
				{
					"internalType": "address",
					"name": "newtoken",
					"type": "address"
				}
			],
			"name": "setUsdcToken",
			"outputs": [],
			"stateMutability": "nonpayable",
			"type": "function"
		},
		{
			"inputs": [
				{
					"internalType": "address",
					"name": "newtoken",
					"type": "address"
				}
			],
			"name": "setUsdtToken",
			"outputs": [],
			"stateMutability": "nonpayable",
			"type": "function"
		},
		{
			"inputs": [
				{
					"internalType": "uint8",
					"name": "tier",
					"type": "uint8"
				},
				{
					"internalType": "uint16",
					"name": "_cap_public",
					"type": "uint16"
				}
			],
			"name": "setUserCap",
			"outputs": [],
			"stateMutability": "nonpayable",
			"type": "function"
		},
		{
			"inputs": [
				{
					"internalType": "bytes4",
					"name": "interfaceId",
					"type": "bytes4"
				}
			],
			"name": "supportsInterface",
			"outputs": [
				{
					"internalType": "bool",
					"name": "",
					"type": "bool"
				}
			],
			"stateMutability": "view",
			"type": "function"
		},
		{
			"inputs": [],
			"name": "symbol",
			"outputs": [
				{
					"internalType": "string",
					"name": "",
					"type": "string"
				}
			],
			"stateMutability": "view",
			"type": "function"
		},
		{
			"inputs": [
				{
					"internalType": "uint16",
					"name": "",
					"type": "uint16"
				}
			],
			"name": "tier_end_timestamp_public",
			"outputs": [
				{
					"internalType": "uint64",
					"name": "",
					"type": "uint64"
				}
			],
			"stateMutability": "view",
			"type": "function"
		},
		{
			"inputs": [
				{
					"internalType": "uint16",
					"name": "",
					"type": "uint16"
				}
			],
			"name": "tier_end_timestamp_whitelist",
			"outputs": [
				{
					"internalType": "uint64",
					"name": "",
					"type": "uint64"
				}
			],
			"stateMutability": "view",
			"type": "function"
		},
		{
			"inputs": [
				{
					"internalType": "uint16",
					"name": "",
					"type": "uint16"
				}
			],
			"name": "tier_minted_amounts_public",
			"outputs": [
				{
					"internalType": "uint16",
					"name": "",
					"type": "uint16"
				}
			],
			"stateMutability": "view",
			"type": "function"
		},
		{
			"inputs": [
				{
					"internalType": "uint16",
					"name": "",
					"type": "uint16"
				}
			],
			"name": "tier_minted_amounts_whitelist",
			"outputs": [
				{
					"internalType": "uint16",
					"name": "",
					"type": "uint16"
				}
			],
			"stateMutability": "view",
			"type": "function"
		},
		{
			"inputs": [
				{
					"internalType": "uint16",
					"name": "",
					"type": "uint16"
				}
			],
			"name": "tier_price_per_token",
			"outputs": [
				{
					"internalType": "uint256",
					"name": "",
					"type": "uint256"
				}
			],
			"stateMutability": "view",
			"type": "function"
		},
		{
			"inputs": [
				{
					"internalType": "uint16",
					"name": "",
					"type": "uint16"
				}
			],
			"name": "tier_start_timestamp_public",
			"outputs": [
				{
					"internalType": "uint64",
					"name": "",
					"type": "uint64"
				}
			],
			"stateMutability": "view",
			"type": "function"
		},
		{
			"inputs": [
				{
					"internalType": "uint16",
					"name": "",
					"type": "uint16"
				}
			],
			"name": "tier_start_timestamp_whitelist",
			"outputs": [
				{
					"internalType": "uint64",
					"name": "",
					"type": "uint64"
				}
			],
			"stateMutability": "view",
			"type": "function"
		},
		{
			"inputs": [
				{
					"internalType": "uint16",
					"name": "",
					"type": "uint16"
				}
			],
			"name": "tier_total_cap_public",
			"outputs": [
				{
					"internalType": "uint16",
					"name": "",
					"type": "uint16"
				}
			],
			"stateMutability": "view",
			"type": "function"
		},
		{
			"inputs": [
				{
					"internalType": "uint16",
					"name": "",
					"type": "uint16"
				}
			],
			"name": "tier_total_cap_whitelist",
			"outputs": [
				{
					"internalType": "uint16",
					"name": "",
					"type": "uint16"
				}
			],
			"stateMutability": "view",
			"type": "function"
		},
		{
			"inputs": [
				{
					"internalType": "uint16",
					"name": "",
					"type": "uint16"
				}
			],
			"name": "tier_user_cap_public",
			"outputs": [
				{
					"internalType": "uint16",
					"name": "",
					"type": "uint16"
				}
			],
			"stateMutability": "view",
			"type": "function"
		},
		{
			"inputs": [
				{
					"internalType": "uint16",
					"name": "",
					"type": "uint16"
				}
			],
			"name": "tier_whitelist_merkle_root",
			"outputs": [
				{
					"internalType": "bytes32",
					"name": "",
					"type": "bytes32"
				}
			],
			"stateMutability": "view",
			"type": "function"
		},
		{
			"inputs": [
				{
					"internalType": "uint256",
					"name": "tokenId",
					"type": "uint256"
				}
			],
			"name": "tokenURI",
			"outputs": [
				{
					"internalType": "string",
					"name": "",
					"type": "string"
				}
			],
			"stateMutability": "view",
			"type": "function"
		},
		{
			"inputs": [
				{
					"internalType": "address",
					"name": "from",
					"type": "address"
				},
				{
					"internalType": "address",
					"name": "to",
					"type": "address"
				},
				{
					"internalType": "uint256",
					"name": "tokenId",
					"type": "uint256"
				}
			],
			"name": "transferFrom",
			"outputs": [],
			"stateMutability": "nonpayable",
			"type": "function"
		},
		{
			"inputs": [
				{
					"internalType": "address",
					"name": "newOwner",
					"type": "address"
				}
			],
			"name": "transferOwnership",
			"outputs": [],
			"stateMutability": "nonpayable",
			"type": "function"
		},
		{
			"inputs": [
				{
					"internalType": "uint16",
					"name": "",
					"type": "uint16"
				},
				{
					"internalType": "address",
					"name": "",
					"type": "address"
				}
			],
			"name": "user_minted_amounts_public",
			"outputs": [
				{
					"internalType": "uint256",
					"name": "",
					"type": "uint256"
				}
			],
			"stateMutability": "view",
			"type": "function"
		},
		{
			"inputs": [
				{
					"internalType": "uint16",
					"name": "",
					"type": "uint16"
				},
				{
					"internalType": "address",
					"name": "",
					"type": "address"
				}
			],
			"name": "user_minted_amounts_whitelist",
			"outputs": [
				{
					"internalType": "uint256",
					"name": "",
					"type": "uint256"
				}
			],
			"stateMutability": "view",
			"type": "function"
		},
		{
			"inputs": [
				{
					"internalType": "uint8",
					"name": "tier",
					"type": "uint8"
				},
				{
					"internalType": "address",
					"name": "to",
					"type": "address"
				},
				{
					"internalType": "uint8",
					"name": "_amount",
					"type": "uint8"
				},
				{
					"internalType": "uint256",
					"name": "_maxAmount",
					"type": "uint256"
				},
				{
					"internalType": "bytes32[]",
					"name": "_merkleProof",
					"type": "bytes32[]"
				}
			],
			"name": "whitelist_mint",
			"outputs": [],
			"stateMutability": "nonpayable",
			"type": "function"
		}
	]
}